{
  "contractName": "Accessible",
  "abi": [
    {
      "inputs": [],
      "stateMutability": "nonpayable",
      "type": "constructor"
    },
    {
      "anonymous": false,
      "inputs": [
        {
          "indexed": true,
          "internalType": "address",
          "name": "previousOwner",
          "type": "address"
        },
        {
          "indexed": true,
          "internalType": "address",
          "name": "newOwner",
          "type": "address"
        }
      ],
      "name": "OwnershipTransferred",
      "type": "event"
    },
    {
      "inputs": [
        {
          "internalType": "uint256",
          "name": "",
          "type": "uint256"
        }
      ],
      "name": "access",
      "outputs": [
        {
          "internalType": "address",
          "name": "",
          "type": "address"
        }
      ],
      "stateMutability": "view",
      "type": "function"
    },
    {
      "inputs": [],
      "name": "contractCreator",
      "outputs": [
        {
          "internalType": "address",
          "name": "",
          "type": "address"
        }
      ],
      "stateMutability": "view",
      "type": "function"
    },
    {
      "inputs": [],
      "name": "owner",
      "outputs": [
        {
          "internalType": "address",
          "name": "",
          "type": "address"
        }
      ],
      "stateMutability": "view",
      "type": "function"
    },
    {
      "inputs": [],
      "name": "renounceOwnership",
      "outputs": [],
      "stateMutability": "nonpayable",
      "type": "function"
    },
    {
      "inputs": [
        {
          "internalType": "address",
          "name": "newOwner",
          "type": "address"
        }
      ],
      "name": "transferOwnership",
      "outputs": [],
      "stateMutability": "nonpayable",
      "type": "function"
    },
    {
      "inputs": [],
      "name": "checkAccess",
      "outputs": [
        {
          "internalType": "bool",
          "name": "",
          "type": "bool"
        }
      ],
      "stateMutability": "view",
      "type": "function"
    },
    {
      "inputs": [
        {
          "internalType": "address",
          "name": "addy",
          "type": "address"
        }
      ],
      "name": "checkAccessAddy",
      "outputs": [
        {
          "internalType": "bool",
          "name": "",
          "type": "bool"
        }
      ],
      "stateMutability": "view",
      "type": "function"
    },
    {
      "inputs": [
        {
          "internalType": "address",
          "name": "addr",
          "type": "address"
        }
      ],
      "name": "removeAccess",
      "outputs": [
        {
          "internalType": "bool",
          "name": "success",
          "type": "bool"
        }
      ],
      "stateMutability": "nonpayable",
      "type": "function"
    },
    {
      "inputs": [
        {
          "internalType": "address",
          "name": "addr",
          "type": "address"
        }
      ],
      "name": "addAccess",
      "outputs": [
        {
          "internalType": "bool",
          "name": "",
          "type": "bool"
        }
      ],
      "stateMutability": "nonpayable",
      "type": "function"
    }
  ],
  "bytecode": "0x608060405234801561001057600080fd5b5060006100246401000000006100c2810204565b60008054600160a060020a038316600160a060020a031991821681178355600180549092163317909155604051929350917f8be0079c531659141344cd1fd0a4f28419497f9722a3daafe3b4186f6b6457e0908290a350600280546001810182556000919091527f405787fa12a823e0f2b7631cc41b3ba8828b3321ca811111fa75cd3aa3bb5ace018054600160a060020a031916331790556100c6565b3390565b61064c806100d56000396000f3fe608060405234801561001057600080fd5b50600436106100b0576000357c0100000000000000000000000000000000000000000000000000000000900480638da5cb5b116100835780638da5cb5b1461013a578063a118f24914610142578063cec7003814610168578063ecb101351461018e578063f2fde38b14610196576100b0565b80631e2f73b1146100b5578063715018a6146100d9578063803ad4de146100e35780638823da6c14610100575b600080fd5b6100bd6101bc565b60408051600160a060020a039092168252519081900360200190f35b6100e16101cb565b005b6100bd600480360360208110156100f957600080fd5b50356102a6565b6101266004803603602081101561011657600080fd5b5035600160a060020a03166102d0565b604080519115158252519081900360200190f35b6100bd61037c565b6101266004803603602081101561015857600080fd5b5035600160a060020a031661038b565b6101266004803603602081101561017e57600080fd5b5035600160a060020a0316610469565b6101266104b5565b6100e1600480360360208110156101ac57600080fd5b5035600160a060020a03166104cf565b600154600160a060020a031681565b6101d36105ec565b600054600160a060020a03908116911614610238576040805160e560020a62461bcd02815260206004820181905260248201527f4f776e61626c653a2063616c6c6572206973206e6f7420746865206f776e6572604482015290519081900360640190fd5b60015460008054604051600160a060020a0393841693909116917f8be0079c531659141344cd1fd0a4f28419497f9722a3daafe3b4186f6b6457e091a36001546000805473ffffffffffffffffffffffffffffffffffffffff1916600160a060020a03909216919091179055565b600281815481106102b657600080fd5b600091825260209091200154600160a060020a0316905081565b60006102da6104b5565b6102e357600080fd5b60005b60025481101561037157600281815481106102fd57fe5b600091825260209091200154600160a060020a0384811691161415610369576002818154811061032957fe5b6000918252602090912001805473ffffffffffffffffffffffffffffffffffffffff1916905561035883610469565b1561035f57fe5b6001915050610377565b6001016102e6565b50600090505b919050565b600054600160a060020a031690565b60006103956105ec565b600054600160a060020a039081169116146103fa576040805160e560020a62461bcd02815260206004820181905260248201527f4f776e61626c653a2063616c6c6572206973206e6f7420746865206f776e6572604482015290519081900360640190fd5b600280546001810182556000919091527f405787fa12a823e0f2b7631cc41b3ba8828b3321ca811111fa75cd3aa3bb5ace01805473ffffffffffffffffffffffffffffffffffffffff1916600160a060020a03841617905561045b82610469565b61046157fe5b506001919050565b6000805b600254811015610371576002818154811061048457fe5b600091825260209091200154600160a060020a03848116911614156104ad576001915050610377565b60010161046d565b60006104c033610469565b6104c957600080fd5b50600090565b6104d76105ec565b600054600160a060020a0390811691161461053c576040805160e560020a62461bcd02815260206004820181905260248201527f4f776e61626c653a2063616c6c6572206973206e6f7420746865206f776e6572604482015290519081900360640190fd5b600160a060020a0381166105845760405160e560020a62461bcd0281526004018080602001828103825260268152602001806105f16026913960400191505060405180910390fd5b60008054604051600160a060020a03808516939216917f8be0079c531659141344cd1fd0a4f28419497f9722a3daafe3b4186f6b6457e091a36000805473ffffffffffffffffffffffffffffffffffffffff1916600160a060020a0392909216919091179055565b339056fe4f776e61626c653a206e6577206f776e657220697320746865207a65726f2061646472657373a2646970667358221220b6ab08068b6670c95c811845c966c1f98a737ea9ea5d0a4a74e7fbaa834bf5b464736f6c63430007060033",
  "immutableReferences": {},
  "source": "// SPDX-License-Identifier: MIT\r\npragma solidity >=0.4.22 <0.8.0;\r\n\r\nimport \"./Ownable.sol\";\r\n\r\ncontract Accessible is Ownable {\r\n    address[] public access;\r\n    \r\n    constructor() {\r\n        access.push(msg.sender);\r\n    }\r\n    \r\n     modifier hasAccess() {\r\n        require(checkAccess());\r\n        _;\r\n    }\r\n    \r\n    function checkAccess() public view returns (bool) {\r\n        require(checkAccessAddy(msg.sender));\r\n        return false;\r\n    }\r\n    \r\n    function checkAccessAddy(address addy) public view returns (bool) {\r\n        for (uint i = 0; i < access.length; i++) {\r\n            if (addy == access[i]) {\r\n                return true;\r\n            }\r\n        }\r\n        return false;\r\n    }\r\n    \r\n    function removeAccess(address addr) public hasAccess returns (bool success) {\r\n        for (uint i = 0; i < access.length; i++) {\r\n            if (addr == access[i]) {\r\n                delete access[i];\r\n                assert(!checkAccessAddy(addr));\r\n                return true;\r\n            }\r\n        }\r\n        return false;\r\n    }\r\n    \r\n    function addAccess(address addr) public onlyOwner returns (bool) {\r\n        access.push(addr);\r\n        assert(checkAccessAddy(addr));\r\n        return true;\r\n    }\r\n}",
  "sourcePath": "C:\\Users\\harri\\OneDrive\\Documents\\EquilibriaWagers\\eth-equilibria\\truffle\\contracts\\tools\\Accessible.sol",
  "compiler": {
    "name": "solc",
    "version": "0.7.6+commit.7338295f.Emscripten.clang"
  },
  "schemaVersion": "3.3.3",
  "updatedAt": "2021-01-09T01:02:38.355Z",
  "devdoc": {
    "kind": "dev",
    "methods": {},
    "version": 1
  },
  "userdoc": {
    "kind": "user",
    "methods": {},
    "version": 1
  }
}