{
  "contractName": "DataStorage",
  "abi": [
    {
      "inputs": [],
      "stateMutability": "nonpayable",
      "type": "constructor"
    },
    {
      "inputs": [
        {
          "internalType": "address",
          "name": "",
          "type": "address"
        },
        {
          "internalType": "address",
          "name": "",
          "type": "address"
        }
      ],
      "name": "_allowed",
      "outputs": [
        {
          "internalType": "uint256",
          "name": "",
          "type": "uint256"
        }
      ],
      "stateMutability": "view",
      "type": "function"
    },
    {
      "inputs": [
        {
          "internalType": "address",
          "name": "",
          "type": "address"
        }
      ],
      "name": "_balances",
      "outputs": [
        {
          "internalType": "uint256",
          "name": "",
          "type": "uint256"
        }
      ],
      "stateMutability": "view",
      "type": "function"
    },
    {
      "inputs": [],
      "name": "_totalSupply",
      "outputs": [
        {
          "internalType": "uint256",
          "name": "",
          "type": "uint256"
        }
      ],
      "stateMutability": "view",
      "type": "function"
    },
    {
      "inputs": [],
      "name": "checkAccess",
      "outputs": [
        {
          "internalType": "bool",
          "name": "",
          "type": "bool"
        }
      ],
      "stateMutability": "nonpayable",
      "type": "function"
    },
    {
      "inputs": [],
      "name": "masterContract",
      "outputs": [
        {
          "internalType": "address",
          "name": "",
          "type": "address"
        }
      ],
      "stateMutability": "view",
      "type": "function"
    },
    {
      "inputs": [
        {
          "internalType": "address",
          "name": "addy",
          "type": "address"
        }
      ],
      "name": "newMaster",
      "outputs": [
        {
          "internalType": "bool",
          "name": "",
          "type": "bool"
        }
      ],
      "stateMutability": "view",
      "type": "function"
    },
    {
      "inputs": [],
      "name": "getStakingMultiplier",
      "outputs": [
        {
          "internalType": "uint256",
          "name": "",
          "type": "uint256"
        }
      ],
      "stateMutability": "view",
      "type": "function"
    },
    {
      "inputs": [
        {
          "internalType": "uint256",
          "name": "mul",
          "type": "uint256"
        }
      ],
      "name": "changeStakingMultiplier",
      "outputs": [
        {
          "internalType": "bool",
          "name": "",
          "type": "bool"
        }
      ],
      "stateMutability": "nonpayable",
      "type": "function"
    },
    {
      "inputs": [],
      "name": "getStakignPoolAddition",
      "outputs": [
        {
          "internalType": "uint256",
          "name": "",
          "type": "uint256"
        }
      ],
      "stateMutability": "view",
      "type": "function"
    },
    {
      "inputs": [],
      "name": "softStakingRequirement",
      "outputs": [
        {
          "internalType": "uint256",
          "name": "",
          "type": "uint256"
        }
      ],
      "stateMutability": "view",
      "type": "function"
    },
    {
      "inputs": [],
      "name": "stakingRequirement",
      "outputs": [
        {
          "internalType": "uint256",
          "name": "",
          "type": "uint256"
        }
      ],
      "stateMutability": "view",
      "type": "function"
    },
    {
      "inputs": [
        {
          "internalType": "uint256",
          "name": "val",
          "type": "uint256"
        }
      ],
      "name": "updateStakingRequirement",
      "outputs": [
        {
          "internalType": "bool",
          "name": "",
          "type": "bool"
        }
      ],
      "stateMutability": "nonpayable",
      "type": "function"
    },
    {
      "inputs": [],
      "name": "totalSupply",
      "outputs": [
        {
          "internalType": "uint256",
          "name": "",
          "type": "uint256"
        }
      ],
      "stateMutability": "view",
      "type": "function"
    },
    {
      "inputs": [
        {
          "internalType": "address",
          "name": "_owner",
          "type": "address"
        }
      ],
      "name": "balanceOf",
      "outputs": [
        {
          "internalType": "uint256",
          "name": "",
          "type": "uint256"
        }
      ],
      "stateMutability": "view",
      "type": "function"
    },
    {
      "inputs": [
        {
          "internalType": "address",
          "name": "owner",
          "type": "address"
        },
        {
          "internalType": "address",
          "name": "spender",
          "type": "address"
        }
      ],
      "name": "allowance",
      "outputs": [
        {
          "internalType": "uint256",
          "name": "",
          "type": "uint256"
        }
      ],
      "stateMutability": "view",
      "type": "function"
    },
    {
      "inputs": [
        {
          "internalType": "address",
          "name": "node",
          "type": "address"
        }
      ],
      "name": "addNode",
      "outputs": [
        {
          "internalType": "bool",
          "name": "",
          "type": "bool"
        }
      ],
      "stateMutability": "nonpayable",
      "type": "function"
    },
    {
      "inputs": [
        {
          "internalType": "address",
          "name": "node",
          "type": "address"
        }
      ],
      "name": "removeNode",
      "outputs": [
        {
          "internalType": "bool",
          "name": "success",
          "type": "bool"
        }
      ],
      "stateMutability": "nonpayable",
      "type": "function"
    },
    {
      "inputs": [
        {
          "internalType": "address",
          "name": "node",
          "type": "address"
        }
      ],
      "name": "isValidNode",
      "outputs": [
        {
          "internalType": "bool",
          "name": "",
          "type": "bool"
        }
      ],
      "stateMutability": "view",
      "type": "function"
    },
    {
      "inputs": [
        {
          "internalType": "uint256",
          "name": "val",
          "type": "uint256"
        }
      ],
      "name": "updateSupply",
      "outputs": [
        {
          "internalType": "uint256",
          "name": "",
          "type": "uint256"
        }
      ],
      "stateMutability": "nonpayable",
      "type": "function"
    },
    {
      "inputs": [
        {
          "internalType": "address",
          "name": "user",
          "type": "address"
        },
        {
          "internalType": "uint256",
          "name": "balances",
          "type": "uint256"
        }
      ],
      "name": "updateBalance",
      "outputs": [
        {
          "internalType": "uint256",
          "name": "",
          "type": "uint256"
        },
        {
          "internalType": "uint256",
          "name": "",
          "type": "uint256"
        }
      ],
      "stateMutability": "nonpayable",
      "type": "function"
    },
    {
      "inputs": [
        {
          "internalType": "address",
          "name": "_from",
          "type": "address"
        },
        {
          "internalType": "address",
          "name": "to",
          "type": "address"
        },
        {
          "internalType": "uint256",
          "name": "allowed",
          "type": "uint256"
        }
      ],
      "name": "updateAllowed",
      "outputs": [
        {
          "internalType": "uint256",
          "name": "",
          "type": "uint256"
        },
        {
          "internalType": "uint256",
          "name": "",
          "type": "uint256"
        }
      ],
      "stateMutability": "nonpayable",
      "type": "function"
    }
  ],
  "bytecode": "0x60806040523480156200001157600080fd5b50336000806101000a81548173ffffffffffffffffffffffffffffffffffffffff021916908373ffffffffffffffffffffffffffffffffffffffff1602179055506001600681905550620000a3620000836012600a620001f96401000000000262000e51179091906401000000009004565b6109c46200028f6401000000000262000ecd179091906401000000009004565b600781905550620000f2620000d26012600a620001f96401000000000262000e51179091906401000000009004565b6102d06200028f6401000000000262000ecd179091906401000000009004565b60098190555060016008819055506200014b620001296012600a620001f96401000000000262000e51179091906401000000009004565b633b9aca006200028f6401000000000262000ecd179091906401000000009004565b60026000735b38da6a701c568545dcfcb03fcb875f56beddc473ffffffffffffffffffffffffffffffffffffffff1673ffffffffffffffffffffffffffffffffffffffff16815260200190815260200160002081905550620001ed620001cb6012600a620001f96401000000000262000e51179091906401000000009004565b633b9aca006200028f6401000000000262000ecd179091906401000000009004565b600181905550620002cd565b6000808214156200020e576001905062000289565b6001821415620002215782905062000289565b60008314801562000233575060008214155b1562000243576000905062000289565b60008390506000600190505b8381101562000283576200027382866200028f640100000000026401000000009004565b915080806001019150506200024f565b50809150505b92915050565b600080831415620002a45760009050620002c7565b6000828402905082848281620002b657fe5b0414620002c257600080fd5b809150505b92915050565b610f3d80620002dd6000396000f3fe608060405234801561001057600080fd5b5060043610610154576000357c0100000000000000000000000000000000000000000000000000000000900480638206cdb5116100d5578063ba0fb86111610099578063ba0fb8611461055a578063cd446e22146105d2578063dd62ed3e14610606578063e0b1cccb1461067e578063ecb10135146106e7578063f31524b01461070757610154565b80638206cdb5146103ea5780639d95f1cc146104085780639ebd11ef14610462578063b2b99ec9146104bc578063b8d4f96e1461051657610154565b806356d399e81161011c57806356d399e8146102bc5780636bd08049146102da5780636ebcf6071461031c57806370a0823114610374578063743ea827146103cc57610154565b806318160ddd146101595780633eaaf86b14610177578063462dcfa01461019557806349a3d2bb146101ef57806354eb31b214610278575b600080fd5b610161610725565b6040518082815260200191505060405180910390f35b61017f61072f565b6040518082815260200191505060405180910390f35b6101d7600480360360208110156101ab57600080fd5b81019080803573ffffffffffffffffffffffffffffffffffffffff169060200190929190505050610735565b60405180821515815260200191505060405180910390f35b61025b6004803603606081101561020557600080fd5b81019080803573ffffffffffffffffffffffffffffffffffffffff169060200190929190803573ffffffffffffffffffffffffffffffffffffffff1690602001909291908035906020019092919050505061080e565b604051808381526020018281526020019250505060405180910390f35b6102a46004803603602081101561028e57600080fd5b810190808035906020019092919050505061092f565b60405180821515815260200191505060405180910390f35b6102c461095d565b6040518082815260200191505060405180910390f35b610306600480360360208110156102f057600080fd5b8101908080359060200190929190505050610967565b6040518082815260200191505060405180910390f35b61035e6004803603602081101561033257600080fd5b81019080803573ffffffffffffffffffffffffffffffffffffffff16906020019092919050505061098b565b6040518082815260200191505060405180910390f35b6103b66004803603602081101561038a57600080fd5b81019080803573ffffffffffffffffffffffffffffffffffffffff1690602001909291905050506109a3565b6040518082815260200191505060405180910390f35b6103d46109ec565b6040518082815260200191505060405180910390f35b6103f26109f6565b6040518082815260200191505060405180910390f35b61044a6004803603602081101561041e57600080fd5b81019080803573ffffffffffffffffffffffffffffffffffffffff169060200190929190505050610a00565b60405180821515815260200191505060405180910390f35b6104a46004803603602081101561047857600080fd5b81019080803573ffffffffffffffffffffffffffffffffffffffff169060200190929190505050610a7f565b60405180821515815260200191505060405180910390f35b6104fe600480360360208110156104d257600080fd5b81019080803573ffffffffffffffffffffffffffffffffffffffff169060200190929190505050610ad5565b60405180821515815260200191505060405180910390f35b6105426004803603602081101561052c57600080fd5b8101908080359060200190929190505050610b49565b60405180821515815260200191505060405180910390f35b6105bc6004803603604081101561057057600080fd5b81019080803573ffffffffffffffffffffffffffffffffffffffff169060200190929190803573ffffffffffffffffffffffffffffffffffffffff169060200190929190505050610b5b565b6040518082815260200191505060405180910390f35b6105da610b80565b604051808273ffffffffffffffffffffffffffffffffffffffff16815260200191505060405180910390f35b6106686004803603604081101561061c57600080fd5b81019080803573ffffffffffffffffffffffffffffffffffffffff169060200190929190803573ffffffffffffffffffffffffffffffffffffffff169060200190929190505050610ba4565b6040518082815260200191505060405180910390f35b6106ca6004803603604081101561069457600080fd5b81019080803573ffffffffffffffffffffffffffffffffffffffff16906020019092919080359060200190929190505050610c2b565b604051808381526020018281526020019250505060405180910390f35b6106ef610cd1565b60405180821515815260200191505060405180910390f35b61070f610e47565b6040518082815260200191505060405180910390f35b6000600154905090565b60015481565b60008060009054906101000a900473ffffffffffffffffffffffffffffffffffffffff1673ffffffffffffffffffffffffffffffffffffffff163373ffffffffffffffffffffffffffffffffffffffff161461079057600080fd5b8173ffffffffffffffffffffffffffffffffffffffff1660008054906101000a9050505060008054906101000a900473ffffffffffffffffffffffffffffffffffffffff1673ffffffffffffffffffffffffffffffffffffffff168273ffffffffffffffffffffffffffffffffffffffff161461080957fe5b919050565b600080610819610cd1565b61082257600080fd5b82600360008773ffffffffffffffffffffffffffffffffffffffff1673ffffffffffffffffffffffffffffffffffffffff16815260200190815260200160002060008673ffffffffffffffffffffffffffffffffffffffff1673ffffffffffffffffffffffffffffffffffffffff16815260200190815260200160002081905550600360008673ffffffffffffffffffffffffffffffffffffffff1673ffffffffffffffffffffffffffffffffffffffff16815260200190815260200160002060008573ffffffffffffffffffffffffffffffffffffffff1673ffffffffffffffffffffffffffffffffffffffff1681526020019081526020016000205460015491509150935093915050565b6000610939610cd1565b61094257600080fd5b81600681905550600654821461095457fe5b60019050919050565b6000600654905090565b6000610971610cd1565b61097a57600080fd5b816001819055506001549050919050565b60026020528060005260406000206000915090505481565b6000600260008373ffffffffffffffffffffffffffffffffffffffff1673ffffffffffffffffffffffffffffffffffffffff168152602001908152602001600020549050919050565b6000600954905090565b6000600754905090565b6000610a0a610cd1565b610a1357600080fd5b6001600460008473ffffffffffffffffffffffffffffffffffffffff1673ffffffffffffffffffffffffffffffffffffffff16815260200190815260200160002060006101000a81548160ff021916908315150217905550610a7482610a7f565b610a7a57fe5b919050565b6000600460008373ffffffffffffffffffffffffffffffffffffffff1673ffffffffffffffffffffffffffffffffffffffff16815260200190815260200160002060009054906101000a900460ff169050919050565b6000610adf610cd1565b610ae857600080fd5b6000600460008473ffffffffffffffffffffffffffffffffffffffff1673ffffffffffffffffffffffffffffffffffffffff16815260200190815260200160002060006101000a81548160ff02191690831515021790555060009050919050565b60008160088190555060019050919050565b6003602052816000526040600020602052806000526040600020600091509150505481565b60008054906101000a900473ffffffffffffffffffffffffffffffffffffffff1681565b6000600360008473ffffffffffffffffffffffffffffffffffffffff1673ffffffffffffffffffffffffffffffffffffffff16815260200190815260200160002060008373ffffffffffffffffffffffffffffffffffffffff1673ffffffffffffffffffffffffffffffffffffffff16815260200190815260200160002054905092915050565b600080610c36610cd1565b610c3f57600080fd5b82600260008673ffffffffffffffffffffffffffffffffffffffff1673ffffffffffffffffffffffffffffffffffffffff16815260200190815260200160002081905550600260008573ffffffffffffffffffffffffffffffffffffffff1673ffffffffffffffffffffffffffffffffffffffff16815260200190815260200160002054600154915091509250929050565b6000806040516024016040516020818303038152906040527fecb10135000000000000000000000000000000000000000000000000000000007bffffffffffffffffffffffffffffffffffffffffffffffffffffffff19166020820180517bffffffffffffffffffffffffffffffffffffffffffffffffffffffff8381831617835250505050905060008060008054906101000a900473ffffffffffffffffffffffffffffffffffffffff1673ffffffffffffffffffffffffffffffffffffffff16836040518082805190602001908083835b60208310610dc75780518252602082019150602081019050602083039250610da4565b6001836020036101000a0380198251168184511680821785525050505050509050019150506000604051808303816000865af19150503d8060008114610e29576040519150601f19603f3d011682016040523d82523d6000602084013e610e2e565b606091505b509150915081610e3d57600080fd5b6001935050505090565b6000600854905090565b600080821415610e645760019050610ec7565b6001821415610e7557829050610ec7565b600083148015610e86575060008214155b15610e945760009050610ec7565b60008390506000600190505b83811015610ec157610eb28286610ecd565b91508080600101915050610ea0565b50809150505b92915050565b600080831415610ee05760009050610f01565b6000828402905082848281610ef157fe5b0414610efc57600080fd5b809150505b9291505056fea2646970667358221220578c48ebc8c3c2cc82e16e6c3692ce18bc31fe7f37ec4baf5821022ffd847c5564736f6c63430007060033",
  "immutableReferences": {},
  "source": "// SPDX-License-Identifier: MIT\npragma solidity >=0.4.22 <0.8.0;\n\nimport \"./ExternalAccessible.sol\";\nimport \"./SafeMath.sol\";\n\ncontract DataStorage is ExternalAccessible {\n    using SafeMath for *;\n    uint256 public _totalSupply;\n    mapping(address => uint256) public _balances;\n    mapping(address => mapping(address => uint256)) public _allowed;\n    mapping(address => bool) nodes;\n    mapping(address => uint256) lockedBalance;\n    // Master masterContract;\n    uint256 stakingReq;\n    uint256 softStakingReq;\n    uint stakingMultiplier;\n    uint256 stakingPoolAddition;\n    constructor() {\n        masterContract = msg.sender;\n        stakingReq = 1;\n        softStakingReq = 2500.mul(10.pow(18));\n        stakingPoolAddition = 720.mul(10.pow(18));\n        stakingMultiplier = 1;\n        \n        // testmoney\n        _balances[address(0x5B38Da6a701c568545dCfcB03FcB875f56beddC4)] = 1000000000.mul(10.pow(18));\n        _totalSupply = 1000000000.mul(10.pow(18));\n    }\n    \n    function getStakingMultiplier() public view returns (uint256) {\n        return stakingMultiplier;\n    }\n    \n    function changeStakingMultiplier(uint256 mul) public returns (bool) {\n        stakingMultiplier = mul;\n        return true;\n    }\n    \n    function getStakignPoolAddition() public view returns (uint256) {\n        return stakingPoolAddition;\n    }\n    \n    function softStakingRequirement() public view returns (uint256) {\n        return softStakingReq;\n    }\n    \n    function stakingRequirement() public view returns (uint256) {\n        return stakingReq;\n    }\n    \n    function updateStakingRequirement(uint256 val) public returns (bool) {\n        require(checkAccess());\n        stakingReq = val;\n        assert(val == stakingReq);\n        return true;\n    }\n    \n     function totalSupply() public view returns (uint256) {\n        return _totalSupply;\n    }\n\n    function balanceOf(address _owner) public view returns (uint256) {\n        return _balances[_owner];\n    }\n    \n    function allowance(address owner, address spender) public view returns (uint256) {\n        return _allowed[owner][spender];\n    }\n    \n    function addNode(address node) external hasAccess returns (bool) {\n        nodes[node] = true;\n        assert(isValidNode(node));\n    }\n    \n    function removeNode(address node) public hasAccess returns (bool success) {\n        nodes[node] = false;\n        return false;\n    }\n    \n    function isValidNode(address node) public view returns (bool) {\n        return nodes[node];\n    }\n    \n    function updateSupply(uint256 val) external hasAccess returns (uint256) {\n        _totalSupply = val;\n        return _totalSupply;\n    }\n    \n    function updateBalance(address user, uint256 balances) external hasAccess returns (uint256, uint256) {\n        _balances[user] = balances;\n        return (_balances[user], _totalSupply);\n    }\n    \n    function updateAllowed(address _from, address to, uint256 allowed) external hasAccess returns (uint256, uint256) {\n        _allowed[_from][to] = allowed;\n        return (_allowed[_from][to], _totalSupply);\n    }\n}\n",
  "sourcePath": "D:\\testwxeqfront\\drizzle-react-tutorial\\contracts\\tools\\DataStorage.sol",
  "compiler": {
    "name": "solc",
    "version": "0.7.6+commit.7338295f.Emscripten.clang"
  },
  "schemaVersion": "3.3.3",
  "updatedAt": "2021-01-07T02:06:52.262Z",
  "devdoc": {
    "kind": "dev",
    "methods": {},
    "version": 1
  },
  "userdoc": {
    "kind": "user",
    "methods": {},
    "version": 1
  }
}