{
  "contractName": "DataStorage",
  "abi": [
    {
      "inputs": [
        {
          "internalType": "address",
          "name": "m",
          "type": "address"
        }
      ],
      "stateMutability": "nonpayable",
      "type": "constructor"
    },
    {
      "inputs": [
        {
          "internalType": "address",
          "name": "",
          "type": "address"
        },
        {
          "internalType": "address",
          "name": "",
          "type": "address"
        }
      ],
      "name": "_allowed",
      "outputs": [
        {
          "internalType": "uint256",
          "name": "",
          "type": "uint256"
        }
      ],
      "stateMutability": "view",
      "type": "function"
    },
    {
      "inputs": [
        {
          "internalType": "address",
          "name": "",
          "type": "address"
        }
      ],
      "name": "_balances",
      "outputs": [
        {
          "internalType": "uint256",
          "name": "",
          "type": "uint256"
        }
      ],
      "stateMutability": "view",
      "type": "function"
    },
    {
      "inputs": [],
      "name": "_totalSupply",
      "outputs": [
        {
          "internalType": "uint256",
          "name": "",
          "type": "uint256"
        }
      ],
      "stateMutability": "view",
      "type": "function"
    },
    {
      "inputs": [],
      "name": "checkAccess",
      "outputs": [
        {
          "internalType": "bool",
          "name": "",
          "type": "bool"
        }
      ],
      "stateMutability": "nonpayable",
      "type": "function"
    },
    {
      "inputs": [],
      "name": "masterContract",
      "outputs": [
        {
          "internalType": "address",
          "name": "",
          "type": "address"
        }
      ],
      "stateMutability": "view",
      "type": "function"
    },
    {
      "inputs": [
        {
          "internalType": "address",
          "name": "addy",
          "type": "address"
        }
      ],
      "name": "newMaster",
      "outputs": [
        {
          "internalType": "bool",
          "name": "",
          "type": "bool"
        }
      ],
      "stateMutability": "view",
      "type": "function"
    },
    {
      "inputs": [],
      "name": "getStakingMultiplier",
      "outputs": [
        {
          "internalType": "uint256",
          "name": "",
          "type": "uint256"
        }
      ],
      "stateMutability": "view",
      "type": "function"
    },
    {
      "inputs": [
        {
          "internalType": "uint256",
          "name": "mul",
          "type": "uint256"
        }
      ],
      "name": "changeStakingMultiplier",
      "outputs": [
        {
          "internalType": "bool",
          "name": "",
          "type": "bool"
        }
      ],
      "stateMutability": "nonpayable",
      "type": "function"
    },
    {
      "inputs": [],
      "name": "getStakignPoolAddition",
      "outputs": [
        {
          "internalType": "uint256",
          "name": "",
          "type": "uint256"
        }
      ],
      "stateMutability": "view",
      "type": "function"
    },
    {
      "inputs": [],
      "name": "softStakingRequirement",
      "outputs": [
        {
          "internalType": "uint256",
          "name": "",
          "type": "uint256"
        }
      ],
      "stateMutability": "view",
      "type": "function"
    },
    {
      "inputs": [],
      "name": "stakingRequirement",
      "outputs": [
        {
          "internalType": "uint256",
          "name": "",
          "type": "uint256"
        }
      ],
      "stateMutability": "view",
      "type": "function"
    },
    {
      "inputs": [
        {
          "internalType": "uint256",
          "name": "val",
          "type": "uint256"
        }
      ],
      "name": "updateStakingRequirement",
      "outputs": [
        {
          "internalType": "bool",
          "name": "",
          "type": "bool"
        }
      ],
      "stateMutability": "nonpayable",
      "type": "function"
    },
    {
      "inputs": [],
      "name": "totalSupply",
      "outputs": [
        {
          "internalType": "uint256",
          "name": "",
          "type": "uint256"
        }
      ],
      "stateMutability": "view",
      "type": "function"
    },
    {
      "inputs": [
        {
          "internalType": "address",
          "name": "_owner",
          "type": "address"
        }
      ],
      "name": "balanceOf",
      "outputs": [
        {
          "internalType": "uint256",
          "name": "",
          "type": "uint256"
        }
      ],
      "stateMutability": "view",
      "type": "function"
    },
    {
      "inputs": [
        {
          "internalType": "address",
          "name": "owner",
          "type": "address"
        },
        {
          "internalType": "address",
          "name": "spender",
          "type": "address"
        }
      ],
      "name": "allowance",
      "outputs": [
        {
          "internalType": "uint256",
          "name": "",
          "type": "uint256"
        }
      ],
      "stateMutability": "view",
      "type": "function"
    },
    {
      "inputs": [
        {
          "internalType": "address",
          "name": "node",
          "type": "address"
        }
      ],
      "name": "addNode",
      "outputs": [
        {
          "internalType": "bool",
          "name": "",
          "type": "bool"
        }
      ],
      "stateMutability": "nonpayable",
      "type": "function"
    },
    {
      "inputs": [
        {
          "internalType": "address",
          "name": "node",
          "type": "address"
        }
      ],
      "name": "removeNode",
      "outputs": [
        {
          "internalType": "bool",
          "name": "success",
          "type": "bool"
        }
      ],
      "stateMutability": "nonpayable",
      "type": "function"
    },
    {
      "inputs": [
        {
          "internalType": "address",
          "name": "node",
          "type": "address"
        }
      ],
      "name": "isValidNode",
      "outputs": [
        {
          "internalType": "bool",
          "name": "",
          "type": "bool"
        }
      ],
      "stateMutability": "view",
      "type": "function"
    },
    {
      "inputs": [
        {
          "internalType": "uint256",
          "name": "val",
          "type": "uint256"
        }
      ],
      "name": "updateSupply",
      "outputs": [
        {
          "internalType": "uint256",
          "name": "",
          "type": "uint256"
        }
      ],
      "stateMutability": "nonpayable",
      "type": "function"
    },
    {
      "inputs": [
        {
          "internalType": "address",
          "name": "user",
          "type": "address"
        },
        {
          "internalType": "uint256",
          "name": "balances",
          "type": "uint256"
        }
      ],
      "name": "updateBalance",
      "outputs": [
        {
          "internalType": "uint256",
          "name": "",
          "type": "uint256"
        },
        {
          "internalType": "uint256",
          "name": "",
          "type": "uint256"
        }
      ],
      "stateMutability": "nonpayable",
      "type": "function"
    },
    {
      "inputs": [
        {
          "internalType": "address",
          "name": "_from",
          "type": "address"
        },
        {
          "internalType": "address",
          "name": "to",
          "type": "address"
        },
        {
          "internalType": "uint256",
          "name": "allowed",
          "type": "uint256"
        }
      ],
      "name": "updateAllowed",
      "outputs": [
        {
          "internalType": "uint256",
          "name": "",
          "type": "uint256"
        },
        {
          "internalType": "uint256",
          "name": "",
          "type": "uint256"
        }
      ],
      "stateMutability": "nonpayable",
      "type": "function"
    }
  ],
  "bytecode": "0x60806040523480156200001157600080fd5b50604051620012a3380380620012a3833981810160405260208110156200003757600080fd5b8101908080519060200190929190505050806000806101000a81548173ffffffffffffffffffffffffffffffffffffffff021916908373ffffffffffffffffffffffffffffffffffffffff1602179055506001600681905550620000d9620000b96012600a6200022e6401000000000262000ea5179091906401000000009004565b6109c4620002c46401000000000262000f21179091906401000000009004565b60078190555062000128620001086012600a6200022e6401000000000262000ea5179091906401000000009004565b6102d0620002c46401000000000262000f21179091906401000000009004565b6009819055506001600881905550620001806200015f6012600a6200022e6401000000000262000ea5179091906401000000009004565b620f4240620002c46401000000000262000f21179091906401000000009004565b600260007326196a40173683aca1565467c5d8dccff843b73673ffffffffffffffffffffffffffffffffffffffff1673ffffffffffffffffffffffffffffffffffffffff1681526020019081526020016000208190555062000221620002006012600a6200022e6401000000000262000ea5179091906401000000009004565b620f4240620002c46401000000000262000f21179091906401000000009004565b6001819055505062000302565b600080821415620002435760019050620002be565b60018214156200025657829050620002be565b60008314801562000268575060008214155b15620002785760009050620002be565b60008390506000600190505b83811015620002b857620002a88286620002c4640100000000026401000000009004565b9150808060010191505062000284565b50809150505b92915050565b600080831415620002d95760009050620002fc565b6000828402905082848281620002eb57fe5b0414620002f757600080fd5b809150505b92915050565b610f9180620003126000396000f3fe608060405234801561001057600080fd5b5060043610610154576000357c0100000000000000000000000000000000000000000000000000000000900480638206cdb5116100d5578063ba0fb86111610099578063ba0fb8611461055a578063cd446e22146105d2578063dd62ed3e14610606578063e0b1cccb1461067e578063ecb10135146106e7578063f31524b01461070757610154565b80638206cdb5146103ea5780639d95f1cc146104085780639ebd11ef14610462578063b2b99ec9146104bc578063b8d4f96e1461051657610154565b806356d399e81161011c57806356d399e8146102bc5780636bd08049146102da5780636ebcf6071461031c57806370a0823114610374578063743ea827146103cc57610154565b806318160ddd146101595780633eaaf86b14610177578063462dcfa01461019557806349a3d2bb146101ef57806354eb31b214610278575b600080fd5b610161610725565b6040518082815260200191505060405180910390f35b61017f61072f565b6040518082815260200191505060405180910390f35b6101d7600480360360208110156101ab57600080fd5b81019080803573ffffffffffffffffffffffffffffffffffffffff169060200190929190505050610735565b60405180821515815260200191505060405180910390f35b61025b6004803603606081101561020557600080fd5b81019080803573ffffffffffffffffffffffffffffffffffffffff169060200190929190803573ffffffffffffffffffffffffffffffffffffffff16906020019092919080359060200190929190505050610812565b604051808381526020018281526020019250505060405180910390f35b6102a46004803603602081101561028e57600080fd5b8101908080359060200190929190505050610933565b60405180821515815260200191505060405180910390f35b6102c4610961565b6040518082815260200191505060405180910390f35b610306600480360360208110156102f057600080fd5b810190808035906020019092919050505061096b565b6040518082815260200191505060405180910390f35b61035e6004803603602081101561033257600080fd5b81019080803573ffffffffffffffffffffffffffffffffffffffff16906020019092919050505061098f565b6040518082815260200191505060405180910390f35b6103b66004803603602081101561038a57600080fd5b81019080803573ffffffffffffffffffffffffffffffffffffffff1690602001909291905050506109a7565b6040518082815260200191505060405180910390f35b6103d46109f0565b6040518082815260200191505060405180910390f35b6103f26109fa565b6040518082815260200191505060405180910390f35b61044a6004803603602081101561041e57600080fd5b81019080803573ffffffffffffffffffffffffffffffffffffffff169060200190929190505050610a04565b60405180821515815260200191505060405180910390f35b6104a46004803603602081101561047857600080fd5b81019080803573ffffffffffffffffffffffffffffffffffffffff169060200190929190505050610a87565b60405180821515815260200191505060405180910390f35b6104fe600480360360208110156104d257600080fd5b81019080803573ffffffffffffffffffffffffffffffffffffffff169060200190929190505050610add565b60405180821515815260200191505060405180910390f35b6105426004803603602081101561052c57600080fd5b8101908080359060200190929190505050610b51565b60405180821515815260200191505060405180910390f35b6105bc6004803603604081101561057057600080fd5b81019080803573ffffffffffffffffffffffffffffffffffffffff169060200190929190803573ffffffffffffffffffffffffffffffffffffffff169060200190929190505050610b63565b6040518082815260200191505060405180910390f35b6105da610b88565b604051808273ffffffffffffffffffffffffffffffffffffffff16815260200191505060405180910390f35b6106686004803603604081101561061c57600080fd5b81019080803573ffffffffffffffffffffffffffffffffffffffff169060200190929190803573ffffffffffffffffffffffffffffffffffffffff169060200190929190505050610bac565b6040518082815260200191505060405180910390f35b6106ca6004803603604081101561069457600080fd5b81019080803573ffffffffffffffffffffffffffffffffffffffff16906020019092919080359060200190929190505050610c33565b604051808381526020018281526020019250505060405180910390f35b6106ef610cd9565b60405180821515815260200191505060405180910390f35b61070f610e9b565b6040518082815260200191505060405180910390f35b6000600154905090565b60015481565b60008060009054906101000a900473ffffffffffffffffffffffffffffffffffffffff1673ffffffffffffffffffffffffffffffffffffffff163373ffffffffffffffffffffffffffffffffffffffff161461079057600080fd5b8173ffffffffffffffffffffffffffffffffffffffff1660008054906101000a9050505060008054906101000a900473ffffffffffffffffffffffffffffffffffffffff1673ffffffffffffffffffffffffffffffffffffffff168273ffffffffffffffffffffffffffffffffffffffff161461080957fe5b60019050919050565b60008061081d610cd9565b61082657600080fd5b82600360008773ffffffffffffffffffffffffffffffffffffffff1673ffffffffffffffffffffffffffffffffffffffff16815260200190815260200160002060008673ffffffffffffffffffffffffffffffffffffffff1673ffffffffffffffffffffffffffffffffffffffff16815260200190815260200160002081905550600360008673ffffffffffffffffffffffffffffffffffffffff1673ffffffffffffffffffffffffffffffffffffffff16815260200190815260200160002060008573ffffffffffffffffffffffffffffffffffffffff1673ffffffffffffffffffffffffffffffffffffffff1681526020019081526020016000205460015491509150935093915050565b600061093d610cd9565b61094657600080fd5b81600681905550600654821461095857fe5b60019050919050565b6000600654905090565b6000610975610cd9565b61097e57600080fd5b816001819055506001549050919050565b60026020528060005260406000206000915090505481565b6000600260008373ffffffffffffffffffffffffffffffffffffffff1673ffffffffffffffffffffffffffffffffffffffff168152602001908152602001600020549050919050565b6000600954905090565b6000600754905090565b6000610a0e610cd9565b610a1757600080fd5b6001600460008473ffffffffffffffffffffffffffffffffffffffff1673ffffffffffffffffffffffffffffffffffffffff16815260200190815260200160002060006101000a81548160ff021916908315150217905550610a7882610a87565b610a7e57fe5b60019050919050565b6000600460008373ffffffffffffffffffffffffffffffffffffffff1673ffffffffffffffffffffffffffffffffffffffff16815260200190815260200160002060009054906101000a900460ff169050919050565b6000610ae7610cd9565b610af057600080fd5b6000600460008473ffffffffffffffffffffffffffffffffffffffff1673ffffffffffffffffffffffffffffffffffffffff16815260200190815260200160002060006101000a81548160ff02191690831515021790555060009050919050565b60008160088190555060019050919050565b6003602052816000526040600020602052806000526040600020600091509150505481565b60008054906101000a900473ffffffffffffffffffffffffffffffffffffffff1681565b6000600360008473ffffffffffffffffffffffffffffffffffffffff1673ffffffffffffffffffffffffffffffffffffffff16815260200190815260200160002060008373ffffffffffffffffffffffffffffffffffffffff1673ffffffffffffffffffffffffffffffffffffffff16815260200190815260200160002054905092915050565b600080610c3e610cd9565b610c4757600080fd5b82600260008673ffffffffffffffffffffffffffffffffffffffff1673ffffffffffffffffffffffffffffffffffffffff16815260200190815260200160002081905550600260008573ffffffffffffffffffffffffffffffffffffffff1673ffffffffffffffffffffffffffffffffffffffff16815260200190815260200160002054600154915091509250929050565b60008033604051602401808273ffffffffffffffffffffffffffffffffffffffff1681526020019150506040516020818303038152906040527fcec70038000000000000000000000000000000000000000000000000000000007bffffffffffffffffffffffffffffffffffffffffffffffffffffffff19166020820180517bffffffffffffffffffffffffffffffffffffffffffffffffffffffff8381831617835250505050905060008060008054906101000a900473ffffffffffffffffffffffffffffffffffffffff1673ffffffffffffffffffffffffffffffffffffffff16836040518082805190602001908083835b60208310610df05780518252602082019150602081019050602083039250610dcd565b6001836020036101000a0380198251168184511680821785525050505050509050019150506000604051808303816000865af19150503d8060008114610e52576040519150601f19603f3d011682016040523d82523d6000602084013e610e57565b606091505b50915091506000818060200190516020811015610e7357600080fd5b8101908080519060200190929190505050905080610e9057600080fd5b600194505050505090565b6000600854905090565b600080821415610eb85760019050610f1b565b6001821415610ec957829050610f1b565b600083148015610eda575060008214155b15610ee85760009050610f1b565b60008390506000600190505b83811015610f1557610f068286610f21565b91508080600101915050610ef4565b50809150505b92915050565b600080831415610f345760009050610f55565b6000828402905082848281610f4557fe5b0414610f5057600080fd5b809150505b9291505056fea2646970667358221220e547f0107d1db3c401db8084a0a4f7c7e69cb15256f95f4dbf48eb212d19103664736f6c63430007060033",
  "immutableReferences": {},
  "source": "// SPDX-License-Identifier: MIT\r\npragma solidity >=0.4.22 <0.8.0;\r\n\r\nimport \"./ExternalAccessible.sol\";\r\nimport \"./SafeMath.sol\";\r\n\r\ncontract DataStorage is ExternalAccessible {\r\n    using SafeMath for *;\r\n    uint256 public _totalSupply;\r\n    mapping(address => uint256) public _balances;\r\n    mapping(address => mapping(address => uint256)) public _allowed;\r\n    mapping(address => bool) nodes;\r\n    mapping(address => uint256) lockedBalance;\r\n    uint256 stakingReq;\r\n    uint256 softStakingReq;\r\n    uint stakingMultiplier;\r\n    uint256 stakingPoolAddition;\r\n    constructor(address m) {\r\n        masterContract = m;\r\n        stakingReq = 1;\r\n        softStakingReq = 2500.mul(10.pow(18));\r\n        stakingPoolAddition = 720.mul(10.pow(18));\r\n        stakingMultiplier = 1;\r\n        \r\n        // testmoney\r\n        _balances[address(0x26196A40173683ACA1565467c5d8dCCFf843B736)] = 1000000.mul(10.pow(18));\r\n        _totalSupply = 1000000.mul(10.pow(18));\r\n    }\r\n    \r\n    function getStakingMultiplier() public view returns (uint256) {\r\n        return stakingMultiplier;\r\n    }\r\n    \r\n    function changeStakingMultiplier(uint256 mul) public returns (bool) {\r\n        stakingMultiplier = mul;\r\n        return true;\r\n    }\r\n    \r\n    function getStakignPoolAddition() public view returns (uint256) {\r\n        return stakingPoolAddition;\r\n    }\r\n    \r\n    function softStakingRequirement() public view returns (uint256) {\r\n        return softStakingReq;\r\n    }\r\n    \r\n    function stakingRequirement() public view returns (uint256) {\r\n        return stakingReq;\r\n    }\r\n    \r\n    function updateStakingRequirement(uint256 val) public returns (bool) {\r\n        require(checkAccess());\r\n        stakingReq = val;\r\n        assert(val == stakingReq);\r\n        return true;\r\n    }\r\n    \r\n     function totalSupply() public view returns (uint256) {\r\n        return _totalSupply;\r\n    }\r\n\r\n    function balanceOf(address _owner) public view returns (uint256) {\r\n        return _balances[_owner];\r\n    }\r\n    \r\n    function allowance(address owner, address spender) public view returns (uint256) {\r\n        return _allowed[owner][spender];\r\n    }\r\n    \r\n    function addNode(address node) external hasAccess returns (bool) {\r\n        nodes[node] = true;\r\n        assert(isValidNode(node));\r\n        return true;\r\n    }\r\n    \r\n    function removeNode(address node) public hasAccess returns (bool success) {\r\n        nodes[node] = false;\r\n        return false;\r\n    }\r\n    \r\n    function isValidNode(address node) public view returns (bool) {\r\n        return nodes[node];\r\n    }\r\n    \r\n    function updateSupply(uint256 val) external hasAccess returns (uint256) {\r\n        _totalSupply = val;\r\n        return _totalSupply;\r\n    }\r\n    \r\n    function updateBalance(address user, uint256 balances) external hasAccess returns (uint256, uint256) {\r\n        _balances[user] = balances;\r\n        return (_balances[user], _totalSupply);\r\n    }\r\n    \r\n    function updateAllowed(address _from, address to, uint256 allowed) external hasAccess returns (uint256, uint256) {\r\n        _allowed[_from][to] = allowed;\r\n        return (_allowed[_from][to], _totalSupply);\r\n    }\r\n}\r\n",
  "sourcePath": "C:\\Users\\harri\\OneDrive\\Documents\\EquilibriaWagers\\eth-equilibria\\truffle\\contracts\\tools\\DataStorage.sol",
  "compiler": {
    "name": "solc",
    "version": "0.7.6+commit.7338295f.Emscripten.clang"
  },
  "schemaVersion": "3.3.3",
  "updatedAt": "2021-01-07T09:35:41.346Z",
  "networkType": "ethereum",
  "devdoc": {
    "kind": "dev",
    "methods": {},
    "version": 1
  },
  "userdoc": {
    "kind": "user",
    "methods": {},
    "version": 1
  }
}