{
  "contractName": "DataStorage",
  "abi": [
    {
      "inputs": [
        {
          "internalType": "address",
          "name": "m",
          "type": "address"
        }
      ],
      "stateMutability": "nonpayable",
      "type": "constructor"
    },
    {
      "inputs": [
        {
          "internalType": "address",
          "name": "",
          "type": "address"
        },
        {
          "internalType": "address",
          "name": "",
          "type": "address"
        }
      ],
      "name": "_allowed",
      "outputs": [
        {
          "internalType": "uint256",
          "name": "",
          "type": "uint256"
        }
      ],
      "stateMutability": "view",
      "type": "function"
    },
    {
      "inputs": [
        {
          "internalType": "address",
          "name": "",
          "type": "address"
        }
      ],
      "name": "_balances",
      "outputs": [
        {
          "internalType": "uint256",
          "name": "",
          "type": "uint256"
        }
      ],
      "stateMutability": "view",
      "type": "function"
    },
    {
      "inputs": [],
      "name": "_totalSupply",
      "outputs": [
        {
          "internalType": "uint256",
          "name": "",
          "type": "uint256"
        }
      ],
      "stateMutability": "view",
      "type": "function"
    },
    {
      "inputs": [],
      "name": "checkAccess",
      "outputs": [
        {
          "internalType": "bool",
          "name": "",
          "type": "bool"
        }
      ],
      "stateMutability": "nonpayable",
      "type": "function"
    },
    {
      "inputs": [],
      "name": "masterContract",
      "outputs": [
        {
          "internalType": "address",
          "name": "",
          "type": "address"
        }
      ],
      "stateMutability": "view",
      "type": "function"
    },
    {
      "inputs": [
        {
          "internalType": "address",
          "name": "addy",
          "type": "address"
        }
      ],
      "name": "newMaster",
      "outputs": [
        {
          "internalType": "bool",
          "name": "",
          "type": "bool"
        }
      ],
      "stateMutability": "view",
      "type": "function"
    },
    {
      "inputs": [],
      "name": "totalSupply",
      "outputs": [
        {
          "internalType": "uint256",
          "name": "",
          "type": "uint256"
        }
      ],
      "stateMutability": "view",
      "type": "function"
    },
    {
      "inputs": [
        {
          "internalType": "address",
          "name": "_owner",
          "type": "address"
        }
      ],
      "name": "balanceOf",
      "outputs": [
        {
          "internalType": "uint256",
          "name": "",
          "type": "uint256"
        }
      ],
      "stateMutability": "view",
      "type": "function"
    },
    {
      "inputs": [
        {
          "internalType": "address",
          "name": "owner",
          "type": "address"
        },
        {
          "internalType": "address",
          "name": "spender",
          "type": "address"
        }
      ],
      "name": "allowance",
      "outputs": [
        {
          "internalType": "uint256",
          "name": "",
          "type": "uint256"
        }
      ],
      "stateMutability": "view",
      "type": "function"
    },
    {
      "inputs": [
        {
          "internalType": "uint256",
          "name": "val",
          "type": "uint256"
        }
      ],
      "name": "updateSupply",
      "outputs": [],
      "stateMutability": "nonpayable",
      "type": "function"
    },
    {
      "inputs": [
        {
          "internalType": "address",
          "name": "user",
          "type": "address"
        },
        {
          "internalType": "uint256",
          "name": "balances",
          "type": "uint256"
        }
      ],
      "name": "updateBalance",
      "outputs": [],
      "stateMutability": "nonpayable",
      "type": "function"
    },
    {
      "inputs": [
        {
          "internalType": "address",
          "name": "_from",
          "type": "address"
        },
        {
          "internalType": "address",
          "name": "to",
          "type": "address"
        },
        {
          "internalType": "uint256",
          "name": "allowed",
          "type": "uint256"
        }
      ],
      "name": "updateAllowed",
      "outputs": [],
      "stateMutability": "nonpayable",
      "type": "function"
    }
  ],
  "bytecode": "0x608060405234801561001057600080fd5b5060405161076c38038061076c8339818101604052602081101561003357600080fd5b505160008054600160a060020a031916600160a060020a03831617905561008361006c600a60126401000000006100e781026105171704565b62030d409064010000000061057861015382021704565b737fb4ecd5b8e234fa5863bfa2799ea25d8819f42d60005260026020527fbe5e18273d6cb09c470e2f37ff3afff435d27858be1922bf258b2132fb4b1fa0556100de61006c600a60126401000000006105176100e782021704565b60015550610181565b6000816100f65750600161014d565b816001141561010657508161014d565b8215801561011357508115155b156101205750600061014d565b8260015b838110156101495761013f8286640100000000610153810204565b9150600101610124565b5090505b92915050565b6000826101625750600061014d565b8282028284828161016f57fe5b041461017a57600080fd5b9392505050565b6105dc806101906000396000f3fe608060405234801561001057600080fd5b50600436106100d1576000357c01000000000000000000000000000000000000000000000000000000009004806370a082311161008e57806370a08231146101ad578063ba0fb861146101d3578063cd446e2214610201578063dd62ed3e14610225578063e0b1cccb14610253578063ecb101351461027f576100d1565b806318160ddd146100d65780633eaaf86b146100f0578063462dcfa0146100f857806349a3d2bb146101325780636bd080491461016a5780636ebcf60714610187575b600080fd5b6100de610287565b60408051918252519081900360200190f35b6100de61028d565b61011e6004803603602081101561010e57600080fd5b5035600160a060020a0316610293565b604080519115158252519081900360200190f35b6101686004803603606081101561014857600080fd5b50600160a060020a038135811691602081013590911690604001356102ca565b005b6101686004803603602081101561018057600080fd5b5035610307565b6100de6004803603602081101561019d57600080fd5b5035600160a060020a031661031d565b6100de600480360360208110156101c357600080fd5b5035600160a060020a031661032f565b6100de600480360360408110156101e957600080fd5b50600160a060020a038135811691602001351661034a565b610209610367565b60408051600160a060020a039092168252519081900360200190f35b6100de6004803603604081101561023b57600080fd5b50600160a060020a0381358116916020013516610376565b6101686004803603604081101561026957600080fd5b50600160a060020a0381351690602001356103a3565b61011e6103d0565b60015490565b60015481565b60008054600160a060020a031633146102ab57600080fd5b600054600160a060020a038381169116146102c257fe5b506001919050565b6102d26103d0565b6102db57600080fd5b600160a060020a0392831660009081526003602090815260408083209490951682529290925291902055565b61030f6103d0565b61031857600080fd5b600155565b60026020526000908152604090205481565b600160a060020a031660009081526002602052604090205490565b600360209081526000928352604080842090915290825290205481565b600054600160a060020a031681565b600160a060020a038083166000908152600360209081526040808320938516835292905220545b92915050565b6103ab6103d0565b6103b457600080fd5b600160a060020a03909116600090815260026020526040902055565b604080513360248083019190915282518083039091018152604490910182526020810180517bffffffffffffffffffffffffffffffffffffffffffffffffffffffff167fcec70038000000000000000000000000000000000000000000000000000000001781526000805493518351919485938493600160a060020a0392909216928692909182918083835b6020831061047b5780518252601f19909201916020918201910161045c565b6001836020036101000a0380198251168184511680821785525050505050509050019150506000604051808303816000865af19150503d80600081146104dd576040519150601f19603f3d011682016040523d82523d6000602084013e6104e2565b606091505b509150915060008180602001905160208110156104fe57600080fd5b505190508061050c57600080fd5b600194505050505090565b6000816105265750600161039d565b816001141561053657508161039d565b8215801561054357508115155b156105505750600061039d565b8260015b83811015610570576105668286610578565b9150600101610554565b50905061039d565b6000826105875750600061039d565b8282028284828161059457fe5b041461059f57600080fd5b939250505056fea26469706673582212203e72849ddb113913cd14c61fc9e78fe5948221165cbeb1c73d064794bdeca79364736f6c63430007060033",
  "immutableReferences": {},
  "source": "// SPDX-License-Identifier: MIT\r\npragma solidity >=0.4.22 <0.8.0;\r\n\r\nimport \"./ExternalAccessible.sol\";\r\nimport \"./SafeMath.sol\";\r\n\r\ncontract DataStorage is ExternalAccessible {\r\n    using SafeMath for *;\r\n    uint256 public _totalSupply;\r\n    mapping(address => uint256) public _balances;\r\n    mapping(address => mapping(address => uint256)) public _allowed;\r\n    \r\n    constructor(address m) {\r\n        masterContract = m;\r\n        // 200k - 50k giveaway, 150k staking bonus\r\n        _balances[address(0x7FB4eCD5b8E234fA5863bFa2799EA25D8819F42d)] = 200000.mul(10.pow(18));\r\n        _totalSupply = 200000.mul(10.pow(18));\r\n    }\r\n    \r\n     function totalSupply() public view returns (uint256) {\r\n        return _totalSupply;\r\n    }\r\n\r\n    function balanceOf(address _owner) public view returns (uint256) {\r\n        return _balances[_owner];\r\n    }\r\n    \r\n    function allowance(address owner, address spender) public view returns (uint256) {\r\n        return _allowed[owner][spender];\r\n    }\r\n    \r\n    function updateSupply(uint256 val) external hasAccess {\r\n        _totalSupply = val;\r\n    }\r\n    \r\n    function updateBalance(address user, uint256 balances) external hasAccess {\r\n        _balances[user] = balances;\r\n    }\r\n    \r\n    function updateAllowed(address _from, address to, uint256 allowed) external hasAccess {\r\n        _allowed[_from][to] = allowed;\r\n    }\r\n}\r\n",
  "sourcePath": "C:\\Users\\harri\\OneDrive\\Documents\\EquilibriaWagers\\eth-equilibria\\truffle\\contracts\\tools\\DataStorage.sol",
  "compiler": {
    "name": "solc",
    "version": "0.7.6+commit.7338295f.Emscripten.clang"
  },
  "schemaVersion": "3.3.3",
  "updatedAt": "2021-01-09T03:48:11.322Z",
  "devdoc": {
    "kind": "dev",
    "methods": {},
    "version": 1
  },
  "userdoc": {
    "kind": "user",
    "methods": {},
    "version": 1
  }
}