{
  "contractName": "ExternalAccessible",
  "abi": [
    {
      "inputs": [],
      "name": "masterContract",
      "outputs": [
        {
          "internalType": "address",
          "name": "",
          "type": "address"
        }
      ],
      "stateMutability": "view",
      "type": "function"
    },
    {
      "inputs": [
        {
          "internalType": "address",
          "name": "addy",
          "type": "address"
        }
      ],
      "name": "newMaster",
      "outputs": [
        {
          "internalType": "bool",
          "name": "",
          "type": "bool"
        }
      ],
      "stateMutability": "view",
      "type": "function"
    },
    {
      "inputs": [],
      "name": "checkAccess",
      "outputs": [
        {
          "internalType": "bool",
          "name": "",
          "type": "bool"
        }
      ],
      "stateMutability": "nonpayable",
      "type": "function"
    }
  ],
  "bytecode": "0x608060405234801561001057600080fd5b5061040a806100206000396000f3fe608060405234801561001057600080fd5b506004361061005e576000357c010000000000000000000000000000000000000000000000000000000090048063462dcfa014610063578063cd446e22146100bd578063ecb10135146100f1575b600080fd5b6100a56004803603602081101561007957600080fd5b81019080803573ffffffffffffffffffffffffffffffffffffffff169060200190929190505050610111565b60405180821515815260200191505060405180910390f35b6100c56101ee565b604051808273ffffffffffffffffffffffffffffffffffffffff16815260200191505060405180910390f35b6100f9610212565b60405180821515815260200191505060405180910390f35b60008060009054906101000a900473ffffffffffffffffffffffffffffffffffffffff1673ffffffffffffffffffffffffffffffffffffffff163373ffffffffffffffffffffffffffffffffffffffff161461016c57600080fd5b8173ffffffffffffffffffffffffffffffffffffffff1660008054906101000a9050505060008054906101000a900473ffffffffffffffffffffffffffffffffffffffff1673ffffffffffffffffffffffffffffffffffffffff168273ffffffffffffffffffffffffffffffffffffffff16146101e557fe5b60019050919050565b60008054906101000a900473ffffffffffffffffffffffffffffffffffffffff1681565b60008033604051602401808273ffffffffffffffffffffffffffffffffffffffff1681526020019150506040516020818303038152906040527fcec70038000000000000000000000000000000000000000000000000000000007bffffffffffffffffffffffffffffffffffffffffffffffffffffffff19166020820180517bffffffffffffffffffffffffffffffffffffffffffffffffffffffff8381831617835250505050905060008060008054906101000a900473ffffffffffffffffffffffffffffffffffffffff1673ffffffffffffffffffffffffffffffffffffffff16836040518082805190602001908083835b602083106103295780518252602082019150602081019050602083039250610306565b6001836020036101000a0380198251168184511680821785525050505050509050019150506000604051808303816000865af19150503d806000811461038b576040519150601f19603f3d011682016040523d82523d6000602084013e610390565b606091505b509150915060008180602001905160208110156103ac57600080fd5b81019080805190602001909291905050509050806103c957600080fd5b60019450505050509056fea2646970667358221220fd6c9ac952393ba4d959e728f16dcbe5bcb39d00141605b505e078ddd896568564736f6c63430007060033",
  "immutableReferences": {},
  "source": "// SPDX-License-Identifier: MIT\r\npragma solidity >=0.4.22 <0.8.0;\r\n\r\ncontract HasMaster {\r\n    address public masterContract;\r\n    \r\n    function newMaster(address addy) external view returns (bool) {\r\n        require(msg.sender == masterContract);\r\n        masterContract == addy;\r\n        assert(addy == masterContract);\r\n        return true;\r\n    }\r\n}\r\n\r\ncontract ExternalAccessible is HasMaster {\r\n\r\n    function checkAccess() public returns (bool) {\r\n        bytes memory payload = abi.encodeWithSignature(\"checkAccessAddy(address)\", msg.sender);\r\n        (bool success, bytes memory returnData) = masterContract.call(payload);\r\n        bool data = abi.decode(returnData, (bool));\r\n        require(data);\r\n        return true;\r\n    }\r\n\r\n//    function checkAccess() public view returns (bool) {\r\n//        bytes memory payload = abi.encodeWithSignature(\"checkAccessAddy\", msg.sender);\r\n//        (bool success, bytes memory returnData) = masterContract.call(payload);\r\n//        require(success);\r\n//        return true;\r\n//    }\r\n\r\n    modifier hasAccess() {\r\n        require(checkAccess());\r\n        _;\r\n    }\r\n}",
  "sourcePath": "C:\\Users\\harri\\OneDrive\\Documents\\EquilibriaWagers\\eth-equilibria\\truffle\\contracts\\tools\\ExternalAccessible.sol",
  "compiler": {
    "name": "solc",
    "version": "0.7.6+commit.7338295f.Emscripten.clang"
  },
  "schemaVersion": "3.3.3",
  "updatedAt": "2021-01-08T09:27:14.477Z",
  "devdoc": {
    "kind": "dev",
    "methods": {},
    "version": 1
  },
  "userdoc": {
    "kind": "user",
    "methods": {},
    "version": 1
  }
}