{
  "contractName": "ExternalAccessible",
  "abi": [
    {
      "inputs": [],
      "name": "masterContract",
      "outputs": [
        {
          "internalType": "address",
          "name": "",
          "type": "address"
        }
      ],
      "stateMutability": "view",
      "type": "function"
    },
    {
      "inputs": [
        {
          "internalType": "address",
          "name": "addy",
          "type": "address"
        }
      ],
      "name": "newMaster",
      "outputs": [
        {
          "internalType": "bool",
          "name": "",
          "type": "bool"
        }
      ],
      "stateMutability": "view",
      "type": "function"
    },
    {
      "inputs": [],
      "name": "checkAccess",
      "outputs": [
        {
          "internalType": "bool",
          "name": "",
          "type": "bool"
        }
      ],
      "stateMutability": "nonpayable",
      "type": "function"
    }
  ],
  "bytecode": "0x608060405234801561001057600080fd5b506102d9806100206000396000f3fe608060405234801561001057600080fd5b506004361061005d577c01000000000000000000000000000000000000000000000000000000006000350463462dcfa08114610062578063cd446e22146100a9578063ecb10135146100da575b600080fd5b6100956004803603602081101561007857600080fd5b503573ffffffffffffffffffffffffffffffffffffffff166100e2565b604080519115158252519081900360200190f35b6100b1610133565b6040805173ffffffffffffffffffffffffffffffffffffffff9092168252519081900360200190f35b61009561014f565b6000805473ffffffffffffffffffffffffffffffffffffffff16331461010757600080fd5b60005473ffffffffffffffffffffffffffffffffffffffff83811691161461012b57fe5b506001919050565b60005473ffffffffffffffffffffffffffffffffffffffff1681565b604080513360248083019190915282518083039091018152604490910182526020810180517bffffffffffffffffffffffffffffffffffffffffffffffffffffffff167fcec7003800000000000000000000000000000000000000000000000000000000178152600080549351835191948593849373ffffffffffffffffffffffffffffffffffffffff92909216928692909182918083835b602083106102075780518252601f1990920191602091820191016101e8565b6001836020036101000a0380198251168184511680821785525050505050509050019150506000604051808303816000865af19150503d8060008114610269576040519150601f19603f3d011682016040523d82523d6000602084013e61026e565b606091505b5091509150600081806020019051602081101561028a57600080fd5b505190508061029857600080fd5b60019450505050509056fea2646970667358221220682f7824f448a89a1e4d50b5f16694287d2695def8aface789499f5b34dd95ab64736f6c63430007060033",
  "immutableReferences": {},
  "source": "// SPDX-License-Identifier: MIT\r\npragma solidity >=0.4.22 <0.8.0;\r\n\r\ncontract HasMaster {\r\n    address public masterContract;\r\n    \r\n    function newMaster(address addy) external view returns (bool) {\r\n        require(msg.sender == masterContract);\r\n        masterContract == addy;\r\n        assert(addy == masterContract);\r\n        return true;\r\n    }\r\n}\r\n\r\ncontract ExternalAccessible is HasMaster {\r\n\r\n    function checkAccess() public returns (bool) {\r\n        bytes memory payload = abi.encodeWithSignature(\"checkAccessAddy(address)\", msg.sender);\r\n        (bool success, bytes memory returnData) = masterContract.call(payload);\r\n        bool data = abi.decode(returnData, (bool));\r\n        require(data);\r\n        return true;\r\n    }\r\n\r\n//    function checkAccess() public view returns (bool) {\r\n//        bytes memory payload = abi.encodeWithSignature(\"checkAccessAddy\", msg.sender);\r\n//        (bool success, bytes memory returnData) = masterContract.call(payload);\r\n//        require(success);\r\n//        return true;\r\n//    }\r\n\r\n    modifier hasAccess() {\r\n        require(checkAccess());\r\n        _;\r\n    }\r\n}",
  "sourcePath": "C:\\Users\\harri\\OneDrive\\Documents\\EquilibriaWagers\\eth-equilibria\\truffle\\contracts\\tools\\ExternalAccessible.sol",
  "compiler": {
    "name": "solc",
    "version": "0.7.6+commit.7338295f.Emscripten.clang"
  },
  "schemaVersion": "3.3.3",
  "updatedAt": "2021-01-09T01:02:38.368Z",
  "devdoc": {
    "kind": "dev",
    "methods": {},
    "version": 1
  },
  "userdoc": {
    "kind": "user",
    "methods": {},
    "version": 1
  }
}