{
  "contractName": "HasMaster",
  "abi": [
    {
      "inputs": [],
      "name": "masterContract",
      "outputs": [
        {
          "internalType": "address",
          "name": "",
          "type": "address"
        }
      ],
      "stateMutability": "view",
      "type": "function"
    },
    {
      "inputs": [
        {
          "internalType": "address",
          "name": "addy",
          "type": "address"
        }
      ],
      "name": "newMaster",
      "outputs": [
        {
          "internalType": "bool",
          "name": "",
          "type": "bool"
        }
      ],
      "stateMutability": "view",
      "type": "function"
    }
  ],
  "bytecode": "0x608060405234801561001057600080fd5b50610219806100206000396000f3fe608060405234801561001057600080fd5b5060043610610053576000357c010000000000000000000000000000000000000000000000000000000090048063462dcfa014610058578063cd446e22146100b2575b600080fd5b61009a6004803603602081101561006e57600080fd5b81019080803573ffffffffffffffffffffffffffffffffffffffff1690602001909291905050506100e6565b60405180821515815260200191505060405180910390f35b6100ba6101bf565b604051808273ffffffffffffffffffffffffffffffffffffffff16815260200191505060405180910390f35b60008060009054906101000a900473ffffffffffffffffffffffffffffffffffffffff1673ffffffffffffffffffffffffffffffffffffffff163373ffffffffffffffffffffffffffffffffffffffff161461014157600080fd5b8173ffffffffffffffffffffffffffffffffffffffff1660008054906101000a9050505060008054906101000a900473ffffffffffffffffffffffffffffffffffffffff1673ffffffffffffffffffffffffffffffffffffffff168273ffffffffffffffffffffffffffffffffffffffff16146101ba57fe5b919050565b60008054906101000a900473ffffffffffffffffffffffffffffffffffffffff168156fea26469706673582212206f4cbc5e14b65860d554d3c4b1f6ddecb371bc49c135220a32521ad70cc72a5164736f6c63430007060033",
  "immutableReferences": {},
  "source": "// SPDX-License-Identifier: MIT\npragma solidity >=0.4.22 <0.8.0;\n\ncontract HasMaster {\n    address public masterContract;\n    \n    function newMaster(address addy) external view returns (bool) {\n        require(msg.sender == masterContract);\n        masterContract == addy;\n        assert(addy == masterContract);\n    }\n}\n\ncontract ExternalAccessible is HasMaster {\n    \n    function checkAccess() public returns (bool) {\n        bytes memory payload = abi.encodeWithSignature(\"checkAccess()\");\n        (bool success, bytes memory returnData) = masterContract.call(payload);\n        require(success);\n        return true;\n    }\n\n    modifier hasAccess() {\n        require(checkAccess());\n        _;\n    }\n}",
  "sourcePath": "D:\\testwxeqfront\\drizzle-react-tutorial\\contracts\\tools\\ExternalAccessible.sol",
  "compiler": {
    "name": "solc",
    "version": "0.7.6+commit.7338295f.Emscripten.clang"
  },
  "schemaVersion": "3.3.3",
  "updatedAt": "2021-01-07T02:06:52.275Z",
  "devdoc": {
    "kind": "dev",
    "methods": {},
    "version": 1
  },
  "userdoc": {
    "kind": "user",
    "methods": {},
    "version": 1
  }
}