{
  "contractName": "HasMaster",
  "abi": [
    {
      "inputs": [],
      "name": "masterContract",
      "outputs": [
        {
          "internalType": "address",
          "name": "",
          "type": "address"
        }
      ],
      "stateMutability": "view",
      "type": "function"
    },
    {
      "inputs": [
        {
          "internalType": "address",
          "name": "addy",
          "type": "address"
        }
      ],
      "name": "newMaster",
      "outputs": [
        {
          "internalType": "bool",
          "name": "",
          "type": "bool"
        }
      ],
      "stateMutability": "view",
      "type": "function"
    }
  ],
  "bytecode": "0x608060405234801561001057600080fd5b5061021d806100206000396000f3fe608060405234801561001057600080fd5b5060043610610053576000357c010000000000000000000000000000000000000000000000000000000090048063462dcfa014610058578063cd446e22146100b2575b600080fd5b61009a6004803603602081101561006e57600080fd5b81019080803573ffffffffffffffffffffffffffffffffffffffff1690602001909291905050506100e6565b60405180821515815260200191505060405180910390f35b6100ba6101c3565b604051808273ffffffffffffffffffffffffffffffffffffffff16815260200191505060405180910390f35b60008060009054906101000a900473ffffffffffffffffffffffffffffffffffffffff1673ffffffffffffffffffffffffffffffffffffffff163373ffffffffffffffffffffffffffffffffffffffff161461014157600080fd5b8173ffffffffffffffffffffffffffffffffffffffff1660008054906101000a9050505060008054906101000a900473ffffffffffffffffffffffffffffffffffffffff1673ffffffffffffffffffffffffffffffffffffffff168273ffffffffffffffffffffffffffffffffffffffff16146101ba57fe5b60019050919050565b60008054906101000a900473ffffffffffffffffffffffffffffffffffffffff168156fea26469706673582212208a68064b78c1886eadf15979213cde39a0c900d5b651efbbca2454589e9fd9c664736f6c63430007060033",
  "immutableReferences": {},
  "source": "// SPDX-License-Identifier: MIT\r\npragma solidity >=0.4.22 <0.8.0;\r\n\r\ncontract HasMaster {\r\n    address public masterContract;\r\n    \r\n    function newMaster(address addy) external view returns (bool) {\r\n        require(msg.sender == masterContract);\r\n        masterContract == addy;\r\n        assert(addy == masterContract);\r\n        return true;\r\n    }\r\n}\r\n\r\ncontract ExternalAccessible is HasMaster {\r\n\r\n    function checkAccess() public returns (bool) {\r\n        bytes memory payload = abi.encodeWithSignature(\"checkAccessAddy(address)\", msg.sender);\r\n        (bool success, bytes memory returnData) = masterContract.call(payload);\r\n        bool data = abi.decode(returnData, (bool));\r\n        require(data);\r\n        return true;\r\n    }\r\n\r\n//    function checkAccess() public view returns (bool) {\r\n//        bytes memory payload = abi.encodeWithSignature(\"checkAccessAddy\", msg.sender);\r\n//        (bool success, bytes memory returnData) = masterContract.call(payload);\r\n//        require(success);\r\n//        return true;\r\n//    }\r\n\r\n    modifier hasAccess() {\r\n        require(checkAccess());\r\n        _;\r\n    }\r\n}",
  "sourcePath": "C:\\Users\\Thomas\\WebstormProjects\\eth-equilibria\\truffle\\contracts\\tools\\ExternalAccessible.sol",
  "compiler": {
    "name": "solc",
    "version": "0.7.6+commit.7338295f.Emscripten.clang"
  },
  "schemaVersion": "3.3.4",
  "updatedAt": "2021-03-13T06:56:30.397Z",
  "devdoc": {
    "kind": "dev",
    "methods": {},
    "version": 1
  },
  "userdoc": {
    "kind": "user",
    "methods": {},
    "version": 1
  }
}