{
  "contractName": "LPStaking",
  "abi": [
    {
      "inputs": [
        {
          "internalType": "address",
          "name": "_wxeq",
          "type": "address"
        },
        {
          "internalType": "address",
          "name": "_dataStorage",
          "type": "address"
        },
        {
          "internalType": "address",
          "name": "_master",
          "type": "address"
        }
      ],
      "stateMutability": "nonpayable",
      "type": "constructor"
    },
    {
      "anonymous": false,
      "inputs": [
        {
          "indexed": true,
          "internalType": "address",
          "name": "user",
          "type": "address"
        },
        {
          "indexed": false,
          "internalType": "uint256",
          "name": "amount",
          "type": "uint256"
        }
      ],
      "name": "Enter",
      "type": "event"
    },
    {
      "anonymous": false,
      "inputs": [
        {
          "indexed": true,
          "internalType": "address",
          "name": "user",
          "type": "address"
        },
        {
          "indexed": false,
          "internalType": "uint256",
          "name": "amount",
          "type": "uint256"
        }
      ],
      "name": "Leave",
      "type": "event"
    },
    {
      "anonymous": false,
      "inputs": [
        {
          "indexed": true,
          "internalType": "address",
          "name": "previousOwner",
          "type": "address"
        },
        {
          "indexed": true,
          "internalType": "address",
          "name": "newOwner",
          "type": "address"
        }
      ],
      "name": "OwnershipTransferred",
      "type": "event"
    },
    {
      "anonymous": false,
      "inputs": [
        {
          "indexed": true,
          "internalType": "address",
          "name": "user",
          "type": "address"
        },
        {
          "indexed": false,
          "internalType": "uint256",
          "name": "amount",
          "type": "uint256"
        }
      ],
      "name": "WithdrawRewards",
      "type": "event"
    },
    {
      "inputs": [],
      "name": "blockClaimWindow",
      "outputs": [
        {
          "internalType": "uint256",
          "name": "",
          "type": "uint256"
        }
      ],
      "stateMutability": "view",
      "type": "function"
    },
    {
      "inputs": [],
      "name": "contractCreator",
      "outputs": [
        {
          "internalType": "address",
          "name": "",
          "type": "address"
        }
      ],
      "stateMutability": "view",
      "type": "function"
    },
    {
      "inputs": [],
      "name": "dataStorage",
      "outputs": [
        {
          "internalType": "contract DataStorage",
          "name": "",
          "type": "address"
        }
      ],
      "stateMutability": "view",
      "type": "function"
    },
    {
      "inputs": [],
      "name": "distanceBetweenClaimBlocks",
      "outputs": [
        {
          "internalType": "uint256",
          "name": "",
          "type": "uint256"
        }
      ],
      "stateMutability": "view",
      "type": "function"
    },
    {
      "inputs": [],
      "name": "emission",
      "outputs": [
        {
          "internalType": "uint256",
          "name": "",
          "type": "uint256"
        }
      ],
      "stateMutability": "view",
      "type": "function"
    },
    {
      "inputs": [],
      "name": "emissionmMultiplier",
      "outputs": [
        {
          "internalType": "uint256",
          "name": "",
          "type": "uint256"
        }
      ],
      "stateMutability": "view",
      "type": "function"
    },
    {
      "inputs": [],
      "name": "epochWindow",
      "outputs": [
        {
          "internalType": "uint256",
          "name": "",
          "type": "uint256"
        }
      ],
      "stateMutability": "view",
      "type": "function"
    },
    {
      "inputs": [],
      "name": "lastStakingClaimBlock",
      "outputs": [
        {
          "internalType": "uint256",
          "name": "",
          "type": "uint256"
        }
      ],
      "stateMutability": "view",
      "type": "function"
    },
    {
      "inputs": [],
      "name": "nextStakingClaimBlock",
      "outputs": [
        {
          "internalType": "uint256",
          "name": "",
          "type": "uint256"
        }
      ],
      "stateMutability": "view",
      "type": "function"
    },
    {
      "inputs": [],
      "name": "oracleFees",
      "outputs": [
        {
          "internalType": "uint256",
          "name": "",
          "type": "uint256"
        }
      ],
      "stateMutability": "view",
      "type": "function"
    },
    {
      "inputs": [],
      "name": "owner",
      "outputs": [
        {
          "internalType": "address",
          "name": "",
          "type": "address"
        }
      ],
      "stateMutability": "view",
      "type": "function"
    },
    {
      "inputs": [
        {
          "internalType": "uint256",
          "name": "",
          "type": "uint256"
        }
      ],
      "name": "pools",
      "outputs": [
        {
          "internalType": "address",
          "name": "lp_contract",
          "type": "address"
        },
        {
          "internalType": "uint256",
          "name": "weight",
          "type": "uint256"
        },
        {
          "internalType": "uint256",
          "name": "totalStaked",
          "type": "uint256"
        },
        {
          "internalType": "uint256",
          "name": "totalEquity",
          "type": "uint256"
        },
        {
          "internalType": "uint256",
          "name": "stakers",
          "type": "uint256"
        }
      ],
      "stateMutability": "view",
      "type": "function"
    },
    {
      "inputs": [],
      "name": "renounceOwnership",
      "outputs": [],
      "stateMutability": "nonpayable",
      "type": "function"
    },
    {
      "inputs": [],
      "name": "stakingRewardClaimBlocks",
      "outputs": [
        {
          "internalType": "uint256",
          "name": "",
          "type": "uint256"
        }
      ],
      "stateMutability": "view",
      "type": "function"
    },
    {
      "inputs": [],
      "name": "thisStakingClaimBlock",
      "outputs": [
        {
          "internalType": "uint256",
          "name": "",
          "type": "uint256"
        }
      ],
      "stateMutability": "view",
      "type": "function"
    },
    {
      "inputs": [
        {
          "internalType": "address",
          "name": "newOwner",
          "type": "address"
        }
      ],
      "name": "transferOwnership",
      "outputs": [],
      "stateMutability": "nonpayable",
      "type": "function"
    },
    {
      "inputs": [
        {
          "internalType": "address",
          "name": "",
          "type": "address"
        }
      ],
      "name": "userInfo",
      "outputs": [
        {
          "internalType": "uint256",
          "name": "stakingBlock",
          "type": "uint256"
        },
        {
          "internalType": "uint256",
          "name": "claimBlock",
          "type": "uint256"
        }
      ],
      "stateMutability": "view",
      "type": "function"
    },
    {
      "inputs": [],
      "name": "wXEQContract",
      "outputs": [
        {
          "internalType": "contract wXEQ",
          "name": "",
          "type": "address"
        }
      ],
      "stateMutability": "view",
      "type": "function"
    },
    {
      "inputs": [
        {
          "internalType": "uint256",
          "name": "_emission",
          "type": "uint256"
        }
      ],
      "name": "changeEmission",
      "outputs": [
        {
          "internalType": "bool",
          "name": "",
          "type": "bool"
        }
      ],
      "stateMutability": "nonpayable",
      "type": "function"
    },
    {
      "inputs": [
        {
          "internalType": "uint256",
          "name": "_emissionMultiplier",
          "type": "uint256"
        }
      ],
      "name": "changeEmissionMulitplier",
      "outputs": [
        {
          "internalType": "bool",
          "name": "",
          "type": "bool"
        }
      ],
      "stateMutability": "nonpayable",
      "type": "function"
    },
    {
      "inputs": [
        {
          "internalType": "uint256",
          "name": "_blockClaimWindow",
          "type": "uint256"
        }
      ],
      "name": "changeBlockClaimWindow",
      "outputs": [
        {
          "internalType": "bool",
          "name": "",
          "type": "bool"
        }
      ],
      "stateMutability": "nonpayable",
      "type": "function"
    },
    {
      "inputs": [
        {
          "internalType": "uint256",
          "name": "_MaxMonthly",
          "type": "uint256"
        }
      ],
      "name": "changeMaxMonthly",
      "outputs": [
        {
          "internalType": "bool",
          "name": "",
          "type": "bool"
        }
      ],
      "stateMutability": "nonpayable",
      "type": "function"
    },
    {
      "inputs": [
        {
          "internalType": "uint256",
          "name": "_epochWindow",
          "type": "uint256"
        }
      ],
      "name": "changeEpochWindow",
      "outputs": [
        {
          "internalType": "bool",
          "name": "",
          "type": "bool"
        }
      ],
      "stateMutability": "nonpayable",
      "type": "function"
    },
    {
      "inputs": [
        {
          "internalType": "address",
          "name": "_user",
          "type": "address"
        },
        {
          "internalType": "uint256",
          "name": "_index",
          "type": "uint256"
        }
      ],
      "name": "getPendingReward",
      "outputs": [
        {
          "internalType": "uint256",
          "name": "",
          "type": "uint256"
        }
      ],
      "stateMutability": "view",
      "type": "function"
    },
    {
      "inputs": [
        {
          "internalType": "address",
          "name": "_user",
          "type": "address"
        },
        {
          "internalType": "uint256",
          "name": "_index",
          "type": "uint256"
        }
      ],
      "name": "getFeeReward",
      "outputs": [
        {
          "internalType": "uint256",
          "name": "",
          "type": "uint256"
        }
      ],
      "stateMutability": "view",
      "type": "function"
    },
    {
      "inputs": [
        {
          "internalType": "address",
          "name": "_lpcontract",
          "type": "address"
        },
        {
          "internalType": "uint256",
          "name": "_weight",
          "type": "uint256"
        },
        {
          "internalType": "uint256",
          "name": "pool_index",
          "type": "uint256"
        }
      ],
      "name": "addPool",
      "outputs": [
        {
          "internalType": "bool",
          "name": "",
          "type": "bool"
        }
      ],
      "stateMutability": "nonpayable",
      "type": "function"
    },
    {
      "inputs": [
        {
          "internalType": "uint256",
          "name": "pool_index",
          "type": "uint256"
        }
      ],
      "name": "removePool",
      "outputs": [
        {
          "internalType": "bool",
          "name": "",
          "type": "bool"
        }
      ],
      "stateMutability": "nonpayable",
      "type": "function"
    },
    {
      "inputs": [
        {
          "internalType": "uint256",
          "name": "_amount",
          "type": "uint256"
        }
      ],
      "name": "addOracleFee",
      "outputs": [],
      "stateMutability": "nonpayable",
      "type": "function"
    },
    {
      "inputs": [
        {
          "internalType": "uint256",
          "name": "_amount",
          "type": "uint256"
        }
      ],
      "name": "enter",
      "outputs": [
        {
          "internalType": "bool",
          "name": "",
          "type": "bool"
        }
      ],
      "stateMutability": "nonpayable",
      "type": "function"
    },
    {
      "inputs": [
        {
          "internalType": "uint256",
          "name": "_amount",
          "type": "uint256"
        },
        {
          "internalType": "uint256",
          "name": "index",
          "type": "uint256"
        }
      ],
      "name": "enterLP",
      "outputs": [
        {
          "internalType": "bool",
          "name": "",
          "type": "bool"
        }
      ],
      "stateMutability": "nonpayable",
      "type": "function"
    },
    {
      "inputs": [
        {
          "internalType": "uint256",
          "name": "equity",
          "type": "uint256"
        },
        {
          "internalType": "uint256",
          "name": "amount",
          "type": "uint256"
        },
        {
          "internalType": "uint256",
          "name": "_amount",
          "type": "uint256"
        }
      ],
      "name": "getNewPortion",
      "outputs": [
        {
          "internalType": "uint256",
          "name": "",
          "type": "uint256"
        }
      ],
      "stateMutability": "pure",
      "type": "function"
    },
    {
      "inputs": [
        {
          "internalType": "uint256",
          "name": "_amount",
          "type": "uint256"
        },
        {
          "internalType": "uint256",
          "name": "_index",
          "type": "uint256"
        }
      ],
      "name": "leave",
      "outputs": [],
      "stateMutability": "nonpayable",
      "type": "function"
    },
    {
      "inputs": [
        {
          "internalType": "uint256",
          "name": "_index",
          "type": "uint256"
        }
      ],
      "name": "claim",
      "outputs": [
        {
          "internalType": "bool",
          "name": "",
          "type": "bool"
        }
      ],
      "stateMutability": "nonpayable",
      "type": "function"
    }
  ],
  "bytecode": "0x60806040523480156200001157600080fd5b506040516200357538038062003575833981810160405260608110156200003757600080fd5b8101908080519060200190929190805190602001909291908051906020019092919050505060006200007762000360640100000000026401000000009004565b9050806000806101000a81548173ffffffffffffffffffffffffffffffffffffffff021916908373ffffffffffffffffffffffffffffffffffffffff16021790555033600160006101000a81548173ffffffffffffffffffffffffffffffffffffffff021916908373ffffffffffffffffffffffffffffffffffffffff1602179055508073ffffffffffffffffffffffffffffffffffffffff16600073ffffffffffffffffffffffffffffffffffffffff167f8be0079c531659141344cd1fd0a4f28419497f9722a3daafe3b4186f6b6457e060405160405180910390a35082600360006101000a81548173ffffffffffffffffffffffffffffffffffffffff021916908373ffffffffffffffffffffffffffffffffffffffff16021790555081600260006101000a81548173ffffffffffffffffffffffffffffffffffffffff021916908373ffffffffffffffffffffffffffffffffffffffff16021790555062000221620002016012600a620003686401000000000262002f8a179091906401000000009004565b6102d0620003fe6401000000000262003006179091906401000000009004565b600a819055506200026f620002506012600a620003686401000000000262002f8a179091906401000000009004565b6032620003fe6401000000000262003006179091906401000000009004565b600b819055506046600c81905550610114600d81905550620002cf620002b1600c54611978620003fe6401000000000262003006179091906401000000009004565b436200043c6401000000000262003040179091906401000000009004565b6005819055506005546004819055506000600f6000808152602001908152602001600020905073bea36a22c20c763958632150d7a245226a2af4a48160000160006101000a81548173ffffffffffffffffffffffffffffffffffffffff021916908373ffffffffffffffffffffffffffffffffffffffff160217905550601e8160010181905550505050506200045c565b600033905090565b6000808214156200037d5760019050620003f8565b60018214156200039057829050620003f8565b600083148015620003a2575060008214155b15620003b25760009050620003f8565b60008390506000600190505b83811015620003f257620003e28286620003fe640100000000026401000000009004565b91508080600101915050620003be565b50809150505b92915050565b60008083141562000413576000905062000436565b60008284029050828482816200042557fe5b04146200043157600080fd5b809150505b92915050565b6000808284019050838110156200045257600080fd5b8091505092915050565b613109806200046c6000396000f3fe608060405234801561001057600080fd5b5060043610610218576000357c0100000000000000000000000000000000000000000000000000000000900480638b8974eb11610137578063bddb859c116100ca578063e198028411610099578063e1980284146108b4578063e1f342c5146108d2578063ed90c30a146108f0578063f2fde38b1461090e578063fb9cd97e1461095257610218565b8063bddb859c146107fc578063c852f3841461081a578063dd4cab5d1461085e578063e02ae0751461087c57610218565b8063999ffd9711610106578063999ffd971461069e578063a38dcbd014610700578063a59f3e0c14610744578063ac4afa381461078857610218565b80638b8974eb146105a65780638da5cb5b146106085780638dd357971461063c57806396b09c1b1461065a57610218565b8063379607f5116101af578063715018a61161017e578063715018a61461052c578063827c049e146105365780638870455f14610554578063891153ae1461058857610218565b8063379607f5146104205780633f774011146104645780635e76459b146104ba57806362462816146104e857610218565b80631959a002116101eb5780631959a002146103155780631e2f73b1146103745780632b2be647146103a85780633044ba8a146103dc57610218565b806304d959141461021d578063089433ff1461023b578063132398501461028957806317ccd7ee146102a7575b600080fd5b610225610996565b6040518082815260200191505060405180910390f35b6102716004803603604081101561025157600080fd5b81019080803590602001909291908035906020019092919050505061099c565b60405180821515815260200191505060405180910390f35b610291610f6c565b6040518082815260200191505060405180910390f35b6102fd600480360360608110156102bd57600080fd5b81019080803573ffffffffffffffffffffffffffffffffffffffff1690602001909291908035906020019092919080359060200190929190505050610f72565b60405180821515815260200191505060405180910390f35b6103576004803603602081101561032b57600080fd5b81019080803573ffffffffffffffffffffffffffffffffffffffff1690602001909291905050506110f2565b604051808381526020018281526020019250505060405180910390f35b61037c611116565b604051808273ffffffffffffffffffffffffffffffffffffffff16815260200191505060405180910390f35b6103b061113c565b604051808273ffffffffffffffffffffffffffffffffffffffff16815260200191505060405180910390f35b610408600480360360208110156103f257600080fd5b8101908080359060200190929190505050611162565b60405180821515815260200191505060405180910390f35b61044c6004803603602081101561043657600080fd5b8101908080359060200190929190505050611238565b60405180821515815260200191505060405180910390f35b6104a46004803603606081101561047a57600080fd5b810190808035906020019092919080359060200190929190803590602001909291905050506116eb565b6040518082815260200191505060405180910390f35b6104e6600480360360208110156104d057600080fd5b810190808035906020019092919050505061178b565b005b610514600480360360208110156104fe57600080fd5b8101908080359060200190929190505050611aa8565b60405180821515815260200191505060405180910390f35b610534611b7e565b005b61053e611d46565b6040518082815260200191505060405180910390f35b61055c611d4c565b604051808273ffffffffffffffffffffffffffffffffffffffff16815260200191505060405180910390f35b610590611d72565b6040518082815260200191505060405180910390f35b6105f2600480360360408110156105bc57600080fd5b81019080803573ffffffffffffffffffffffffffffffffffffffff16906020019092919080359060200190929190505050611d78565b6040518082815260200191505060405180910390f35b610610611ec7565b604051808273ffffffffffffffffffffffffffffffffffffffff16815260200191505060405180910390f35b610644611ef0565b6040518082815260200191505060405180910390f35b6106866004803603602081101561067057600080fd5b8101908080359060200190929190505050611ef6565b60405180821515815260200191505060405180910390f35b6106ea600480360360408110156106b457600080fd5b81019080803573ffffffffffffffffffffffffffffffffffffffff16906020019092919080359060200190929190505050611fcc565b6040518082815260200191505060405180910390f35b61072c6004803603602081101561071657600080fd5b810190808035906020019092919050505061211b565b60405180821515815260200191505060405180910390f35b6107706004803603602081101561075a57600080fd5b810190808035906020019092919050505061226f565b60405180821515815260200191505060405180910390f35b6107b46004803603602081101561079e57600080fd5b8101908080359060200190929190505050612734565b604051808673ffffffffffffffffffffffffffffffffffffffff1681526020018581526020018481526020018381526020018281526020019550505050505060405180910390f35b61080461278a565b6040518082815260200191505060405180910390f35b6108466004803603602081101561083057600080fd5b8101908080359060200190929190505050612790565b60405180821515815260200191505060405180910390f35b610866612866565b6040518082815260200191505060405180910390f35b6108b26004803603604081101561089257600080fd5b81019080803590602001909291908035906020019092919050505061286c565b005b6108bc612c97565b6040518082815260200191505060405180910390f35b6108da612c9d565b6040518082815260200191505060405180910390f35b6108f8612ca3565b6040518082815260200191505060405180910390f35b6109506004803603602081101561092457600080fd5b81019080803573ffffffffffffffffffffffffffffffffffffffff169060200190929190505050612ca9565b005b61097e6004803603602081101561096857600080fd5b8101908080359060200190929190505050612eb4565b60405180821515815260200191505060405180910390f35b60075481565b60008073ffffffffffffffffffffffffffffffffffffffff163373ffffffffffffffffffffffffffffffffffffffff1614156109d757600080fd5b6000600f60008481526020019081526020016000209050600073ffffffffffffffffffffffffffffffffffffffff168160000160009054906101000a900473ffffffffffffffffffffffffffffffffffffffff1673ffffffffffffffffffffffffffffffffffffffff161415610a4c57600080fd5b600081600101541415610a5e57600080fd5b60008160000160009054906101000a900473ffffffffffffffffffffffffffffffffffffffff169050848173ffffffffffffffffffffffffffffffffffffffff166370a08231336040518263ffffffff167c0100000000000000000000000000000000000000000000000000000000028152600401808273ffffffffffffffffffffffffffffffffffffffff16815260200191505060206040518083038186803b158015610b0b57600080fd5b505afa158015610b1f573d6000803e3d6000fd5b505050506040513d6020811015610b3557600080fd5b81019080805190602001909291905050501015610b5157600080fd5b848173ffffffffffffffffffffffffffffffffffffffff1663dd62ed3e33306040518363ffffffff167c0100000000000000000000000000000000000000000000000000000000028152600401808373ffffffffffffffffffffffffffffffffffffffff1681526020018273ffffffffffffffffffffffffffffffffffffffff1681526020019250505060206040518083038186803b158015610bf357600080fd5b505afa158015610c07573d6000803e3d6000fd5b505050506040513d6020811015610c1d57600080fd5b81019080805190602001909291905050501015610c3957600080fd5b8073ffffffffffffffffffffffffffffffffffffffff166323b872dd3330886040518463ffffffff167c0100000000000000000000000000000000000000000000000000000000028152600401808473ffffffffffffffffffffffffffffffffffffffff1681526020018373ffffffffffffffffffffffffffffffffffffffff1681526020018281526020019350505050602060405180830381600087803b158015610ce457600080fd5b505af1158015610cf8573d6000803e3d6000fd5b505050506040513d6020811015610d0e57600080fd5b810190808051906020019092919050505050610d3785836002015461304090919063ffffffff16565b82600201819055506000600e60003373ffffffffffffffffffffffffffffffffffffffff1673ffffffffffffffffffffffffffffffffffffffff1681526020019081526020016000209050610daa868260000160008881526020019081526020016000205461304090919063ffffffff16565b81600001600087815260200190815260200160002081905550610ddb6001846004015461304090919063ffffffff16565b83600401819055506000610dfa4360065461305f90919063ffffffff16565b90506000610e11828961300690919063ffffffff16565b905060045483600201541015610e4e57610e4b6008548460000160008a81526020019081526020016000205461300690919063ffffffff16565b90505b610e6581866003015461304090919063ffffffff16565b8560030181905550610e95818460010160008a81526020019081526020016000205461304090919063ffffffff16565b836001016000898152602001908152602001600020819055506000610ec7600d5460055461305f90919063ffffffff16565b905080431115610ee05760009650505050505050610f66565b60008460000160008a81526020019081526020016000205414610f0857610f0688611238565b505b4384600201819055503373ffffffffffffffffffffffffffffffffffffffff167f1fb48929215fc354244acea33112720ce5b7ba6912db70bb0149e77aa7c91ce18a6040518082815260200191505060405180910390a25050505050505b92915050565b60055481565b6000610f7c61307f565b73ffffffffffffffffffffffffffffffffffffffff1660008054906101000a900473ffffffffffffffffffffffffffffffffffffffff1673ffffffffffffffffffffffffffffffffffffffff161461103c576040517f08c379a00000000000000000000000000000000000000000000000000000000081526004018080602001828103825260208152602001807f4f776e61626c653a2063616c6c6572206973206e6f7420746865206f776e657281525060200191505060405180910390fd5b6000831161104957600080fd5b600073ffffffffffffffffffffffffffffffffffffffff168473ffffffffffffffffffffffffffffffffffffffff16141561108357600080fd5b6000600f60008481526020019081526020016000209050848160000160006101000a81548173ffffffffffffffffffffffffffffffffffffffff021916908373ffffffffffffffffffffffffffffffffffffffff16021790555083816001018190555060019150509392505050565b600e6020528060005260406000206000915090508060020154908060030154905082565b600160009054906101000a900473ffffffffffffffffffffffffffffffffffffffff1681565b600360009054906101000a900473ffffffffffffffffffffffffffffffffffffffff1681565b600061116c61307f565b73ffffffffffffffffffffffffffffffffffffffff1660008054906101000a900473ffffffffffffffffffffffffffffffffffffffff1673ffffffffffffffffffffffffffffffffffffffff161461122c576040517f08c379a00000000000000000000000000000000000000000000000000000000081526004018080602001828103825260208152602001807f4f776e61626c653a2063616c6c6572206973206e6f7420746865206f776e657281525060200191505060405180910390fd5b81600c81905550919050565b600080600e60003373ffffffffffffffffffffffffffffffffffffffff1673ffffffffffffffffffffffffffffffffffffffff16815260200190815260200160002090506000816001016000858152602001908152602001600020541161129e57600080fd5b600554816002015411156112b157600080fd5b60006112ca600c5460045461305f90919063ffffffff16565b9050804310156112df576000925050506116e6565b600554600454141561132f5760055460048190555061130b600d5460055461304090919063ffffffff16565b60058190555061132860045460055461305f90919063ffffffff16565b6008819055505b600061133b3386611fcc565b905060006113493387611d78565b90506000821161135857600080fd5b60055484600201819055506113a161137d60055460065461305f90919063ffffffff16565b8560000160008981526020019081526020016000205461300690919063ffffffff16565b84600101600088815260200190815260200160002081905550600360009054906101000a900473ffffffffffffffffffffffffffffffffffffffff1673ffffffffffffffffffffffffffffffffffffffff166340c10f1933846040518363ffffffff167c0100000000000000000000000000000000000000000000000000000000028152600401808373ffffffffffffffffffffffffffffffffffffffff16815260200182815260200192505050600060405180830381600087803b15801561146957600080fd5b505af115801561147d573d6000803e3d6000fd5b50505050600081111561167d5761149f8160095461305f90919063ffffffff16565b60098190555080600360009054906101000a900473ffffffffffffffffffffffffffffffffffffffff1673ffffffffffffffffffffffffffffffffffffffff166370a08231306040518263ffffffff167c0100000000000000000000000000000000000000000000000000000000028152600401808273ffffffffffffffffffffffffffffffffffffffff16815260200191505060206040518083038186803b15801561154b57600080fd5b505afa15801561155f573d6000803e3d6000fd5b505050506040513d602081101561157557600080fd5b8101908080519060200190929190505050101561159157600080fd5b600360009054906101000a900473ffffffffffffffffffffffffffffffffffffffff1673ffffffffffffffffffffffffffffffffffffffff1663a9059cbb33836040518363ffffffff167c0100000000000000000000000000000000000000000000000000000000028152600401808373ffffffffffffffffffffffffffffffffffffffff16815260200182815260200192505050602060405180830381600087803b15801561164057600080fd5b505af1158015611654573d6000803e3d6000fd5b505050506040513d602081101561166a57600080fd5b8101908080519060200190929190505050505b3373ffffffffffffffffffffffffffffffffffffffff167faa1377f7ec93c239e959efa811f7b8554c036fd7a706c23e58024626a8f3db966116c8838561304090919063ffffffff16565b6040518082815260200191505060405180910390a260019450505050505b919050565b60006117826117736117086012600a612f8a90919063ffffffff16565b61176587611757886117496117286012600a612f8a90919063ffffffff16565b61173b8b8d61305f90919063ffffffff16565b61300690919063ffffffff16565b61308790919063ffffffff16565b61300690919063ffffffff16565b61308790919063ffffffff16565b8561305f90919063ffffffff16565b90509392505050565b80600360009054906101000a900473ffffffffffffffffffffffffffffffffffffffff1673ffffffffffffffffffffffffffffffffffffffff166370a08231336040518263ffffffff167c0100000000000000000000000000000000000000000000000000000000028152600401808273ffffffffffffffffffffffffffffffffffffffff16815260200191505060206040518083038186803b15801561183157600080fd5b505afa158015611845573d6000803e3d6000fd5b505050506040513d602081101561185b57600080fd5b8101908080519060200190929190505050101561187757600080fd5b80600360009054906101000a900473ffffffffffffffffffffffffffffffffffffffff1673ffffffffffffffffffffffffffffffffffffffff1663dd62ed3e33306040518363ffffffff167c0100000000000000000000000000000000000000000000000000000000028152600401808373ffffffffffffffffffffffffffffffffffffffff1681526020018273ffffffffffffffffffffffffffffffffffffffff1681526020019250505060206040518083038186803b15801561193b57600080fd5b505afa15801561194f573d6000803e3d6000fd5b505050506040513d602081101561196557600080fd5b8101908080519060200190929190505050101561198157600080fd5b600360009054906101000a900473ffffffffffffffffffffffffffffffffffffffff1673ffffffffffffffffffffffffffffffffffffffff166323b872dd3330846040518463ffffffff167c0100000000000000000000000000000000000000000000000000000000028152600401808473ffffffffffffffffffffffffffffffffffffffff1681526020018373ffffffffffffffffffffffffffffffffffffffff1681526020018281526020019350505050602060405180830381600087803b158015611a4e57600080fd5b505af1158015611a62573d6000803e3d6000fd5b505050506040513d6020811015611a7857600080fd5b810190808051906020019092919050505050611a9f8160095461304090919063ffffffff16565b60098190555050565b6000611ab261307f565b73ffffffffffffffffffffffffffffffffffffffff1660008054906101000a900473ffffffffffffffffffffffffffffffffffffffff1673ffffffffffffffffffffffffffffffffffffffff1614611b72576040517f08c379a00000000000000000000000000000000000000000000000000000000081526004018080602001828103825260208152602001807f4f776e61626c653a2063616c6c6572206973206e6f7420746865206f776e657281525060200191505060405180910390fd5b81600a81905550919050565b611b8661307f565b73ffffffffffffffffffffffffffffffffffffffff1660008054906101000a900473ffffffffffffffffffffffffffffffffffffffff1673ffffffffffffffffffffffffffffffffffffffff1614611c46576040517f08c379a00000000000000000000000000000000000000000000000000000000081526004018080602001828103825260208152602001807f4f776e61626c653a2063616c6c6572206973206e6f7420746865206f776e657281525060200191505060405180910390fd5b600160009054906101000a900473ffffffffffffffffffffffffffffffffffffffff1673ffffffffffffffffffffffffffffffffffffffff1660008054906101000a900473ffffffffffffffffffffffffffffffffffffffff1673ffffffffffffffffffffffffffffffffffffffff167f8be0079c531659141344cd1fd0a4f28419497f9722a3daafe3b4186f6b6457e060405160405180910390a3600160009054906101000a900473ffffffffffffffffffffffffffffffffffffffff166000806101000a81548173ffffffffffffffffffffffffffffffffffffffff021916908373ffffffffffffffffffffffffffffffffffffffff160217905550565b600a5481565b600260009054906101000a900473ffffffffffffffffffffffffffffffffffffffff1681565b60045481565b600080600e60008573ffffffffffffffffffffffffffffffffffffffff1673ffffffffffffffffffffffffffffffffffffffff16815260200190815260200160002090506000816001016000858152602001908152602001600020541415611de4576000915050611ec1565b6000600f60008581526020019081526020016000209050611ebc68056bc75e2d63100000611eae611e24856002015460055461305f90919063ffffffff16565b611ea0611e40866001015460095461300690919063ffffffff16565b611e928760030154611e84611e606012600a612f8a90919063ffffffff16565b8b60010160008f81526020019081526020016000205461300690919063ffffffff16565b61308790919063ffffffff16565b61300690919063ffffffff16565b61300690919063ffffffff16565b61308790919063ffffffff16565b925050505b92915050565b60008060009054906101000a900473ffffffffffffffffffffffffffffffffffffffff16905090565b60095481565b6000611f0061307f565b73ffffffffffffffffffffffffffffffffffffffff1660008054906101000a900473ffffffffffffffffffffffffffffffffffffffff1673ffffffffffffffffffffffffffffffffffffffff1614611fc0576040517f08c379a00000000000000000000000000000000000000000000000000000000081526004018080602001828103825260208152602001807f4f776e61626c653a2063616c6c6572206973206e6f7420746865206f776e657281525060200191505060405180910390fd5b81600b81905550919050565b600080600e60008573ffffffffffffffffffffffffffffffffffffffff1673ffffffffffffffffffffffffffffffffffffffff16815260200190815260200160002090506000816001016000858152602001908152602001600020541415612038576000915050612115565b6000600f6000858152602001908152602001600020905061211068056bc75e2d63100000612102612078856002015460055461305f90919063ffffffff16565b6120f46120948660010154600a5461300690919063ffffffff16565b6120e687600301546120d86120b46012600a612f8a90919063ffffffff16565b8b60010160008f81526020019081526020016000205461300690919063ffffffff16565b61308790919063ffffffff16565b61300690919063ffffffff16565b61300690919063ffffffff16565b61308790919063ffffffff16565b925050505b92915050565b600061212561307f565b73ffffffffffffffffffffffffffffffffffffffff1660008054906101000a900473ffffffffffffffffffffffffffffffffffffffff1673ffffffffffffffffffffffffffffffffffffffff16146121e5576040517f08c379a00000000000000000000000000000000000000000000000000000000081526004018080602001828103825260208152602001807f4f776e61626c653a2063616c6c6572206973206e6f7420746865206f776e657281525060200191505060405180910390fd5b6000600f600084815260200190815260200160002060010154141561220957600080fd5b600f6000838152602001908152602001600020600080820160006101000a81549073ffffffffffffffffffffffffffffffffffffffff02191690556001820160009055600282016000905560038201600090556004820160009055505060019050919050565b600081600260009054906101000a900473ffffffffffffffffffffffffffffffffffffffff1673ffffffffffffffffffffffffffffffffffffffff166370a08231336040518263ffffffff167c0100000000000000000000000000000000000000000000000000000000028152600401808273ffffffffffffffffffffffffffffffffffffffff16815260200191505060206040518083038186803b15801561231757600080fd5b505afa15801561232b573d6000803e3d6000fd5b505050506040513d602081101561234157600080fd5b8101908080519060200190929190505050101561235d57600080fd5b81600260009054906101000a900473ffffffffffffffffffffffffffffffffffffffff1673ffffffffffffffffffffffffffffffffffffffff1663dd62ed3e33306040518363ffffffff167c0100000000000000000000000000000000000000000000000000000000028152600401808373ffffffffffffffffffffffffffffffffffffffff1681526020018273ffffffffffffffffffffffffffffffffffffffff1681526020019250505060206040518083038186803b15801561242157600080fd5b505afa158015612435573d6000803e3d6000fd5b505050506040513d602081101561244b57600080fd5b8101908080519060200190929190505050101561246757600080fd5b600073ffffffffffffffffffffffffffffffffffffffff163373ffffffffffffffffffffffffffffffffffffffff1614156124a157600080fd5b6000600f60008081526020019081526020016000209050600360009054906101000a900473ffffffffffffffffffffffffffffffffffffffff1673ffffffffffffffffffffffffffffffffffffffff166323b872dd3330866040518463ffffffff167c0100000000000000000000000000000000000000000000000000000000028152600401808473ffffffffffffffffffffffffffffffffffffffff1681526020018373ffffffffffffffffffffffffffffffffffffffff1681526020018281526020019350505050602060405180830381600087803b15801561258557600080fd5b505af1158015612599573d6000803e3d6000fd5b505050506040513d60208110156125af57600080fd5b8101908080519060200190929190505050506125d883826002015461304090919063ffffffff16565b81600201819055506000600e60003373ffffffffffffffffffffffffffffffffffffffff1673ffffffffffffffffffffffffffffffffffffffff168152602001908152602001600020905061264b848260000160008081526020019081526020016000205461304090919063ffffffff16565b8160000160008081526020019081526020016000208190555061267c6001836004015461304090919063ffffffff16565b826004018190555060006126b16126a0600c5461197861300690919063ffffffff16565b60055461305f90919063ffffffff16565b9050804311156126c7576000935050505061272f565b60008260020154146126dd574382600201819055505b3373ffffffffffffffffffffffffffffffffffffffff167f1fb48929215fc354244acea33112720ce5b7ba6912db70bb0149e77aa7c91ce1866040518082815260200191505060405180910390a25050505b919050565b600f6020528060005260406000206000915090508060000160009054906101000a900473ffffffffffffffffffffffffffffffffffffffff16908060010154908060020154908060030154908060040154905085565b600b5481565b600061279a61307f565b73ffffffffffffffffffffffffffffffffffffffff1660008054906101000a900473ffffffffffffffffffffffffffffffffffffffff1673ffffffffffffffffffffffffffffffffffffffff161461285a576040517f08c379a00000000000000000000000000000000000000000000000000000000081526004018080602001828103825260208152602001807f4f776e61626c653a2063616c6c6572206973206e6f7420746865206f776e657281525060200191505060405180910390fd5b81600c81905550919050565b600d5481565b6000600e60003373ffffffffffffffffffffffffffffffffffffffff1673ffffffffffffffffffffffffffffffffffffffff1681526020019081526020016000209050600081600001600084815260200190815260200160002054116128d157600080fd5b6000600f60008481526020019081526020016000209050600073ffffffffffffffffffffffffffffffffffffffff168160000160009054906101000a900473ffffffffffffffffffffffffffffffffffffffff1673ffffffffffffffffffffffffffffffffffffffff16141561294657600080fd5b60008160010154141561295857600080fd5b60008160000160009054906101000a900473ffffffffffffffffffffffffffffffffffffffff16905060008590506129ae868560000160008881526020019081526020016000205461305f90919063ffffffff16565b84600001600087815260200190815260200160002081905550600084600201819055506129e886846002015461305f90919063ffffffff16565b8360020181905550612a086001846004015461305f90919063ffffffff16565b83600401819055506000612a478560010160008881526020019081526020016000205486600001600089815260200190815260200160002054896116eb565b9050612a71818660010160008981526020019081526020016000205461305f90919063ffffffff16565b85600101600088815260200190815260200160002081905550612aa181856003015461305f90919063ffffffff16565b8460030181905550816009548473ffffffffffffffffffffffffffffffffffffffff166370a08231306040518263ffffffff167c0100000000000000000000000000000000000000000000000000000000028152600401808273ffffffffffffffffffffffffffffffffffffffff16815260200191505060206040518083038186803b158015612b3057600080fd5b505afa158015612b44573d6000803e3d6000fd5b505050506040513d6020811015612b5a57600080fd5b8101908080519060200190929190505050031015612b7757600080fd5b8273ffffffffffffffffffffffffffffffffffffffff1663a9059cbb33846040518363ffffffff167c0100000000000000000000000000000000000000000000000000000000028152600401808373ffffffffffffffffffffffffffffffffffffffff16815260200182815260200192505050602060405180830381600087803b158015612c0457600080fd5b505af1158015612c18573d6000803e3d6000fd5b505050506040513d6020811015612c2e57600080fd5b8101908080519060200190929190505050503373ffffffffffffffffffffffffffffffffffffffff167f61a26f7c17d8780c095ccfa67e689a13ee4e06ddce3da18956369f4a396100e8836040518082815260200191505060405180910390a250505050505050565b600c5481565b60085481565b60065481565b612cb161307f565b73ffffffffffffffffffffffffffffffffffffffff1660008054906101000a900473ffffffffffffffffffffffffffffffffffffffff1673ffffffffffffffffffffffffffffffffffffffff1614612d71576040517f08c379a00000000000000000000000000000000000000000000000000000000081526004018080602001828103825260208152602001807f4f776e61626c653a2063616c6c6572206973206e6f7420746865206f776e657281525060200191505060405180910390fd5b600073ffffffffffffffffffffffffffffffffffffffff168173ffffffffffffffffffffffffffffffffffffffff161415612df7576040517f08c379a00000000000000000000000000000000000000000000000000000000081526004018080602001828103825260268152602001806130ae6026913960400191505060405180910390fd5b8073ffffffffffffffffffffffffffffffffffffffff1660008054906101000a900473ffffffffffffffffffffffffffffffffffffffff1673ffffffffffffffffffffffffffffffffffffffff167f8be0079c531659141344cd1fd0a4f28419497f9722a3daafe3b4186f6b6457e060405160405180910390a3806000806101000a81548173ffffffffffffffffffffffffffffffffffffffff021916908373ffffffffffffffffffffffffffffffffffffffff16021790555050565b6000612ebe61307f565b73ffffffffffffffffffffffffffffffffffffffff1660008054906101000a900473ffffffffffffffffffffffffffffffffffffffff1673ffffffffffffffffffffffffffffffffffffffff1614612f7e576040517f08c379a00000000000000000000000000000000000000000000000000000000081526004018080602001828103825260208152602001807f4f776e61626c653a2063616c6c6572206973206e6f7420746865206f776e657281525060200191505060405180910390fd5b81600d81905550919050565b600080821415612f9d5760019050613000565b6001821415612fae57829050613000565b600083148015612fbf575060008214155b15612fcd5760009050613000565b60008390506000600190505b83811015612ffa57612feb8286613006565b91508080600101915050612fd9565b50809150505b92915050565b600080831415613019576000905061303a565b600082840290508284828161302a57fe5b041461303557600080fd5b809150505b92915050565b60008082840190508381101561305557600080fd5b8091505092915050565b60008282111561306e57600080fd5b600082840390508091505092915050565b600033905090565b600080821161309557600080fd5b60008284816130a057fe5b049050809150509291505056fe4f776e61626c653a206e6577206f776e657220697320746865207a65726f2061646472657373a2646970667358221220108a8f8e0a98d4ace6d9bc9d85e75b9089c4dc5ed23b9642cebc1c4eb71322fa64736f6c63430007060033",
  "immutableReferences": {},
  "source": "import \"./tools/Ownable.sol\";\r\nimport \"./tools/SafeMath.sol\";\r\nimport \"./tools/DataStorage.sol\";\r\nimport \"./wXEQ.sol\";\r\nimport \"./tools/SafeERC20.sol\";\r\n\r\ncontract LPStaking is Ownable {\r\n\r\n    using SafeMath for *;\r\n    using SafeERC20 for IERC20;\r\n\r\n    DataStorage public dataStorage;\r\n    wXEQ public wXEQContract;\r\n\r\n    event Enter(address indexed user, uint256 amount);\r\n    event Leave(address indexed user, uint256 amount);\r\n    event WithdrawRewards(address indexed user, uint256 amount);\r\n\r\n    struct UserInfo {\r\n        mapping(uint256 => uint256) amount;\r\n        mapping(uint256 => uint256) equity;\r\n        uint256 stakingBlock;\r\n        uint256 claimBlock;\r\n    }\r\n\r\n    struct Pool {\r\n        address lp_contract;\r\n        uint256 weight;\r\n        uint256 totalStaked;\r\n        uint256 totalEquity;\r\n        uint256 stakers;\r\n    }\r\n\r\n    uint256 public lastStakingClaimBlock;\r\n    uint256 public thisStakingClaimBlock;\r\n    uint256 public nextStakingClaimBlock;\r\n    uint256 public stakingRewardClaimBlocks;\r\n    uint256 public distanceBetweenClaimBlocks;\r\n\r\n    uint256 public oracleFees;\r\n    uint256 public emission;\r\n    uint256 public emissionmMultiplier;\r\n\r\n    uint256 public blockClaimWindow;\r\n    uint256 public epochWindow;\r\n\r\n    mapping (address => UserInfo) public userInfo;\r\n    mapping (uint256 => Pool) public pools;\r\n\r\n    constructor(address _wxeq, address _dataStorage, address _master) public {\r\n        wXEQContract = wXEQ(_wxeq);\r\n        dataStorage = DataStorage(_dataStorage);\r\n        emission = 720.mul(10.pow(18)); // .11 * 6520 * 28\r\n        emissionmMultiplier = 50.mul(10.pow(18)); // 1M in added coins for first month\r\n\r\n        blockClaimWindow = 70;\r\n        epochWindow = 276;\r\n\r\n        thisStakingClaimBlock = block.number.add(6520.mul(blockClaimWindow));\r\n        lastStakingClaimBlock = thisStakingClaimBlock;\r\n        Pool storage pool = pools[0];\r\n        pool.lp_contract = address(0xBEA36A22c20C763958632150d7a245226A2aF4A4);\r\n        pool.weight = 30;\r\n        // transferOwnership(_master);\r\n    }\r\n\r\n    //setters\r\n\r\n    function changeEmission(uint256 _emission) public onlyOwner returns (bool) {\r\n        emission = _emission;\r\n    }\r\n\r\n    function changeEmissionMulitplier(uint256 _emissionMultiplier) public onlyOwner returns (bool) {\r\n        emissionmMultiplier = _emissionMultiplier;\r\n    }\r\n\r\n    function changeBlockClaimWindow(uint256 _blockClaimWindow) public onlyOwner returns (bool) {\r\n        blockClaimWindow = _blockClaimWindow;\r\n    }\r\n\r\n    function changeMaxMonthly(uint256 _MaxMonthly) public onlyOwner returns (bool) {\r\n        blockClaimWindow = _MaxMonthly;\r\n    }\r\n\r\n    function changeEpochWindow(uint256 _epochWindow) public onlyOwner returns (bool) {\r\n        epochWindow = _epochWindow;\r\n    }\r\n\r\n    //getters\r\n\r\n    // Get the pending rewards based on the stakers and amounts at this block.\r\n    function getPendingReward(address _user, uint256 _index) public view returns (uint256) {\r\n        UserInfo storage user = userInfo[_user];\r\n        if (user.equity[_index] == 0) {\r\n            return 0;\r\n        }\r\n        Pool storage pool = pools[_index];\r\n        return (user.equity[_index].mul(10.pow(18)).div(pool.totalEquity)).mul(emission.mul(pool.weight)).mul(thisStakingClaimBlock.sub(user.stakingBlock)).div(1e20);\r\n    }\r\n\r\n    function getFeeReward(address _user, uint256 _index) public view returns (uint256) {\r\n        UserInfo storage user = userInfo[_user];\r\n        if (user.equity[_index] == 0) {\r\n            return 0;\r\n        }\r\n        Pool storage pool = pools[_index];\r\n        return (user.equity[_index].mul(10.pow(18)).div(pool.totalEquity)).mul(oracleFees.mul(pool.weight)).mul(thisStakingClaimBlock.sub(user.stakingBlock)).div(1e20);\r\n    }\r\n\r\n    //functions\r\n\r\n    function addPool(address _lpcontract, uint256 _weight, uint256 pool_index) public onlyOwner returns (bool) {\r\n        require(_weight > 0);\r\n        require(_lpcontract != address(0));\r\n\r\n        Pool storage pool = pools[pool_index];\r\n        pool.lp_contract = _lpcontract;\r\n        pool.weight = _weight;\r\n        return true;\r\n    }\r\n\r\n    function removePool(uint256 pool_index) public onlyOwner returns (bool) {\r\n        require(pools[pool_index].weight != 0);\r\n        delete pools[pool_index];\r\n        return true;\r\n    }\r\n\r\n    function addOracleFee(uint256 _amount) public {\r\n        require(wXEQContract.balanceOf(msg.sender) >= _amount);\r\n        require(wXEQContract.allowance(msg.sender, address(this)) >= _amount);\r\n\r\n        wXEQContract.transferFrom(msg.sender, address(this), _amount);\r\n        oracleFees = oracleFees.add(_amount);\r\n    }\r\n\r\n    //enter with wxeq\r\n    function enter(uint256 _amount) public returns (bool) {\r\n        require(dataStorage.balanceOf(msg.sender) >= _amount);\r\n        require(dataStorage.allowance(msg.sender, address(this)) >= _amount);\r\n        require(msg.sender != address(0));\r\n\r\n        Pool storage pool = pools[0];\r\n\r\n        wXEQContract.transferFrom(msg.sender, address(this), _amount);\r\n        pool.totalStaked = pool.totalStaked.add(_amount);\r\n        UserInfo storage user = userInfo[msg.sender];\r\n        user.amount[0] = user.amount[0].add(_amount);\r\n        pool.stakers = pool.stakers.add(1);\r\n\r\n        uint256 acceptableToEnter = thisStakingClaimBlock.sub(6520.mul(blockClaimWindow));\r\n\r\n        if (!(block.number <= acceptableToEnter)) {\r\n            return false;\r\n        }\r\n\r\n        if (user.stakingBlock != 0)  {\r\n            user.stakingBlock = block.number;\r\n        }\r\n\r\n        emit Enter(msg.sender, _amount);\r\n    }\r\n\r\n    function enterLP(uint256 _amount, uint256 index) public returns (bool) {\r\n        require(msg.sender != address(0));\r\n\r\n        Pool storage pool = pools[index];\r\n        require(pool.lp_contract != address(0));\r\n        require(pool.weight != 0);\r\n\r\n        IERC20 pair = IERC20(pool.lp_contract);\r\n        require(pair.balanceOf(msg.sender) >= _amount);\r\n        require(pair.allowance(msg.sender, address(this)) >= _amount);\r\n\r\n        pair.transferFrom(msg.sender, address(this), _amount);\r\n        pool.totalStaked = pool.totalStaked.add(_amount);\r\n        UserInfo storage user = userInfo[msg.sender];\r\n        user.amount[index] = user.amount[index].add(_amount);\r\n        pool.stakers = pool.stakers.add(1);\r\n\r\n        uint256 entryTime = nextStakingClaimBlock.sub(block.number);\r\n        uint256 equity = _amount.mul(entryTime);\r\n        if (user.stakingBlock < lastStakingClaimBlock) {\r\n            equity = user.amount[index].mul(distanceBetweenClaimBlocks);\r\n        }\r\n        pool.totalEquity = pool.totalEquity.add(equity);\r\n\r\n        user.equity[index] = user.equity[index].add(equity);\r\n\r\n\r\n        uint256 acceptableToEnter = thisStakingClaimBlock.sub(epochWindow);\r\n\r\n        if (!(block.number <= acceptableToEnter)) {\r\n            return false;\r\n        }\r\n\r\n        if (user.amount[index] != 0) {\r\n            claim(index);\r\n        }\r\n        user.stakingBlock = block.number;\r\n\r\n        // if (user.stakingBlock == 0)  {\r\n        // }\r\n\r\n        emit Enter(msg.sender, _amount);\r\n    }\r\n\r\n    function getNewPortion(uint256 equity, uint256 amount, uint256 _amount) public pure returns (uint256) {\r\n        return equity.sub(amount.sub(_amount).mul(10.pow(18)).div(amount).mul(equity).div(10.pow(18)));\r\n    }\r\n\r\n\r\n    //leave stake, forfeits monthly rewards.\r\n    function leave(uint256 _amount, uint256 _index) public {\r\n        UserInfo storage user = userInfo[msg.sender];\r\n        require(user.amount[_index] > 0);\r\n\r\n        Pool storage pool = pools[_index];\r\n        require(pool.lp_contract != address(0));\r\n        require(pool.weight != 0);\r\n\r\n        IERC20 token = IERC20(pool.lp_contract);\r\n\r\n        uint256 withdrawAmount = _amount;\r\n\r\n        user.amount[_index] = user.amount[_index].sub(_amount);\r\n        user.stakingBlock = 0;\r\n        pool.totalStaked = pool.totalStaked.sub(_amount);\r\n        pool.stakers = pool.stakers.sub(1);\r\n\r\n        uint256 portion = getNewPortion(user.equity[_index], user.amount[_index], _amount);\r\n        user.equity[_index] = user.equity[_index].sub(portion);\r\n        pool.totalEquity = pool.totalEquity.sub(portion);\r\n\r\n\r\n        require((token.balanceOf(address(this)) - oracleFees) >= withdrawAmount);\r\n        token.transfer(msg.sender, withdrawAmount);\r\n        emit Leave(msg.sender, withdrawAmount);\r\n    }\r\n\r\n    function claim(uint256 _index) public returns (bool) {\r\n        UserInfo storage user = userInfo[msg.sender];\r\n        require(user.equity[_index] > 0);\r\n\r\n        require(user.stakingBlock <= thisStakingClaimBlock);\r\n\r\n        uint256 acceptableClaim = lastStakingClaimBlock.sub(blockClaimWindow);\r\n\r\n        if (!(block.number >= acceptableClaim)) {\r\n            return false;\r\n        }\r\n\r\n        if (lastStakingClaimBlock == thisStakingClaimBlock) {\r\n            lastStakingClaimBlock = thisStakingClaimBlock;\r\n            thisStakingClaimBlock = thisStakingClaimBlock.add(epochWindow);\r\n            distanceBetweenClaimBlocks = thisStakingClaimBlock.sub(lastStakingClaimBlock);\r\n        }\r\n\r\n        uint256 base_reward = getPendingReward(msg.sender, _index);\r\n        uint256 fee_reward = getFeeReward(msg.sender, _index);\r\n        require(base_reward > 0);\r\n        user.stakingBlock = thisStakingClaimBlock;\r\n        user.equity[_index] = user.amount[_index].mul(nextStakingClaimBlock.sub(thisStakingClaimBlock));\r\n        wXEQContract.mint(msg.sender, base_reward);\r\n\r\n        if (fee_reward > 0) {\r\n            oracleFees = oracleFees.sub(fee_reward);\r\n            require(wXEQContract.balanceOf(address(this)) >= fee_reward);\r\n            wXEQContract.transfer(msg.sender, fee_reward);\r\n        }\r\n\r\n        emit WithdrawRewards(msg.sender, base_reward.add(fee_reward));\r\n        return true;\r\n    }\r\n}\r\n",
  "sourcePath": "C:/Users/Thomas/WebstormProjects/eth-equilibria/truffle/contracts/wXEQLPStaking.sol",
  "compiler": {
    "name": "solc",
    "version": "0.7.6+commit.7338295f.Emscripten.clang"
  },
  "schemaVersion": "3.3.3",
  "updatedAt": "2021-03-05T00:41:25.794Z",
  "devdoc": {
    "kind": "dev",
    "methods": {},
    "version": 1
  },
  "userdoc": {
    "kind": "user",
    "methods": {},
    "version": 1
  }
}