{
  "contractName": "Master",
  "abi": [
    {
      "inputs": [],
      "stateMutability": "nonpayable",
      "type": "constructor"
    },
    {
      "anonymous": false,
      "inputs": [
        {
          "indexed": true,
          "internalType": "address",
          "name": "previousOwner",
          "type": "address"
        },
        {
          "indexed": true,
          "internalType": "address",
          "name": "newOwner",
          "type": "address"
        }
      ],
      "name": "OwnershipTransferred",
      "type": "event"
    },
    {
      "inputs": [
        {
          "internalType": "uint256",
          "name": "",
          "type": "uint256"
        }
      ],
      "name": "access",
      "outputs": [
        {
          "internalType": "address",
          "name": "",
          "type": "address"
        }
      ],
      "stateMutability": "view",
      "type": "function"
    },
    {
      "inputs": [
        {
          "internalType": "address",
          "name": "addr",
          "type": "address"
        }
      ],
      "name": "addAccess",
      "outputs": [
        {
          "internalType": "bool",
          "name": "",
          "type": "bool"
        }
      ],
      "stateMutability": "nonpayable",
      "type": "function"
    },
    {
      "inputs": [],
      "name": "backupContract",
      "outputs": [
        {
          "internalType": "contract DataStorage",
          "name": "",
          "type": "address"
        }
      ],
      "stateMutability": "view",
      "type": "function"
    },
    {
      "inputs": [],
      "name": "checkAccess",
      "outputs": [
        {
          "internalType": "bool",
          "name": "",
          "type": "bool"
        }
      ],
      "stateMutability": "view",
      "type": "function"
    },
    {
      "inputs": [
        {
          "internalType": "address",
          "name": "addy",
          "type": "address"
        }
      ],
      "name": "checkAccessAddy",
      "outputs": [
        {
          "internalType": "bool",
          "name": "",
          "type": "bool"
        }
      ],
      "stateMutability": "view",
      "type": "function"
    },
    {
      "inputs": [],
      "name": "contractCreator",
      "outputs": [
        {
          "internalType": "address",
          "name": "",
          "type": "address"
        }
      ],
      "stateMutability": "view",
      "type": "function"
    },
    {
      "inputs": [],
      "name": "masterContract",
      "outputs": [
        {
          "internalType": "address",
          "name": "",
          "type": "address"
        }
      ],
      "stateMutability": "view",
      "type": "function"
    },
    {
      "inputs": [
        {
          "internalType": "address",
          "name": "addy",
          "type": "address"
        }
      ],
      "name": "newMaster",
      "outputs": [
        {
          "internalType": "bool",
          "name": "",
          "type": "bool"
        }
      ],
      "stateMutability": "nonpayable",
      "type": "function"
    },
    {
      "inputs": [],
      "name": "owner",
      "outputs": [
        {
          "internalType": "address",
          "name": "",
          "type": "address"
        }
      ],
      "stateMutability": "view",
      "type": "function"
    },
    {
      "inputs": [],
      "name": "presaleContract",
      "outputs": [
        {
          "internalType": "address",
          "name": "",
          "type": "address"
        }
      ],
      "stateMutability": "view",
      "type": "function"
    },
    {
      "inputs": [
        {
          "internalType": "address",
          "name": "addr",
          "type": "address"
        }
      ],
      "name": "removeAccess",
      "outputs": [
        {
          "internalType": "bool",
          "name": "success",
          "type": "bool"
        }
      ],
      "stateMutability": "nonpayable",
      "type": "function"
    },
    {
      "inputs": [],
      "name": "renounceOwnership",
      "outputs": [],
      "stateMutability": "nonpayable",
      "type": "function"
    },
    {
      "inputs": [],
      "name": "softStakingContract",
      "outputs": [
        {
          "internalType": "contract SoftStaking",
          "name": "",
          "type": "address"
        }
      ],
      "stateMutability": "view",
      "type": "function"
    },
    {
      "inputs": [],
      "name": "swapContract",
      "outputs": [
        {
          "internalType": "contract XEQSwaps",
          "name": "",
          "type": "address"
        }
      ],
      "stateMutability": "view",
      "type": "function"
    },
    {
      "inputs": [
        {
          "internalType": "address",
          "name": "newOwner",
          "type": "address"
        }
      ],
      "name": "transferOwnership",
      "outputs": [],
      "stateMutability": "nonpayable",
      "type": "function"
    },
    {
      "inputs": [],
      "name": "wXEQContract",
      "outputs": [
        {
          "internalType": "contract wXEQ",
          "name": "",
          "type": "address"
        }
      ],
      "stateMutability": "view",
      "type": "function"
    },
    {
      "inputs": [
        {
          "internalType": "address",
          "name": "w",
          "type": "address"
        },
        {
          "internalType": "address",
          "name": "d",
          "type": "address"
        },
        {
          "internalType": "address",
          "name": "pre",
          "type": "address"
        },
        {
          "internalType": "address",
          "name": "staking",
          "type": "address"
        },
        {
          "internalType": "address",
          "name": "swap",
          "type": "address"
        }
      ],
      "name": "updateAddress",
      "outputs": [
        {
          "internalType": "bool",
          "name": "",
          "type": "bool"
        }
      ],
      "stateMutability": "nonpayable",
      "type": "function"
    },
    {
      "inputs": [],
      "name": "getWXEQContract",
      "outputs": [
        {
          "internalType": "address",
          "name": "",
          "type": "address"
        }
      ],
      "stateMutability": "view",
      "type": "function"
    },
    {
      "inputs": [],
      "name": "getWXEQSaleContract",
      "outputs": [
        {
          "internalType": "address",
          "name": "",
          "type": "address"
        }
      ],
      "stateMutability": "view",
      "type": "function"
    },
    {
      "inputs": [],
      "name": "getWXEQStakingContract",
      "outputs": [
        {
          "internalType": "address",
          "name": "",
          "type": "address"
        }
      ],
      "stateMutability": "view",
      "type": "function"
    },
    {
      "inputs": [],
      "name": "getWXEQSwapContract",
      "outputs": [
        {
          "internalType": "address",
          "name": "",
          "type": "address"
        }
      ],
      "stateMutability": "view",
      "type": "function"
    },
    {
      "inputs": [],
      "name": "getDataStorageContract",
      "outputs": [
        {
          "internalType": "address",
          "name": "",
          "type": "address"
        }
      ],
      "stateMutability": "view",
      "type": "function"
    }
  ],
  "bytecode": "0x608060405234801561001057600080fd5b5060006100246401000000006100fe810204565b60008054600160a060020a038316600160a060020a031991821681178355600180549092163317909155604051929350917f8be0079c531659141344cd1fd0a4f28419497f9722a3daafe3b4186f6b6457e0908290a350600280546001808201835560008390527f405787fa12a823e0f2b7631cc41b3ba8828b3321ca811111fa75cd3aa3bb5ace918201805433600160a060020a03199182168117909255600380543090831684178316811790915585548085018755850180548316909317909255845492830190945591018054909216179055610102565b3390565b610a68806101116000396000f3fe608060405234801561001057600080fd5b506004361061015f576000357c0100000000000000000000000000000000000000000000000000000000900480638823da6c116100d5578063bc9f0ddc11610099578063bc9f0ddc146102c5578063cd446e22146102cd578063cec70038146102d5578063d076e294146102fb578063ecb1013514610303578063f2fde38b1461030b5761015f565b80638823da6c146102615780638da5cb5b146102875780638ea830311461028f578063990826bc14610297578063a118f2491461029f5761015f565b806348d351341161012757806348d35134146101da57806352fb3b3f146101e257806363d9df85146101ea578063715018a6146101f25780637264909e146101fc578063803ad4de146102445761015f565b80631e2f73b1146101645780632b2be647146101885780632b6f64e2146101905780632e7c28ba14610198578063462dcfa0146101a0575b600080fd5b61016c610331565b60408051600160a060020a039092168252519081900360200190f35b61016c610340565b61016c61034f565b61016c61035e565b6101c6600480360360208110156101b657600080fd5b5035600160a060020a031661036d565b604080519115158252519081900360200190f35b61016c6103fb565b61016c61040a565b61016c610419565b6101fa610428565b005b6101c6600480360360a081101561021257600080fd5b50600160a060020a038135811691602081013582169160408201358116916060810135821691608090910135166104f1565b61016c6004803603602081101561025a57600080fd5b503561067d565b6101c66004803603602081101561027757600080fd5b5035600160a060020a03166106a7565b61016c610751565b61016c610760565b61016c61076f565b6101c6600480360360208110156102b557600080fd5b5035600160a060020a031661077e565b61016c61084a565b61016c610859565b6101c6600480360360208110156102eb57600080fd5b5035600160a060020a0316610868565b61016c6108b4565b6101c66108c3565b6101fa6004803603602081101561032157600080fd5b5035600160a060020a03166108dd565b600154600160a060020a031681565b600454600160a060020a031681565b600454600160a060020a031690565b600754600160a060020a031690565b60006103776109e8565b600054600160a060020a039081169116146103ca576040805160e560020a62461bcd0281526020600482018190526024820152600080516020610a13833981519152604482015290519081900360640190fd5b506003805473ffffffffffffffffffffffffffffffffffffffff1916600160a060020a03831617905560015b919050565b600654600160a060020a031690565b600754600160a060020a031681565b600554600160a060020a031681565b6104306109e8565b600054600160a060020a03908116911614610483576040805160e560020a62461bcd0281526020600482018190526024820152600080516020610a13833981519152604482015290519081900360640190fd5b60015460008054604051600160a060020a0393841693909116917f8be0079c531659141344cd1fd0a4f28419497f9722a3daafe3b4186f6b6457e091a36001546000805473ffffffffffffffffffffffffffffffffffffffff1916600160a060020a03909216919091179055565b60006104fb6109e8565b600054600160a060020a0390811691161461054e576040805160e560020a62461bcd0281526020600482018190526024820152600080516020610a13833981519152604482015290519081900360640190fd5b506003805473ffffffffffffffffffffffffffffffffffffffff19908116301790915560048054600160a060020a038881169184169190911791829055600680548883169085161781556005805488841690861681179091556007805488851690871617815560088054888616908816178155600280546001818101835560008390527f405787fa12a823e0f2b7631cc41b3ba8828b3321ca811111fa75cd3aa3bb5ace91820180548b169989169990991790985585548254808a018455820180548b1691891691909117905581548089018355810180548a169095179094559354845480880186558401805489169187169190911790559054835480870185558301805488169186169190911790555482548086019093559101805490941691161790915595945050505050565b6002818154811061068d57600080fd5b600091825260209091200154600160a060020a0316905081565b60006106b16108c3565b6106ba57600080fd5b60005b60025481101561074857600281815481106106d457fe5b600091825260209091200154600160a060020a0384811691161415610740576002818154811061070057fe5b6000918252602090912001805473ffffffffffffffffffffffffffffffffffffffff1916905561072f83610868565b1561073657fe5b60019150506103f6565b6001016106bd565b50600092915050565b600054600160a060020a031690565b600854600160a060020a031681565b600554600160a060020a031690565b60006107886109e8565b600054600160a060020a039081169116146107db576040805160e560020a62461bcd0281526020600482018190526024820152600080516020610a13833981519152604482015290519081900360640190fd5b600280546001810182556000919091527f405787fa12a823e0f2b7631cc41b3ba8828b3321ca811111fa75cd3aa3bb5ace01805473ffffffffffffffffffffffffffffffffffffffff1916600160a060020a03841617905561083c82610868565b61084257fe5b506001919050565b600654600160a060020a031681565b600354600160a060020a031681565b6000805b600254811015610748576002818154811061088357fe5b600091825260209091200154600160a060020a03848116911614156108ac5760019150506103f6565b60010161086c565b600854600160a060020a031690565b60006108ce33610868565b6108d757600080fd5b50600090565b6108e56109e8565b600054600160a060020a03908116911614610938576040805160e560020a62461bcd0281526020600482018190526024820152600080516020610a13833981519152604482015290519081900360640190fd5b600160a060020a0381166109805760405160e560020a62461bcd0281526004018080602001828103825260268152602001806109ed6026913960400191505060405180910390fd5b60008054604051600160a060020a03808516939216917f8be0079c531659141344cd1fd0a4f28419497f9722a3daafe3b4186f6b6457e091a36000805473ffffffffffffffffffffffffffffffffffffffff1916600160a060020a0392909216919091179055565b339056fe4f776e61626c653a206e6577206f776e657220697320746865207a65726f20616464726573734f776e61626c653a2063616c6c6572206973206e6f7420746865206f776e6572a2646970667358221220f82255cf5a127b928e5e6200533c8ba0a0d89b151dfa134b6e734c31c4930d6d64736f6c63430007060033",
  "immutableReferences": {},
  "source": "// SPDX-License-Identifier: MIT\r\npragma solidity >=0.4.25 <0.8.0;\r\n\r\nimport \"../wXEQ.sol\";\r\nimport \"../wXEQSale.sol\";\r\nimport \"../wXEQStaking.sol\";\r\nimport \"../wXEQSwaps.sol\";\r\nimport \"./DataStorage.sol\";\r\nimport \"./Accessible.sol\";\r\nimport \"./Upgradeable.sol\";\r\nimport \"./SafeMath.sol\";\r\n\r\n\r\ncontract Master is Accessible, Upgradeable {\r\n    using SafeMath for uint256;\r\n    \r\n    wXEQ public wXEQContract;\r\n    address public presaleContract;\r\n    DataStorage public backupContract;\r\n    SoftStaking public softStakingContract;\r\n    XEQSwaps public swapContract;\r\n\r\n    uint256 devFeeVal1;\r\n    uint256 devFeeVal2;\r\n\r\n    constructor() {\r\n        masterContract = address(this);\r\n        access.push(msg.sender);\r\n        access.push(address(this));\r\n    }\r\n\r\n    function updateAddress(address w, address d, address pre, address staking, address swap) public onlyOwner returns (bool) {\r\n        masterContract = address(this);\r\n        wXEQContract = wXEQ(address(w));\r\n        backupContract = DataStorage(address(d));\r\n        presaleContract = address(pre);\r\n        softStakingContract = SoftStaking(address(staking));\r\n        swapContract = XEQSwaps(address(swap));\r\n        access.push(address(wXEQContract));\r\n        access.push(address(backupContract));\r\n        access.push(pre);\r\n        access.push(address(backupContract));\r\n        access.push(address(softStakingContract));\r\n        access.push(address(swapContract));\r\n        return true;\r\n    }\r\n\r\n    function getWXEQContract() public view returns (address) {\r\n        return address(wXEQContract);\r\n    }\r\n\r\n    function getWXEQSaleContract() public view returns (address) {\r\n        return address(presaleContract);\r\n    }\r\n\r\n    function getWXEQStakingContract() public view returns (address) {\r\n        return address(softStakingContract);\r\n    }\r\n\r\n    function getWXEQSwapContract() public view returns (address) {\r\n        return address(swapContract);\r\n    }\r\n\r\n    function getDataStorageContract() public view returns (address) {\r\n        return address(backupContract);\r\n    }\r\n\r\n}\r\n",
  "sourcePath": "C:/Users/harri/OneDrive/Documents/EquilibriaWagers/eth-equilibria/truffle/contracts/tools/Master.sol",
  "compiler": {
    "name": "solc",
    "version": "0.7.6+commit.7338295f.Emscripten.clang"
  },
  "schemaVersion": "3.3.3",
  "updatedAt": "2021-01-09T01:41:56.806Z",
  "devdoc": {
    "kind": "dev",
    "methods": {},
    "version": 1
  },
  "userdoc": {
    "kind": "user",
    "methods": {},
    "version": 1
  }
}