{
  "contractName": "Master",
  "abi": [
    {
      "inputs": [],
      "stateMutability": "nonpayable",
      "type": "constructor"
    },
    {
      "anonymous": false,
      "inputs": [
        {
          "indexed": true,
          "internalType": "address",
          "name": "previousOwner",
          "type": "address"
        },
        {
          "indexed": true,
          "internalType": "address",
          "name": "newOwner",
          "type": "address"
        }
      ],
      "name": "OwnershipTransferred",
      "type": "event"
    },
    {
      "inputs": [
        {
          "internalType": "uint256",
          "name": "",
          "type": "uint256"
        }
      ],
      "name": "access",
      "outputs": [
        {
          "internalType": "address",
          "name": "",
          "type": "address"
        }
      ],
      "stateMutability": "view",
      "type": "function"
    },
    {
      "inputs": [
        {
          "internalType": "address",
          "name": "addr",
          "type": "address"
        }
      ],
      "name": "addAccess",
      "outputs": [
        {
          "internalType": "bool",
          "name": "",
          "type": "bool"
        }
      ],
      "stateMutability": "nonpayable",
      "type": "function"
    },
    {
      "inputs": [],
      "name": "backupContract",
      "outputs": [
        {
          "internalType": "contract DataStorage",
          "name": "",
          "type": "address"
        }
      ],
      "stateMutability": "view",
      "type": "function"
    },
    {
      "inputs": [],
      "name": "checkAccess",
      "outputs": [
        {
          "internalType": "bool",
          "name": "",
          "type": "bool"
        }
      ],
      "stateMutability": "view",
      "type": "function"
    },
    {
      "inputs": [
        {
          "internalType": "address",
          "name": "addy",
          "type": "address"
        }
      ],
      "name": "checkAccessAddy",
      "outputs": [
        {
          "internalType": "bool",
          "name": "",
          "type": "bool"
        }
      ],
      "stateMutability": "view",
      "type": "function"
    },
    {
      "inputs": [],
      "name": "contractCreator",
      "outputs": [
        {
          "internalType": "address",
          "name": "",
          "type": "address"
        }
      ],
      "stateMutability": "view",
      "type": "function"
    },
    {
      "inputs": [],
      "name": "masterContract",
      "outputs": [
        {
          "internalType": "address",
          "name": "",
          "type": "address"
        }
      ],
      "stateMutability": "view",
      "type": "function"
    },
    {
      "inputs": [
        {
          "internalType": "address",
          "name": "addy",
          "type": "address"
        }
      ],
      "name": "newMaster",
      "outputs": [
        {
          "internalType": "bool",
          "name": "",
          "type": "bool"
        }
      ],
      "stateMutability": "nonpayable",
      "type": "function"
    },
    {
      "inputs": [],
      "name": "owner",
      "outputs": [
        {
          "internalType": "address",
          "name": "",
          "type": "address"
        }
      ],
      "stateMutability": "view",
      "type": "function"
    },
    {
      "inputs": [],
      "name": "presaleContract",
      "outputs": [
        {
          "internalType": "address",
          "name": "",
          "type": "address"
        }
      ],
      "stateMutability": "view",
      "type": "function"
    },
    {
      "inputs": [
        {
          "internalType": "address",
          "name": "addr",
          "type": "address"
        }
      ],
      "name": "removeAccess",
      "outputs": [
        {
          "internalType": "bool",
          "name": "success",
          "type": "bool"
        }
      ],
      "stateMutability": "nonpayable",
      "type": "function"
    },
    {
      "inputs": [],
      "name": "renounceOwnership",
      "outputs": [],
      "stateMutability": "nonpayable",
      "type": "function"
    },
    {
      "inputs": [],
      "name": "softStakingContract",
      "outputs": [
        {
          "internalType": "contract SoftStaking",
          "name": "",
          "type": "address"
        }
      ],
      "stateMutability": "view",
      "type": "function"
    },
    {
      "inputs": [],
      "name": "swapContract",
      "outputs": [
        {
          "internalType": "contract XEQSwaps",
          "name": "",
          "type": "address"
        }
      ],
      "stateMutability": "view",
      "type": "function"
    },
    {
      "inputs": [
        {
          "internalType": "address",
          "name": "newOwner",
          "type": "address"
        }
      ],
      "name": "transferOwnership",
      "outputs": [],
      "stateMutability": "nonpayable",
      "type": "function"
    },
    {
      "inputs": [],
      "name": "wXEQContract",
      "outputs": [
        {
          "internalType": "contract wXEQ",
          "name": "",
          "type": "address"
        }
      ],
      "stateMutability": "view",
      "type": "function"
    },
    {
      "inputs": [
        {
          "internalType": "address",
          "name": "w",
          "type": "address"
        },
        {
          "internalType": "address",
          "name": "d",
          "type": "address"
        },
        {
          "internalType": "address",
          "name": "pre",
          "type": "address"
        },
        {
          "internalType": "address",
          "name": "staking",
          "type": "address"
        },
        {
          "internalType": "address",
          "name": "swap",
          "type": "address"
        }
      ],
      "name": "updateAddress",
      "outputs": [
        {
          "internalType": "bool",
          "name": "",
          "type": "bool"
        }
      ],
      "stateMutability": "nonpayable",
      "type": "function"
    },
    {
      "inputs": [],
      "name": "getWXEQContract",
      "outputs": [
        {
          "internalType": "address",
          "name": "",
          "type": "address"
        }
      ],
      "stateMutability": "view",
      "type": "function"
    },
    {
      "inputs": [],
      "name": "getWXEQSaleContract",
      "outputs": [
        {
          "internalType": "address",
          "name": "",
          "type": "address"
        }
      ],
      "stateMutability": "view",
      "type": "function"
    },
    {
      "inputs": [],
      "name": "getWXEQStakingContract",
      "outputs": [
        {
          "internalType": "address",
          "name": "",
          "type": "address"
        }
      ],
      "stateMutability": "view",
      "type": "function"
    },
    {
      "inputs": [],
      "name": "getWXEQSwapContract",
      "outputs": [
        {
          "internalType": "address",
          "name": "",
          "type": "address"
        }
      ],
      "stateMutability": "view",
      "type": "function"
    },
    {
      "inputs": [],
      "name": "getDataStorageContract",
      "outputs": [
        {
          "internalType": "address",
          "name": "",
          "type": "address"
        }
      ],
      "stateMutability": "view",
      "type": "function"
    }
  ],
  "bytecode": "0x608060405234801561001057600080fd5b50600061002a6102b9640100000000026401000000009004565b9050806000806101000a81548173ffffffffffffffffffffffffffffffffffffffff021916908373ffffffffffffffffffffffffffffffffffffffff16021790555033600160006101000a81548173ffffffffffffffffffffffffffffffffffffffff021916908373ffffffffffffffffffffffffffffffffffffffff1602179055508073ffffffffffffffffffffffffffffffffffffffff16600073ffffffffffffffffffffffffffffffffffffffff167f8be0079c531659141344cd1fd0a4f28419497f9722a3daafe3b4186f6b6457e060405160405180910390a3506002339080600181540180825580915050600190039060005260206000200160009091909190916101000a81548173ffffffffffffffffffffffffffffffffffffffff021916908373ffffffffffffffffffffffffffffffffffffffff16021790555033600360006101000a81548173ffffffffffffffffffffffffffffffffffffffff021916908373ffffffffffffffffffffffffffffffffffffffff16021790555030600360006101000a81548173ffffffffffffffffffffffffffffffffffffffff021916908373ffffffffffffffffffffffffffffffffffffffff1602179055506002339080600181540180825580915050600190039060005260206000200160009091909190916101000a81548173ffffffffffffffffffffffffffffffffffffffff021916908373ffffffffffffffffffffffffffffffffffffffff1602179055506002309080600181540180825580915050600190039060005260206000200160009091909190916101000a81548173ffffffffffffffffffffffffffffffffffffffff021916908373ffffffffffffffffffffffffffffffffffffffff1602179055506102c1565b600033905090565b6116f4806102d06000396000f3fe608060405234801561001057600080fd5b506004361061015f576000357c0100000000000000000000000000000000000000000000000000000000900480638823da6c116100d5578063bc9f0ddc11610099578063bc9f0ddc146105b6578063cd446e22146105ea578063cec700381461061e578063d076e29414610678578063ecb10135146106ac578063f2fde38b146106cc5761015f565b80638823da6c146104665780638da5cb5b146104c05780638ea83031146104f4578063990826bc14610528578063a118f2491461055c5761015f565b806348d351341161012757806348d351341461028e57806352fb3b3f146102c257806363d9df85146102f6578063715018a61461032a5780637264909e14610334578063803ad4de1461040e5761015f565b80631e2f73b1146101645780632b2be647146101985780632b6f64e2146101cc5780632e7c28ba14610200578063462dcfa014610234575b600080fd5b61016c610710565b604051808273ffffffffffffffffffffffffffffffffffffffff16815260200191505060405180910390f35b6101a0610736565b604051808273ffffffffffffffffffffffffffffffffffffffff16815260200191505060405180910390f35b6101d461075c565b604051808273ffffffffffffffffffffffffffffffffffffffff16815260200191505060405180910390f35b610208610786565b604051808273ffffffffffffffffffffffffffffffffffffffff16815260200191505060405180910390f35b6102766004803603602081101561024a57600080fd5b81019080803573ffffffffffffffffffffffffffffffffffffffff1690602001909291905050506107b0565b60405180821515815260200191505060405180910390f35b6102966108c4565b604051808273ffffffffffffffffffffffffffffffffffffffff16815260200191505060405180910390f35b6102ca6108ee565b604051808273ffffffffffffffffffffffffffffffffffffffff16815260200191505060405180910390f35b6102fe610914565b604051808273ffffffffffffffffffffffffffffffffffffffff16815260200191505060405180910390f35b61033261093a565b005b6103f6600480360360a081101561034a57600080fd5b81019080803573ffffffffffffffffffffffffffffffffffffffff169060200190929190803573ffffffffffffffffffffffffffffffffffffffff169060200190929190803573ffffffffffffffffffffffffffffffffffffffff169060200190929190803573ffffffffffffffffffffffffffffffffffffffff169060200190929190803573ffffffffffffffffffffffffffffffffffffffff169060200190929190505050610b02565b60405180821515815260200191505060405180910390f35b61043a6004803603602081101561042457600080fd5b810190808035906020019092919050505061105b565b604051808273ffffffffffffffffffffffffffffffffffffffff16815260200191505060405180910390f35b6104a86004803603602081101561047c57600080fd5b81019080803573ffffffffffffffffffffffffffffffffffffffff16906020019092919050505061109a565b60405180821515815260200191505060405180910390f35b6104c8611194565b604051808273ffffffffffffffffffffffffffffffffffffffff16815260200191505060405180910390f35b6104fc6111bd565b604051808273ffffffffffffffffffffffffffffffffffffffff16815260200191505060405180910390f35b6105306111e3565b604051808273ffffffffffffffffffffffffffffffffffffffff16815260200191505060405180910390f35b61059e6004803603602081101561057257600080fd5b81019080803573ffffffffffffffffffffffffffffffffffffffff16906020019092919050505061120d565b60405180821515815260200191505060405180910390f35b6105be611352565b604051808273ffffffffffffffffffffffffffffffffffffffff16815260200191505060405180910390f35b6105f2611378565b604051808273ffffffffffffffffffffffffffffffffffffffff16815260200191505060405180910390f35b6106606004803603602081101561063457600080fd5b81019080803573ffffffffffffffffffffffffffffffffffffffff16906020019092919050505061139e565b60405180821515815260200191505060405180910390f35b610680611440565b604051808273ffffffffffffffffffffffffffffffffffffffff16815260200191505060405180910390f35b6106b461146a565b60405180821515815260200191505060405180910390f35b61070e600480360360208110156106e257600080fd5b81019080803573ffffffffffffffffffffffffffffffffffffffff169060200190929190505050611485565b005b600160009054906101000a900473ffffffffffffffffffffffffffffffffffffffff1681565b600460009054906101000a900473ffffffffffffffffffffffffffffffffffffffff1681565b6000600460009054906101000a900473ffffffffffffffffffffffffffffffffffffffff16905090565b6000600760009054906101000a900473ffffffffffffffffffffffffffffffffffffffff16905090565b60006107ba611690565b73ffffffffffffffffffffffffffffffffffffffff1660008054906101000a900473ffffffffffffffffffffffffffffffffffffffff1673ffffffffffffffffffffffffffffffffffffffff161461087a576040517f08c379a00000000000000000000000000000000000000000000000000000000081526004018080602001828103825260208152602001807f4f776e61626c653a2063616c6c6572206973206e6f7420746865206f776e657281525060200191505060405180910390fd5b81600360006101000a81548173ffffffffffffffffffffffffffffffffffffffff021916908373ffffffffffffffffffffffffffffffffffffffff16021790555060019050919050565b6000600660009054906101000a900473ffffffffffffffffffffffffffffffffffffffff16905090565b600760009054906101000a900473ffffffffffffffffffffffffffffffffffffffff1681565b600560009054906101000a900473ffffffffffffffffffffffffffffffffffffffff1681565b610942611690565b73ffffffffffffffffffffffffffffffffffffffff1660008054906101000a900473ffffffffffffffffffffffffffffffffffffffff1673ffffffffffffffffffffffffffffffffffffffff1614610a02576040517f08c379a00000000000000000000000000000000000000000000000000000000081526004018080602001828103825260208152602001807f4f776e61626c653a2063616c6c6572206973206e6f7420746865206f776e657281525060200191505060405180910390fd5b600160009054906101000a900473ffffffffffffffffffffffffffffffffffffffff1673ffffffffffffffffffffffffffffffffffffffff1660008054906101000a900473ffffffffffffffffffffffffffffffffffffffff1673ffffffffffffffffffffffffffffffffffffffff167f8be0079c531659141344cd1fd0a4f28419497f9722a3daafe3b4186f6b6457e060405160405180910390a3600160009054906101000a900473ffffffffffffffffffffffffffffffffffffffff166000806101000a81548173ffffffffffffffffffffffffffffffffffffffff021916908373ffffffffffffffffffffffffffffffffffffffff160217905550565b6000610b0c611690565b73ffffffffffffffffffffffffffffffffffffffff1660008054906101000a900473ffffffffffffffffffffffffffffffffffffffff1673ffffffffffffffffffffffffffffffffffffffff1614610bcc576040517f08c379a00000000000000000000000000000000000000000000000000000000081526004018080602001828103825260208152602001807f4f776e61626c653a2063616c6c6572206973206e6f7420746865206f776e657281525060200191505060405180910390fd5b30600360006101000a81548173ffffffffffffffffffffffffffffffffffffffff021916908373ffffffffffffffffffffffffffffffffffffffff16021790555085600460006101000a81548173ffffffffffffffffffffffffffffffffffffffff021916908373ffffffffffffffffffffffffffffffffffffffff16021790555084600660006101000a81548173ffffffffffffffffffffffffffffffffffffffff021916908373ffffffffffffffffffffffffffffffffffffffff16021790555083600560006101000a81548173ffffffffffffffffffffffffffffffffffffffff021916908373ffffffffffffffffffffffffffffffffffffffff16021790555082600760006101000a81548173ffffffffffffffffffffffffffffffffffffffff021916908373ffffffffffffffffffffffffffffffffffffffff16021790555081600860006101000a81548173ffffffffffffffffffffffffffffffffffffffff021916908373ffffffffffffffffffffffffffffffffffffffff1602179055506002600460009054906101000a900473ffffffffffffffffffffffffffffffffffffffff169080600181540180825580915050600190039060005260206000200160009091909190916101000a81548173ffffffffffffffffffffffffffffffffffffffff021916908373ffffffffffffffffffffffffffffffffffffffff1602179055506002600660009054906101000a900473ffffffffffffffffffffffffffffffffffffffff169080600181540180825580915050600190039060005260206000200160009091909190916101000a81548173ffffffffffffffffffffffffffffffffffffffff021916908373ffffffffffffffffffffffffffffffffffffffff1602179055506002849080600181540180825580915050600190039060005260206000200160009091909190916101000a81548173ffffffffffffffffffffffffffffffffffffffff021916908373ffffffffffffffffffffffffffffffffffffffff1602179055506002600660009054906101000a900473ffffffffffffffffffffffffffffffffffffffff169080600181540180825580915050600190039060005260206000200160009091909190916101000a81548173ffffffffffffffffffffffffffffffffffffffff021916908373ffffffffffffffffffffffffffffffffffffffff1602179055506002600760009054906101000a900473ffffffffffffffffffffffffffffffffffffffff169080600181540180825580915050600190039060005260206000200160009091909190916101000a81548173ffffffffffffffffffffffffffffffffffffffff021916908373ffffffffffffffffffffffffffffffffffffffff1602179055506002600860009054906101000a900473ffffffffffffffffffffffffffffffffffffffff169080600181540180825580915050600190039060005260206000200160009091909190916101000a81548173ffffffffffffffffffffffffffffffffffffffff021916908373ffffffffffffffffffffffffffffffffffffffff1602179055506001905095945050505050565b6002818154811061106b57600080fd5b906000526020600020016000915054906101000a900473ffffffffffffffffffffffffffffffffffffffff1681565b60006110a461146a565b6110ad57600080fd5b60005b60028054905081101561118957600281815481106110ca57fe5b9060005260206000200160009054906101000a900473ffffffffffffffffffffffffffffffffffffffff1673ffffffffffffffffffffffffffffffffffffffff168373ffffffffffffffffffffffffffffffffffffffff16141561117c576002818154811061113557fe5b9060005260206000200160006101000a81549073ffffffffffffffffffffffffffffffffffffffff021916905561116b8361139e565b1561117257fe5b600191505061118f565b80806001019150506110b0565b50600090505b919050565b60008060009054906101000a900473ffffffffffffffffffffffffffffffffffffffff16905090565b600860009054906101000a900473ffffffffffffffffffffffffffffffffffffffff1681565b6000600560009054906101000a900473ffffffffffffffffffffffffffffffffffffffff16905090565b6000611217611690565b73ffffffffffffffffffffffffffffffffffffffff1660008054906101000a900473ffffffffffffffffffffffffffffffffffffffff1673ffffffffffffffffffffffffffffffffffffffff16146112d7576040517f08c379a00000000000000000000000000000000000000000000000000000000081526004018080602001828103825260208152602001807f4f776e61626c653a2063616c6c6572206973206e6f7420746865206f776e657281525060200191505060405180910390fd5b6002829080600181540180825580915050600190039060005260206000200160009091909190916101000a81548173ffffffffffffffffffffffffffffffffffffffff021916908373ffffffffffffffffffffffffffffffffffffffff1602179055506113438261139e565b61134957fe5b60019050919050565b600660009054906101000a900473ffffffffffffffffffffffffffffffffffffffff1681565b600360009054906101000a900473ffffffffffffffffffffffffffffffffffffffff1681565b600080600090505b60028054905081101561143557600281815481106113c057fe5b9060005260206000200160009054906101000a900473ffffffffffffffffffffffffffffffffffffffff1673ffffffffffffffffffffffffffffffffffffffff168373ffffffffffffffffffffffffffffffffffffffff16141561142857600191505061143b565b80806001019150506113a6565b50600090505b919050565b6000600860009054906101000a900473ffffffffffffffffffffffffffffffffffffffff16905090565b60006114753361139e565b61147e57600080fd5b6000905090565b61148d611690565b73ffffffffffffffffffffffffffffffffffffffff1660008054906101000a900473ffffffffffffffffffffffffffffffffffffffff1673ffffffffffffffffffffffffffffffffffffffff161461154d576040517f08c379a00000000000000000000000000000000000000000000000000000000081526004018080602001828103825260208152602001807f4f776e61626c653a2063616c6c6572206973206e6f7420746865206f776e657281525060200191505060405180910390fd5b600073ffffffffffffffffffffffffffffffffffffffff168173ffffffffffffffffffffffffffffffffffffffff1614156115d3576040517f08c379a00000000000000000000000000000000000000000000000000000000081526004018080602001828103825260268152602001806116996026913960400191505060405180910390fd5b8073ffffffffffffffffffffffffffffffffffffffff1660008054906101000a900473ffffffffffffffffffffffffffffffffffffffff1673ffffffffffffffffffffffffffffffffffffffff167f8be0079c531659141344cd1fd0a4f28419497f9722a3daafe3b4186f6b6457e060405160405180910390a3806000806101000a81548173ffffffffffffffffffffffffffffffffffffffff021916908373ffffffffffffffffffffffffffffffffffffffff16021790555050565b60003390509056fe4f776e61626c653a206e6577206f776e657220697320746865207a65726f2061646472657373a26469706673582212204dde37593aba6d6bf8fbdb5c49b39b99602b252d82480cc963c44895ba67e18a64736f6c63430007060033",
  "immutableReferences": {},
  "source": "// SPDX-License-Identifier: MIT\r\npragma solidity >=0.4.25 <0.8.0;\r\n\r\nimport \"../wXEQ.sol\";\r\nimport \"../wXEQSale.sol\";\r\nimport \"../wXEQStaking.sol\";\r\nimport \"../wXEQSwaps.sol\";\r\nimport \"./DataStorage.sol\";\r\nimport \"./Accessible.sol\";\r\nimport \"./Upgradeable.sol\";\r\nimport \"./SafeMath.sol\";\r\n\r\n\r\ncontract Master is Accessible, Upgradeable {\r\n    using SafeMath for uint256;\r\n    \r\n    wXEQ public wXEQContract;\r\n    address public presaleContract;\r\n    DataStorage public backupContract;\r\n    SoftStaking public softStakingContract;\r\n    XEQSwaps public swapContract;\r\n\r\n    uint256 devFeeVal1;\r\n    uint256 devFeeVal2;\r\n\r\n    constructor() {\r\n        masterContract = address(this);\r\n        access.push(msg.sender);\r\n        access.push(address(this));\r\n    }\r\n\r\n    function updateAddress(address w, address d, address pre, address staking, address swap) public onlyOwner returns (bool) {\r\n        masterContract = address(this);\r\n        wXEQContract = wXEQ(address(w));\r\n        backupContract = DataStorage(address(d));\r\n        presaleContract = address(pre);\r\n        softStakingContract = SoftStaking(address(staking));\r\n        swapContract = XEQSwaps(address(swap));\r\n        access.push(address(wXEQContract));\r\n        access.push(address(backupContract));\r\n        access.push(pre);\r\n        access.push(address(backupContract));\r\n        access.push(address(softStakingContract));\r\n        access.push(address(swapContract));\r\n        return true;\r\n    }\r\n\r\n    function getWXEQContract() public view returns (address) {\r\n        return address(wXEQContract);\r\n    }\r\n\r\n    function getWXEQSaleContract() public view returns (address) {\r\n        return address(presaleContract);\r\n    }\r\n\r\n    function getWXEQStakingContract() public view returns (address) {\r\n        return address(softStakingContract);\r\n    }\r\n\r\n    function getWXEQSwapContract() public view returns (address) {\r\n        return address(swapContract);\r\n    }\r\n\r\n    function getDataStorageContract() public view returns (address) {\r\n        return address(backupContract);\r\n    }\r\n\r\n}\r\n",
  "sourcePath": "C:/Users/Thomas/WebstormProjects/eth-equilibria/truffle/contracts/tools/Master.sol",
  "compiler": {
    "name": "solc",
    "version": "0.7.6+commit.7338295f.Emscripten.clang"
  },
  "schemaVersion": "3.3.4",
  "updatedAt": "2021-03-13T06:47:39.512Z",
  "devdoc": {
    "kind": "dev",
    "methods": {},
    "version": 1
  },
  "userdoc": {
    "kind": "user",
    "methods": {},
    "version": 1
  }
}