{
  "contractName": "OracleMaster",
  "abi": [
    {
      "inputs": [
        {
          "internalType": "contract DataStorage",
          "name": "d",
          "type": "address"
        },
        {
          "internalType": "address",
          "name": "w",
          "type": "address"
        }
      ],
      "stateMutability": "nonpayable",
      "type": "constructor"
    },
    {
      "anonymous": false,
      "inputs": [
        {
          "indexed": true,
          "internalType": "address",
          "name": "from",
          "type": "address"
        },
        {
          "indexed": true,
          "internalType": "address",
          "name": "to",
          "type": "address"
        },
        {
          "indexed": false,
          "internalType": "uint256",
          "name": "value",
          "type": "uint256"
        }
      ],
      "name": "Transfer",
      "type": "event"
    },
    {
      "inputs": [],
      "name": "checkAccess",
      "outputs": [
        {
          "internalType": "bool",
          "name": "",
          "type": "bool"
        }
      ],
      "stateMutability": "nonpayable",
      "type": "function"
    },
    {
      "inputs": [],
      "name": "masterContract",
      "outputs": [
        {
          "internalType": "address",
          "name": "",
          "type": "address"
        }
      ],
      "stateMutability": "view",
      "type": "function"
    },
    {
      "inputs": [
        {
          "internalType": "address",
          "name": "addy",
          "type": "address"
        }
      ],
      "name": "newMaster",
      "outputs": [
        {
          "internalType": "bool",
          "name": "",
          "type": "bool"
        }
      ],
      "stateMutability": "view",
      "type": "function"
    },
    {
      "inputs": [
        {
          "internalType": "address",
          "name": "addy",
          "type": "address"
        }
      ],
      "name": "updateSwapContract",
      "outputs": [
        {
          "internalType": "bool",
          "name": "",
          "type": "bool"
        }
      ],
      "stateMutability": "nonpayable",
      "type": "function"
    },
    {
      "inputs": [
        {
          "internalType": "bool",
          "name": "status",
          "type": "bool"
        }
      ],
      "name": "switchCentralized",
      "outputs": [
        {
          "internalType": "bool",
          "name": "",
          "type": "bool"
        }
      ],
      "stateMutability": "nonpayable",
      "type": "function"
    },
    {
      "inputs": [
        {
          "internalType": "address",
          "name": "addy",
          "type": "address"
        }
      ],
      "name": "isValidator",
      "outputs": [
        {
          "internalType": "bool",
          "name": "",
          "type": "bool"
        }
      ],
      "stateMutability": "view",
      "type": "function"
    },
    {
      "inputs": [
        {
          "internalType": "string",
          "name": "name",
          "type": "string"
        }
      ],
      "name": "createTask",
      "outputs": [
        {
          "internalType": "address",
          "name": "",
          "type": "address"
        }
      ],
      "stateMutability": "nonpayable",
      "type": "function"
    },
    {
      "inputs": [],
      "name": "newOracle",
      "outputs": [
        {
          "internalType": "bool",
          "name": "",
          "type": "bool"
        }
      ],
      "stateMutability": "nonpayable",
      "type": "function"
    },
    {
      "inputs": [
        {
          "internalType": "address",
          "name": "node",
          "type": "address"
        }
      ],
      "name": "claimRewards",
      "outputs": [
        {
          "internalType": "bool",
          "name": "",
          "type": "bool"
        },
        {
          "internalType": "uint256",
          "name": "",
          "type": "uint256"
        }
      ],
      "stateMutability": "nonpayable",
      "type": "function"
    },
    {
      "inputs": [],
      "name": "removeOracle",
      "outputs": [
        {
          "internalType": "bool",
          "name": "",
          "type": "bool"
        }
      ],
      "stateMutability": "nonpayable",
      "type": "function"
    },
    {
      "inputs": [],
      "name": "getOracleNum",
      "outputs": [
        {
          "internalType": "uint256",
          "name": "",
          "type": "uint256"
        }
      ],
      "stateMutability": "view",
      "type": "function"
    },
    {
      "inputs": [],
      "name": "getCurrentOracle",
      "outputs": [
        {
          "internalType": "address",
          "name": "",
          "type": "address"
        }
      ],
      "stateMutability": "view",
      "type": "function"
    },
    {
      "inputs": [],
      "name": "incrementOracleNum",
      "outputs": [
        {
          "internalType": "bool",
          "name": "",
          "type": "bool"
        }
      ],
      "stateMutability": "nonpayable",
      "type": "function"
    },
    {
      "inputs": [
        {
          "internalType": "address",
          "name": "task",
          "type": "address"
        },
        {
          "internalType": "uint256",
          "name": "val",
          "type": "uint256"
        }
      ],
      "name": "sendNumberData",
      "outputs": [
        {
          "internalType": "bool",
          "name": "",
          "type": "bool"
        }
      ],
      "stateMutability": "nonpayable",
      "type": "function"
    },
    {
      "inputs": [
        {
          "internalType": "address",
          "name": "task",
          "type": "address"
        },
        {
          "internalType": "string",
          "name": "val",
          "type": "string"
        }
      ],
      "name": "sendStringData",
      "outputs": [
        {
          "internalType": "bool",
          "name": "",
          "type": "bool"
        }
      ],
      "stateMutability": "nonpayable",
      "type": "function"
    },
    {
      "inputs": [
        {
          "internalType": "address",
          "name": "task",
          "type": "address"
        },
        {
          "internalType": "bool",
          "name": "val",
          "type": "bool"
        }
      ],
      "name": "sendBoolData",
      "outputs": [
        {
          "internalType": "bool",
          "name": "",
          "type": "bool"
        }
      ],
      "stateMutability": "nonpayable",
      "type": "function"
    },
    {
      "inputs": [
        {
          "internalType": "string",
          "name": "method",
          "type": "string"
        },
        {
          "internalType": "address",
          "name": "task",
          "type": "address"
        },
        {
          "internalType": "uint256",
          "name": "val",
          "type": "uint256"
        }
      ],
      "name": "sendSwapData",
      "outputs": [
        {
          "internalType": "bool",
          "name": "",
          "type": "bool"
        }
      ],
      "stateMutability": "nonpayable",
      "type": "function"
    }
  ],
  "bytecode": "0x60806040523480156200001157600080fd5b506040516200565e3803806200565e833981810160405260408110156200003757600080fd5b81019080805190602001909291908051906020019092919050505081600160006101000a81548173ffffffffffffffffffffffffffffffffffffffff021916908373ffffffffffffffffffffffffffffffffffffffff1602179055506000600381905550336000806101000a81548173ffffffffffffffffffffffffffffffffffffffff021916908373ffffffffffffffffffffffffffffffffffffffff1602179055506005309080600181540180825580915050600190039060005260206000200160009091909190916101000a81548173ffffffffffffffffffffffffffffffffffffffff021916908373ffffffffffffffffffffffffffffffffffffffff16021790555080600660006101000a81548173ffffffffffffffffffffffffffffffffffffffff021916908373ffffffffffffffffffffffffffffffffffffffff160217905550620001c7620001a86012600a620001f06401000000000262002517179091906401000000009004565b600a62000286640100000000026200259e179091906401000000009004565b6004819055506001600a60006101000a81548160ff0219169083151502179055505050620002c4565b60008082141562000205576001905062000280565b6001821415620002185782905062000280565b6000831480156200022a575060008214155b156200023a576000905062000280565b60008390506000600190505b838110156200027a576200026a828662000286640100000000026401000000009004565b9150808060010191505062000246565b50809150505b92915050565b6000808314156200029b5760009050620002be565b6000828402905082848281620002ad57fe5b0414620002b957600080fd5b809150505b92915050565b61538a80620002d46000396000f3fe60806040523480156200001157600080fd5b506004361062000141576000357c010000000000000000000000000000000000000000000000000000000090048063cb53a07411620000ce578063e243d7af1162000098578063e243d7af14620005fa578063ecb101351462000663578063ef5cfb8c1462000685578063f0bcd6a414620006e9578063facd743b14620007325762000141565b8063cb53a0741462000489578063cd446e221462000580578063d9ddf7ab14620005b6578063dab4655314620005d85762000141565b8063710a1c531162000110578063710a1c531462000321578063a618cba71462000341578063ac712dc61462000363578063b810eb4314620004225762000141565b8063111002aa146200014657806331fae1191462000231578063462dcfa014620002675780636e985dc014620002c4575b600080fd5b62000205600480360360208110156200015e57600080fd5b81019080803590602001906401000000008111156200017c57600080fd5b8201836020820111156200018f57600080fd5b80359060200191846001830284011164010000000083111715620001b257600080fd5b91908080601f016020809104026020016040519081016040528093929190818152602001838380828437600081840152601f19601f8201169050808301925050505050505091929192905050506200078f565b604051808273ffffffffffffffffffffffffffffffffffffffff16815260200191505060405180910390f35b6200023b620009d7565b604051808273ffffffffffffffffffffffffffffffffffffffff16815260200191505060405180910390f35b620002ac600480360360208110156200027f57600080fd5b81019080803573ffffffffffffffffffffffffffffffffffffffff16906020019092919050505062000a19565b60405180821515815260200191505060405180910390f35b6200030960048036036020811015620002dc57600080fd5b81019080803573ffffffffffffffffffffffffffffffffffffffff16906020019092919050505062000af4565b60405180821515815260200191505060405180910390f35b6200032b62000bac565b6040518082815260200191505060405180910390f35b6200034b62000bb6565b60405180821515815260200191505060405180910390f35b6200040a600480360360608110156200037b57600080fd5b81019080803590602001906401000000008111156200039957600080fd5b820183602082011115620003ac57600080fd5b80359060200191846001830284011164010000000083111715620003cf57600080fd5b9091929391929390803573ffffffffffffffffffffffffffffffffffffffff1690602001909291908035906020019092919050505062000ce8565b60405180821515815260200191505060405180910390f35b62000471600480360360408110156200043a57600080fd5b81019080803573ffffffffffffffffffffffffffffffffffffffff1690602001909291908035906020019092919050505062000f6b565b60405180821515815260200191505060405180910390f35b6200056860048036036040811015620004a157600080fd5b81019080803573ffffffffffffffffffffffffffffffffffffffff16906020019092919080359060200190640100000000811115620004df57600080fd5b820183602082011115620004f257600080fd5b803590602001918460018302840111640100000000831117156200051557600080fd5b91908080601f016020809104026020016040519081016040528093929190818152602001838380828437600081840152601f19601f820116905080830192505050505050509192919290505050620011e5565b60405180821515815260200191505060405180910390f35b6200058a62001599565b604051808273ffffffffffffffffffffffffffffffffffffffff16815260200191505060405180910390f35b620005c0620015bd565b60405180821515815260200191505060405180910390f35b620005e262001bd5565b60405180821515815260200191505060405180910390f35b6200064b600480360360408110156200061257600080fd5b81019080803573ffffffffffffffffffffffffffffffffffffffff16906020019092919080351515906020019092919050505062001db1565b60405180821515815260200191505060405180910390f35b6200066d62002031565b60405180821515815260200191505060405180910390f35b620006ca600480360360208110156200069d57600080fd5b81019080803573ffffffffffffffffffffffffffffffffffffffff169060200190929190505050620021ac565b6040518083151581526020018281526020019250505060405180910390f35b6200071a600480360360208110156200070157600080fd5b8101908080351515906020019092919050505062002437565b60405180821515815260200191505060405180910390f35b62000777600480360360208110156200074a57600080fd5b81019080803573ffffffffffffffffffffffffffffffffffffffff16906020019092919050505062002470565b60405180821515815260200191505060405180910390f35b6000808233604051620007a290620025fc565b80806020018373ffffffffffffffffffffffffffffffffffffffff168152602001828103825284818151815260200191508051906020019080838360005b83811015620007fd578082015181840152602081019050620007e0565b50505050905090810190601f1680156200082b5780820380516001836020036101000a031916815260200191505b509350505050604051809103906000f0801580156200084e573d6000803e3d6000fd5b50905082805190602001208173ffffffffffffffffffffffffffffffffffffffff166317d7de7c6040518163ffffffff167c0100000000000000000000000000000000000000000000000000000000028152600401600060405180830381600087803b158015620008be57600080fd5b505af1158015620008d3573d6000803e3d6000fd5b505050506040513d6000823e3d601f19601f820116820180604052506020811015620008fe57600080fd5b81019080805160405193929190846401000000008211156200091f57600080fd5b838201915060208201858111156200093657600080fd5b82518660018202830111640100000000821117156200095457600080fd5b8083526020830192505050908051906020019080838360005b838110156200098a5780820151818401526020810190506200096d565b50505050905090810190601f168015620009b85780820380516001836020036101000a031916815260200191505b506040525050508051906020012014620009ce57fe5b80915050919050565b6000600260035481548110620009e957fe5b9060005260206000200160009054906101000a900473ffffffffffffffffffffffffffffffffffffffff16905090565b60008060009054906101000a900473ffffffffffffffffffffffffffffffffffffffff1673ffffffffffffffffffffffffffffffffffffffff163373ffffffffffffffffffffffffffffffffffffffff161462000a7557600080fd5b8173ffffffffffffffffffffffffffffffffffffffff1660008054906101000a9050505060008054906101000a900473ffffffffffffffffffffffffffffffffffffffff1673ffffffffffffffffffffffffffffffffffffffff168273ffffffffffffffffffffffffffffffffffffffff161462000aef57fe5b919050565b600062000b0062002031565b62000b0a57600080fd5b81600760006101000a81548173ffffffffffffffffffffffffffffffffffffffff021916908373ffffffffffffffffffffffffffffffffffffffff160217905550600760009054906101000a900473ffffffffffffffffffffffffffffffffffffffff1673ffffffffffffffffffffffffffffffffffffffff168273ffffffffffffffffffffffffffffffffffffffff161462000ba357fe5b60019050919050565b6000600354905090565b6000600160009054906101000a900473ffffffffffffffffffffffffffffffffffffffff1673ffffffffffffffffffffffffffffffffffffffff16639ebd11ef336040518263ffffffff167c0100000000000000000000000000000000000000000000000000000000028152600401808273ffffffffffffffffffffffffffffffffffffffff16815260200191505060206040518083038186803b15801562000c5e57600080fd5b505afa15801562000c73573d6000803e3d6000fd5b505050506040513d602081101562000c8a57600080fd5b810190808051906020019092919050505062000ca557600080fd5b6002805490506003541062000cc257600060038190555062000ce1565b62000cda6001600354620025dc90919063ffffffff16565b6003819055505b6001905090565b600060026003548154811062000cfa57fe5b9060005260206000200160009054906101000a900473ffffffffffffffffffffffffffffffffffffffff1673ffffffffffffffffffffffffffffffffffffffff163373ffffffffffffffffffffffffffffffffffffffff161462000d5d57600080fd5b62000db3600454600860003373ffffffffffffffffffffffffffffffffffffffff1673ffffffffffffffffffffffffffffffffffffffff16815260200190815260200160002054620025dc90919063ffffffff16565b600860003373ffffffffffffffffffffffffffffffffffffffff1673ffffffffffffffffffffffffffffffffffffffff1681526020019081526020016000208190555062000e0062000bb6565b50600085858460405160240180828152602001915050604051602081830303815290604052919060405180838380828437808301925050509250505060405180910390207bffffffffffffffffffffffffffffffffffffffffffffffffffffffff19166020820180517bffffffffffffffffffffffffffffffffffffffffffffffffffffffff838183161783525050505090506000808573ffffffffffffffffffffffffffffffffffffffff16836040518082805190602001908083835b6020831062000ee3578051825260208201915060208101905060208303925062000ebe565b6001836020036101000a0380198251168184511680821785525050505050509050019150506000604051808303816000865af19150503d806000811462000f47576040519150601f19603f3d011682016040523d82523d6000602084013e62000f4c565b606091505b50915091508162000f5c57600080fd5b60019350505050949350505050565b600060026003548154811062000f7d57fe5b9060005260206000200160009054906101000a900473ffffffffffffffffffffffffffffffffffffffff1673ffffffffffffffffffffffffffffffffffffffff163373ffffffffffffffffffffffffffffffffffffffff161462000fe057600080fd5b62001036600454600860003373ffffffffffffffffffffffffffffffffffffffff1673ffffffffffffffffffffffffffffffffffffffff16815260200190815260200160002054620025dc90919063ffffffff16565b600860003373ffffffffffffffffffffffffffffffffffffffff1673ffffffffffffffffffffffffffffffffffffffff168152602001908152602001600020819055506200108362000bb6565b508273ffffffffffffffffffffffffffffffffffffffff1663c31188af836040518263ffffffff167c010000000000000000000000000000000000000000000000000000000002815260040180828152602001915050602060405180830381600087803b158015620010f457600080fd5b505af115801562001109573d6000803e3d6000fd5b505050506040513d60208110156200112057600080fd5b810190808051906020019092919050505050818373ffffffffffffffffffffffffffffffffffffffff1663aece12876040518163ffffffff167c010000000000000000000000000000000000000000000000000000000002815260040160206040518083038186803b1580156200119657600080fd5b505afa158015620011ab573d6000803e3d6000fd5b505050506040513d6020811015620011c257600080fd5b810190808051906020019092919050505014620011db57fe5b6001905092915050565b6000600260035481548110620011f757fe5b9060005260206000200160009054906101000a900473ffffffffffffffffffffffffffffffffffffffff1673ffffffffffffffffffffffffffffffffffffffff163373ffffffffffffffffffffffffffffffffffffffff16146200125a57600080fd5b620012b0600454600860003373ffffffffffffffffffffffffffffffffffffffff1673ffffffffffffffffffffffffffffffffffffffff16815260200190815260200160002054620025dc90919063ffffffff16565b600860003373ffffffffffffffffffffffffffffffffffffffff1673ffffffffffffffffffffffffffffffffffffffff16815260200190815260200160002081905550620012fd62000bb6565b508273ffffffffffffffffffffffffffffffffffffffff1663acb4950c836040518263ffffffff167c01000000000000000000000000000000000000000000000000000000000281526004018080602001828103825283818151815260200191508051906020019080838360005b83811015620013885780820151818401526020810190506200136b565b50505050905090810190601f168015620013b65780820380516001836020036101000a031916815260200191505b5092505050602060405180830381600087803b158015620013d657600080fd5b505af1158015620013eb573d6000803e3d6000fd5b505050506040513d60208110156200140257600080fd5b81019080805190602001909291905050505081805190602001208373ffffffffffffffffffffffffffffffffffffffff166306e919fc6040518163ffffffff167c010000000000000000000000000000000000000000000000000000000002815260040160006040518083038186803b1580156200147f57600080fd5b505afa15801562001494573d6000803e3d6000fd5b505050506040513d6000823e3d601f19601f820116820180604052506020811015620014bf57600080fd5b8101908080516040519392919084640100000000821115620014e057600080fd5b83820191506020820185811115620014f757600080fd5b82518660018202830111640100000000821117156200151557600080fd5b8083526020830192505050908051906020019080838360005b838110156200154b5780820151818401526020810190506200152e565b50505050905090810190601f168015620015795780820380516001836020036101000a031916815260200191505b5060405250505080519060200120146200158f57fe5b6001905092915050565b60008054906101000a900473ffffffffffffffffffffffffffffffffffffffff1681565b6000600a60009054906101000a900460ff1615620015ea57620015df62002031565b620015e957600080fd5b5b600160009054906101000a900473ffffffffffffffffffffffffffffffffffffffff1673ffffffffffffffffffffffffffffffffffffffff166356d399e86040518163ffffffff167c010000000000000000000000000000000000000000000000000000000002815260040160206040518083038186803b1580156200166f57600080fd5b505afa15801562001684573d6000803e3d6000fd5b505050506040513d60208110156200169b57600080fd5b8101908080519060200190929190505050600160009054906101000a900473ffffffffffffffffffffffffffffffffffffffff1673ffffffffffffffffffffffffffffffffffffffff166370a08231336040518263ffffffff167c0100000000000000000000000000000000000000000000000000000000028152600401808273ffffffffffffffffffffffffffffffffffffffff16815260200191505060206040518083038186803b1580156200175257600080fd5b505afa15801562001767573d6000803e3d6000fd5b505050506040513d60208110156200177e57600080fd5b810190808051906020019092919050505010156200179b57600080fd5b60003360008054906101000a900473ffffffffffffffffffffffffffffffffffffffff16604051620017cd906200260a565b808373ffffffffffffffffffffffffffffffffffffffff1681526020018273ffffffffffffffffffffffffffffffffffffffff16815260200192505050604051809103906000f08015801562001827573d6000803e3d6000fd5b509050600160009054906101000a900473ffffffffffffffffffffffffffffffffffffffff1673ffffffffffffffffffffffffffffffffffffffff16639d95f1cc826040518263ffffffff167c0100000000000000000000000000000000000000000000000000000000028152600401808273ffffffffffffffffffffffffffffffffffffffff168152602001915050602060405180830381600087803b158015620018d257600080fd5b505af1158015620018e7573d6000803e3d6000fd5b505050506040513d6020811015620018fe57600080fd5b8101908080519060200190929190505050506002819080600181540180825580915050600190039060005260206000200160009091909190916101000a81548173ffffffffffffffffffffffffffffffffffffffff021916908373ffffffffffffffffffffffffffffffffffffffff16021790555033600960008373ffffffffffffffffffffffffffffffffffffffff1673ffffffffffffffffffffffffffffffffffffffff16815260200190815260200160002060006101000a81548173ffffffffffffffffffffffffffffffffffffffff021916908373ffffffffffffffffffffffffffffffffffffffff1602179055506000600660009054906101000a900473ffffffffffffffffffffffffffffffffffffffff1673ffffffffffffffffffffffffffffffffffffffff166323b872dd3384600160009054906101000a900473ffffffffffffffffffffffffffffffffffffffff1673ffffffffffffffffffffffffffffffffffffffff166356d399e86040518163ffffffff167c010000000000000000000000000000000000000000000000000000000002815260040160206040518083038186803b15801562001ab857600080fd5b505afa15801562001acd573d6000803e3d6000fd5b505050506040513d602081101562001ae457600080fd5b81019080805190602001909291905050506040518463ffffffff167c0100000000000000000000000000000000000000000000000000000000028152600401808473ffffffffffffffffffffffffffffffffffffffff1681526020018373ffffffffffffffffffffffffffffffffffffffff1681526020018281526020019350505050602060405180830381600087803b15801562001b8257600080fd5b505af115801562001b97573d6000803e3d6000fd5b505050506040513d602081101562001bae57600080fd5b810190808051906020019092919050505090508062001bcc57600080fd5b60019250505090565b6000600160009054906101000a900473ffffffffffffffffffffffffffffffffffffffff1673ffffffffffffffffffffffffffffffffffffffff16639ebd11ef336040518263ffffffff167c0100000000000000000000000000000000000000000000000000000000028152600401808273ffffffffffffffffffffffffffffffffffffffff16815260200191505060206040518083038186803b15801562001c7d57600080fd5b505afa15801562001c92573d6000803e3d6000fd5b505050506040513d602081101562001ca957600080fd5b810190808051906020019092919050505062001cc457600080fd5b600160009054906101000a900473ffffffffffffffffffffffffffffffffffffffff1673ffffffffffffffffffffffffffffffffffffffff1663b2b99ec9336040518263ffffffff167c0100000000000000000000000000000000000000000000000000000000028152600401808273ffffffffffffffffffffffffffffffffffffffff168152602001915050602060405180830381600087803b15801562001d6c57600080fd5b505af115801562001d81573d6000803e3d6000fd5b505050506040513d602081101562001d9857600080fd5b8101908080519060200190929190505050506001905090565b600060026003548154811062001dc357fe5b9060005260206000200160009054906101000a900473ffffffffffffffffffffffffffffffffffffffff1673ffffffffffffffffffffffffffffffffffffffff163373ffffffffffffffffffffffffffffffffffffffff161462001e2657600080fd5b62001e7c600454600860003373ffffffffffffffffffffffffffffffffffffffff1673ffffffffffffffffffffffffffffffffffffffff16815260200190815260200160002054620025dc90919063ffffffff16565b600860003373ffffffffffffffffffffffffffffffffffffffff1673ffffffffffffffffffffffffffffffffffffffff1681526020019081526020016000208190555062001ec962000bb6565b508273ffffffffffffffffffffffffffffffffffffffff1663eff23557836040518263ffffffff167c0100000000000000000000000000000000000000000000000000000000028152600401808215158152602001915050602060405180830381600087803b15801562001f3c57600080fd5b505af115801562001f51573d6000803e3d6000fd5b505050506040513d602081101562001f6857600080fd5b8101908080519060200190929190505050508115158373ffffffffffffffffffffffffffffffffffffffff16633355a3b66040518163ffffffff167c010000000000000000000000000000000000000000000000000000000002815260040160206040518083038186803b15801562001fe057600080fd5b505afa15801562001ff5573d6000803e3d6000fd5b505050506040513d60208110156200200c57600080fd5b81019080805190602001909291905050501515146200202757fe5b6001905092915050565b6000806040516024016040516020818303038152906040527fecb10135000000000000000000000000000000000000000000000000000000007bffffffffffffffffffffffffffffffffffffffffffffffffffffffff19166020820180517bffffffffffffffffffffffffffffffffffffffffffffffffffffffff8381831617835250505050905060008060008054906101000a900473ffffffffffffffffffffffffffffffffffffffff1673ffffffffffffffffffffffffffffffffffffffff16836040518082805190602001908083835b6020831062002129578051825260208201915060208101905060208303925062002104565b6001836020036101000a0380198251168184511680821785525050505050509050019150506000604051808303816000865af19150503d80600081146200218d576040519150601f19603f3d011682016040523d82523d6000602084013e62002192565b606091505b509150915081620021a257600080fd5b6001935050505090565b6000803373ffffffffffffffffffffffffffffffffffffffff16600960008573ffffffffffffffffffffffffffffffffffffffff1673ffffffffffffffffffffffffffffffffffffffff16815260200190815260200160002060009054906101000a900473ffffffffffffffffffffffffffffffffffffffff1673ffffffffffffffffffffffffffffffffffffffff16146200224757600080fd5b6000600860008573ffffffffffffffffffffffffffffffffffffffff1673ffffffffffffffffffffffffffffffffffffffff1681526020019081526020016000205414156200229557600080fd5b6000600860008573ffffffffffffffffffffffffffffffffffffffff1673ffffffffffffffffffffffffffffffffffffffff168152602001908152602001600020549050600660009054906101000a900473ffffffffffffffffffffffffffffffffffffffff1673ffffffffffffffffffffffffffffffffffffffff166340c10f1933836040518363ffffffff167c0100000000000000000000000000000000000000000000000000000000028152600401808373ffffffffffffffffffffffffffffffffffffffff16815260200182815260200192505050600060405180830381600087803b1580156200238957600080fd5b505af11580156200239e573d6000803e3d6000fd5b505050506000600860008673ffffffffffffffffffffffffffffffffffffffff1673ffffffffffffffffffffffffffffffffffffffff168152602001908152602001600020819055506000600860008673ffffffffffffffffffffffffffffffffffffffff1673ffffffffffffffffffffffffffffffffffffffff16815260200190815260200160002054146200243157fe5b50915091565b60006200244362002031565b6200244d57600080fd5b81600a60006101000a81548160ff02191690831515021790555060019050919050565b600080600090505b6005805490508110156200250c57600581815481106200249457fe5b9060005260206000200160009054906101000a900473ffffffffffffffffffffffffffffffffffffffff1673ffffffffffffffffffffffffffffffffffffffff168373ffffffffffffffffffffffffffffffffffffffff161415620024fe57600191505062002512565b808060010191505062002478565b50600090505b919050565b6000808214156200252c576001905062002598565b60018214156200253f5782905062002598565b60008314801562002551575060008214155b1562002561576000905062002598565b60008390506000600190505b8381101562002592576200258282866200259e565b915080806001019150506200256d565b50809150505b92915050565b600080831415620025b35760009050620025d6565b6000828402905082848281620025c557fe5b0414620025d157600080fd5b809150505b92915050565b600080828401905083811015620025f257600080fd5b8091505092915050565b6110de806200261983390190565b611c5e80620036f78339019056fe60806040523480156200001157600080fd5b50604051620010de380380620010de833981810160405260408110156200003757600080fd5b81019080805160405193929190846401000000008211156200005857600080fd5b838201915060208201858111156200006f57600080fd5b82518660018202830111640100000000821117156200008d57600080fd5b8083526020830192505050908051906020019080838360005b83811015620000c3578082015181840152602081019050620000a6565b50505050905090810190601f168015620000f15780820380516001836020036101000a031916815260200191505b506040526020018051906020019092919050505060006200012062000261640100000000026401000000009004565b9050806000806101000a81548173ffffffffffffffffffffffffffffffffffffffff021916908373ffffffffffffffffffffffffffffffffffffffff16021790555033600160006101000a81548173ffffffffffffffffffffffffffffffffffffffff021916908373ffffffffffffffffffffffffffffffffffffffff1602179055508073ffffffffffffffffffffffffffffffffffffffff16600073ffffffffffffffffffffffffffffffffffffffff167f8be0079c531659141344cd1fd0a4f28419497f9722a3daafe3b4186f6b6457e060405160405180910390a35081600790805190602001906200021792919062000269565b5080600660006101000a81548173ffffffffffffffffffffffffffffffffffffffff021916908373ffffffffffffffffffffffffffffffffffffffff16021790555050506200031f565b600033905090565b828054600181600116156101000203166002900490600052602060002090601f016020900481019282620002a15760008555620002ed565b82601f10620002bc57805160ff1916838001178555620002ed565b82800160010185558215620002ed579182015b82811115620002ec578251825591602001919060010190620002cf565b5b509050620002fc919062000300565b5090565b5b808211156200031b57600081600090555060010162000301565b5090565b610daf806200032f6000396000f3fe608060405234801561001057600080fd5b50600436106100d1576000357c0100000000000000000000000000000000000000000000000000000000900480638da5cb5b1161008e5780638da5cb5b14610258578063acb4950c1461028c578063aece12871461035d578063c31188af1461037b578063eff23557146103bf578063f2fde38b14610405576100d1565b806306e919fc146100d657806317d7de7c146101595780631e2f73b1146101dc5780633355a3b6146102105780635d3aabf914610230578063715018a61461024e575b600080fd5b6100de610449565b6040518080602001828103825283818151815260200191508051906020019080838360005b8381101561011e578082015181840152602081019050610103565b50505050905090810190601f16801561014b5780820380516001836020036101000a031916815260200191505b509250505060405180910390f35b6101616104eb565b6040518080602001828103825283818151815260200191508051906020019080838360005b838110156101a1578082015181840152602081019050610186565b50505050905090810190601f1680156101ce5780820380516001836020036101000a031916815260200191505b509250505060405180910390f35b6101e461058d565b604051808273ffffffffffffffffffffffffffffffffffffffff16815260200191505060405180910390f35b6102186105b3565b60405180821515815260200191505060405180910390f35b6102386105ca565b6040518082815260200191505060405180910390f35b6102566105d4565b005b61026061079c565b604051808273ffffffffffffffffffffffffffffffffffffffff16815260200191505060405180910390f35b610345600480360360208110156102a257600080fd5b81019080803590602001906401000000008111156102bf57600080fd5b8201836020820111156102d157600080fd5b803590602001918460018302840111640100000000831117156102f357600080fd5b91908080601f016020809104026020016040519081016040528093929190818152602001838380828437600081840152601f19601f8201169050808301925050505050505091929192905050506107c5565b60405180821515815260200191505060405180910390f35b6103656108b6565b6040518082815260200191505060405180910390f35b6103a76004803603602081101561039157600080fd5b81019080803590602001909291905050506108c0565b60405180821515815260200191505060405180910390f35b6103ed600480360360208110156103d557600080fd5b810190808035151590602001909291905050506109a1565b60405180821515815260200191505060405180910390f35b6104476004803603602081101561041b57600080fd5b81019080803573ffffffffffffffffffffffffffffffffffffffff169060200190929190505050610a95565b005b606060038054600181600116156101000203166002900480601f0160208091040260200160405190810160405280929190818152602001828054600181600116156101000203166002900480156104e15780601f106104b6576101008083540402835291602001916104e1565b820191906000526020600020905b8154815290600101906020018083116104c457829003601f168201915b5050505050905090565b606060078054600181600116156101000203166002900480601f0160208091040260200160405190810160405280929190818152602001828054600181600116156101000203166002900480156105835780601f1061055857610100808354040283529160200191610583565b820191906000526020600020905b81548152906001019060200180831161056657829003601f168201915b5050505050905090565b600160009054906101000a900473ffffffffffffffffffffffffffffffffffffffff1681565b6000600460009054906101000a900460ff16905090565b6000600554905090565b6105dc610ca0565b73ffffffffffffffffffffffffffffffffffffffff1660008054906101000a900473ffffffffffffffffffffffffffffffffffffffff1673ffffffffffffffffffffffffffffffffffffffff161461069c576040517f08c379a00000000000000000000000000000000000000000000000000000000081526004018080602001828103825260208152602001807f4f776e61626c653a2063616c6c6572206973206e6f7420746865206f776e657281525060200191505060405180910390fd5b600160009054906101000a900473ffffffffffffffffffffffffffffffffffffffff1673ffffffffffffffffffffffffffffffffffffffff1660008054906101000a900473ffffffffffffffffffffffffffffffffffffffff1673ffffffffffffffffffffffffffffffffffffffff167f8be0079c531659141344cd1fd0a4f28419497f9722a3daafe3b4186f6b6457e060405160405180910390a3600160009054906101000a900473ffffffffffffffffffffffffffffffffffffffff166000806101000a81548173ffffffffffffffffffffffffffffffffffffffff021916908373ffffffffffffffffffffffffffffffffffffffff160217905550565b60008060009054906101000a900473ffffffffffffffffffffffffffffffffffffffff16905090565b60006107cf610ca0565b73ffffffffffffffffffffffffffffffffffffffff1660008054906101000a900473ffffffffffffffffffffffffffffffffffffffff1673ffffffffffffffffffffffffffffffffffffffff161461088f576040517f08c379a00000000000000000000000000000000000000000000000000000000081526004018080602001828103825260208152602001807f4f776e61626c653a2063616c6c6572206973206e6f7420746865206f776e657281525060200191505060405180910390fd5b4260058190555081600390805190602001906108ac929190610ca8565b5060019050919050565b6000600254905090565b60006108ca610ca0565b73ffffffffffffffffffffffffffffffffffffffff1660008054906101000a900473ffffffffffffffffffffffffffffffffffffffff1673ffffffffffffffffffffffffffffffffffffffff161461098a576040517f08c379a00000000000000000000000000000000000000000000000000000000081526004018080602001828103825260208152602001807f4f776e61626c653a2063616c6c6572206973206e6f7420746865206f776e657281525060200191505060405180910390fd5b426005819055508160028190555060019050919050565b60006109ab610ca0565b73ffffffffffffffffffffffffffffffffffffffff1660008054906101000a900473ffffffffffffffffffffffffffffffffffffffff1673ffffffffffffffffffffffffffffffffffffffff1614610a6b576040517f08c379a00000000000000000000000000000000000000000000000000000000081526004018080602001828103825260208152602001807f4f776e61626c653a2063616c6c6572206973206e6f7420746865206f776e657281525060200191505060405180910390fd5b4260058190555081600460006101000a81548160ff02191690831515021790555060019050919050565b610a9d610ca0565b73ffffffffffffffffffffffffffffffffffffffff1660008054906101000a900473ffffffffffffffffffffffffffffffffffffffff1673ffffffffffffffffffffffffffffffffffffffff1614610b5d576040517f08c379a00000000000000000000000000000000000000000000000000000000081526004018080602001828103825260208152602001807f4f776e61626c653a2063616c6c6572206973206e6f7420746865206f776e657281525060200191505060405180910390fd5b600073ffffffffffffffffffffffffffffffffffffffff168173ffffffffffffffffffffffffffffffffffffffff161415610be3576040517f08c379a0000000000000000000000000000000000000000000000000000000008152600401808060200182810382526026815260200180610d546026913960400191505060405180910390fd5b8073ffffffffffffffffffffffffffffffffffffffff1660008054906101000a900473ffffffffffffffffffffffffffffffffffffffff1673ffffffffffffffffffffffffffffffffffffffff167f8be0079c531659141344cd1fd0a4f28419497f9722a3daafe3b4186f6b6457e060405160405180910390a3806000806101000a81548173ffffffffffffffffffffffffffffffffffffffff021916908373ffffffffffffffffffffffffffffffffffffffff16021790555050565b600033905090565b828054600181600116156101000203166002900490600052602060002090601f016020900481019282610cde5760008555610d25565b82601f10610cf757805160ff1916838001178555610d25565b82800160010185558215610d25579182015b82811115610d24578251825591602001919060010190610d09565b5b509050610d329190610d36565b5090565b5b80821115610d4f576000816000905550600101610d37565b509056fe4f776e61626c653a206e6577206f776e657220697320746865207a65726f2061646472657373a2646970667358221220e79c3a92587ca667e62bca70c2d95a7cd03c75c654464144f9c2a0738a504a3a64736f6c6343000706003360806040523480156200001157600080fd5b5060405162001c5e38038062001c5e833981810160405260408110156200003757600080fd5b81019080805190602001909291908051906020019092919050505060006200006d620001fe640100000000026401000000009004565b9050806000806101000a81548173ffffffffffffffffffffffffffffffffffffffff021916908373ffffffffffffffffffffffffffffffffffffffff16021790555033600160006101000a81548173ffffffffffffffffffffffffffffffffffffffff021916908373ffffffffffffffffffffffffffffffffffffffff1602179055508073ffffffffffffffffffffffffffffffffffffffff16600073ffffffffffffffffffffffffffffffffffffffff167f8be0079c531659141344cd1fd0a4f28419497f9722a3daafe3b4186f6b6457e060405160405180910390a350436003819055504360048190555033600660006101000a81548173ffffffffffffffffffffffffffffffffffffffff021916908373ffffffffffffffffffffffffffffffffffffffff160217905550620001b58262000206640100000000026401000000009004565b80600260006101000a81548173ffffffffffffffffffffffffffffffffffffffff021916908373ffffffffffffffffffffffffffffffffffffffff160217905550505062000425565b600033905090565b6200021f620001fe640100000000026401000000009004565b73ffffffffffffffffffffffffffffffffffffffff1660008054906101000a900473ffffffffffffffffffffffffffffffffffffffff1673ffffffffffffffffffffffffffffffffffffffff1614620002e0576040517f08c379a00000000000000000000000000000000000000000000000000000000081526004018080602001828103825260208152602001807f4f776e61626c653a2063616c6c6572206973206e6f7420746865206f776e657281525060200191505060405180910390fd5b600073ffffffffffffffffffffffffffffffffffffffff168173ffffffffffffffffffffffffffffffffffffffff16141562000368576040517f08c379a000000000000000000000000000000000000000000000000000000000815260040180806020018281038252602681526020018062001c386026913960400191505060405180910390fd5b8073ffffffffffffffffffffffffffffffffffffffff1660008054906101000a900473ffffffffffffffffffffffffffffffffffffffff1673ffffffffffffffffffffffffffffffffffffffff167f8be0079c531659141344cd1fd0a4f28419497f9722a3daafe3b4186f6b6457e060405160405180910390a3806000806101000a81548173ffffffffffffffffffffffffffffffffffffffff021916908373ffffffffffffffffffffffffffffffffffffffff16021790555050565b61180380620004356000396000f3fe608060405234801561001057600080fd5b5060043610610128576000357c010000000000000000000000000000000000000000000000000000000090048063931b9c69116100bf578063cd446e221161008e578063cd446e22146104f7578063dab465531461052b578063e243d7af1461054b578063ecb10135146105b1578063f2fde38b146105d157610128565b8063931b9c6914610350578063a1feba4214610384578063b810eb43146103a2578063cb53a0741461040657610128565b806359d6b35b116100fb57806359d6b35b146101f9578063715018a61461021757806385c914b9146102215780638da5cb5b1461031c57610128565b806305b344101461012d5780631e2f73b11461014b578063462dcfa01461017f57806346725dc9146101d9575b600080fd5b610135610615565b6040518082815260200191505060405180910390f35b61015361061b565b604051808273ffffffffffffffffffffffffffffffffffffffff16815260200191505060405180910390f35b6101c16004803603602081101561019557600080fd5b81019080803573ffffffffffffffffffffffffffffffffffffffff169060200190929190505050610641565b60405180821515815260200191505060405180910390f35b6101e161071f565b60405180821515815260200191505060405180910390f35b6102016108e8565b6040518082815260200191505060405180910390f35b61021f6108ee565b005b6103046004803603606081101561023757600080fd5b81019080803573ffffffffffffffffffffffffffffffffffffffff1690602001909291908035906020019064010000000081111561027457600080fd5b82018360208201111561028657600080fd5b803590602001918460018302840111640100000000831117156102a857600080fd5b91908080601f016020809104026020016040519081016040528093929190818152602001838380828437600081840152601f19601f82011690508083019250505050505050919291929080359060200190929190505050610ab6565b60405180821515815260200191505060405180910390f35b610324610cf1565b604051808273ffffffffffffffffffffffffffffffffffffffff16815260200191505060405180910390f35b610358610d1a565b604051808273ffffffffffffffffffffffffffffffffffffffff16815260200191505060405180910390f35b61038c610d40565b6040518082815260200191505060405180910390f35b6103ee600480360360408110156103b857600080fd5b81019080803573ffffffffffffffffffffffffffffffffffffffff16906020019092919080359060200190929190505050610d46565b60405180821515815260200191505060405180910390f35b6104df6004803603604081101561041c57600080fd5b81019080803573ffffffffffffffffffffffffffffffffffffffff1690602001909291908035906020019064010000000081111561045957600080fd5b82018360208201111561046b57600080fd5b8035906020019184600183028401116401000000008311171561048d57600080fd5b91908080601f016020809104026020016040519081016040528093929190818152602001838380828437600081840152601f19601f820116905080830192505050505050509192919290505050610f13565b60405180821515815260200191505060405180910390f35b6104ff611145565b604051808273ffffffffffffffffffffffffffffffffffffffff16815260200191505060405180910390f35b61053361116b565b60405180821515815260200191505060405180910390f35b6105996004803603604081101561056157600080fd5b81019080803573ffffffffffffffffffffffffffffffffffffffff16906020019092919080351515906020019092919050505061124d565b60405180821515815260200191505060405180910390f35b6105b961141c565b60405180821515815260200191505060405180910390f35b610613600480360360208110156105e757600080fd5b81019080803573ffffffffffffffffffffffffffffffffffffffff169060200190929190505050611594565b005b60035481565b600160009054906101000a900473ffffffffffffffffffffffffffffffffffffffff1681565b6000600260009054906101000a900473ffffffffffffffffffffffffffffffffffffffff1673ffffffffffffffffffffffffffffffffffffffff163373ffffffffffffffffffffffffffffffffffffffff161461069d57600080fd5b8173ffffffffffffffffffffffffffffffffffffffff16600260009054906101000a90505050600260009054906101000a900473ffffffffffffffffffffffffffffffffffffffff1673ffffffffffffffffffffffffffffffffffffffff168273ffffffffffffffffffffffffffffffffffffffff161461071a57fe5b919050565b600061072961179f565b73ffffffffffffffffffffffffffffffffffffffff1660008054906101000a900473ffffffffffffffffffffffffffffffffffffffff1673ffffffffffffffffffffffffffffffffffffffff16146107e9576040517f08c379a00000000000000000000000000000000000000000000000000000000081526004018080602001828103825260208152602001807f4f776e61626c653a2063616c6c6572206973206e6f7420746865206f776e657281525060200191505060405180910390fd5b6004546064430111156108e057611964600454014311156108165761080c61116b565b50600090506108e5565b43600481905550600660009054906101000a900473ffffffffffffffffffffffffffffffffffffffff1673ffffffffffffffffffffffffffffffffffffffff1663a618cba76040518163ffffffff167c0100000000000000000000000000000000000000000000000000000000028152600401602060405180830381600087803b1580156108a357600080fd5b505af11580156108b7573d6000803e3d6000fd5b505050506040513d60208110156108cd57600080fd5b8101908080519060200190929190505050505b600190505b90565b60045481565b6108f661179f565b73ffffffffffffffffffffffffffffffffffffffff1660008054906101000a900473ffffffffffffffffffffffffffffffffffffffff1673ffffffffffffffffffffffffffffffffffffffff16146109b6576040517f08c379a00000000000000000000000000000000000000000000000000000000081526004018080602001828103825260208152602001807f4f776e61626c653a2063616c6c6572206973206e6f7420746865206f776e657281525060200191505060405180910390fd5b600160009054906101000a900473ffffffffffffffffffffffffffffffffffffffff1673ffffffffffffffffffffffffffffffffffffffff1660008054906101000a900473ffffffffffffffffffffffffffffffffffffffff1673ffffffffffffffffffffffffffffffffffffffff167f8be0079c531659141344cd1fd0a4f28419497f9722a3daafe3b4186f6b6457e060405160405180910390a3600160009054906101000a900473ffffffffffffffffffffffffffffffffffffffff166000806101000a81548173ffffffffffffffffffffffffffffffffffffffff021916908373ffffffffffffffffffffffffffffffffffffffff160217905550565b6000610ac061179f565b73ffffffffffffffffffffffffffffffffffffffff1660008054906101000a900473ffffffffffffffffffffffffffffffffffffffff1673ffffffffffffffffffffffffffffffffffffffff1614610b80576040517f08c379a00000000000000000000000000000000000000000000000000000000081526004018080602001828103825260208152602001807f4f776e61626c653a2063616c6c6572206973206e6f7420746865206f776e657281525060200191505060405180910390fd5b6000600660009054906101000a900473ffffffffffffffffffffffffffffffffffffffff1673ffffffffffffffffffffffffffffffffffffffff1663ac712dc68587866040518463ffffffff167c010000000000000000000000000000000000000000000000000000000002815260040180806020018473ffffffffffffffffffffffffffffffffffffffff168152602001838152602001828103825285818151815260200191508051906020019080838360005b83811015610c50578082015181840152602081019050610c35565b50505050905090810190601f168015610c7d5780820380516001836020036101000a031916815260200191505b50945050505050602060405180830381600087803b158015610c9e57600080fd5b505af1158015610cb2573d6000803e3d6000fd5b505050506040513d6020811015610cc857600080fd5b8101908080519060200190929190505050905080610ce557600080fd5b60019150509392505050565b60008060009054906101000a900473ffffffffffffffffffffffffffffffffffffffff16905090565b600660009054906101000a900473ffffffffffffffffffffffffffffffffffffffff1681565b60055481565b6000610d5061179f565b73ffffffffffffffffffffffffffffffffffffffff1660008054906101000a900473ffffffffffffffffffffffffffffffffffffffff1673ffffffffffffffffffffffffffffffffffffffff1614610e10576040517f08c379a00000000000000000000000000000000000000000000000000000000081526004018080602001828103825260208152602001807f4f776e61626c653a2063616c6c6572206973206e6f7420746865206f776e657281525060200191505060405180910390fd5b6000600660009054906101000a900473ffffffffffffffffffffffffffffffffffffffff1673ffffffffffffffffffffffffffffffffffffffff1663b810eb4385856040518363ffffffff167c0100000000000000000000000000000000000000000000000000000000028152600401808373ffffffffffffffffffffffffffffffffffffffff16815260200182815260200192505050602060405180830381600087803b158015610ec157600080fd5b505af1158015610ed5573d6000803e3d6000fd5b505050506040513d6020811015610eeb57600080fd5b8101908080519060200190929190505050905080610f0857600080fd5b600191505092915050565b6000610f1d61179f565b73ffffffffffffffffffffffffffffffffffffffff1660008054906101000a900473ffffffffffffffffffffffffffffffffffffffff1673ffffffffffffffffffffffffffffffffffffffff1614610fdd576040517f08c379a00000000000000000000000000000000000000000000000000000000081526004018080602001828103825260208152602001807f4f776e61626c653a2063616c6c6572206973206e6f7420746865206f776e657281525060200191505060405180910390fd5b6000600660009054906101000a900473ffffffffffffffffffffffffffffffffffffffff1673ffffffffffffffffffffffffffffffffffffffff1663cb53a07485856040518363ffffffff167c0100000000000000000000000000000000000000000000000000000000028152600401808373ffffffffffffffffffffffffffffffffffffffff16815260200180602001828103825283818151815260200191508051906020019080838360005b838110156110a657808201518184015260208101905061108b565b50505050905090810190601f1680156110d35780820380516001836020036101000a031916815260200191505b509350505050602060405180830381600087803b1580156110f357600080fd5b505af1158015611107573d6000803e3d6000fd5b505050506040513d602081101561111d57600080fd5b810190808051906020019092919050505090508061113a57600080fd5b600191505092915050565b600260009054906101000a900473ffffffffffffffffffffffffffffffffffffffff1681565b600061117561179f565b73ffffffffffffffffffffffffffffffffffffffff1660008054906101000a900473ffffffffffffffffffffffffffffffffffffffff1673ffffffffffffffffffffffffffffffffffffffff1614611235576040517f08c379a00000000000000000000000000000000000000000000000000000000081526004018080602001828103825260208152602001807f4f776e61626c653a2063616c6c6572206973206e6f7420746865206f776e657281525060200191505060405180910390fd5b61123d61141c565b61124657600080fd5b6001905090565b600061125761179f565b73ffffffffffffffffffffffffffffffffffffffff1660008054906101000a900473ffffffffffffffffffffffffffffffffffffffff1673ffffffffffffffffffffffffffffffffffffffff1614611317576040517f08c379a00000000000000000000000000000000000000000000000000000000081526004018080602001828103825260208152602001807f4f776e61626c653a2063616c6c6572206973206e6f7420746865206f776e657281525060200191505060405180910390fd5b6000600660009054906101000a900473ffffffffffffffffffffffffffffffffffffffff1673ffffffffffffffffffffffffffffffffffffffff1663e243d7af85856040518363ffffffff167c0100000000000000000000000000000000000000000000000000000000028152600401808373ffffffffffffffffffffffffffffffffffffffff168152602001821515815260200192505050602060405180830381600087803b1580156113ca57600080fd5b505af11580156113de573d6000803e3d6000fd5b505050506040513d60208110156113f457600080fd5b810190808051906020019092919050505090508061141157600080fd5b600191505092915050565b6000806040516024016040516020818303038152906040527fecb10135000000000000000000000000000000000000000000000000000000007bffffffffffffffffffffffffffffffffffffffffffffffffffffffff19166020820180517bffffffffffffffffffffffffffffffffffffffffffffffffffffffff83818316178352505050509050600080600260009054906101000a900473ffffffffffffffffffffffffffffffffffffffff1673ffffffffffffffffffffffffffffffffffffffff16836040518082805190602001908083835b6020831061151457805182526020820191506020810190506020830392506114f1565b6001836020036101000a0380198251168184511680821785525050505050509050019150506000604051808303816000865af19150503d8060008114611576576040519150601f19603f3d011682016040523d82523d6000602084013e61157b565b606091505b50915091508161158a57600080fd5b6001935050505090565b61159c61179f565b73ffffffffffffffffffffffffffffffffffffffff1660008054906101000a900473ffffffffffffffffffffffffffffffffffffffff1673ffffffffffffffffffffffffffffffffffffffff161461165c576040517f08c379a00000000000000000000000000000000000000000000000000000000081526004018080602001828103825260208152602001807f4f776e61626c653a2063616c6c6572206973206e6f7420746865206f776e657281525060200191505060405180910390fd5b600073ffffffffffffffffffffffffffffffffffffffff168173ffffffffffffffffffffffffffffffffffffffff1614156116e2576040517f08c379a00000000000000000000000000000000000000000000000000000000081526004018080602001828103825260268152602001806117a86026913960400191505060405180910390fd5b8073ffffffffffffffffffffffffffffffffffffffff1660008054906101000a900473ffffffffffffffffffffffffffffffffffffffff1673ffffffffffffffffffffffffffffffffffffffff167f8be0079c531659141344cd1fd0a4f28419497f9722a3daafe3b4186f6b6457e060405160405180910390a3806000806101000a81548173ffffffffffffffffffffffffffffffffffffffff021916908373ffffffffffffffffffffffffffffffffffffffff16021790555050565b60003390509056fe4f776e61626c653a206e6577206f776e657220697320746865207a65726f2061646472657373a2646970667358221220053289276bc24622bd6d4bd4bfc8a589ef4ddb685b4ba876114e1e4b417d299364736f6c634300070600334f776e61626c653a206e6577206f776e657220697320746865207a65726f2061646472657373a26469706673582212208e783769f88f41785cdbe2e22ea6109ab039af519d0dd0528de89b1fc8e1e3b764736f6c63430007060033",
  "immutableReferences": {},
  "source": "// SPDX-License-Identifier: MIT\npragma solidity >=0.4.22 <0.8.0;\n\nimport \"../tools/ExternalAccessible.sol\";\nimport \"../tools/SafeMath.sol\";\nimport \"../tools/DataStorage.sol\";\nimport \"./OracleTask.sol\";\nimport \"./Oracle.sol\";\nimport \"../wXEQ.sol\";\nimport \"../wXEQSwaps.sol\";\n\ncontract OracleMaster is ExternalAccessible {\n    \n    using SafeMath for *;\n    \n    DataStorage dataStorage;\n    address[] oracles;\n    uint256 oracleNum;\n    uint256 inputReward;\n    address[] approvedValidator;\n    wXEQ wXEQContract;\n    XEQSwaps swapContract;\n    mapping(address => uint256) owedRewards;\n    mapping(address => address) oracleOwner;\n    bool isCentralized;\n    \n    constructor(DataStorage d, address w) {\n        dataStorage = d;\n        oracleNum = 0;\n        masterContract = msg.sender;\n        approvedValidator.push(address(this));\n        wXEQContract = wXEQ(w);\n        inputReward = 10.mul(10.pow(18));\n        isCentralized = true;\n    }\n    \n    function updateSwapContract(address addy) public hasAccess returns (bool) {\n        swapContract = XEQSwaps(addy);\n        assert(addy == address(swapContract));\n        return true;\n    }\n    \n    function switchCentralized(bool status) public hasAccess returns (bool) {\n        isCentralized = status;\n        return true;\n    }\n    \n    event Transfer(address indexed from, address indexed to, uint256 value);\n    \n    function isValidator(address addy) public view returns (bool) {\n        for (uint i = 0; i < approvedValidator.length; i++) {\n            if (addy == approvedValidator[i]) {\n                return true;\n            }\n        }\n        return false;\n    }\n    \n    function createTask(string memory name) public returns (address) {\n        OracleTask t = new OracleTask(name, msg.sender);\n        assert(keccak256(bytes(t.getName())) == keccak256(bytes(name)));\n        return address(t);\n    }\n    \n    function newOracle() public returns (bool) {\n        if (isCentralized) {\n            require(checkAccess());\n        }\n        require(dataStorage.balanceOf(msg.sender) >= dataStorage.stakingRequirement());\n        Oracle oracle = new Oracle(msg.sender, address(masterContract));\n        dataStorage.addNode(address(oracle));\n        oracles.push(address(oracle));\n        oracleOwner[address(oracle)] = msg.sender;\n        bool success = wXEQContract.transferFrom(msg.sender, address(oracle), dataStorage.stakingRequirement());\n        require(success);\n        return true;\n    }\n    \n    function claimRewards(address node) public returns (bool, uint256) {\n        require(oracleOwner[node] == msg.sender);\n        require(owedRewards[node] != 0);\n        uint256 amount = owedRewards[node];\n        wXEQContract.mint(msg.sender, amount);\n        owedRewards[node] = 0;\n        assert(owedRewards[node] == 0);\n    }\n    \n    function removeOracle() external returns (bool) {\n        require(dataStorage.isValidNode(msg.sender));\n        dataStorage.removeNode(msg.sender);\n\n        return true;\n    }\n    \n    function getOracleNum() public view returns (uint256) {\n        return oracleNum;\n    }\n    \n    function getCurrentOracle() public view returns (address) {\n        return oracles[oracleNum];\n    }\n    \n    function incrementOracleNum() public returns (bool) {\n        require(dataStorage.isValidNode(msg.sender));\n        if (oracleNum >= oracles.length) {\n            oracleNum = 0;\n        } else {\n            oracleNum = oracleNum.add(1);\n        }\n        return true;\n    }\n    \n    function sendNumberData(address task, uint256 val) public returns (bool) {\n        require(msg.sender == oracles[oracleNum]);\n        owedRewards[msg.sender] = owedRewards[msg.sender].add(inputReward);\n        incrementOracleNum();\n        OracleTask(task).setTrustedAnwserNumber(val);\n        assert(OracleTask(task).trustedAnwserNumber() == val);\n        return true;\n    }\n    \n    function sendStringData(address task, string memory val) public returns (bool) {\n        require(msg.sender == oracles[oracleNum]);\n        owedRewards[msg.sender] = owedRewards[msg.sender].add(inputReward);\n        incrementOracleNum();\n        OracleTask(task).setTrustedAnwserString(val);\n        assert(keccak256(bytes(OracleTask(task).trustedAnwserString())) == keccak256(bytes(val)));\n        return true;\n    }\n    \n    function sendBoolData(address task, bool val) public returns (bool) {\n        require(msg.sender == oracles[oracleNum]);\n        owedRewards[msg.sender] = owedRewards[msg.sender].add(inputReward);\n        incrementOracleNum();\n        OracleTask(task).setTrustedAnwserBool(val);\n        assert(OracleTask(task).trustedAnwserBool() == val);\n        return true;\n    }\n    \n     function sendSwapData(string calldata method, address task, uint256 val) external returns (bool) {\n        require(msg.sender == oracles[oracleNum]);\n        owedRewards[msg.sender] = owedRewards[msg.sender].add(inputReward);\n        incrementOracleNum();\n        bytes memory payload = abi.encodeWithSignature(method, val);\n        (bool success, bytes memory returnData) = address(task).call(payload);\n        require(success);\n        return true;\n    }\n}",
  "sourcePath": "D:\\testwxeqfront\\drizzle-react-tutorial\\contracts\\oracle\\OracleMaster.sol",
  "compiler": {
    "name": "solc",
    "version": "0.7.6+commit.7338295f.Emscripten.clang"
  },
  "schemaVersion": "3.3.3",
  "updatedAt": "2021-01-07T02:06:52.231Z",
  "devdoc": {
    "kind": "dev",
    "methods": {},
    "version": 1
  },
  "userdoc": {
    "kind": "user",
    "methods": {},
    "version": 1
  }
}