{
  "contractName": "PreSaleV2",
  "abi": [
    {
      "inputs": [
        {
          "internalType": "address",
          "name": "xeq",
          "type": "address"
        },
        {
          "internalType": "address",
          "name": "t",
          "type": "address"
        }
      ],
      "stateMutability": "payable",
      "type": "constructor"
    },
    {
      "anonymous": false,
      "inputs": [
        {
          "indexed": true,
          "internalType": "address",
          "name": "from",
          "type": "address"
        },
        {
          "indexed": false,
          "internalType": "uint256",
          "name": "ethAmount",
          "type": "uint256"
        },
        {
          "indexed": false,
          "internalType": "uint256",
          "name": "XEQAmount",
          "type": "uint256"
        }
      ],
      "name": "Mint",
      "type": "event"
    },
    {
      "anonymous": false,
      "inputs": [
        {
          "indexed": true,
          "internalType": "address",
          "name": "previousOwner",
          "type": "address"
        },
        {
          "indexed": true,
          "internalType": "address",
          "name": "newOwner",
          "type": "address"
        }
      ],
      "name": "OwnershipTransferred",
      "type": "event"
    },
    {
      "anonymous": false,
      "inputs": [
        {
          "indexed": true,
          "internalType": "address",
          "name": "from",
          "type": "address"
        },
        {
          "indexed": false,
          "internalType": "uint256",
          "name": "amount",
          "type": "uint256"
        },
        {
          "indexed": false,
          "internalType": "uint256",
          "name": "blockHeight",
          "type": "uint256"
        }
      ],
      "name": "Withdraw",
      "type": "event"
    },
    {
      "stateMutability": "payable",
      "type": "fallback"
    },
    {
      "inputs": [],
      "name": "ETHUSD",
      "outputs": [
        {
          "internalType": "address",
          "name": "",
          "type": "address"
        }
      ],
      "stateMutability": "view",
      "type": "function"
    },
    {
      "inputs": [],
      "name": "cap",
      "outputs": [
        {
          "internalType": "uint256",
          "name": "",
          "type": "uint256"
        }
      ],
      "stateMutability": "view",
      "type": "function"
    },
    {
      "inputs": [],
      "name": "contractCreator",
      "outputs": [
        {
          "internalType": "address",
          "name": "",
          "type": "address"
        }
      ],
      "stateMutability": "view",
      "type": "function"
    },
    {
      "inputs": [],
      "name": "ethMinted",
      "outputs": [
        {
          "internalType": "uint256",
          "name": "",
          "type": "uint256"
        }
      ],
      "stateMutability": "view",
      "type": "function"
    },
    {
      "inputs": [],
      "name": "finalBlock",
      "outputs": [
        {
          "internalType": "uint256",
          "name": "",
          "type": "uint256"
        }
      ],
      "stateMutability": "view",
      "type": "function"
    },
    {
      "inputs": [],
      "name": "lastETHPrice",
      "outputs": [
        {
          "internalType": "uint256",
          "name": "",
          "type": "uint256"
        }
      ],
      "stateMutability": "view",
      "type": "function"
    },
    {
      "inputs": [],
      "name": "minGoal",
      "outputs": [
        {
          "internalType": "uint256",
          "name": "",
          "type": "uint256"
        }
      ],
      "stateMutability": "view",
      "type": "function"
    },
    {
      "inputs": [],
      "name": "owner",
      "outputs": [
        {
          "internalType": "address",
          "name": "",
          "type": "address"
        }
      ],
      "stateMutability": "view",
      "type": "function"
    },
    {
      "inputs": [],
      "name": "presaleActive",
      "outputs": [
        {
          "internalType": "bool",
          "name": "",
          "type": "bool"
        }
      ],
      "stateMutability": "view",
      "type": "function"
    },
    {
      "inputs": [],
      "name": "renounceOwnership",
      "outputs": [],
      "stateMutability": "nonpayable",
      "type": "function"
    },
    {
      "inputs": [],
      "name": "teamAdd",
      "outputs": [
        {
          "internalType": "address payable",
          "name": "",
          "type": "address"
        }
      ],
      "stateMutability": "view",
      "type": "function"
    },
    {
      "inputs": [
        {
          "internalType": "address",
          "name": "newOwner",
          "type": "address"
        }
      ],
      "name": "transferOwnership",
      "outputs": [],
      "stateMutability": "nonpayable",
      "type": "function"
    },
    {
      "inputs": [],
      "name": "wXEQminted",
      "outputs": [
        {
          "internalType": "uint256",
          "name": "",
          "type": "uint256"
        }
      ],
      "stateMutability": "view",
      "type": "function"
    },
    {
      "inputs": [],
      "name": "xeqRate",
      "outputs": [
        {
          "internalType": "uint256",
          "name": "",
          "type": "uint256"
        }
      ],
      "stateMutability": "view",
      "type": "function"
    },
    {
      "inputs": [],
      "name": "wXEQLeft",
      "outputs": [
        {
          "internalType": "uint256",
          "name": "",
          "type": "uint256"
        }
      ],
      "stateMutability": "view",
      "type": "function"
    },
    {
      "inputs": [
        {
          "internalType": "uint256",
          "name": "val",
          "type": "uint256"
        }
      ],
      "name": "checkPresale",
      "outputs": [
        {
          "internalType": "bool",
          "name": "",
          "type": "bool"
        }
      ],
      "stateMutability": "view",
      "type": "function"
    },
    {
      "inputs": [
        {
          "internalType": "uint256",
          "name": "_ethAmount",
          "type": "uint256"
        }
      ],
      "name": "getAmount",
      "outputs": [
        {
          "internalType": "uint256",
          "name": "",
          "type": "uint256"
        }
      ],
      "stateMutability": "nonpayable",
      "type": "function"
    },
    {
      "inputs": [
        {
          "internalType": "address",
          "name": "_oracleAddress",
          "type": "address"
        }
      ],
      "name": "updateETHOracle",
      "outputs": [
        {
          "internalType": "bool",
          "name": "",
          "type": "bool"
        }
      ],
      "stateMutability": "nonpayable",
      "type": "function"
    },
    {
      "inputs": [
        {
          "internalType": "uint256",
          "name": "val",
          "type": "uint256"
        }
      ],
      "name": "updateExchangeRate",
      "outputs": [
        {
          "internalType": "bool",
          "name": "",
          "type": "bool"
        }
      ],
      "stateMutability": "nonpayable",
      "type": "function"
    },
    {
      "inputs": [
        {
          "internalType": "address",
          "name": "_addy",
          "type": "address"
        }
      ],
      "name": "updateTeamAddress",
      "outputs": [
        {
          "internalType": "bool",
          "name": "",
          "type": "bool"
        }
      ],
      "stateMutability": "nonpayable",
      "type": "function"
    },
    {
      "inputs": [],
      "name": "endPresale",
      "outputs": [],
      "stateMutability": "nonpayable",
      "type": "function"
    },
    {
      "inputs": [
        {
          "internalType": "uint256",
          "name": "numberOfDays",
          "type": "uint256"
        },
        {
          "internalType": "uint256",
          "name": "c",
          "type": "uint256"
        },
        {
          "internalType": "uint256",
          "name": "min",
          "type": "uint256"
        }
      ],
      "name": "startPresale",
      "outputs": [
        {
          "internalType": "bool",
          "name": "",
          "type": "bool"
        }
      ],
      "stateMutability": "nonpayable",
      "type": "function"
    },
    {
      "inputs": [],
      "name": "deposit",
      "outputs": [],
      "stateMutability": "payable",
      "type": "function"
    },
    {
      "inputs": [
        {
          "internalType": "uint256",
          "name": "amount",
          "type": "uint256"
        }
      ],
      "name": "withdraw",
      "outputs": [],
      "stateMutability": "nonpayable",
      "type": "function"
    },
    {
      "inputs": [],
      "name": "ethBalance",
      "outputs": [
        {
          "internalType": "uint256",
          "name": "",
          "type": "uint256"
        }
      ],
      "stateMutability": "view",
      "type": "function"
    }
  ],
  "bytecode": "0x60806040526040516200210638038062002106833981810160405260408110156200002957600080fd5b81019080805190602001909291908051906020019092919050505060006200005f62000381640100000000026401000000009004565b9050806000806101000a81548173ffffffffffffffffffffffffffffffffffffffff021916908373ffffffffffffffffffffffffffffffffffffffff16021790555033600160006101000a81548173ffffffffffffffffffffffffffffffffffffffff021916908373ffffffffffffffffffffffffffffffffffffffff1602179055508073ffffffffffffffffffffffffffffffffffffffff16600073ffffffffffffffffffffffffffffffffffffffff167f8be0079c531659141344cd1fd0a4f28419497f9722a3daafe3b4186f6b6457e060405160405180910390a350620001588162000389640100000000026401000000009004565b81600360006101000a81548173ffffffffffffffffffffffffffffffffffffffff021916908373ffffffffffffffffffffffffffffffffffffffff1602179055506301e1338042016004819055506001600760006101000a81548160ff0219169083151502179055506200020b620001ea6012600a620005a864010000000002620018f4179091906401000000009004565b621e84806200063e6401000000000262001970179091906401000000009004565b6008819055506200025b6200023a6012600a620005a864010000000002620018f4179091906401000000009004565b621e84806200063e6401000000000262001970179091906401000000009004565b600981905550620002a96200028a6010600a620005a864010000000002620018f4179091906401000000009004565b60036200063e6401000000000262001970179091906401000000009004565b600a81905550735f4ec3df9cbd43714fe2740f5e3616155c5b8419600d60006101000a81548173ffffffffffffffffffffffffffffffffffffffff021916908373ffffffffffffffffffffffffffffffffffffffff16021790555073025134a887052262b1bbd3aaf710a74dbeb935ae600260006101000a81548173ffffffffffffffffffffffffffffffffffffffff021916908373ffffffffffffffffffffffffffffffffffffffff1602179055506972eec6cfb0c920b3000060068190555067e043da617250000060058190555050506200067c565b600033905090565b620003a262000381640100000000026401000000009004565b73ffffffffffffffffffffffffffffffffffffffff1660008054906101000a900473ffffffffffffffffffffffffffffffffffffffff1673ffffffffffffffffffffffffffffffffffffffff161462000463576040517f08c379a00000000000000000000000000000000000000000000000000000000081526004018080602001828103825260208152602001807f4f776e61626c653a2063616c6c6572206973206e6f7420746865206f776e657281525060200191505060405180910390fd5b600073ffffffffffffffffffffffffffffffffffffffff168173ffffffffffffffffffffffffffffffffffffffff161415620004eb576040517f08c379a0000000000000000000000000000000000000000000000000000000008152600401808060200182810382526026815260200180620020e06026913960400191505060405180910390fd5b8073ffffffffffffffffffffffffffffffffffffffff1660008054906101000a900473ffffffffffffffffffffffffffffffffffffffff1673ffffffffffffffffffffffffffffffffffffffff167f8be0079c531659141344cd1fd0a4f28419497f9722a3daafe3b4186f6b6457e060405160405180910390a3806000806101000a81548173ffffffffffffffffffffffffffffffffffffffff021916908373ffffffffffffffffffffffffffffffffffffffff16021790555050565b600080821415620005bd576001905062000638565b6001821415620005d05782905062000638565b600083148015620005e2575060008214155b15620005f2576000905062000638565b60008390506000600190505b8381101562000632576200062282866200063e640100000000026401000000009004565b91508080600101915050620005fe565b50809150505b92915050565b60008083141562000653576000905062000676565b60008284029050828482816200066557fe5b04146200067157600080fd5b809150505b92915050565b611a54806200068c6000396000f3fe608060405260043610610187576000357c010000000000000000000000000000000000000000000000000000000090048063799896da116100ee578063ccbec416116100a7578063d48675f311610081578063d48675f3146107a4578063d9a1a765146107cf578063f1d2c434146107fa578063f2fde38b1461086157610188565b8063ccbec4161461070a578063d0c805661461076f578063d0e30db01461079a57610188565b8063799896da146105bc5780638da5cb5b146105e75780639980ec8614610628578063a43be57b14610677578063b9e205ae1461068e578063c7f3ebb0146106df57610188565b80634e6630b0116101405780634e6630b01461047a57806353135ca0146104a55780635df8ddff146104d257806365072f0314610513578063715018a61461056457806373db08441461057b57610188565b806314eb76ac146103165780631e2f73b11461037d57806326b51c8c146103be5780632e1a7d4d146103e9578063355274ea14610424578063419dd4bf1461044f57610188565b5b600760009054906101000a900460ff166101a157600080fd5b60006101ac346108b2565b90506101b781610ab6565b6101c057600080fd5b6101d581600654610afb90919063ffffffff16565b6006819055506101f034600554610afb90919063ffffffff16565b600581905550600360009054906101000a900473ffffffffffffffffffffffffffffffffffffffff1673ffffffffffffffffffffffffffffffffffffffff166340c10f1933836040518363ffffffff167c0100000000000000000000000000000000000000000000000000000000028152600401808373ffffffffffffffffffffffffffffffffffffffff16815260200182815260200192505050600060405180830381600087803b1580156102a557600080fd5b505af11580156102b9573d6000803e3d6000fd5b505050503373ffffffffffffffffffffffffffffffffffffffff167f4c209b5fc8ad50758f13e2e1088ba56a560dff690a1c6fef26394f4c03821c4f3483604051808381526020018281526020019250505060405180910390a250005b34801561032257600080fd5b506103656004803603602081101561033957600080fd5b81019080803573ffffffffffffffffffffffffffffffffffffffff169060200190929190505050610b1a565b60405180821515815260200191505060405180910390f35b34801561038957600080fd5b50610392610c68565b604051808273ffffffffffffffffffffffffffffffffffffffff16815260200191505060405180910390f35b3480156103ca57600080fd5b506103d3610c8e565b6040518082815260200191505060405180910390f35b3480156103f557600080fd5b506104226004803603602081101561040c57600080fd5b8101908080359060200190929190505050610c94565b005b34801561043057600080fd5b50610439610e32565b6040518082815260200191505060405180910390f35b34801561045b57600080fd5b50610464610e38565b6040518082815260200191505060405180910390f35b34801561048657600080fd5b5061048f610e56565b6040518082815260200191505060405180910390f35b3480156104b157600080fd5b506104ba610e75565b60405180821515815260200191505060405180910390f35b3480156104de57600080fd5b506104e7610e88565b604051808273ffffffffffffffffffffffffffffffffffffffff16815260200191505060405180910390f35b34801561051f57600080fd5b5061054c6004803603602081101561053657600080fd5b8101908080359060200190929190505050610ab6565b60405180821515815260200191505060405180910390f35b34801561057057600080fd5b50610579610eae565b005b34801561058757600080fd5b50610590611076565b604051808273ffffffffffffffffffffffffffffffffffffffff16815260200191505060405180910390f35b3480156105c857600080fd5b506105d161109c565b6040518082815260200191505060405180910390f35b3480156105f357600080fd5b506105fc6110a2565b604051808273ffffffffffffffffffffffffffffffffffffffff16815260200191505060405180910390f35b34801561063457600080fd5b506106616004803603602081101561064b57600080fd5b81019080803590602001909291905050506108b2565b6040518082815260200191505060405180910390f35b34801561068357600080fd5b5061068c6110cb565b005b34801561069a57600080fd5b506106c7600480360360208110156106b157600080fd5b81019080803590602001909291905050506111c9565b60405180821515815260200191505060405180910390f35b3480156106eb57600080fd5b506106f46112b1565b6040518082815260200191505060405180910390f35b34801561071657600080fd5b506107576004803603606081101561072d57600080fd5b810190808035906020019092919080359060200190929190803590602001909291905050506112b7565b60405180821515815260200191505060405180910390f35b34801561077b57600080fd5b506107846113fb565b6040518082815260200191505060405180910390f35b6107a2611401565b005b3480156107b057600080fd5b506107b961158f565b6040518082815260200191505060405180910390f35b3480156107db57600080fd5b506107e4611595565b6040518082815260200191505060405180910390f35b34801561080657600080fd5b506108496004803603602081101561081d57600080fd5b81019080803573ffffffffffffffffffffffffffffffffffffffff16906020019092919050505061159b565b60405180821515815260200191505060405180910390f35b34801561086d57600080fd5b506108b06004803603602081101561088457600080fd5b81019080803573ffffffffffffffffffffffffffffffffffffffff1690602001909291905050506116e9565b005b6000808290506000600d60009054906101000a900473ffffffffffffffffffffffffffffffffffffffff16905060008173ffffffffffffffffffffffffffffffffffffffff166350d25bcd6040518163ffffffff167c010000000000000000000000000000000000000000000000000000000002815260040160206040518083038186803b15801561094357600080fd5b505afa158015610957573d6000803e3d6000fd5b505050506040513d602081101561096d57600080fd5b8101908080519060200190929190505050905080600e819055506000610a15670de0b6b3a7640000610a07866109f96109b16012600a6118f490919063ffffffff16565b6109eb600a546109dd6109ce600a806118f490919063ffffffff16565b8b61197090919063ffffffff16565b6119aa90919063ffffffff16565b61197090919063ffffffff16565b61197090919063ffffffff16565b6119aa90919063ffffffff16565b1415610a2057600080fd5b610aac670de0b6b3a7640000610a9e85610a90610a486012600a6118f490919063ffffffff16565b610a82600a54610a74610a65600a806118f490919063ffffffff16565b8a61197090919063ffffffff16565b6119aa90919063ffffffff16565b61197090919063ffffffff16565b61197090919063ffffffff16565b6119aa90919063ffffffff16565b9350505050919050565b6000600854610ad083600654610afb90919063ffffffff16565b10610ade5760009050610af6565b600454421115610af15760009050610af6565b600190505b919050565b600080828401905083811015610b1057600080fd5b8091505092915050565b6000610b246119d0565b73ffffffffffffffffffffffffffffffffffffffff1660008054906101000a900473ffffffffffffffffffffffffffffffffffffffff1673ffffffffffffffffffffffffffffffffffffffff1614610be4576040517f08c379a00000000000000000000000000000000000000000000000000000000081526004018080602001828103825260208152602001807f4f776e61626c653a2063616c6c6572206973206e6f7420746865206f776e657281525060200191505060405180910390fd5b600073ffffffffffffffffffffffffffffffffffffffff168273ffffffffffffffffffffffffffffffffffffffff161415610c1e57600080fd5b81600260006101000a81548173ffffffffffffffffffffffffffffffffffffffff021916908373ffffffffffffffffffffffffffffffffffffffff16021790555060019050919050565b600160009054906101000a900473ffffffffffffffffffffffffffffffffffffffff1681565b60045481565b610c9c6119d0565b73ffffffffffffffffffffffffffffffffffffffff1660008054906101000a900473ffffffffffffffffffffffffffffffffffffffff1673ffffffffffffffffffffffffffffffffffffffff1614610d5c576040517f08c379a00000000000000000000000000000000000000000000000000000000081526004018080602001828103825260208152602001807f4f776e61626c653a2063616c6c6572206973206e6f7420746865206f776e657281525060200191505060405180910390fd5b610d64610e56565b811115610d7057600080fd5b600260009054906101000a900473ffffffffffffffffffffffffffffffffffffffff1673ffffffffffffffffffffffffffffffffffffffff166108fc829081150290604051600060405180830381858888f19350505050158015610dd8573d6000803e3d6000fd5b503373ffffffffffffffffffffffffffffffffffffffff167ff279e6a1f5e320cca91135676d9cb6e44ca8a08c0b88342bcdb1144f6511b5688243604051808381526020018281526020019250505060405180910390a250565b60085481565b6000610e516006546008546119d890919063ffffffff16565b905090565b60003073ffffffffffffffffffffffffffffffffffffffff1631905090565b600760009054906101000a900460ff1681565b600260009054906101000a900473ffffffffffffffffffffffffffffffffffffffff1681565b610eb66119d0565b73ffffffffffffffffffffffffffffffffffffffff1660008054906101000a900473ffffffffffffffffffffffffffffffffffffffff1673ffffffffffffffffffffffffffffffffffffffff1614610f76576040517f08c379a00000000000000000000000000000000000000000000000000000000081526004018080602001828103825260208152602001807f4f776e61626c653a2063616c6c6572206973206e6f7420746865206f776e657281525060200191505060405180910390fd5b600160009054906101000a900473ffffffffffffffffffffffffffffffffffffffff1673ffffffffffffffffffffffffffffffffffffffff1660008054906101000a900473ffffffffffffffffffffffffffffffffffffffff1673ffffffffffffffffffffffffffffffffffffffff167f8be0079c531659141344cd1fd0a4f28419497f9722a3daafe3b4186f6b6457e060405160405180910390a3600160009054906101000a900473ffffffffffffffffffffffffffffffffffffffff166000806101000a81548173ffffffffffffffffffffffffffffffffffffffff021916908373ffffffffffffffffffffffffffffffffffffffff160217905550565b600d60009054906101000a900473ffffffffffffffffffffffffffffffffffffffff1681565b60065481565b60008060009054906101000a900473ffffffffffffffffffffffffffffffffffffffff16905090565b6110d36119d0565b73ffffffffffffffffffffffffffffffffffffffff1660008054906101000a900473ffffffffffffffffffffffffffffffffffffffff1673ffffffffffffffffffffffffffffffffffffffff1614611193576040517f08c379a00000000000000000000000000000000000000000000000000000000081526004018080602001828103825260208152602001807f4f776e61626c653a2063616c6c6572206973206e6f7420746865206f776e657281525060200191505060405180910390fd5b600760009054906101000a900460ff166111ac57600080fd5b6000600760006101000a81548160ff021916908315150217905550565b60006111d36119d0565b73ffffffffffffffffffffffffffffffffffffffff1660008054906101000a900473ffffffffffffffffffffffffffffffffffffffff1673ffffffffffffffffffffffffffffffffffffffff1614611293576040517f08c379a00000000000000000000000000000000000000000000000000000000081526004018080602001828103825260208152602001807f4f776e61626c653a2063616c6c6572206973206e6f7420746865206f776e657281525060200191505060405180910390fd5b60008214156112a157600080fd5b81600a8190555060019050919050565b600a5481565b60006112c16119d0565b73ffffffffffffffffffffffffffffffffffffffff1660008054906101000a900473ffffffffffffffffffffffffffffffffffffffff1673ffffffffffffffffffffffffffffffffffffffff1614611381576040517f08c379a00000000000000000000000000000000000000000000000000000000081526004018080602001828103825260208152602001807f4f776e61626c653a2063616c6c6572206973206e6f7420746865206f776e657281525060200191505060405180910390fd5b600760009054906101000a900460ff161561139b57600080fd5b60008414156113a957600080fd5b6001600760006101000a81548160ff0219169083151502179055506113da620151808561197090919063ffffffff16565b42016004819055508260088190555081600981905550600190509392505050565b600e5481565b600760009054906101000a900460ff1661141a57600080fd5b6000611425346108b2565b905061143081610ab6565b61143957600080fd5b61144e81600654610afb90919063ffffffff16565b60068190555061146934600554610afb90919063ffffffff16565b600581905550600360009054906101000a900473ffffffffffffffffffffffffffffffffffffffff1673ffffffffffffffffffffffffffffffffffffffff166340c10f1933836040518363ffffffff167c0100000000000000000000000000000000000000000000000000000000028152600401808373ffffffffffffffffffffffffffffffffffffffff16815260200182815260200192505050600060405180830381600087803b15801561151e57600080fd5b505af1158015611532573d6000803e3d6000fd5b505050503373ffffffffffffffffffffffffffffffffffffffff167f4c209b5fc8ad50758f13e2e1088ba56a560dff690a1c6fef26394f4c03821c4f3483604051808381526020018281526020019250505060405180910390a250565b60095481565b60055481565b60006115a56119d0565b73ffffffffffffffffffffffffffffffffffffffff1660008054906101000a900473ffffffffffffffffffffffffffffffffffffffff1673ffffffffffffffffffffffffffffffffffffffff1614611665576040517f08c379a00000000000000000000000000000000000000000000000000000000081526004018080602001828103825260208152602001807f4f776e61626c653a2063616c6c6572206973206e6f7420746865206f776e657281525060200191505060405180910390fd5b600073ffffffffffffffffffffffffffffffffffffffff168273ffffffffffffffffffffffffffffffffffffffff16141561169f57600080fd5b81600d60006101000a81548173ffffffffffffffffffffffffffffffffffffffff021916908373ffffffffffffffffffffffffffffffffffffffff16021790555060019050919050565b6116f16119d0565b73ffffffffffffffffffffffffffffffffffffffff1660008054906101000a900473ffffffffffffffffffffffffffffffffffffffff1673ffffffffffffffffffffffffffffffffffffffff16146117b1576040517f08c379a00000000000000000000000000000000000000000000000000000000081526004018080602001828103825260208152602001807f4f776e61626c653a2063616c6c6572206973206e6f7420746865206f776e657281525060200191505060405180910390fd5b600073ffffffffffffffffffffffffffffffffffffffff168173ffffffffffffffffffffffffffffffffffffffff161415611837576040517f08c379a00000000000000000000000000000000000000000000000000000000081526004018080602001828103825260268152602001806119f96026913960400191505060405180910390fd5b8073ffffffffffffffffffffffffffffffffffffffff1660008054906101000a900473ffffffffffffffffffffffffffffffffffffffff1673ffffffffffffffffffffffffffffffffffffffff167f8be0079c531659141344cd1fd0a4f28419497f9722a3daafe3b4186f6b6457e060405160405180910390a3806000806101000a81548173ffffffffffffffffffffffffffffffffffffffff021916908373ffffffffffffffffffffffffffffffffffffffff16021790555050565b600080821415611907576001905061196a565b60018214156119185782905061196a565b600083148015611929575060008214155b15611937576000905061196a565b60008390506000600190505b83811015611964576119558286611970565b91508080600101915050611943565b50809150505b92915050565b60008083141561198357600090506119a4565b600082840290508284828161199457fe5b041461199f57600080fd5b809150505b92915050565b60008082116119b857600080fd5b60008284816119c357fe5b0490508091505092915050565b600033905090565b6000828211156119e757600080fd5b60008284039050809150509291505056fe4f776e61626c653a206e6577206f776e657220697320746865207a65726f2061646472657373a2646970667358221220b1ee65b2968e1b98d95dc4c92921b01d436ecf13b49bfa77e18f8b8bc7a3d9a064736f6c634300070600334f776e61626c653a206e6577206f776e657220697320746865207a65726f2061646472657373",
  "immutableReferences": {},
  "source": "pragma solidity >=0.4.22 <0.8.0;\r\n\r\nimport \"./tools/Ownable.sol\";\r\nimport \"./tools/SafeMath.sol\";\r\nimport \"./wXEQ.sol\";\r\nimport \"./oracle/AggregatorInterface.sol\";\r\n\r\ncontract PreSaleV2 is Ownable {\r\n    using SafeMath for *;\r\n\r\n    address payable public teamAdd;\r\n    wXEQ wXEQcontract;\r\n    uint256 public finalBlock;\r\n    uint256 public ethMinted;\r\n    uint256 public wXEQminted;\r\n    bool public presaleActive;\r\n    uint256 public cap;\r\n    uint256 public minGoal;\r\n    uint256 public xeqRate;\r\n\r\n    mapping(address => uint256) userXEQMints;\r\n    mapping(address => uint256) userETHDeposits;\r\n\r\n    address public ETHUSD;\r\n    uint256 public lastETHPrice;\r\n\r\n    constructor(address xeq, address t) payable {\r\n        transferOwnership(t);\r\n        wXEQcontract = wXEQ(xeq);\r\n        finalBlock = block.timestamp + (365 days);\r\n        presaleActive = true;\r\n        cap = 2000000.mul(10.pow(18));\r\n        minGoal = 2000000.mul(10.pow(18));\r\n        xeqRate = 3.mul(10.pow(16));\r\n        ETHUSD = address(0x5f4eC3Df9cbd43714FE2740f5E3616155c5b8419);\r\n        teamAdd = payable(0x025134a887052262B1BBD3aaf710a74dBeb935ae);\r\n        wXEQminted = 542754430000000000000000;\r\n        ethMinted = 16160000000000000000;\r\n    }\r\n\r\n    event Withdraw(address indexed from, uint256 amount, uint256 blockHeight);\r\n    event Mint(address indexed from, uint256 ethAmount, uint256 XEQAmount);\r\n\r\n    modifier presaleIsActive() {\r\n        require(presaleActive);\r\n        _;\r\n    }\r\n\r\n    function wXEQLeft() public view returns (uint256) {\r\n        return cap.sub(wXEQminted);\r\n    }\r\n\r\n    function checkPresale(uint256 val) public view returns (bool) {\r\n        if (wXEQminted.add(val) >= cap) {\r\n            return false;\r\n        } else if (block.timestamp > finalBlock) {\r\n            return false;\r\n        } else {\r\n            return true;\r\n        }\r\n    }\r\n\r\n    function getAmount(uint256 _ethAmount) public returns (uint256) {\r\n        uint256 ethAmount = _ethAmount;\r\n        AggregatorInterface priceFeed = AggregatorInterface(ETHUSD);\r\n        uint256 price = uint256(priceFeed.latestAnswer());\r\n        lastETHPrice = price;\r\n        require(price.mul(10.pow(10)).div(xeqRate).mul(10.pow(18)).mul(ethAmount).div(10*10**17) != 0);\r\n        return price.mul(10.pow(10)).div(xeqRate).mul(10.pow(18)).mul(ethAmount).div(10*10**17);\r\n    }\r\n\r\n    function updateETHOracle(address _oracleAddress) public onlyOwner returns (bool) {\r\n        require(_oracleAddress != address(0));\r\n        ETHUSD = _oracleAddress;\r\n        return true;\r\n    }\r\n\r\n    function updateExchangeRate(uint256 val) public onlyOwner returns (bool) {\r\n        require(val != 0);\r\n        xeqRate = val;\r\n        return true;\r\n    }\r\n\r\n    function updateTeamAddress(address _addy) public onlyOwner returns (bool) {\r\n        require(_addy != address(0));\r\n        teamAdd = payable(_addy);\r\n        return true;\r\n    }\r\n\r\n    function endPresale() public onlyOwner presaleIsActive {\r\n        presaleActive = false;\r\n    }\r\n\r\n    function startPresale(uint256 numberOfDays, uint256 c, uint256 min) public onlyOwner returns (bool) {\r\n        require(!presaleActive);\r\n        require(numberOfDays != 0);\r\n        presaleActive = true;\r\n        finalBlock = block.timestamp + (numberOfDays.mul(1 days));\r\n        cap = c;\r\n        minGoal = min;\r\n        return true;\r\n    }\r\n\r\n    function deposit() public presaleIsActive payable {\r\n        uint256 xeqVal = getAmount(msg.value);\r\n        require(checkPresale(xeqVal));\r\n        wXEQminted = wXEQminted.add(xeqVal);\r\n        ethMinted = ethMinted.add(msg.value);\r\n        wXEQcontract.mint(msg.sender, xeqVal);\r\n        emit Mint(msg.sender, msg.value, xeqVal);\r\n    }\r\n\r\n    fallback () external presaleIsActive payable {\r\n        uint256 xeqVal = getAmount(msg.value);\r\n        require(checkPresale(xeqVal));\r\n        wXEQminted = wXEQminted.add(xeqVal);\r\n        ethMinted = ethMinted.add(msg.value);\r\n        wXEQcontract.mint(msg.sender, xeqVal);\r\n        emit Mint(msg.sender, msg.value, xeqVal);\r\n    }\r\n\r\n    function withdraw(uint256 amount) public onlyOwner {\r\n        require(amount <= ethBalance());\r\n        teamAdd.transfer(amount);\r\n        emit Withdraw(msg.sender, amount, block.number);\r\n    }\r\n\r\n    function ethBalance() public view returns (uint256) {\r\n        return address(this).balance;\r\n    }\r\n}",
  "sourcePath": "C:/Users/harri/OneDrive/Documents/EquilibriaWagers/eth-equilibria/truffle/contracts/wXEQSaleV2.sol",
  "compiler": {
    "name": "solc",
    "version": "0.7.6+commit.7338295f.Emscripten.clang"
  },
  "schemaVersion": "3.3.3",
  "updatedAt": "2021-01-16T11:04:30.946Z",
  "devdoc": {
    "kind": "dev",
    "methods": {},
    "version": 1
  },
  "userdoc": {
    "kind": "user",
    "methods": {},
    "version": 1
  }
}