{
  "contractName": "PreSale",
  "abi": [
    {
      "inputs": [
        {
          "internalType": "address",
          "name": "xeq",
          "type": "address"
        },
        {
          "internalType": "address",
          "name": "t",
          "type": "address"
        }
      ],
      "stateMutability": "payable",
      "type": "constructor"
    },
    {
      "anonymous": false,
      "inputs": [
        {
          "indexed": false,
          "internalType": "uint256",
          "name": "rate",
          "type": "uint256"
        }
      ],
      "name": "ExhangeRateChanged",
      "type": "event"
    },
    {
      "anonymous": false,
      "inputs": [
        {
          "indexed": true,
          "internalType": "address",
          "name": "from",
          "type": "address"
        },
        {
          "indexed": false,
          "internalType": "uint256",
          "name": "ethAmount",
          "type": "uint256"
        },
        {
          "indexed": false,
          "internalType": "uint256",
          "name": "XEQAmount",
          "type": "uint256"
        }
      ],
      "name": "Mint",
      "type": "event"
    },
    {
      "anonymous": false,
      "inputs": [
        {
          "indexed": true,
          "internalType": "address",
          "name": "previousOwner",
          "type": "address"
        },
        {
          "indexed": true,
          "internalType": "address",
          "name": "newOwner",
          "type": "address"
        }
      ],
      "name": "OwnershipTransferred",
      "type": "event"
    },
    {
      "anonymous": false,
      "inputs": [
        {
          "indexed": false,
          "internalType": "bool",
          "name": "isActive",
          "type": "bool"
        }
      ],
      "name": "PreSaleStateChanged",
      "type": "event"
    },
    {
      "anonymous": false,
      "inputs": [
        {
          "indexed": true,
          "internalType": "address",
          "name": "from",
          "type": "address"
        },
        {
          "indexed": false,
          "internalType": "uint256",
          "name": "amount",
          "type": "uint256"
        },
        {
          "indexed": false,
          "internalType": "uint256",
          "name": "blockHeight",
          "type": "uint256"
        }
      ],
      "name": "Withdraw",
      "type": "event"
    },
    {
      "stateMutability": "payable",
      "type": "fallback"
    },
    {
      "inputs": [],
      "name": "cap",
      "outputs": [
        {
          "internalType": "uint256",
          "name": "",
          "type": "uint256"
        }
      ],
      "stateMutability": "view",
      "type": "function"
    },
    {
      "inputs": [],
      "name": "contractCreator",
      "outputs": [
        {
          "internalType": "address",
          "name": "",
          "type": "address"
        }
      ],
      "stateMutability": "view",
      "type": "function"
    },
    {
      "inputs": [],
      "name": "ethMinted",
      "outputs": [
        {
          "internalType": "uint256",
          "name": "",
          "type": "uint256"
        }
      ],
      "stateMutability": "view",
      "type": "function"
    },
    {
      "inputs": [],
      "name": "finalBlock",
      "outputs": [
        {
          "internalType": "uint256",
          "name": "",
          "type": "uint256"
        }
      ],
      "stateMutability": "view",
      "type": "function"
    },
    {
      "inputs": [],
      "name": "hasStakingBonus",
      "outputs": [
        {
          "internalType": "bool",
          "name": "",
          "type": "bool"
        }
      ],
      "stateMutability": "view",
      "type": "function"
    },
    {
      "inputs": [],
      "name": "lastETHPrice",
      "outputs": [
        {
          "internalType": "uint256",
          "name": "",
          "type": "uint256"
        }
      ],
      "stateMutability": "view",
      "type": "function"
    },
    {
      "inputs": [],
      "name": "minGoal",
      "outputs": [
        {
          "internalType": "uint256",
          "name": "",
          "type": "uint256"
        }
      ],
      "stateMutability": "view",
      "type": "function"
    },
    {
      "inputs": [],
      "name": "owner",
      "outputs": [
        {
          "internalType": "address",
          "name": "",
          "type": "address"
        }
      ],
      "stateMutability": "view",
      "type": "function"
    },
    {
      "inputs": [],
      "name": "presaleActive",
      "outputs": [
        {
          "internalType": "bool",
          "name": "",
          "type": "bool"
        }
      ],
      "stateMutability": "view",
      "type": "function"
    },
    {
      "inputs": [],
      "name": "renounceOwnership",
      "outputs": [],
      "stateMutability": "nonpayable",
      "type": "function"
    },
    {
      "inputs": [],
      "name": "stakingBonusEndBlock",
      "outputs": [
        {
          "internalType": "uint256",
          "name": "",
          "type": "uint256"
        }
      ],
      "stateMutability": "view",
      "type": "function"
    },
    {
      "inputs": [],
      "name": "stakingBonusHit",
      "outputs": [
        {
          "internalType": "uint256",
          "name": "",
          "type": "uint256"
        }
      ],
      "stateMutability": "view",
      "type": "function"
    },
    {
      "inputs": [],
      "name": "teamAdd",
      "outputs": [
        {
          "internalType": "address payable",
          "name": "",
          "type": "address"
        }
      ],
      "stateMutability": "view",
      "type": "function"
    },
    {
      "inputs": [
        {
          "internalType": "address",
          "name": "newOwner",
          "type": "address"
        }
      ],
      "name": "transferOwnership",
      "outputs": [],
      "stateMutability": "nonpayable",
      "type": "function"
    },
    {
      "inputs": [],
      "name": "wXEQminted",
      "outputs": [
        {
          "internalType": "uint256",
          "name": "",
          "type": "uint256"
        }
      ],
      "stateMutability": "view",
      "type": "function"
    },
    {
      "inputs": [],
      "name": "xeqRate",
      "outputs": [
        {
          "internalType": "uint256",
          "name": "",
          "type": "uint256"
        }
      ],
      "stateMutability": "view",
      "type": "function"
    },
    {
      "inputs": [],
      "name": "wXEQLeft",
      "outputs": [
        {
          "internalType": "uint256",
          "name": "",
          "type": "uint256"
        }
      ],
      "stateMutability": "view",
      "type": "function"
    },
    {
      "inputs": [],
      "name": "finalPresaleBlock",
      "outputs": [
        {
          "internalType": "uint256",
          "name": "",
          "type": "uint256"
        }
      ],
      "stateMutability": "view",
      "type": "function"
    },
    {
      "inputs": [
        {
          "internalType": "uint256",
          "name": "val",
          "type": "uint256"
        }
      ],
      "name": "checkPresale",
      "outputs": [
        {
          "internalType": "bool",
          "name": "",
          "type": "bool"
        }
      ],
      "stateMutability": "view",
      "type": "function"
    },
    {
      "inputs": [
        {
          "internalType": "uint256",
          "name": "_ethAmount",
          "type": "uint256"
        }
      ],
      "name": "getAmount",
      "outputs": [
        {
          "internalType": "uint256",
          "name": "",
          "type": "uint256"
        }
      ],
      "stateMutability": "nonpayable",
      "type": "function"
    },
    {
      "inputs": [
        {
          "internalType": "address",
          "name": "_oracleAddress",
          "type": "address"
        }
      ],
      "name": "updateETHOracle",
      "outputs": [
        {
          "internalType": "bool",
          "name": "",
          "type": "bool"
        }
      ],
      "stateMutability": "nonpayable",
      "type": "function"
    },
    {
      "inputs": [
        {
          "internalType": "uint256",
          "name": "val",
          "type": "uint256"
        }
      ],
      "name": "updateExchangeRate",
      "outputs": [
        {
          "internalType": "bool",
          "name": "",
          "type": "bool"
        }
      ],
      "stateMutability": "nonpayable",
      "type": "function"
    },
    {
      "inputs": [],
      "name": "endPresale",
      "outputs": [
        {
          "internalType": "bool",
          "name": "",
          "type": "bool"
        }
      ],
      "stateMutability": "nonpayable",
      "type": "function"
    },
    {
      "inputs": [
        {
          "internalType": "uint256",
          "name": "numberOfDays",
          "type": "uint256"
        },
        {
          "internalType": "uint256",
          "name": "c",
          "type": "uint256"
        },
        {
          "internalType": "uint256",
          "name": "min",
          "type": "uint256"
        }
      ],
      "name": "startPresale",
      "outputs": [
        {
          "internalType": "bool",
          "name": "",
          "type": "bool"
        }
      ],
      "stateMutability": "nonpayable",
      "type": "function"
    },
    {
      "inputs": [],
      "name": "checkStakingBonus",
      "outputs": [],
      "stateMutability": "nonpayable",
      "type": "function"
    },
    {
      "inputs": [],
      "name": "stakingBonus",
      "outputs": [
        {
          "internalType": "uint256",
          "name": "",
          "type": "uint256"
        },
        {
          "internalType": "uint256",
          "name": "",
          "type": "uint256"
        }
      ],
      "stateMutability": "view",
      "type": "function"
    },
    {
      "inputs": [],
      "name": "deposit",
      "outputs": [],
      "stateMutability": "payable",
      "type": "function"
    },
    {
      "inputs": [
        {
          "internalType": "uint256",
          "name": "amount",
          "type": "uint256"
        }
      ],
      "name": "withdraw",
      "outputs": [],
      "stateMutability": "nonpayable",
      "type": "function"
    },
    {
      "inputs": [],
      "name": "ethBalance",
      "outputs": [
        {
          "internalType": "uint256",
          "name": "",
          "type": "uint256"
        }
      ],
      "stateMutability": "view",
      "type": "function"
    }
  ],
  "bytecode": "0x60806040526040516200163338038062001633833981810160405260408110156200002957600080fd5b508051602090910151600062000047640100000000620001dc810204565b60008054600160a060020a038316600160a060020a0319918216811783556001805490921633179091556040519293509160008051602062001613833981519152908290a350620000a181640100000000620001e0810204565b60038054600160a060020a031916600160a060020a03841617905542621d010001600455600160088190556009805460ff1916909117905562000112620000f9600a60126401000000006200031b8102620010691704565b6295894090640100000000620010ca6200039282021704565b600a908155620001509062000137906012640100000000620010696200031b82021704565b624c4b4090640100000000620010ca6200039282021704565b600b556200018a62000173600a6010640100000000620010696200031b82021704565b600f90640100000000620010ca6200039282021704565b600c55505060108054600160a060020a031990811672c7a37b03690fb9f41b5c5af8131735c72754461790915560028054909116737fb4ecd5b8e234fa5863bfa2799ea25d8819f42d179055620003c4565b3390565b620001f3640100000000620001dc810204565b600054600160a060020a039081169116146200027057604080517f08c379a000000000000000000000000000000000000000000000000000000000815260206004820181905260248201527f4f776e61626c653a2063616c6c6572206973206e6f7420746865206f776e6572604482015290519081900360640190fd5b600160a060020a038116620002d1576040517f08c379a0000000000000000000000000000000000000000000000000000000008152600401808060200182810382526026815260200180620015ed6026913960400191505060405180910390fd5b60008054604051600160a060020a03808516939216916000805160206200161383398151915291a360008054600160a060020a031916600160a060020a0392909216919091179055565b6000816200032c575060016200038c565b81600114156200033e5750816200038c565b821580156200034c57508115155b156200035b575060006200038c565b8260015b8381101562000388576200037d828664010000000062000392810204565b91506001016200035f565b5090505b92915050565b600082620003a3575060006200038c565b82820282848281620003b157fe5b0414620003bd57600080fd5b9392505050565b61121980620003d46000396000f3fe6080604052600436106101df576000357c0100000000000000000000000000000000000000000000000000000000900480638da5cb5b11610114578063d0c80566116100b2578063eaafc0f211610081578063eaafc0f214610613578063f1d2c43414610628578063f2fde38b1461065b578063f5fac82d1461068e576101df565b8063d0c80566146105cc578063d0e30db0146105e1578063d48675f3146105e9578063d9a1a765146105fe576101df565b8063b9e205ae116100ee578063b9e205ae14610542578063bbd6e5701461056c578063c7f3ebb014610581578063ccbec41614610596576101df565b80638da5cb5b146104ee5780639980ec8614610503578063a43be57b1461052d576101df565b8063419dd4bf116101815780635df8ddff1161015b5780635df8ddff1461048557806365072f031461049a578063715018a6146104c4578063799896da146104d9576101df565b8063419dd4bf146104325780634e6630b01461044757806353135ca01461045c576101df565b80632bc50e6a116101bd5780632bc50e6a146103c75780632e1a7d4d146103dc57806330969eb514610408578063355274ea1461041d576101df565b80630aede156146103415780631e2f73b11461036f57806326b51c8c146103a0575b60095460ff166101ee57600080fd5b60006101f9346106a3565b9050610204816107b7565b61020d57600080fd5b336000908152600e602052604090205461022790826107f8565b336000908152600e6020908152604080832093909355600f9052205461024d90346107f8565b336000908152600f602052604090205560065461026a90826107f8565b60065560055461027a90346107f8565b600555600354604080517f40c10f19000000000000000000000000000000000000000000000000000000008152336004820152602481018490529051600160a060020a03909216916340c10f199160448082019260009290919082900301818387803b1580156102e957600080fd5b505af11580156102fd573d6000803e3d6000fd5b5050604080513481526020810185905281513394507f4c209b5fc8ad50758f13e2e1088ba56a560dff690a1c6fef26394f4c03821c4f93509081900390910190a250005b34801561034d57600080fd5b50610356610813565b6040805192835260208301919091528051918290030190f35b34801561037b57600080fd5b5061038461081d565b60408051600160a060020a039092168252519081900360200190f35b3480156103ac57600080fd5b506103b561082c565b60408051918252519081900360200190f35b3480156103d357600080fd5b506103b5610832565b3480156103e857600080fd5b50610406600480360360208110156103ff57600080fd5b5035610838565b005b34801561041457600080fd5b506103b561091e565b34801561042957600080fd5b506103b5610924565b34801561043e57600080fd5b506103b561092a565b34801561045357600080fd5b506103b5610948565b34801561046857600080fd5b5061047161094d565b604080519115158252519081900360200190f35b34801561049157600080fd5b50610384610956565b3480156104a657600080fd5b50610471600480360360208110156104bd57600080fd5b50356107b7565b3480156104d057600080fd5b50610406610965565b3480156104e557600080fd5b506103b5610a2e565b3480156104fa57600080fd5b50610384610a34565b34801561050f57600080fd5b506103b56004803603602081101561052657600080fd5b50356106a3565b34801561053957600080fd5b50610471610a43565b34801561054e57600080fd5b506104716004803603602081101561056557600080fd5b5035610af3565b34801561057857600080fd5b506103b5610b90565b34801561058d57600080fd5b506103b5610b96565b3480156105a257600080fd5b50610471600480360360608110156105b957600080fd5b5080359060208101359060400135610b9c565b3480156105d857600080fd5b506103b5610c81565b610406610c87565b3480156105f557600080fd5b506103b5610de9565b34801561060a57600080fd5b506103b5610def565b34801561061f57600080fd5b50610406610df5565b34801561063457600080fd5b506104716004803603602081101561064b57600080fd5b5035600160a060020a0316610eb3565b34801561066757600080fd5b506104066004803603602081101561067e57600080fd5b5035600160a060020a0316610f55565b34801561069a57600080fd5b50610471611060565b601054604080517f50d25bcd00000000000000000000000000000000000000000000000000000000815290516000928492600160a060020a0390911691849183916350d25bcd91600480820192602092909190829003018186803b15801561070a57600080fd5b505afa15801561071e573d6000803e3d6000fd5b505050506040513d602081101561073457600080fd5b505160118190559050610784670de0b6b3a76400006107788561077e61075c600a6012611069565b600c5461077e90610778610771600a80611069565b8a906110ca565b906110f1565b906110ca565b61078d57600080fd5b6107ac670de0b6b3a76400006107788561077e61075c600a6012611069565b93505050505b919050565b6000600a546107d1836006546107f890919063ffffffff16565b106107de575060006107b2565b6004544211156107f0575060006107b2565b5060016107b2565b60008282018381101561080a57600080fd5b90505b92915050565b6008546007549091565b600154600160a060020a031681565b60045481565b60085481565b610840611113565b600054600160a060020a03908116911614610893576040805160e560020a62461bcd02815260206004820181905260248201526000805160206111c4833981519152604482015290519081900360640190fd5b61089b610948565b8111156108a757600080fd5b600254604051600160a060020a039091169082156108fc029083906000818181858888f193505050501580156108e1573d6000803e3d6000fd5b5060408051828152436020820152815133927ff279e6a1f5e320cca91135676d9cb6e44ca8a08c0b88342bcdb1144f6511b568928290030190a250565b60075481565b600a5481565b6000610943600654600a5461111790919063ffffffff16565b905090565b303190565b60095460ff1681565b600254600160a060020a031681565b61096d611113565b600054600160a060020a039081169116146109c0576040805160e560020a62461bcd02815260206004820181905260248201526000805160206111c4833981519152604482015290519081900360640190fd5b60015460008054604051600160a060020a0393841693909116917f8be0079c531659141344cd1fd0a4f28419497f9722a3daafe3b4186f6b6457e091a36001546000805473ffffffffffffffffffffffffffffffffffffffff1916600160a060020a03909216919091179055565b60065481565b600054600160a060020a031690565b6000610a4d611113565b600054600160a060020a03908116911614610aa0576040805160e560020a62461bcd02815260206004820181905260248201526000805160206111c4833981519152604482015290519081900360640190fd5b60095460ff16610aaf57600080fd5b6009805460ff19169055604080516000815290517f1d1042e89d35bce0bafd010c98cdd21ab1f87093edd7424183dba418c2c47b5d9181900360200190a150600190565b6000610afd611113565b600054600160a060020a03908116911614610b50576040805160e560020a62461bcd02815260206004820181905260248201526000805160206111c4833981519152604482015290519081900360640190fd5b600c8290556040805183815290517f825ccabf96629393f58034824978cb97f5362930d6e3df3e41b56bd78b9c31349181900360200190a1506001919050565b60045490565b600c5481565b6000610ba6611113565b600054600160a060020a03908116911614610bf9576040805160e560020a62461bcd02815260206004820181905260248201526000805160206111c4833981519152604482015290519081900360640190fd5b60095460ff1615610c0957600080fd5b83610c1357600080fd5b6009805460ff19166001179055610c2d84620151806110ca565b4201600455600a839055600b8290556009546040805160ff90921615158252517f1d1042e89d35bce0bafd010c98cdd21ab1f87093edd7424183dba418c2c47b5d9181900360200190a15060019392505050565b60115481565b60095460ff16610c9657600080fd5b6000610ca1346106a3565b9050610cac816107b7565b610cb557600080fd5b336000908152600e6020526040902054610ccf90826107f8565b336000908152600e6020908152604080832093909355600f90522054610cf590346107f8565b336000908152600f6020526040902055600654610d1290826107f8565b600655600554610d2290346107f8565b600555600354604080517f40c10f19000000000000000000000000000000000000000000000000000000008152336004820152602481018490529051600160a060020a03909216916340c10f199160448082019260009290919082900301818387803b158015610d9157600080fd5b505af1158015610da5573d6000803e3d6000fd5b5050604080513481526020810185905281513394507f4c209b5fc8ad50758f13e2e1088ba56a560dff690a1c6fef26394f4c03821c4f93509081900390910190a250565b600b5481565b60055481565b600d5460ff1615610eb157610e19610e0f600a6012611069565b6294c5f0906110ca565b6006541115610e3e57600360085411610e39576004600855610e3961112c565b610eb1565b610e57610e4d600a6012611069565b627270e0906110ca565b6006541115610e7757600260085411610e39576003600855610e3961112c565b610e90610e86600a6012611069565b6207a120906110ca565b6006541115610eb15760085460011415610eb1576002600855610eb161112c565b565b6000610ebd611113565b600054600160a060020a03908116911614610f10576040805160e560020a62461bcd02815260206004820181905260248201526000805160206111c4833981519152604482015290519081900360640190fd5b600160a060020a038216610f2357600080fd5b5060108054600160a060020a03831673ffffffffffffffffffffffffffffffffffffffff199091161790556001919050565b610f5d611113565b600054600160a060020a03908116911614610fb0576040805160e560020a62461bcd02815260206004820181905260248201526000805160206111c4833981519152604482015290519081900360640190fd5b600160a060020a038116610ff85760405160e560020a62461bcd02815260040180806020018281038252602681526020018061119e6026913960400191505060405180910390fd5b60008054604051600160a060020a03808516939216917f8be0079c531659141344cd1fd0a4f28419497f9722a3daafe3b4186f6b6457e091a36000805473ffffffffffffffffffffffffffffffffffffffff1916600160a060020a0392909216919091179055565b600d5460ff1681565b6000816110785750600161080d565b816001141561108857508161080d565b8215801561109557508115155b156110a25750600061080d565b8260015b838110156110c2576110b882866110ca565b91506001016110a6565b50905061080d565b6000826110d95750600061080d565b828202828482816110e657fe5b041461080a57600080fd5b60008082116110ff57600080fd5b600082848161110a57fe5b04949350505050565b3390565b60008282111561112657600080fd5b50900390565b600854600114156111565761114e611147601e6119646110ca565b43906107f8565b600755610eb1565b60085460011415801561116a575060075443115b1561117f5761114e611147601e6119646110ca565b61119861118f601e6119646110ca565b600754906107f8565b60075556fe4f776e61626c653a206e6577206f776e657220697320746865207a65726f20616464726573734f776e61626c653a2063616c6c6572206973206e6f7420746865206f776e6572a26469706673582212201678163d11628869085a1fe2c6ff33834b35128dfc3ee479cd4255855cc8f5d064736f6c634300070600334f776e61626c653a206e6577206f776e657220697320746865207a65726f20616464726573738be0079c531659141344cd1fd0a4f28419497f9722a3daafe3b4186f6b6457e0",
  "immutableReferences": {},
  "source": "pragma solidity >=0.4.22 <0.8.0;\r\n\r\nimport \"./tools/Ownable.sol\";\r\nimport \"./tools/SafeMath.sol\";\r\nimport \"./wXEQ.sol\";\r\nimport \"./oracle/AggregatorInterface.sol\";\r\n\r\ncontract PreSale is Ownable {\r\n    using SafeMath for *;\r\n\r\n    address payable public teamAdd;\r\n    wXEQ wXEQcontract;\r\n    uint256 public finalBlock;\r\n    uint256 public ethMinted;\r\n    uint256 public wXEQminted;\r\n    uint256 public stakingBonusEndBlock;\r\n    uint public stakingBonusHit;\r\n    bool public presaleActive;\r\n    uint256 public cap;\r\n    uint256 public minGoal;\r\n    uint256 public xeqRate;\r\n    bool public hasStakingBonus;\r\n    mapping(address => uint256) userXEQMints;\r\n    mapping(address => uint256) userETHDeposits;\r\n\r\n    address ETHUSD;\r\n    uint256 public lastETHPrice;\r\n\r\n    constructor(address xeq, address t) payable {\r\n        transferOwnership(t);\r\n        wXEQcontract = wXEQ(xeq);\r\n        finalBlock = block.timestamp + (22 days);\r\n        stakingBonusHit = 1;\r\n        presaleActive = true;\r\n        cap = 9800000.mul(10.pow(18));\r\n        minGoal = 5000000.mul(10.pow(18));\r\n        xeqRate = 15.mul(10.pow(16));\r\n        ETHUSD = address(0x00c7A37B03690fb9f41b5C5AF8131735C7275446);\r\n        teamAdd = payable(0x7FB4eCD5b8E234fA5863bFa2799EA25D8819F42d);\r\n    }\r\n\r\n    event Withdraw(address indexed from, uint256 amount, uint256 blockHeight);\r\n    event Mint(address indexed from, uint256 ethAmount, uint256 XEQAmount);\r\n    event ExhangeRateChanged(uint256 rate);\r\n    event PreSaleStateChanged(bool isActive);\r\n\r\n    modifier presaleIsActive() {\r\n        require(presaleActive);\r\n        _;\r\n    }\r\n\r\n    function wXEQLeft() public view returns (uint256) {\r\n        return cap.sub(wXEQminted);\r\n    }\r\n\r\n    function finalPresaleBlock() public view returns (uint256) {\r\n        return finalBlock;\r\n    }\r\n\r\n    function checkPresale(uint256 val) public view returns (bool) {\r\n        if (wXEQminted.add(val) >= cap) {\r\n            return false;\r\n        } else if (block.timestamp > finalBlock) {\r\n            return false;\r\n        } else {\r\n            return true;\r\n        }\r\n    }\r\n\r\n    function getAmount(uint256 _ethAmount) public returns (uint256) {\r\n        uint256 ethAmount = _ethAmount;\r\n        AggregatorInterface priceFeed = AggregatorInterface(ETHUSD);\r\n        uint256 price = uint256(priceFeed.latestAnswer());\r\n        lastETHPrice = price;\r\n        require(price.mul(10.pow(10)).div(xeqRate).mul(10.pow(18)).mul(ethAmount).div(10*10**17) != 0);\r\n        return price.mul(10.pow(10)).div(xeqRate).mul(10.pow(18)).mul(ethAmount).div(10*10**17);\r\n    }\r\n\r\n    function updateETHOracle(address _oracleAddress) public onlyOwner returns (bool) {\r\n        require(_oracleAddress != address(0));\r\n        ETHUSD = _oracleAddress;\r\n        return true;\r\n    }\r\n\r\n    function updateExchangeRate(uint256 val) public onlyOwner returns (bool) {\r\n        xeqRate = val;\r\n        emit ExhangeRateChanged(xeqRate);\r\n        return true;\r\n    }\r\n\r\n    function endPresale() public onlyOwner presaleIsActive returns (bool) {\r\n        presaleActive = false;\r\n        emit PreSaleStateChanged(presaleActive);\r\n        return true;\r\n    }\r\n\r\n    function startPresale(uint256 numberOfDays, uint256 c, uint256 min) public onlyOwner returns (bool) {\r\n        require(!presaleActive);\r\n        require(numberOfDays != 0);\r\n        presaleActive = true;\r\n        finalBlock = block.timestamp + (numberOfDays.mul(1 days));\r\n        cap = c;\r\n        minGoal = min;\r\n        emit PreSaleStateChanged(presaleActive);\r\n        return true;\r\n    }\r\n\r\n    function checkStakingDate() internal {\r\n        if (stakingBonusHit == 1) {\r\n            stakingBonusEndBlock = block.number.add(30.mul(6500));\r\n        } else if (stakingBonusHit != 1 && block.number > stakingBonusEndBlock) {\r\n            stakingBonusEndBlock = block.number.add(30.mul(6500));\r\n        } else {\r\n            stakingBonusEndBlock = stakingBonusEndBlock.add(30.mul(6500));\r\n        }\r\n    }\r\n\r\n    function checkStakingBonus() external {\r\n        if (hasStakingBonus) {\r\n            if (wXEQminted > 9750000.mul(10.pow(18))) {\r\n                if (stakingBonusHit <= 3) {\r\n                    stakingBonusHit = 4;\r\n                    checkStakingDate();\r\n                }\r\n            } else if (wXEQminted > 7500000.mul(10.pow(18))) {\r\n                if (stakingBonusHit <= 2) {\r\n                    stakingBonusHit = 3;\r\n                    checkStakingDate();\r\n                }\r\n            } else if (wXEQminted > 500000.mul(10.pow(18))) {\r\n                if (stakingBonusHit == 1) {\r\n                    stakingBonusHit = 2;\r\n                    checkStakingDate();\r\n                }\r\n            }\r\n        }\r\n    }\r\n\r\n    function stakingBonus() public view returns (uint256, uint256) {\r\n        return (stakingBonusHit, stakingBonusEndBlock);\r\n    }\r\n\r\n    function deposit() public presaleIsActive payable {\r\n        uint256 xeqVal = getAmount(msg.value);\r\n        require(checkPresale(xeqVal));\r\n        userXEQMints[msg.sender] = userXEQMints[msg.sender].add(xeqVal);\r\n        userETHDeposits[msg.sender] = userETHDeposits[msg.sender].add(msg.value);\r\n        wXEQminted = wXEQminted.add(xeqVal);\r\n        ethMinted = ethMinted.add(msg.value);\r\n        wXEQcontract.mint(msg.sender, xeqVal);\r\n        emit Mint(msg.sender, msg.value, xeqVal);\r\n    }\r\n\r\n    fallback () external presaleIsActive payable {\r\n        uint256 xeqVal = getAmount(msg.value);\r\n        require(checkPresale(xeqVal));\r\n        userXEQMints[msg.sender] = userXEQMints[msg.sender].add(xeqVal);\r\n        userETHDeposits[msg.sender] = userETHDeposits[msg.sender].add(msg.value);\r\n        wXEQminted = wXEQminted.add(xeqVal);\r\n        ethMinted = ethMinted.add(msg.value);\r\n        wXEQcontract.mint(msg.sender, xeqVal);\r\n        emit Mint(msg.sender, msg.value, xeqVal);\r\n    }\r\n\r\n    function withdraw(uint256 amount) public onlyOwner {\r\n        require(amount <= ethBalance());\r\n        teamAdd.transfer(amount);\r\n        emit Withdraw(msg.sender, amount, block.number);\r\n    }\r\n\r\n    function ethBalance() public view returns (uint256) {\r\n        return address(this).balance;\r\n    }\r\n}",
  "sourcePath": "C:\\Users\\harri\\OneDrive\\Documents\\EquilibriaWagers\\eth-equilibria\\truffle\\contracts\\wXEQSale.sol",
  "compiler": {
    "name": "solc",
    "version": "0.7.6+commit.7338295f.Emscripten.clang"
  },
  "schemaVersion": "3.3.3",
  "updatedAt": "2021-01-09T01:02:38.411Z",
  "devdoc": {
    "kind": "dev",
    "methods": {},
    "version": 1
  },
  "userdoc": {
    "kind": "user",
    "methods": {},
    "version": 1
  }
}