{
  "contractName": "PreSale",
  "abi": [
    {
      "inputs": [
        {
          "internalType": "address",
          "name": "xeq",
          "type": "address"
        },
        {
          "internalType": "address",
          "name": "t",
          "type": "address"
        }
      ],
      "stateMutability": "payable",
      "type": "constructor"
    },
    {
      "anonymous": false,
      "inputs": [
        {
          "indexed": false,
          "internalType": "uint256",
          "name": "rate",
          "type": "uint256"
        }
      ],
      "name": "ExhangeRateChanged",
      "type": "event"
    },
    {
      "anonymous": false,
      "inputs": [
        {
          "indexed": true,
          "internalType": "address",
          "name": "from",
          "type": "address"
        },
        {
          "indexed": false,
          "internalType": "uint256",
          "name": "ethAmount",
          "type": "uint256"
        },
        {
          "indexed": false,
          "internalType": "uint256",
          "name": "XEQAmount",
          "type": "uint256"
        }
      ],
      "name": "Mint",
      "type": "event"
    },
    {
      "anonymous": false,
      "inputs": [
        {
          "indexed": true,
          "internalType": "address",
          "name": "previousOwner",
          "type": "address"
        },
        {
          "indexed": true,
          "internalType": "address",
          "name": "newOwner",
          "type": "address"
        }
      ],
      "name": "OwnershipTransferred",
      "type": "event"
    },
    {
      "anonymous": false,
      "inputs": [
        {
          "indexed": false,
          "internalType": "bool",
          "name": "isActive",
          "type": "bool"
        }
      ],
      "name": "PreSaleStateChanged",
      "type": "event"
    },
    {
      "anonymous": false,
      "inputs": [
        {
          "indexed": true,
          "internalType": "address",
          "name": "from",
          "type": "address"
        },
        {
          "indexed": false,
          "internalType": "uint256",
          "name": "amount",
          "type": "uint256"
        },
        {
          "indexed": false,
          "internalType": "uint256",
          "name": "blockHeight",
          "type": "uint256"
        }
      ],
      "name": "Withdraw",
      "type": "event"
    },
    {
      "stateMutability": "payable",
      "type": "fallback"
    },
    {
      "inputs": [],
      "name": "contractCreator",
      "outputs": [
        {
          "internalType": "address",
          "name": "",
          "type": "address"
        }
      ],
      "stateMutability": "view",
      "type": "function"
    },
    {
      "inputs": [],
      "name": "ethMinted",
      "outputs": [
        {
          "internalType": "uint256",
          "name": "",
          "type": "uint256"
        }
      ],
      "stateMutability": "view",
      "type": "function"
    },
    {
      "inputs": [],
      "name": "lastETHPrice",
      "outputs": [
        {
          "internalType": "uint256",
          "name": "",
          "type": "uint256"
        }
      ],
      "stateMutability": "view",
      "type": "function"
    },
    {
      "inputs": [],
      "name": "owner",
      "outputs": [
        {
          "internalType": "address",
          "name": "",
          "type": "address"
        }
      ],
      "stateMutability": "view",
      "type": "function"
    },
    {
      "inputs": [],
      "name": "renounceOwnership",
      "outputs": [],
      "stateMutability": "nonpayable",
      "type": "function"
    },
    {
      "inputs": [],
      "name": "teamAdd",
      "outputs": [
        {
          "internalType": "address payable",
          "name": "",
          "type": "address"
        }
      ],
      "stateMutability": "view",
      "type": "function"
    },
    {
      "inputs": [
        {
          "internalType": "address",
          "name": "newOwner",
          "type": "address"
        }
      ],
      "name": "transferOwnership",
      "outputs": [],
      "stateMutability": "nonpayable",
      "type": "function"
    },
    {
      "inputs": [],
      "name": "wXEQminted",
      "outputs": [
        {
          "internalType": "uint256",
          "name": "",
          "type": "uint256"
        }
      ],
      "stateMutability": "view",
      "type": "function"
    },
    {
      "inputs": [],
      "name": "wXEQLeft",
      "outputs": [
        {
          "internalType": "uint256",
          "name": "",
          "type": "uint256"
        }
      ],
      "stateMutability": "view",
      "type": "function"
    },
    {
      "inputs": [],
      "name": "finalPresaleBlock",
      "outputs": [
        {
          "internalType": "uint256",
          "name": "",
          "type": "uint256"
        }
      ],
      "stateMutability": "view",
      "type": "function"
    },
    {
      "inputs": [
        {
          "internalType": "uint256",
          "name": "val",
          "type": "uint256"
        }
      ],
      "name": "checkPresale",
      "outputs": [
        {
          "internalType": "bool",
          "name": "",
          "type": "bool"
        }
      ],
      "stateMutability": "view",
      "type": "function"
    },
    {
      "inputs": [
        {
          "internalType": "uint256",
          "name": "_ethAmount",
          "type": "uint256"
        }
      ],
      "name": "calculateAmount",
      "outputs": [
        {
          "internalType": "uint256",
          "name": "",
          "type": "uint256"
        }
      ],
      "stateMutability": "view",
      "type": "function"
    },
    {
      "inputs": [
        {
          "internalType": "uint256",
          "name": "_ethAmount",
          "type": "uint256"
        }
      ],
      "name": "getAmount",
      "outputs": [
        {
          "internalType": "uint256",
          "name": "",
          "type": "uint256"
        }
      ],
      "stateMutability": "nonpayable",
      "type": "function"
    },
    {
      "inputs": [
        {
          "internalType": "address",
          "name": "_oracleAddress",
          "type": "address"
        }
      ],
      "name": "updateETHOracle",
      "outputs": [
        {
          "internalType": "bool",
          "name": "",
          "type": "bool"
        }
      ],
      "stateMutability": "nonpayable",
      "type": "function"
    },
    {
      "inputs": [
        {
          "internalType": "uint256",
          "name": "val",
          "type": "uint256"
        }
      ],
      "name": "updateExchangeRate",
      "outputs": [
        {
          "internalType": "bool",
          "name": "",
          "type": "bool"
        }
      ],
      "stateMutability": "nonpayable",
      "type": "function"
    },
    {
      "inputs": [],
      "name": "endPresale",
      "outputs": [
        {
          "internalType": "bool",
          "name": "",
          "type": "bool"
        }
      ],
      "stateMutability": "nonpayable",
      "type": "function"
    },
    {
      "inputs": [
        {
          "internalType": "uint256",
          "name": "numberOfDays",
          "type": "uint256"
        },
        {
          "internalType": "uint256",
          "name": "c",
          "type": "uint256"
        },
        {
          "internalType": "uint256",
          "name": "min",
          "type": "uint256"
        }
      ],
      "name": "startPresale",
      "outputs": [
        {
          "internalType": "bool",
          "name": "",
          "type": "bool"
        }
      ],
      "stateMutability": "nonpayable",
      "type": "function"
    },
    {
      "inputs": [],
      "name": "checkStakingBonus",
      "outputs": [],
      "stateMutability": "nonpayable",
      "type": "function"
    },
    {
      "inputs": [],
      "name": "stakingBonus",
      "outputs": [
        {
          "internalType": "uint256",
          "name": "",
          "type": "uint256"
        },
        {
          "internalType": "uint256",
          "name": "",
          "type": "uint256"
        }
      ],
      "stateMutability": "view",
      "type": "function"
    },
    {
      "inputs": [
        {
          "internalType": "uint256",
          "name": "amount",
          "type": "uint256"
        }
      ],
      "name": "withdraw",
      "outputs": [],
      "stateMutability": "nonpayable",
      "type": "function"
    },
    {
      "inputs": [],
      "name": "ethBalance",
      "outputs": [
        {
          "internalType": "uint256",
          "name": "",
          "type": "uint256"
        }
      ],
      "stateMutability": "view",
      "type": "function"
    }
  ],
  "bytecode": "0x60806040526040516200202838038062002028833981810160405260408110156200002957600080fd5b81019080805190602001909291908051906020019092919050505060006200005f620002d2640100000000026401000000009004565b9050806000806101000a81548173ffffffffffffffffffffffffffffffffffffffff021916908373ffffffffffffffffffffffffffffffffffffffff16021790555033600160006101000a81548173ffffffffffffffffffffffffffffffffffffffff021916908373ffffffffffffffffffffffffffffffffffffffff1602179055508073ffffffffffffffffffffffffffffffffffffffff16600073ffffffffffffffffffffffffffffffffffffffff167f8be0079c531659141344cd1fd0a4f28419497f9722a3daafe3b4186f6b6457e060405160405180910390a3506200015881620002da640100000000026401000000009004565b81600360006101000a81548173ffffffffffffffffffffffffffffffffffffffff021916908373ffffffffffffffffffffffffffffffffffffffff1602179055506276a700420160048190555065d12f0c4c600060078190555060016009819055506001600a60006101000a81548160ff0219169083151502179055506200021f620001fe6012600a620004f96401000000000262001807179091906401000000009004565b629896806200058f6401000000000262001883179091906401000000009004565b600b819055506200026f6200024e6012600a620004f96401000000000262001807179091906401000000009004565b624c4b406200058f6401000000000262001883179091906401000000009004565b600c81905550739326bfa02add2366b30bacb125260af641031331600d60016101000a81548173ffffffffffffffffffffffffffffffffffffffff021916908373ffffffffffffffffffffffffffffffffffffffff1602179055505050620005cd565b600033905090565b620002f3620002d2640100000000026401000000009004565b73ffffffffffffffffffffffffffffffffffffffff1660008054906101000a900473ffffffffffffffffffffffffffffffffffffffff1673ffffffffffffffffffffffffffffffffffffffff1614620003b4576040517f08c379a00000000000000000000000000000000000000000000000000000000081526004018080602001828103825260208152602001807f4f776e61626c653a2063616c6c6572206973206e6f7420746865206f776e657281525060200191505060405180910390fd5b600073ffffffffffffffffffffffffffffffffffffffff168173ffffffffffffffffffffffffffffffffffffffff1614156200043c576040517f08c379a0000000000000000000000000000000000000000000000000000000008152600401808060200182810382526026815260200180620020026026913960400191505060405180910390fd5b8073ffffffffffffffffffffffffffffffffffffffff1660008054906101000a900473ffffffffffffffffffffffffffffffffffffffff1673ffffffffffffffffffffffffffffffffffffffff167f8be0079c531659141344cd1fd0a4f28419497f9722a3daafe3b4186f6b6457e060405160405180910390a3806000806101000a81548173ffffffffffffffffffffffffffffffffffffffff021916908373ffffffffffffffffffffffffffffffffffffffff16021790555050565b6000808214156200050e576001905062000589565b6001821415620005215782905062000589565b60008314801562000533575060008214155b1562000543576000905062000589565b60008390506000600190505b8381101562000583576200057382866200058f640100000000026401000000009004565b915080806001019150506200054f565b50809150505b92915050565b600080831415620005a45760009050620005c7565b6000828402905082848281620005b657fe5b0414620005c257600080fd5b809150505b92915050565b611a2580620005dd6000396000f3fe60806040526004361061014b576000357c0100000000000000000000000000000000000000000000000000000000900480638da5cb5b116100c8578063ccbec4161161008c578063ccbec4161461071f578063d0c8056614610784578063d9a1a765146107af578063eaafc0f2146107da578063f1d2c434146107f1578063f2fde38b146108585761014c565b80638da5cb5b146105e65780639980ec8614610627578063a43be57b14610676578063b9e205ae146106a3578063bbd6e570146106f45761014c565b80634e6630b01161010f5780634e6630b0146104e75780635df8ddff1461051257806365072f0314610553578063715018a6146105a4578063799896da146105bb5761014c565b80630aede156146103bf5780631e2f73b1146103f15780632e1a7d4d14610432578063419dd4bf1461046d57806348dc5893146104985761014c565b5b600a60009054906101000a900460ff1661016557600080fd5b6000610170346108a9565b905061017b81610a38565b61018457600080fd5b61019981600654610a8d90919063ffffffff16565b6006819055506101b434600554610a8d90919063ffffffff16565b6005819055506000600360009054906101000a900473ffffffffffffffffffffffffffffffffffffffff1673ffffffffffffffffffffffffffffffffffffffff166370a08231336040518263ffffffff167c0100000000000000000000000000000000000000000000000000000000028152600401808273ffffffffffffffffffffffffffffffffffffffff16815260200191505060206040518083038186803b15801561026157600080fd5b505afa158015610275573d6000803e3d6000fd5b505050506040513d602081101561028b57600080fd5b81019080805190602001909291905050509050600360009054906101000a900473ffffffffffffffffffffffffffffffffffffffff1673ffffffffffffffffffffffffffffffffffffffff166340c10f1933846040518363ffffffff167c0100000000000000000000000000000000000000000000000000000000028152600401808373ffffffffffffffffffffffffffffffffffffffff16815260200182815260200192505050600060405180830381600087803b15801561034d57600080fd5b505af1158015610361573d6000803e3d6000fd5b505050503373ffffffffffffffffffffffffffffffffffffffff167f4c209b5fc8ad50758f13e2e1088ba56a560dff690a1c6fef26394f4c03821c4f3484604051808381526020018281526020019250505060405180910390a25050005b3480156103cb57600080fd5b506103d4610aac565b604051808381526020018281526020019250505060405180910390f35b3480156103fd57600080fd5b50610406610abd565b604051808273ffffffffffffffffffffffffffffffffffffffff16815260200191505060405180910390f35b34801561043e57600080fd5b5061046b6004803603602081101561045557600080fd5b8101908080359060200190929190505050610ae3565b005b34801561047957600080fd5b50610482610c81565b6040518082815260200191505060405180910390f35b3480156104a457600080fd5b506104d1600480360360208110156104bb57600080fd5b8101908080359060200190929190505050610c9f565b6040518082815260200191505060405180910390f35b3480156104f357600080fd5b506104fc610d6c565b6040518082815260200191505060405180910390f35b34801561051e57600080fd5b50610527610d8b565b604051808273ffffffffffffffffffffffffffffffffffffffff16815260200191505060405180910390f35b34801561055f57600080fd5b5061058c6004803603602081101561057657600080fd5b8101908080359060200190929190505050610a38565b60405180821515815260200191505060405180910390f35b3480156105b057600080fd5b506105b9610db1565b005b3480156105c757600080fd5b506105d0610f79565b6040518082815260200191505060405180910390f35b3480156105f257600080fd5b506105fb610f7f565b604051808273ffffffffffffffffffffffffffffffffffffffff16815260200191505060405180910390f35b34801561063357600080fd5b506106606004803603602081101561064a57600080fd5b81019080803590602001909291905050506108a9565b6040518082815260200191505060405180910390f35b34801561068257600080fd5b5061068b610fa8565b60405180821515815260200191505060405180910390f35b3480156106af57600080fd5b506106dc600480360360208110156106c657600080fd5b81019080803590602001909291905050506110f1565b60405180821515815260200191505060405180910390f35b34801561070057600080fd5b50610709611200565b6040518082815260200191505060405180910390f35b34801561072b57600080fd5b5061076c6004803603606081101561074257600080fd5b8101908080359060200190929190803590602001909291908035906020019092919050505061120a565b60405180821515815260200191505060405180910390f35b34801561079057600080fd5b50610799611392565b6040518082815260200191505060405180910390f35b3480156107bb57600080fd5b506107c4611398565b6040518082815260200191505060405180910390f35b3480156107e657600080fd5b506107ef61139e565b005b3480156107fd57600080fd5b506108406004803603602081101561081457600080fd5b81019080803573ffffffffffffffffffffffffffffffffffffffff1690602001909291905050506114ae565b60405180821515815260200191505060405180910390f35b34801561086457600080fd5b506108a76004803603602081101561087b57600080fd5b81019080803573ffffffffffffffffffffffffffffffffffffffff1690602001909291905050506115fc565b005b60008082905060006108d96108c96010600a61180790919063ffffffff16565b600f61188390919063ffffffff16565b90506000600d60019054906101000a900473ffffffffffffffffffffffffffffffffffffffff16905060008173ffffffffffffffffffffffffffffffffffffffff166350d25bcd6040518163ffffffff167c010000000000000000000000000000000000000000000000000000000002815260040160206040518083038186803b15801561096657600080fd5b505afa15801561097a573d6000803e3d6000fd5b505050506040513d602081101561099057600080fd5b81019080805190602001909291905050509050610a2d670de0b6b3a7640000610a1f86610a116109cb6012600a61180790919063ffffffff16565b610a03896109f56109e6600a8061180790919063ffffffff16565b8a61188390919063ffffffff16565b6118bd90919063ffffffff16565b61188390919063ffffffff16565b61188390919063ffffffff16565b6118bd90919063ffffffff16565b945050505050919050565b6000600b54610a5283600654610a8d90919063ffffffff16565b10610a605760009050610a88565b60045442118015610a755750600c5460065410155b15610a835760009050610a88565b600190505b919050565b600080828401905083811015610aa257600080fd5b8091505092915050565b600080600954600854915091509091565b600160009054906101000a900473ffffffffffffffffffffffffffffffffffffffff1681565b610aeb6118e3565b73ffffffffffffffffffffffffffffffffffffffff1660008054906101000a900473ffffffffffffffffffffffffffffffffffffffff1673ffffffffffffffffffffffffffffffffffffffff1614610bab576040517f08c379a00000000000000000000000000000000000000000000000000000000081526004018080602001828103825260208152602001807f4f776e61626c653a2063616c6c6572206973206e6f7420746865206f776e657281525060200191505060405180910390fd5b610bb3610d6c565b811115610bbf57600080fd5b600260009054906101000a900473ffffffffffffffffffffffffffffffffffffffff1673ffffffffffffffffffffffffffffffffffffffff166108fc829081150290604051600060405180830381858888f19350505050158015610c27573d6000803e3d6000fd5b503373ffffffffffffffffffffffffffffffffffffffff167ff279e6a1f5e320cca91135676d9cb6e44ca8a08c0b88342bcdb1144f6511b5688243604051808381526020018281526020019250505060405180910390a250565b6000610c9a600654600b546118eb90919063ffffffff16565b905090565b6000808290506000610ccf610cbf6010600a61180790919063ffffffff16565b600f61188390919063ffffffff16565b90506000600e549050610d62670de0b6b3a7640000610d5485610d46610d006012600a61180790919063ffffffff16565b610d3888610d2a610d1b600a8061180790919063ffffffff16565b8a61188390919063ffffffff16565b6118bd90919063ffffffff16565b61188390919063ffffffff16565b61188390919063ffffffff16565b6118bd90919063ffffffff16565b9350505050919050565b60003073ffffffffffffffffffffffffffffffffffffffff1631905090565b600260009054906101000a900473ffffffffffffffffffffffffffffffffffffffff1681565b610db96118e3565b73ffffffffffffffffffffffffffffffffffffffff1660008054906101000a900473ffffffffffffffffffffffffffffffffffffffff1673ffffffffffffffffffffffffffffffffffffffff1614610e79576040517f08c379a00000000000000000000000000000000000000000000000000000000081526004018080602001828103825260208152602001807f4f776e61626c653a2063616c6c6572206973206e6f7420746865206f776e657281525060200191505060405180910390fd5b600160009054906101000a900473ffffffffffffffffffffffffffffffffffffffff1673ffffffffffffffffffffffffffffffffffffffff1660008054906101000a900473ffffffffffffffffffffffffffffffffffffffff1673ffffffffffffffffffffffffffffffffffffffff167f8be0079c531659141344cd1fd0a4f28419497f9722a3daafe3b4186f6b6457e060405160405180910390a3600160009054906101000a900473ffffffffffffffffffffffffffffffffffffffff166000806101000a81548173ffffffffffffffffffffffffffffffffffffffff021916908373ffffffffffffffffffffffffffffffffffffffff160217905550565b60065481565b60008060009054906101000a900473ffffffffffffffffffffffffffffffffffffffff16905090565b6000610fb26118e3565b73ffffffffffffffffffffffffffffffffffffffff1660008054906101000a900473ffffffffffffffffffffffffffffffffffffffff1673ffffffffffffffffffffffffffffffffffffffff1614611072576040517f08c379a00000000000000000000000000000000000000000000000000000000081526004018080602001828103825260208152602001807f4f776e61626c653a2063616c6c6572206973206e6f7420746865206f776e657281525060200191505060405180910390fd5b600a60009054906101000a900460ff1661108b57600080fd5b6000600a60006101000a81548160ff0219169083151502179055507f1d1042e89d35bce0bafd010c98cdd21ab1f87093edd7424183dba418c2c47b5d600a60009054906101000a900460ff1660405180821515815260200191505060405180910390a190565b60006110fb6118e3565b73ffffffffffffffffffffffffffffffffffffffff1660008054906101000a900473ffffffffffffffffffffffffffffffffffffffff1673ffffffffffffffffffffffffffffffffffffffff16146111bb576040517f08c379a00000000000000000000000000000000000000000000000000000000081526004018080602001828103825260208152602001807f4f776e61626c653a2063616c6c6572206973206e6f7420746865206f776e657281525060200191505060405180910390fd5b816007819055507f825ccabf96629393f58034824978cb97f5362930d6e3df3e41b56bd78b9c31346007546040518082815260200191505060405180910390a1919050565b6000600454905090565b60006112146118e3565b73ffffffffffffffffffffffffffffffffffffffff1660008054906101000a900473ffffffffffffffffffffffffffffffffffffffff1673ffffffffffffffffffffffffffffffffffffffff16146112d4576040517f08c379a00000000000000000000000000000000000000000000000000000000081526004018080602001828103825260208152602001807f4f776e61626c653a2063616c6c6572206973206e6f7420746865206f776e657281525060200191505060405180910390fd5b600a60009054906101000a900460ff16156112ee57600080fd5b60008414156112fc57600080fd5b6001600a60006101000a81548160ff02191690831515021790555061132d620151808561188390919063ffffffff16565b420160048190555082600b8190555081600c819055507f1d1042e89d35bce0bafd010c98cdd21ab1f87093edd7424183dba418c2c47b5d600a60009054906101000a900460ff1660405180821515815260200191505060405180910390a19392505050565b600e5481565b60055481565b600d60009054906101000a900460ff16156114ac576113dd6113cb6012600a61180790919063ffffffff16565b6294c5f061188390919063ffffffff16565b60065411156114065760036009541161140157600460098190555061140061190b565b5b6114ab565b61143061141e6012600a61180790919063ffffffff16565b627270e061188390919063ffffffff16565b60065411156114595760026009541161145457600360098190555061145361190b565b5b6114aa565b6114836114716012600a61180790919063ffffffff16565b6207a12061188390919063ffffffff16565b60065411156114a957600160095414156114a85760026009819055506114a761190b565b5b5b5b5b5b565b60006114b86118e3565b73ffffffffffffffffffffffffffffffffffffffff1660008054906101000a900473ffffffffffffffffffffffffffffffffffffffff1673ffffffffffffffffffffffffffffffffffffffff1614611578576040517f08c379a00000000000000000000000000000000000000000000000000000000081526004018080602001828103825260208152602001807f4f776e61626c653a2063616c6c6572206973206e6f7420746865206f776e657281525060200191505060405180910390fd5b600073ffffffffffffffffffffffffffffffffffffffff168273ffffffffffffffffffffffffffffffffffffffff1614156115b257600080fd5b81600d60016101000a81548173ffffffffffffffffffffffffffffffffffffffff021916908373ffffffffffffffffffffffffffffffffffffffff16021790555060019050919050565b6116046118e3565b73ffffffffffffffffffffffffffffffffffffffff1660008054906101000a900473ffffffffffffffffffffffffffffffffffffffff1673ffffffffffffffffffffffffffffffffffffffff16146116c4576040517f08c379a00000000000000000000000000000000000000000000000000000000081526004018080602001828103825260208152602001807f4f776e61626c653a2063616c6c6572206973206e6f7420746865206f776e657281525060200191505060405180910390fd5b600073ffffffffffffffffffffffffffffffffffffffff168173ffffffffffffffffffffffffffffffffffffffff16141561174a576040517f08c379a00000000000000000000000000000000000000000000000000000000081526004018080602001828103825260268152602001806119ca6026913960400191505060405180910390fd5b8073ffffffffffffffffffffffffffffffffffffffff1660008054906101000a900473ffffffffffffffffffffffffffffffffffffffff1673ffffffffffffffffffffffffffffffffffffffff167f8be0079c531659141344cd1fd0a4f28419497f9722a3daafe3b4186f6b6457e060405160405180910390a3806000806101000a81548173ffffffffffffffffffffffffffffffffffffffff021916908373ffffffffffffffffffffffffffffffffffffffff16021790555050565b60008082141561181a576001905061187d565b600182141561182b5782905061187d565b60008314801561183c575060008214155b1561184a576000905061187d565b60008390506000600190505b83811015611877576118688286611883565b91508080600101915050611856565b50809150505b92915050565b60008083141561189657600090506118b7565b60008284029050828482816118a757fe5b04146118b257600080fd5b809150505b92915050565b60008082116118cb57600080fd5b60008284816118d657fe5b0490508091505092915050565b600033905090565b6000828211156118fa57600080fd5b600082840390508091505092915050565b600160095414156119495761193e61192f611964601e61188390919063ffffffff16565b43610a8d90919063ffffffff16565b6008819055506119c7565b60016009541415801561195d575060085443115b156119955761198a61197b611964601e61188390919063ffffffff16565b43610a8d90919063ffffffff16565b6008819055506119c6565b6119bf6119ae611964601e61188390919063ffffffff16565b600854610a8d90919063ffffffff16565b6008819055505b5b56fe4f776e61626c653a206e6577206f776e657220697320746865207a65726f2061646472657373a26469706673582212202b5d090962d389161af5ce11c61fb22fdb65be9e64494407ae1495679680a00064736f6c634300070600334f776e61626c653a206e6577206f776e657220697320746865207a65726f2061646472657373",
  "immutableReferences": {},
  "source": "pragma solidity >=0.4.22 <0.8.0;\n\nimport \"./tools/Ownable.sol\";\nimport \"./tools/SafeMath.sol\";\nimport \"./wXEQ.sol\";\nimport \"./oracle/AggregatorInterface.sol\";\n\ncontract PreSale is Ownable {\n    using SafeMath for *;\n\n    address payable public teamAdd;\n    wXEQ wXEQcontract;\n    uint256 finalBlock;\n    uint256 public ethMinted;\n    uint256 public wXEQminted;\n    uint256 exchangeRate;\n    uint256 stakingBonusEndBlock;\n    uint stakingBonusHit;\n    bool presaleActive;\n    uint256 cap;\n    uint256 minGoal;\n    bool hasStakingBonus;\n    \n    address ETHUSD;\n    uint256 public lastETHPrice;\n    \n    constructor(address xeq, address t) payable {\n        transferOwnership(t);\n        wXEQcontract = wXEQ(xeq);\n        finalBlock = block.timestamp + (90 days);\n        exchangeRate = 230000000000000;\n        stakingBonusHit = 1;\n        presaleActive = true;\n        cap = 10000000.mul(10.pow(18));\n        minGoal = 5000000.mul(10.pow(18));\n        ETHUSD = address(0x9326BFA02ADD2366b30bacB125260Af641031331);\n    }\n    \n    event Withdraw(address indexed from, uint256 amount, uint256 blockHeight);\n    event Mint(address indexed from, uint256 ethAmount, uint256 XEQAmount);\n    event ExhangeRateChanged(uint256 rate);\n    event PreSaleStateChanged(bool isActive);\n    \n    modifier presaleIsActive() {\n        require(presaleActive);\n        _;\n    }\n    \n    function wXEQLeft() public view returns (uint256) {\n        return cap.sub(wXEQminted);\n    }\n    \n    function finalPresaleBlock() public view returns (uint256) {\n        return finalBlock;\n    }\n    \n    function checkPresale(uint256 val) public view returns (bool) {\n        if (wXEQminted.add(val) >= cap) {\n            return false;\n        } else if (block.timestamp > finalBlock && wXEQminted >= minGoal) {\n            return false;\n        } else {\n            return true;\n        }\n    }\n    \n    function calculateAmount(uint256 _ethAmount) public view returns (uint256) {\n        uint256 ethAmount = _ethAmount;\n        uint256 rate =  15.mul(10.pow(16));\n        \n        uint256 price = lastETHPrice;\n        return price.mul(10.pow(10)).div(rate).mul(10.pow(18)).mul(ethAmount).div(10*10**17);\n    }\n    \n    function getAmount(uint256 _ethAmount) public returns (uint256) {\n        uint256 ethAmount = _ethAmount;\n        uint256 rate =  15.mul(10.pow(16));\n        \n        AggregatorInterface priceFeed = AggregatorInterface(ETHUSD);\n        uint256 price = uint256(priceFeed.latestAnswer());\n        return price.mul(10.pow(10)).div(rate).mul(10.pow(18)).mul(ethAmount).div(10*10**17);\n    }\n    \n    function updateETHOracle(address _oracleAddress) public onlyOwner returns (bool) {\n        require(_oracleAddress != address(0));\n        ETHUSD = _oracleAddress;\n        return true;\n    }\n    \n    function updateExchangeRate(uint256 val) public onlyOwner returns (bool) {\n        exchangeRate = val;\n        emit ExhangeRateChanged(exchangeRate);\n    }\n    \n    function endPresale() public onlyOwner presaleIsActive returns (bool) {\n        presaleActive = false;\n        emit PreSaleStateChanged(presaleActive);\n    }\n    \n    function startPresale(uint256 numberOfDays, uint256 c, uint256 min) public onlyOwner returns (bool) {\n        require(!presaleActive);\n        require(numberOfDays != 0);\n        presaleActive = true;\n        finalBlock = block.timestamp + (numberOfDays.mul(1 days));\n        cap = c;\n        minGoal = min;\n        emit PreSaleStateChanged(presaleActive);\n    }\n    \n    function checkStakingDate() internal {\n        if (stakingBonusHit == 1) {\n            stakingBonusEndBlock = block.number.add(30.mul(6500));\n        } else if (stakingBonusHit != 1 && block.number > stakingBonusEndBlock) {\n            stakingBonusEndBlock = block.number.add(30.mul(6500));\n        } else {\n            stakingBonusEndBlock = stakingBonusEndBlock.add(30.mul(6500));\n        }\n    }\n    \n    function checkStakingBonus() external {\n        if (hasStakingBonus) {\n            if (wXEQminted > 9750000.mul(10.pow(18))) {\n                if (stakingBonusHit <= 3) {\n                    stakingBonusHit = 4;\n                    checkStakingDate();\n                }\n            } else if (wXEQminted > 7500000.mul(10.pow(18))) {\n                if (stakingBonusHit <= 2) {\n                    stakingBonusHit = 3;\n                    checkStakingDate();\n                }\n            } else if (wXEQminted > 500000.mul(10.pow(18))) {\n                if (stakingBonusHit == 1) {\n                    stakingBonusHit = 2;\n                    checkStakingDate();\n                }\n            }\n        }\n    }\n    \n    function stakingBonus() public view returns (uint256, uint256) {\n        return (stakingBonusHit, stakingBonusEndBlock);\n    }\n\n    fallback () external presaleIsActive payable {\n        uint256 xeqVal = getAmount(msg.value);\n        require(checkPresale(xeqVal));\n        wXEQminted = wXEQminted.add(xeqVal);\n        ethMinted = ethMinted.add(msg.value);\n        uint256 ogBalance = wXEQcontract.balanceOf(msg.sender);\n        wXEQcontract.mint(msg.sender, xeqVal);\n        emit Mint(msg.sender, msg.value, xeqVal);\n    }\n\n    function withdraw(uint256 amount) public onlyOwner {\n        require(amount <= ethBalance());\n        teamAdd.transfer(amount);\n        emit Withdraw(msg.sender, amount, block.number);\n    }\n    \n    function ethBalance() public view returns (uint256) {\n        return address(this).balance;\n    }\n}",
  "sourcePath": "D:\\testwxeqfront\\drizzle-react-tutorial\\contracts\\wXEQSale.sol",
  "compiler": {
    "name": "solc",
    "version": "0.7.6+commit.7338295f.Emscripten.clang"
  },
  "schemaVersion": "3.3.3",
  "updatedAt": "2021-01-07T02:06:52.338Z",
  "devdoc": {
    "kind": "dev",
    "methods": {},
    "version": 1
  },
  "userdoc": {
    "kind": "user",
    "methods": {},
    "version": 1
  }
}