{
  "contractName": "PreSale",
  "abi": [
    {
      "inputs": [
        {
          "internalType": "address",
          "name": "xeq",
          "type": "address"
        },
        {
          "internalType": "address",
          "name": "t",
          "type": "address"
        }
      ],
      "stateMutability": "payable",
      "type": "constructor"
    },
    {
      "anonymous": false,
      "inputs": [
        {
          "indexed": false,
          "internalType": "uint256",
          "name": "rate",
          "type": "uint256"
        }
      ],
      "name": "ExhangeRateChanged",
      "type": "event"
    },
    {
      "anonymous": false,
      "inputs": [
        {
          "indexed": true,
          "internalType": "address",
          "name": "from",
          "type": "address"
        },
        {
          "indexed": false,
          "internalType": "uint256",
          "name": "ethAmount",
          "type": "uint256"
        },
        {
          "indexed": false,
          "internalType": "uint256",
          "name": "XEQAmount",
          "type": "uint256"
        }
      ],
      "name": "Mint",
      "type": "event"
    },
    {
      "anonymous": false,
      "inputs": [
        {
          "indexed": true,
          "internalType": "address",
          "name": "previousOwner",
          "type": "address"
        },
        {
          "indexed": true,
          "internalType": "address",
          "name": "newOwner",
          "type": "address"
        }
      ],
      "name": "OwnershipTransferred",
      "type": "event"
    },
    {
      "anonymous": false,
      "inputs": [
        {
          "indexed": false,
          "internalType": "bool",
          "name": "isActive",
          "type": "bool"
        }
      ],
      "name": "PreSaleStateChanged",
      "type": "event"
    },
    {
      "anonymous": false,
      "inputs": [
        {
          "indexed": true,
          "internalType": "address",
          "name": "from",
          "type": "address"
        },
        {
          "indexed": false,
          "internalType": "uint256",
          "name": "amount",
          "type": "uint256"
        },
        {
          "indexed": false,
          "internalType": "uint256",
          "name": "blockHeight",
          "type": "uint256"
        }
      ],
      "name": "Withdraw",
      "type": "event"
    },
    {
      "stateMutability": "payable",
      "type": "fallback"
    },
    {
      "inputs": [],
      "name": "cap",
      "outputs": [
        {
          "internalType": "uint256",
          "name": "",
          "type": "uint256"
        }
      ],
      "stateMutability": "view",
      "type": "function"
    },
    {
      "inputs": [],
      "name": "contractCreator",
      "outputs": [
        {
          "internalType": "address",
          "name": "",
          "type": "address"
        }
      ],
      "stateMutability": "view",
      "type": "function"
    },
    {
      "inputs": [],
      "name": "ethMinted",
      "outputs": [
        {
          "internalType": "uint256",
          "name": "",
          "type": "uint256"
        }
      ],
      "stateMutability": "view",
      "type": "function"
    },
    {
      "inputs": [],
      "name": "finalBlock",
      "outputs": [
        {
          "internalType": "uint256",
          "name": "",
          "type": "uint256"
        }
      ],
      "stateMutability": "view",
      "type": "function"
    },
    {
      "inputs": [],
      "name": "hasStakingBonus",
      "outputs": [
        {
          "internalType": "bool",
          "name": "",
          "type": "bool"
        }
      ],
      "stateMutability": "view",
      "type": "function"
    },
    {
      "inputs": [],
      "name": "lastETHPrice",
      "outputs": [
        {
          "internalType": "uint256",
          "name": "",
          "type": "uint256"
        }
      ],
      "stateMutability": "view",
      "type": "function"
    },
    {
      "inputs": [],
      "name": "minGoal",
      "outputs": [
        {
          "internalType": "uint256",
          "name": "",
          "type": "uint256"
        }
      ],
      "stateMutability": "view",
      "type": "function"
    },
    {
      "inputs": [],
      "name": "owner",
      "outputs": [
        {
          "internalType": "address",
          "name": "",
          "type": "address"
        }
      ],
      "stateMutability": "view",
      "type": "function"
    },
    {
      "inputs": [],
      "name": "presaleActive",
      "outputs": [
        {
          "internalType": "bool",
          "name": "",
          "type": "bool"
        }
      ],
      "stateMutability": "view",
      "type": "function"
    },
    {
      "inputs": [],
      "name": "renounceOwnership",
      "outputs": [],
      "stateMutability": "nonpayable",
      "type": "function"
    },
    {
      "inputs": [],
      "name": "stakingBonusEndBlock",
      "outputs": [
        {
          "internalType": "uint256",
          "name": "",
          "type": "uint256"
        }
      ],
      "stateMutability": "view",
      "type": "function"
    },
    {
      "inputs": [],
      "name": "stakingBonusHit",
      "outputs": [
        {
          "internalType": "uint256",
          "name": "",
          "type": "uint256"
        }
      ],
      "stateMutability": "view",
      "type": "function"
    },
    {
      "inputs": [],
      "name": "teamAdd",
      "outputs": [
        {
          "internalType": "address payable",
          "name": "",
          "type": "address"
        }
      ],
      "stateMutability": "view",
      "type": "function"
    },
    {
      "inputs": [
        {
          "internalType": "address",
          "name": "newOwner",
          "type": "address"
        }
      ],
      "name": "transferOwnership",
      "outputs": [],
      "stateMutability": "nonpayable",
      "type": "function"
    },
    {
      "inputs": [],
      "name": "wXEQminted",
      "outputs": [
        {
          "internalType": "uint256",
          "name": "",
          "type": "uint256"
        }
      ],
      "stateMutability": "view",
      "type": "function"
    },
    {
      "inputs": [],
      "name": "xeqRate",
      "outputs": [
        {
          "internalType": "uint256",
          "name": "",
          "type": "uint256"
        }
      ],
      "stateMutability": "view",
      "type": "function"
    },
    {
      "inputs": [],
      "name": "wXEQLeft",
      "outputs": [
        {
          "internalType": "uint256",
          "name": "",
          "type": "uint256"
        }
      ],
      "stateMutability": "view",
      "type": "function"
    },
    {
      "inputs": [],
      "name": "finalPresaleBlock",
      "outputs": [
        {
          "internalType": "uint256",
          "name": "",
          "type": "uint256"
        }
      ],
      "stateMutability": "view",
      "type": "function"
    },
    {
      "inputs": [
        {
          "internalType": "uint256",
          "name": "val",
          "type": "uint256"
        }
      ],
      "name": "checkPresale",
      "outputs": [
        {
          "internalType": "bool",
          "name": "",
          "type": "bool"
        }
      ],
      "stateMutability": "view",
      "type": "function"
    },
    {
      "inputs": [
        {
          "internalType": "uint256",
          "name": "_ethAmount",
          "type": "uint256"
        }
      ],
      "name": "getAmount",
      "outputs": [
        {
          "internalType": "uint256",
          "name": "",
          "type": "uint256"
        }
      ],
      "stateMutability": "nonpayable",
      "type": "function"
    },
    {
      "inputs": [
        {
          "internalType": "address",
          "name": "_oracleAddress",
          "type": "address"
        }
      ],
      "name": "updateETHOracle",
      "outputs": [
        {
          "internalType": "bool",
          "name": "",
          "type": "bool"
        }
      ],
      "stateMutability": "nonpayable",
      "type": "function"
    },
    {
      "inputs": [
        {
          "internalType": "uint256",
          "name": "val",
          "type": "uint256"
        }
      ],
      "name": "updateExchangeRate",
      "outputs": [
        {
          "internalType": "bool",
          "name": "",
          "type": "bool"
        }
      ],
      "stateMutability": "nonpayable",
      "type": "function"
    },
    {
      "inputs": [],
      "name": "endPresale",
      "outputs": [
        {
          "internalType": "bool",
          "name": "",
          "type": "bool"
        }
      ],
      "stateMutability": "nonpayable",
      "type": "function"
    },
    {
      "inputs": [
        {
          "internalType": "uint256",
          "name": "numberOfDays",
          "type": "uint256"
        },
        {
          "internalType": "uint256",
          "name": "c",
          "type": "uint256"
        },
        {
          "internalType": "uint256",
          "name": "min",
          "type": "uint256"
        }
      ],
      "name": "startPresale",
      "outputs": [
        {
          "internalType": "bool",
          "name": "",
          "type": "bool"
        }
      ],
      "stateMutability": "nonpayable",
      "type": "function"
    },
    {
      "inputs": [],
      "name": "checkStakingBonus",
      "outputs": [],
      "stateMutability": "nonpayable",
      "type": "function"
    },
    {
      "inputs": [],
      "name": "stakingBonus",
      "outputs": [
        {
          "internalType": "uint256",
          "name": "",
          "type": "uint256"
        },
        {
          "internalType": "uint256",
          "name": "",
          "type": "uint256"
        }
      ],
      "stateMutability": "view",
      "type": "function"
    },
    {
      "inputs": [],
      "name": "deposit",
      "outputs": [],
      "stateMutability": "payable",
      "type": "function"
    },
    {
      "inputs": [
        {
          "internalType": "uint256",
          "name": "amount",
          "type": "uint256"
        }
      ],
      "name": "withdraw",
      "outputs": [],
      "stateMutability": "nonpayable",
      "type": "function"
    },
    {
      "inputs": [],
      "name": "ethBalance",
      "outputs": [
        {
          "internalType": "uint256",
          "name": "",
          "type": "uint256"
        }
      ],
      "stateMutability": "view",
      "type": "function"
    }
  ],
  "bytecode": "0x6080604052604051620022bf380380620022bf833981810160405260408110156200002957600080fd5b81019080805190602001909291908051906020019092919050505060006200005f62000313640100000000026401000000009004565b9050806000806101000a81548173ffffffffffffffffffffffffffffffffffffffff021916908373ffffffffffffffffffffffffffffffffffffffff16021790555033600160006101000a81548173ffffffffffffffffffffffffffffffffffffffff021916908373ffffffffffffffffffffffffffffffffffffffff1602179055508073ffffffffffffffffffffffffffffffffffffffff16600073ffffffffffffffffffffffffffffffffffffffff167f8be0079c531659141344cd1fd0a4f28419497f9722a3daafe3b4186f6b6457e060405160405180910390a35062000158816200031b640100000000026401000000009004565b81600360006101000a81548173ffffffffffffffffffffffffffffffffffffffff021916908373ffffffffffffffffffffffffffffffffffffffff1602179055506276a700420160048190555060016008819055506001600960006101000a81548160ff02191690831515021790555062000212620001f16012600a6200053a6401000000000262001a5d179091906401000000009004565b62989680620005d06401000000000262001ad9179091906401000000009004565b600a8190555062000262620002416012600a6200053a6401000000000262001a5d179091906401000000009004565b624c4b40620005d06401000000000262001ad9179091906401000000009004565b600b81905550620002b0620002916010600a6200053a6401000000000262001a5d179091906401000000009004565b600f620005d06401000000000262001ad9179091906401000000009004565b600c81905550739326bfa02add2366b30bacb125260af641031331600d60016101000a81548173ffffffffffffffffffffffffffffffffffffffff021916908373ffffffffffffffffffffffffffffffffffffffff16021790555050506200060e565b600033905090565b6200033462000313640100000000026401000000009004565b73ffffffffffffffffffffffffffffffffffffffff1660008054906101000a900473ffffffffffffffffffffffffffffffffffffffff1673ffffffffffffffffffffffffffffffffffffffff1614620003f5576040517f08c379a00000000000000000000000000000000000000000000000000000000081526004018080602001828103825260208152602001807f4f776e61626c653a2063616c6c6572206973206e6f7420746865206f776e657281525060200191505060405180910390fd5b600073ffffffffffffffffffffffffffffffffffffffff168173ffffffffffffffffffffffffffffffffffffffff1614156200047d576040517f08c379a0000000000000000000000000000000000000000000000000000000008152600401808060200182810382526026815260200180620022996026913960400191505060405180910390fd5b8073ffffffffffffffffffffffffffffffffffffffff1660008054906101000a900473ffffffffffffffffffffffffffffffffffffffff1673ffffffffffffffffffffffffffffffffffffffff167f8be0079c531659141344cd1fd0a4f28419497f9722a3daafe3b4186f6b6457e060405160405180910390a3806000806101000a81548173ffffffffffffffffffffffffffffffffffffffff021916908373ffffffffffffffffffffffffffffffffffffffff16021790555050565b6000808214156200054f5760019050620005ca565b60018214156200056257829050620005ca565b60008314801562000574575060008214155b15620005845760009050620005ca565b60008390506000600190505b83811015620005c457620005b48286620005d0640100000000026401000000009004565b9150808060010191505062000590565b50809150505b92915050565b600080831415620005e5576000905062000608565b6000828402905082848281620005f757fe5b04146200060357600080fd5b809150505b92915050565b611c7b806200061e6000396000f3fe6080604052600436106101e3576000357c0100000000000000000000000000000000000000000000000000000000900480638da5cb5b11610114578063d0c80566116100b2578063eaafc0f211610081578063eaafc0f214610877578063f1d2c4341461088e578063f2fde38b146108f5578063f5fac82d14610946576101e4565b8063d0c80566146107ec578063d0e30db014610817578063d48675f314610821578063d9a1a7651461084c576101e4565b8063b9e205ae116100ee578063b9e205ae146106e0578063bbd6e57014610731578063c7f3ebb01461075c578063ccbec41614610787576101e4565b80638da5cb5b146106235780639980ec8614610664578063a43be57b146106b3576101e4565b8063419dd4bf116101815780635df8ddff1161015b5780635df8ddff1461054f57806365072f0314610590578063715018a6146105e1578063799896da146105f8576101e4565b8063419dd4bf146104cc5780634e6630b0146104f757806353135ca014610522576101e4565b80632bc50e6a116101bd5780632bc50e6a146104105780632e1a7d4d1461043b57806330969eb514610476578063355274ea146104a1576101e4565b80630aede156146103725780631e2f73b1146103a457806326b51c8c146103e5576101e4565b5b600960009054906101000a900460ff166101fd57600080fd5b600061020834610973565b905061021381610b77565b61021c57600080fd5b61023181600654610bcc90919063ffffffff16565b60068190555061024c34600554610bcc90919063ffffffff16565b600581905550600360009054906101000a900473ffffffffffffffffffffffffffffffffffffffff1673ffffffffffffffffffffffffffffffffffffffff166340c10f1933836040518363ffffffff167c0100000000000000000000000000000000000000000000000000000000028152600401808373ffffffffffffffffffffffffffffffffffffffff16815260200182815260200192505050600060405180830381600087803b15801561030157600080fd5b505af1158015610315573d6000803e3d6000fd5b505050503373ffffffffffffffffffffffffffffffffffffffff167f4c209b5fc8ad50758f13e2e1088ba56a560dff690a1c6fef26394f4c03821c4f3483604051808381526020018281526020019250505060405180910390a250005b34801561037e57600080fd5b50610387610beb565b604051808381526020018281526020019250505060405180910390f35b3480156103b057600080fd5b506103b9610bfc565b604051808273ffffffffffffffffffffffffffffffffffffffff16815260200191505060405180910390f35b3480156103f157600080fd5b506103fa610c22565b6040518082815260200191505060405180910390f35b34801561041c57600080fd5b50610425610c28565b6040518082815260200191505060405180910390f35b34801561044757600080fd5b506104746004803603602081101561045e57600080fd5b8101908080359060200190929190505050610c2e565b005b34801561048257600080fd5b5061048b610dcc565b6040518082815260200191505060405180910390f35b3480156104ad57600080fd5b506104b6610dd2565b6040518082815260200191505060405180910390f35b3480156104d857600080fd5b506104e1610dd8565b6040518082815260200191505060405180910390f35b34801561050357600080fd5b5061050c610df6565b6040518082815260200191505060405180910390f35b34801561052e57600080fd5b50610537610e15565b60405180821515815260200191505060405180910390f35b34801561055b57600080fd5b50610564610e28565b604051808273ffffffffffffffffffffffffffffffffffffffff16815260200191505060405180910390f35b34801561059c57600080fd5b506105c9600480360360208110156105b357600080fd5b8101908080359060200190929190505050610b77565b60405180821515815260200191505060405180910390f35b3480156105ed57600080fd5b506105f6610e4e565b005b34801561060457600080fd5b5061060d611016565b6040518082815260200191505060405180910390f35b34801561062f57600080fd5b5061063861101c565b604051808273ffffffffffffffffffffffffffffffffffffffff16815260200191505060405180910390f35b34801561067057600080fd5b5061069d6004803603602081101561068757600080fd5b8101908080359060200190929190505050610973565b6040518082815260200191505060405180910390f35b3480156106bf57600080fd5b506106c8611045565b60405180821515815260200191505060405180910390f35b3480156106ec57600080fd5b506107196004803603602081101561070357600080fd5b8101908080359060200190929190505050611192565b60405180821515815260200191505060405180910390f35b34801561073d57600080fd5b506107466112a5565b6040518082815260200191505060405180910390f35b34801561076857600080fd5b506107716112af565b6040518082815260200191505060405180910390f35b34801561079357600080fd5b506107d4600480360360608110156107aa57600080fd5b810190808035906020019092919080359060200190929190803590602001909291905050506112b5565b60405180821515815260200191505060405180910390f35b3480156107f857600080fd5b50610801611441565b6040518082815260200191505060405180910390f35b61081f611447565b005b34801561082d57600080fd5b506108366115d5565b6040518082815260200191505060405180910390f35b34801561085857600080fd5b506108616115db565b6040518082815260200191505060405180910390f35b34801561088357600080fd5b5061088c6115e1565b005b34801561089a57600080fd5b506108dd600480360360208110156108b157600080fd5b81019080803573ffffffffffffffffffffffffffffffffffffffff1690602001909291905050506116f1565b60405180821515815260200191505060405180910390f35b34801561090157600080fd5b506109446004803603602081101561091857600080fd5b81019080803573ffffffffffffffffffffffffffffffffffffffff16906020019092919050505061183f565b005b34801561095257600080fd5b5061095b611a4a565b60405180821515815260200191505060405180910390f35b6000808290506000600d60019054906101000a900473ffffffffffffffffffffffffffffffffffffffff16905060008173ffffffffffffffffffffffffffffffffffffffff166350d25bcd6040518163ffffffff167c010000000000000000000000000000000000000000000000000000000002815260040160206040518083038186803b158015610a0457600080fd5b505afa158015610a18573d6000803e3d6000fd5b505050506040513d6020811015610a2e57600080fd5b8101908080519060200190929190505050905080600e819055506000610ad6670de0b6b3a7640000610ac886610aba610a726012600a611a5d90919063ffffffff16565b610aac600c54610a9e610a8f600a80611a5d90919063ffffffff16565b8b611ad990919063ffffffff16565b611b1390919063ffffffff16565b611ad990919063ffffffff16565b611ad990919063ffffffff16565b611b1390919063ffffffff16565b1415610ae157600080fd5b610b6d670de0b6b3a7640000610b5f85610b51610b096012600a611a5d90919063ffffffff16565b610b43600c54610b35610b26600a80611a5d90919063ffffffff16565b8a611ad990919063ffffffff16565b611b1390919063ffffffff16565b611ad990919063ffffffff16565b611ad990919063ffffffff16565b611b1390919063ffffffff16565b9350505050919050565b6000600a54610b9183600654610bcc90919063ffffffff16565b10610b9f5760009050610bc7565b60045442118015610bb45750600b5460065410155b15610bc25760009050610bc7565b600190505b919050565b600080828401905083811015610be157600080fd5b8091505092915050565b600080600854600754915091509091565b600160009054906101000a900473ffffffffffffffffffffffffffffffffffffffff1681565b60045481565b60085481565b610c36611b39565b73ffffffffffffffffffffffffffffffffffffffff1660008054906101000a900473ffffffffffffffffffffffffffffffffffffffff1673ffffffffffffffffffffffffffffffffffffffff1614610cf6576040517f08c379a00000000000000000000000000000000000000000000000000000000081526004018080602001828103825260208152602001807f4f776e61626c653a2063616c6c6572206973206e6f7420746865206f776e657281525060200191505060405180910390fd5b610cfe610df6565b811115610d0a57600080fd5b600260009054906101000a900473ffffffffffffffffffffffffffffffffffffffff1673ffffffffffffffffffffffffffffffffffffffff166108fc829081150290604051600060405180830381858888f19350505050158015610d72573d6000803e3d6000fd5b503373ffffffffffffffffffffffffffffffffffffffff167ff279e6a1f5e320cca91135676d9cb6e44ca8a08c0b88342bcdb1144f6511b5688243604051808381526020018281526020019250505060405180910390a250565b60075481565b600a5481565b6000610df1600654600a54611b4190919063ffffffff16565b905090565b60003073ffffffffffffffffffffffffffffffffffffffff1631905090565b600960009054906101000a900460ff1681565b600260009054906101000a900473ffffffffffffffffffffffffffffffffffffffff1681565b610e56611b39565b73ffffffffffffffffffffffffffffffffffffffff1660008054906101000a900473ffffffffffffffffffffffffffffffffffffffff1673ffffffffffffffffffffffffffffffffffffffff1614610f16576040517f08c379a00000000000000000000000000000000000000000000000000000000081526004018080602001828103825260208152602001807f4f776e61626c653a2063616c6c6572206973206e6f7420746865206f776e657281525060200191505060405180910390fd5b600160009054906101000a900473ffffffffffffffffffffffffffffffffffffffff1673ffffffffffffffffffffffffffffffffffffffff1660008054906101000a900473ffffffffffffffffffffffffffffffffffffffff1673ffffffffffffffffffffffffffffffffffffffff167f8be0079c531659141344cd1fd0a4f28419497f9722a3daafe3b4186f6b6457e060405160405180910390a3600160009054906101000a900473ffffffffffffffffffffffffffffffffffffffff166000806101000a81548173ffffffffffffffffffffffffffffffffffffffff021916908373ffffffffffffffffffffffffffffffffffffffff160217905550565b60065481565b60008060009054906101000a900473ffffffffffffffffffffffffffffffffffffffff16905090565b600061104f611b39565b73ffffffffffffffffffffffffffffffffffffffff1660008054906101000a900473ffffffffffffffffffffffffffffffffffffffff1673ffffffffffffffffffffffffffffffffffffffff161461110f576040517f08c379a00000000000000000000000000000000000000000000000000000000081526004018080602001828103825260208152602001807f4f776e61626c653a2063616c6c6572206973206e6f7420746865206f776e657281525060200191505060405180910390fd5b600960009054906101000a900460ff1661112857600080fd5b6000600960006101000a81548160ff0219169083151502179055507f1d1042e89d35bce0bafd010c98cdd21ab1f87093edd7424183dba418c2c47b5d600960009054906101000a900460ff1660405180821515815260200191505060405180910390a16001905090565b600061119c611b39565b73ffffffffffffffffffffffffffffffffffffffff1660008054906101000a900473ffffffffffffffffffffffffffffffffffffffff1673ffffffffffffffffffffffffffffffffffffffff161461125c576040517f08c379a00000000000000000000000000000000000000000000000000000000081526004018080602001828103825260208152602001807f4f776e61626c653a2063616c6c6572206973206e6f7420746865206f776e657281525060200191505060405180910390fd5b81600c819055507f825ccabf96629393f58034824978cb97f5362930d6e3df3e41b56bd78b9c3134600c546040518082815260200191505060405180910390a160019050919050565b6000600454905090565b600c5481565b60006112bf611b39565b73ffffffffffffffffffffffffffffffffffffffff1660008054906101000a900473ffffffffffffffffffffffffffffffffffffffff1673ffffffffffffffffffffffffffffffffffffffff161461137f576040517f08c379a00000000000000000000000000000000000000000000000000000000081526004018080602001828103825260208152602001807f4f776e61626c653a2063616c6c6572206973206e6f7420746865206f776e657281525060200191505060405180910390fd5b600960009054906101000a900460ff161561139957600080fd5b60008414156113a757600080fd5b6001600960006101000a81548160ff0219169083151502179055506113d86201518085611ad990919063ffffffff16565b420160048190555082600a8190555081600b819055507f1d1042e89d35bce0bafd010c98cdd21ab1f87093edd7424183dba418c2c47b5d600960009054906101000a900460ff1660405180821515815260200191505060405180910390a1600190509392505050565b600e5481565b600960009054906101000a900460ff1661146057600080fd5b600061146b34610973565b905061147681610b77565b61147f57600080fd5b61149481600654610bcc90919063ffffffff16565b6006819055506114af34600554610bcc90919063ffffffff16565b600581905550600360009054906101000a900473ffffffffffffffffffffffffffffffffffffffff1673ffffffffffffffffffffffffffffffffffffffff166340c10f1933836040518363ffffffff167c0100000000000000000000000000000000000000000000000000000000028152600401808373ffffffffffffffffffffffffffffffffffffffff16815260200182815260200192505050600060405180830381600087803b15801561156457600080fd5b505af1158015611578573d6000803e3d6000fd5b505050503373ffffffffffffffffffffffffffffffffffffffff167f4c209b5fc8ad50758f13e2e1088ba56a560dff690a1c6fef26394f4c03821c4f3483604051808381526020018281526020019250505060405180910390a250565b600b5481565b60055481565b600d60009054906101000a900460ff16156116ef5761162061160e6012600a611a5d90919063ffffffff16565b6294c5f0611ad990919063ffffffff16565b600654111561164957600360085411611644576004600881905550611643611b61565b5b6116ee565b6116736116616012600a611a5d90919063ffffffff16565b627270e0611ad990919063ffffffff16565b600654111561169c57600260085411611697576003600881905550611696611b61565b5b6116ed565b6116c66116b46012600a611a5d90919063ffffffff16565b6207a120611ad990919063ffffffff16565b60065411156116ec57600160085414156116eb5760026008819055506116ea611b61565b5b5b5b5b5b565b60006116fb611b39565b73ffffffffffffffffffffffffffffffffffffffff1660008054906101000a900473ffffffffffffffffffffffffffffffffffffffff1673ffffffffffffffffffffffffffffffffffffffff16146117bb576040517f08c379a00000000000000000000000000000000000000000000000000000000081526004018080602001828103825260208152602001807f4f776e61626c653a2063616c6c6572206973206e6f7420746865206f776e657281525060200191505060405180910390fd5b600073ffffffffffffffffffffffffffffffffffffffff168273ffffffffffffffffffffffffffffffffffffffff1614156117f557600080fd5b81600d60016101000a81548173ffffffffffffffffffffffffffffffffffffffff021916908373ffffffffffffffffffffffffffffffffffffffff16021790555060019050919050565b611847611b39565b73ffffffffffffffffffffffffffffffffffffffff1660008054906101000a900473ffffffffffffffffffffffffffffffffffffffff1673ffffffffffffffffffffffffffffffffffffffff1614611907576040517f08c379a00000000000000000000000000000000000000000000000000000000081526004018080602001828103825260208152602001807f4f776e61626c653a2063616c6c6572206973206e6f7420746865206f776e657281525060200191505060405180910390fd5b600073ffffffffffffffffffffffffffffffffffffffff168173ffffffffffffffffffffffffffffffffffffffff16141561198d576040517f08c379a0000000000000000000000000000000000000000000000000000000008152600401808060200182810382526026815260200180611c206026913960400191505060405180910390fd5b8073ffffffffffffffffffffffffffffffffffffffff1660008054906101000a900473ffffffffffffffffffffffffffffffffffffffff1673ffffffffffffffffffffffffffffffffffffffff167f8be0079c531659141344cd1fd0a4f28419497f9722a3daafe3b4186f6b6457e060405160405180910390a3806000806101000a81548173ffffffffffffffffffffffffffffffffffffffff021916908373ffffffffffffffffffffffffffffffffffffffff16021790555050565b600d60009054906101000a900460ff1681565b600080821415611a705760019050611ad3565b6001821415611a8157829050611ad3565b600083148015611a92575060008214155b15611aa05760009050611ad3565b60008390506000600190505b83811015611acd57611abe8286611ad9565b91508080600101915050611aac565b50809150505b92915050565b600080831415611aec5760009050611b0d565b6000828402905082848281611afd57fe5b0414611b0857600080fd5b809150505b92915050565b6000808211611b2157600080fd5b6000828481611b2c57fe5b0490508091505092915050565b600033905090565b600082821115611b5057600080fd5b600082840390508091505092915050565b60016008541415611b9f57611b94611b85611964601e611ad990919063ffffffff16565b43610bcc90919063ffffffff16565b600781905550611c1d565b600160085414158015611bb3575060075443115b15611beb57611be0611bd1611964601e611ad990919063ffffffff16565b43610bcc90919063ffffffff16565b600781905550611c1c565b611c15611c04611964601e611ad990919063ffffffff16565b600754610bcc90919063ffffffff16565b6007819055505b5b56fe4f776e61626c653a206e6577206f776e657220697320746865207a65726f2061646472657373a2646970667358221220bc80c93c21a961e8debb5c892215492d86d1370954e926de614e9332b1da8a6764736f6c634300070600334f776e61626c653a206e6577206f776e657220697320746865207a65726f2061646472657373",
  "immutableReferences": {},
  "source": "pragma solidity >=0.4.22 <0.8.0;\r\n\r\nimport \"./tools/Ownable.sol\";\r\nimport \"./tools/SafeMath.sol\";\r\nimport \"./wXEQ.sol\";\r\nimport \"./oracle/AggregatorInterface.sol\";\r\n\r\ncontract PreSale is Ownable {\r\n    using SafeMath for *;\r\n\r\n    address payable public teamAdd;\r\n    wXEQ wXEQcontract;\r\n    uint256 public finalBlock;\r\n    uint256 public ethMinted;\r\n    uint256 public wXEQminted;\r\n    uint256 public stakingBonusEndBlock;\r\n    uint public stakingBonusHit;\r\n    bool public presaleActive;\r\n    uint256 public cap;\r\n    uint256 public minGoal;\r\n    uint256 public xeqRate;\r\n    bool public hasStakingBonus;\r\n\r\n    address ETHUSD;\r\n    uint256 public lastETHPrice;\r\n\r\n    constructor(address xeq, address t) payable {\r\n        transferOwnership(t);\r\n        wXEQcontract = wXEQ(xeq);\r\n        finalBlock = block.timestamp + (90 days);\r\n        stakingBonusHit = 1;\r\n        presaleActive = true;\r\n        cap = 10000000.mul(10.pow(18));\r\n        minGoal = 5000000.mul(10.pow(18));\r\n        xeqRate = 15.mul(10.pow(16));\r\n        ETHUSD = address(0x9326BFA02ADD2366b30bacB125260Af641031331);\r\n    }\r\n\r\n    event Withdraw(address indexed from, uint256 amount, uint256 blockHeight);\r\n    event Mint(address indexed from, uint256 ethAmount, uint256 XEQAmount);\r\n    event ExhangeRateChanged(uint256 rate);\r\n    event PreSaleStateChanged(bool isActive);\r\n\r\n    modifier presaleIsActive() {\r\n        require(presaleActive);\r\n        _;\r\n    }\r\n\r\n    function wXEQLeft() public view returns (uint256) {\r\n        return cap.sub(wXEQminted);\r\n    }\r\n\r\n    function finalPresaleBlock() public view returns (uint256) {\r\n        return finalBlock;\r\n    }\r\n\r\n    function checkPresale(uint256 val) public view returns (bool) {\r\n        if (wXEQminted.add(val) >= cap) {\r\n            return false;\r\n        } else if (block.timestamp > finalBlock && wXEQminted >= minGoal) {\r\n            return false;\r\n        } else {\r\n            return true;\r\n        }\r\n    }\r\n\r\n    function getAmount(uint256 _ethAmount) public returns (uint256) {\r\n        uint256 ethAmount = _ethAmount;\r\n        AggregatorInterface priceFeed = AggregatorInterface(ETHUSD);\r\n        uint256 price = uint256(priceFeed.latestAnswer());\r\n        lastETHPrice = price;\r\n        require(price.mul(10.pow(10)).div(xeqRate).mul(10.pow(18)).mul(ethAmount).div(10*10**17) != 0);\r\n        return price.mul(10.pow(10)).div(xeqRate).mul(10.pow(18)).mul(ethAmount).div(10*10**17);\r\n    }\r\n\r\n    function updateETHOracle(address _oracleAddress) public onlyOwner returns (bool) {\r\n        require(_oracleAddress != address(0));\r\n        ETHUSD = _oracleAddress;\r\n        return true;\r\n    }\r\n\r\n    function updateExchangeRate(uint256 val) public onlyOwner returns (bool) {\r\n        xeqRate = val;\r\n        emit ExhangeRateChanged(xeqRate);\r\n        return true;\r\n    }\r\n\r\n    function endPresale() public onlyOwner presaleIsActive returns (bool) {\r\n        presaleActive = false;\r\n        emit PreSaleStateChanged(presaleActive);\r\n        return true;\r\n    }\r\n\r\n    function startPresale(uint256 numberOfDays, uint256 c, uint256 min) public onlyOwner returns (bool) {\r\n        require(!presaleActive);\r\n        require(numberOfDays != 0);\r\n        presaleActive = true;\r\n        finalBlock = block.timestamp + (numberOfDays.mul(1 days));\r\n        cap = c;\r\n        minGoal = min;\r\n        emit PreSaleStateChanged(presaleActive);\r\n        return true;\r\n    }\r\n\r\n    function checkStakingDate() internal {\r\n        if (stakingBonusHit == 1) {\r\n            stakingBonusEndBlock = block.number.add(30.mul(6500));\r\n        } else if (stakingBonusHit != 1 && block.number > stakingBonusEndBlock) {\r\n            stakingBonusEndBlock = block.number.add(30.mul(6500));\r\n        } else {\r\n            stakingBonusEndBlock = stakingBonusEndBlock.add(30.mul(6500));\r\n        }\r\n    }\r\n\r\n    function checkStakingBonus() external {\r\n        if (hasStakingBonus) {\r\n            if (wXEQminted > 9750000.mul(10.pow(18))) {\r\n                if (stakingBonusHit <= 3) {\r\n                    stakingBonusHit = 4;\r\n                    checkStakingDate();\r\n                }\r\n            } else if (wXEQminted > 7500000.mul(10.pow(18))) {\r\n                if (stakingBonusHit <= 2) {\r\n                    stakingBonusHit = 3;\r\n                    checkStakingDate();\r\n                }\r\n            } else if (wXEQminted > 500000.mul(10.pow(18))) {\r\n                if (stakingBonusHit == 1) {\r\n                    stakingBonusHit = 2;\r\n                    checkStakingDate();\r\n                }\r\n            }\r\n        }\r\n    }\r\n\r\n    function stakingBonus() public view returns (uint256, uint256) {\r\n        return (stakingBonusHit, stakingBonusEndBlock);\r\n    }\r\n\r\n    function deposit() public presaleIsActive payable {\r\n        uint256 xeqVal = getAmount(msg.value);\r\n        require(checkPresale(xeqVal));\r\n        wXEQminted = wXEQminted.add(xeqVal);\r\n        ethMinted = ethMinted.add(msg.value);\r\n        wXEQcontract.mint(msg.sender, xeqVal);\r\n        emit Mint(msg.sender, msg.value, xeqVal);\r\n    }\r\n\r\n    fallback () external presaleIsActive payable {\r\n        uint256 xeqVal = getAmount(msg.value);\r\n        require(checkPresale(xeqVal));\r\n        wXEQminted = wXEQminted.add(xeqVal);\r\n        ethMinted = ethMinted.add(msg.value);\r\n        wXEQcontract.mint(msg.sender, xeqVal);\r\n        emit Mint(msg.sender, msg.value, xeqVal);\r\n    }\r\n\r\n    function withdraw(uint256 amount) public onlyOwner {\r\n        require(amount <= ethBalance());\r\n        teamAdd.transfer(amount);\r\n        emit Withdraw(msg.sender, amount, block.number);\r\n    }\r\n\r\n    function ethBalance() public view returns (uint256) {\r\n        return address(this).balance;\r\n    }\r\n}",
  "sourcePath": "C:\\Users\\harri\\OneDrive\\Documents\\EquilibriaWagers\\eth-equilibria\\truffle\\contracts\\wXEQSale.sol",
  "compiler": {
    "name": "solc",
    "version": "0.7.6+commit.7338295f.Emscripten.clang"
  },
  "schemaVersion": "3.3.3",
  "updatedAt": "2021-01-07T07:19:36.796Z",
  "devdoc": {
    "kind": "dev",
    "methods": {},
    "version": 1
  },
  "userdoc": {
    "kind": "user",
    "methods": {},
    "version": 1
  }
}