{
  "contractName": "SoftStaking",
  "abi": [
    {
      "inputs": [
        {
          "internalType": "address",
          "name": "d",
          "type": "address"
        },
        {
          "internalType": "address",
          "name": "s",
          "type": "address"
        }
      ],
      "stateMutability": "nonpayable",
      "type": "constructor"
    },
    {
      "anonymous": false,
      "inputs": [
        {
          "indexed": false,
          "internalType": "uint256",
          "name": "bal",
          "type": "uint256"
        }
      ],
      "name": "Bal",
      "type": "event"
    },
    {
      "anonymous": false,
      "inputs": [
        {
          "indexed": true,
          "internalType": "address",
          "name": "from",
          "type": "address"
        },
        {
          "indexed": false,
          "internalType": "uint256",
          "name": "payout",
          "type": "uint256"
        },
        {
          "indexed": false,
          "internalType": "uint256",
          "name": "block",
          "type": "uint256"
        },
        {
          "indexed": false,
          "internalType": "uint256",
          "name": "poolSize",
          "type": "uint256"
        }
      ],
      "name": "NewPayout",
      "type": "event"
    },
    {
      "inputs": [],
      "name": "dailyPool",
      "outputs": [
        {
          "internalType": "uint256",
          "name": "",
          "type": "uint256"
        }
      ],
      "stateMutability": "view",
      "type": "function",
      "constant": true
    },
    {
      "inputs": [],
      "name": "dataStorage",
      "outputs": [
        {
          "internalType": "contract DataStorage",
          "name": "",
          "type": "address"
        }
      ],
      "stateMutability": "view",
      "type": "function",
      "constant": true
    },
    {
      "inputs": [],
      "name": "lastPayoutBlock",
      "outputs": [
        {
          "internalType": "uint256",
          "name": "",
          "type": "uint256"
        }
      ],
      "stateMutability": "view",
      "type": "function",
      "constant": true
    },
    {
      "inputs": [],
      "name": "lastPoolRefresh",
      "outputs": [
        {
          "internalType": "uint256",
          "name": "",
          "type": "uint256"
        }
      ],
      "stateMutability": "view",
      "type": "function",
      "constant": true
    },
    {
      "inputs": [],
      "name": "maxPayouts",
      "outputs": [
        {
          "internalType": "uint256",
          "name": "",
          "type": "uint256"
        }
      ],
      "stateMutability": "view",
      "type": "function",
      "constant": true
    },
    {
      "inputs": [],
      "name": "numberOfPoolStakers",
      "outputs": [
        {
          "internalType": "uint256",
          "name": "",
          "type": "uint256"
        }
      ],
      "stateMutability": "view",
      "type": "function",
      "constant": true
    },
    {
      "inputs": [],
      "name": "numberOfStakes",
      "outputs": [
        {
          "internalType": "uint256",
          "name": "",
          "type": "uint256"
        }
      ],
      "stateMutability": "view",
      "type": "function",
      "constant": true
    },
    {
      "inputs": [
        {
          "internalType": "uint256",
          "name": "",
          "type": "uint256"
        }
      ],
      "name": "payouts",
      "outputs": [
        {
          "internalType": "uint256",
          "name": "",
          "type": "uint256"
        }
      ],
      "stateMutability": "view",
      "type": "function",
      "constant": true
    },
    {
      "inputs": [
        {
          "internalType": "uint256",
          "name": "",
          "type": "uint256"
        }
      ],
      "name": "stakeholders",
      "outputs": [
        {
          "internalType": "address",
          "name": "",
          "type": "address"
        }
      ],
      "stateMutability": "view",
      "type": "function",
      "constant": true
    },
    {
      "inputs": [],
      "name": "totalMinted",
      "outputs": [
        {
          "internalType": "uint256",
          "name": "",
          "type": "uint256"
        }
      ],
      "stateMutability": "view",
      "type": "function",
      "constant": true
    },
    {
      "inputs": [],
      "name": "totalStaked",
      "outputs": [
        {
          "internalType": "uint256",
          "name": "",
          "type": "uint256"
        }
      ],
      "stateMutability": "view",
      "type": "function",
      "constant": true
    },
    {
      "inputs": [],
      "name": "wXEQContract",
      "outputs": [
        {
          "internalType": "contract wXEQ",
          "name": "",
          "type": "address"
        }
      ],
      "stateMutability": "view",
      "type": "function",
      "constant": true
    },
    {
      "inputs": [],
      "name": "nextPayout",
      "outputs": [
        {
          "internalType": "uint256",
          "name": "",
          "type": "uint256"
        }
      ],
      "stateMutability": "view",
      "type": "function",
      "constant": true
    },
    {
      "inputs": [],
      "name": "checkPayout",
      "outputs": [],
      "stateMutability": "nonpayable",
      "type": "function"
    },
    {
      "inputs": [
        {
          "internalType": "uint256",
          "name": "amount",
          "type": "uint256"
        }
      ],
      "name": "addStake",
      "outputs": [
        {
          "internalType": "bool",
          "name": "",
          "type": "bool"
        }
      ],
      "stateMutability": "nonpayable",
      "type": "function"
    },
    {
      "inputs": [
        {
          "internalType": "uint256",
          "name": "amount",
          "type": "uint256"
        }
      ],
      "name": "removeStake",
      "outputs": [
        {
          "internalType": "bool",
          "name": "",
          "type": "bool"
        }
      ],
      "stateMutability": "nonpayable",
      "type": "function"
    },
    {
      "inputs": [],
      "name": "withdrawRewards",
      "outputs": [
        {
          "internalType": "uint256",
          "name": "",
          "type": "uint256"
        }
      ],
      "stateMutability": "nonpayable",
      "type": "function"
    },
    {
      "inputs": [
        {
          "internalType": "address",
          "name": "addy",
          "type": "address"
        }
      ],
      "name": "pendingRewards",
      "outputs": [
        {
          "internalType": "uint256",
          "name": "",
          "type": "uint256"
        }
      ],
      "stateMutability": "view",
      "type": "function",
      "constant": true
    },
    {
      "inputs": [],
      "name": "checkArrays",
      "outputs": [
        {
          "internalType": "uint256",
          "name": "",
          "type": "uint256"
        },
        {
          "internalType": "uint256",
          "name": "",
          "type": "uint256"
        },
        {
          "internalType": "uint256",
          "name": "",
          "type": "uint256"
        }
      ],
      "stateMutability": "view",
      "type": "function",
      "constant": true
    },
    {
      "inputs": [
        {
          "internalType": "address",
          "name": "addy",
          "type": "address"
        }
      ],
      "name": "getStake",
      "outputs": [
        {
          "internalType": "uint256",
          "name": "",
          "type": "uint256"
        }
      ],
      "stateMutability": "view",
      "type": "function",
      "constant": true
    },
    {
      "inputs": [],
      "name": "totalAmountStaked",
      "outputs": [
        {
          "internalType": "uint256",
          "name": "",
          "type": "uint256"
        }
      ],
      "stateMutability": "view",
      "type": "function",
      "constant": true
    },
    {
      "inputs": [
        {
          "internalType": "address",
          "name": "addy",
          "type": "address"
        }
      ],
      "name": "getLastClaim",
      "outputs": [
        {
          "internalType": "uint256",
          "name": "",
          "type": "uint256"
        },
        {
          "internalType": "uint256",
          "name": "",
          "type": "uint256"
        }
      ],
      "stateMutability": "view",
      "type": "function",
      "constant": true
    }
  ],
  "bytecode": "0x608060405234801561001057600080fd5b506040516119833803806119838339818101604052604081101561003357600080fd5b810190808051906020019092919080519060200190929190505050816000806101000a81548173ffffffffffffffffffffffffffffffffffffffff021916908373ffffffffffffffffffffffffffffffffffffffff16021790555080600160006101000a81548173ffffffffffffffffffffffffffffffffffffffff021916908373ffffffffffffffffffffffffffffffffffffffff16021790555043600b81905550600060088190555060006009819055506000600d819055506000600e819055506102da600f819055506102d0600a81905550600a601481905550601060009080600181540180825580915050600190039060005260206000200160009091909190915055601260009080600181540180825580915050600190039060005260206000200160009091909190915055601143908060018154018082558091505060019003906000526020600020016000909190919091505550506117e58061019e6000396000f3fe608060405234801561001057600080fd5b506004361061015f576000357c010000000000000000000000000000000000000000000000000000000090048063817b1cd2116100d5578063a2a6f65711610099578063a2a6f657146104a9578063b145c013146104c7578063c7b8981c146104d1578063de4b8225146104ef578063eb4f16b51461051b578063fe961f611461055f5761015f565b8063817b1cd2146103965780638778f415146103b45780638870455f14610413578063939624ab14610447578063a2309ff81461048b5761015f565b806331d7a2621161012757806331d7a2621461026e578063339ec34b146102c65780633ab39dc6146102e45780633d2b1294146103025780637a766460146103205780637f55d0d2146103785761015f565b80630d62e327146101645780631d6b8b72146101825780632136e55a146101da57806329652e86146101f85780632b2be6471461023a575b600080fd5b61016c61057d565b6040518082815260200191505060405180910390f35b6101ae6004803603602081101561019857600080fd5b8101908080359060200190929190505050610583565b604051808273ffffffffffffffffffffffffffffffffffffffff16815260200191505060405180910390f35b6101e26105c2565b6040518082815260200191505060405180910390f35b6102246004803603602081101561020e57600080fd5b81019080803590602001909291905050506105c8565b6040518082815260200191505060405180910390f35b6102426105ec565b604051808273ffffffffffffffffffffffffffffffffffffffff16815260200191505060405180910390f35b6102b06004803603602081101561028457600080fd5b81019080803573ffffffffffffffffffffffffffffffffffffffff169060200190929190505050610612565b6040518082815260200191505060405180910390f35b6102ce610841565b6040518082815260200191505060405180910390f35b6102ec610847565b6040518082815260200191505060405180910390f35b61030a61084d565b6040518082815260200191505060405180910390f35b6103626004803603602081101561033657600080fd5b81019080803573ffffffffffffffffffffffffffffffffffffffff169060200190929190505050610853565b6040518082815260200191505060405180910390f35b61038061089c565b6040518082815260200191505060405180910390f35b61039e6108ba565b6040518082815260200191505060405180910390f35b6103f6600480360360208110156103ca57600080fd5b81019080803573ffffffffffffffffffffffffffffffffffffffff1690602001909291905050506108c0565b604051808381526020018281526020019250505060405180910390f35b61041b61090d565b604051808273ffffffffffffffffffffffffffffffffffffffff16815260200191505060405180910390f35b6104736004803603602081101561045d57600080fd5b8101908080359060200190929190505050610931565b60405180821515815260200191505060405180910390f35b610493610bfe565b6040518082815260200191505060405180910390f35b6104b1610c04565b6040518082815260200191505060405180910390f35b6104cf610c0a565b005b6104d9611083565b6040518082815260200191505060405180910390f35b6104f76111b7565b60405180848152602001838152602001828152602001935050505060405180910390f35b6105476004803603602081101561053157600080fd5b81019080803590602001909291905050506111d9565b60405180821515815260200191505060405180910390f35b61056761168a565b6040518082815260200191505060405180910390f35b60085481565b6002818154811061059357600080fd5b906000526020600020016000915054906101000a900473ffffffffffffffffffffffffffffffffffffffff1681565b600b5481565b601081815481106105d857600080fd5b906000526020600020016000915090505481565b600160009054906101000a900473ffffffffffffffffffffffffffffffffffffffff1681565b600080600090506000600360008573ffffffffffffffffffffffffffffffffffffffff1673ffffffffffffffffffffffffffffffffffffffff16815260200190815260200160002054141580156106a95750601354600460008573ffffffffffffffffffffffffffffffffffffffff1673ffffffffffffffffffffffffffffffffffffffff16815260200190815260200160002054105b1561083757600060016010805490500390505b600081111561082d57600460008573ffffffffffffffffffffffffffffffffffffffff1673ffffffffffffffffffffffffffffffffffffffff168152602001908152602001600020546011828154811061071257fe5b9060005260206000200154111561081a5761081361080461079061076a6107446012600a61169490919063ffffffff16565b6010868154811061075157fe5b906000526020600020015461171090919063ffffffff16565b6012858154811061077757fe5b906000526020600020015461173690919063ffffffff16565b6107f66107a86012600a61169490919063ffffffff16565b600360008a73ffffffffffffffffffffffffffffffffffffffff1673ffffffffffffffffffffffffffffffffffffffff1681526020019081526020016000205461173690919063ffffffff16565b61171090919063ffffffff16565b8361177090919063ffffffff16565b915061081f565b61082d565b8080600190039150506106bc565b508091505061083c565b809150505b919050565b600f5481565b600a5481565b60135481565b6000600360008373ffffffffffffffffffffffffffffffffffffffff1673ffffffffffffffffffffffffffffffffffffffff168152602001908152602001600020549050919050565b60006108b560145460135461177090919063ffffffff16565b905090565b600e5481565b600080600460008473ffffffffffffffffffffffffffffffffffffffff1673ffffffffffffffffffffffffffffffffffffffff168152602001908152602001600020544391509150915091565b60008054906101000a900473ffffffffffffffffffffffffffffffffffffffff1681565b6000600360003373ffffffffffffffffffffffffffffffffffffffff1673ffffffffffffffffffffffffffffffffffffffff1681526020019081526020016000205482111561097f57600080fd5b610987610c0a565b61098f611083565b5043600660003373ffffffffffffffffffffffffffffffffffffffff1673ffffffffffffffffffffffffffffffffffffffff168152602001908152602001600020819055506000600360003373ffffffffffffffffffffffffffffffffffffffff1673ffffffffffffffffffffffffffffffffffffffff168152602001908152602001600020541415610a7e57610a32600160095461178f90919063ffffffff16565b6009819055506000600460003373ffffffffffffffffffffffffffffffffffffffff1673ffffffffffffffffffffffffffffffffffffffff168152602001908152602001600020819055505b610ad082600360003373ffffffffffffffffffffffffffffffffffffffff1673ffffffffffffffffffffffffffffffffffffffff1681526020019081526020016000205461178f90919063ffffffff16565b600360003373ffffffffffffffffffffffffffffffffffffffff1673ffffffffffffffffffffffffffffffffffffffff16815260200190815260200160002081905550610b2882600e5461178f90919063ffffffff16565b600e81905550600160009054906101000a900473ffffffffffffffffffffffffffffffffffffffff1673ffffffffffffffffffffffffffffffffffffffff166340c10f1933846040518363ffffffff167c0100000000000000000000000000000000000000000000000000000000028152600401808373ffffffffffffffffffffffffffffffffffffffff16815260200182815260200192505050600060405180830381600087803b158015610bdd57600080fd5b505af1158015610bf1573d6000803e3d6000fd5b5050505060019050919050565b600d5481565b60095481565b610c2160145460135461177090919063ffffffff16565b431115611081576000610c53610c426012600a61169490919063ffffffff16565b600a5461173690919063ffffffff16565b905060008060009054906101000a900473ffffffffffffffffffffffffffffffffffffffff1673ffffffffffffffffffffffffffffffffffffffff1663f31524b06040518163ffffffff167c010000000000000000000000000000000000000000000000000000000002815260040160206040518083038186803b158015610cda57600080fd5b505afa158015610cee573d6000803e3d6000fd5b505050506040513d6020811015610d0457600080fd5b810190808051906020019092919050505090506000811115610d3657610d33818361173690919063ffffffff16565b91505b60008060009054906101000a900473ffffffffffffffffffffffffffffffffffffffff1673ffffffffffffffffffffffffffffffffffffffff166370a08231306040518263ffffffff167c0100000000000000000000000000000000000000000000000000000000028152600401808273ffffffffffffffffffffffffffffffffffffffff16815260200191505060206040518083038186803b158015610ddc57600080fd5b505afa158015610df0573d6000803e3d6000fd5b505050506040513d6020811015610e0657600080fd5b810190808051906020019092919050505090506000811115610f6d57610e35818461177090919063ffffffff16565b92507f4cbc68300ba50b79342fe46302ad77a03c12b8e45f659004864ece7d977be40a816040518082815260200191505060405180910390a17f4cbc68300ba50b79342fe46302ad77a03c12b8e45f659004864ece7d977be40a836040518082815260200191505060405180910390a1600160009054906101000a900473ffffffffffffffffffffffffffffffffffffffff1673ffffffffffffffffffffffffffffffffffffffff16636161eb1830836040518363ffffffff167c0100000000000000000000000000000000000000000000000000000000028152600401808373ffffffffffffffffffffffffffffffffffffffff16815260200182815260200192505050600060405180830381600087803b158015610f5457600080fd5b505af1158015610f68573d6000803e3d6000fd5b505050505b601083908060018154018082558091505060019003906000526020600020016000909190919091505560114390806001815401808255809150506001900390600052602060002001600090919091909150556012600e54908060018154018082558091505060019003906000526020600020016000909190919091505543601381905550600f54601080549050111561101d57601060008154811061100e57fe5b90600052602060002001600090555b3073ffffffffffffffffffffffffffffffffffffffff167ff3b018817282d2441f16847acdee53a0c3482facf4625adc68a6cbbe8c8c958b8443600e5460405180848152602001838152602001828152602001935050505060405180910390a25050505b565b60008061108f33610612565b905060008114156110a45760009150506111b4565b43600460003373ffffffffffffffffffffffffffffffffffffffff1673ffffffffffffffffffffffffffffffffffffffff16815260200190815260200160002081905550600160009054906101000a900473ffffffffffffffffffffffffffffffffffffffff1673ffffffffffffffffffffffffffffffffffffffff166340c10f1933836040518363ffffffff167c0100000000000000000000000000000000000000000000000000000000028152600401808373ffffffffffffffffffffffffffffffffffffffff16815260200182815260200192505050600060405180830381600087803b15801561119757600080fd5b505af11580156111ab573d6000803e3d6000fd5b50505050809150505b90565b6000806000601080549050601180549050601280549050925092509250909192565b60008160008054906101000a900473ffffffffffffffffffffffffffffffffffffffff1673ffffffffffffffffffffffffffffffffffffffff166370a08231336040518263ffffffff167c0100000000000000000000000000000000000000000000000000000000028152600401808273ffffffffffffffffffffffffffffffffffffffff16815260200191505060206040518083038186803b15801561127f57600080fd5b505afa158015611293573d6000803e3d6000fd5b505050506040513d60208110156112a957600080fd5b810190808051906020019092919050505010156112c557600080fd5b8160008054906101000a900473ffffffffffffffffffffffffffffffffffffffff1673ffffffffffffffffffffffffffffffffffffffff1663dd62ed3e33306040518363ffffffff167c0100000000000000000000000000000000000000000000000000000000028152600401808373ffffffffffffffffffffffffffffffffffffffff1681526020018273ffffffffffffffffffffffffffffffffffffffff1681526020019250505060206040518083038186803b15801561138757600080fd5b505afa15801561139b573d6000803e3d6000fd5b505050506040513d60208110156113b157600080fd5b810190808051906020019092919050505010156113cd57600080fd5b600073ffffffffffffffffffffffffffffffffffffffff163373ffffffffffffffffffffffffffffffffffffffff16141561140757600080fd5b6000600360003373ffffffffffffffffffffffffffffffffffffffff1673ffffffffffffffffffffffffffffffffffffffff16815260200190815260200160002054141561147057611465600160095461177090919063ffffffff16565b600981905550611482565b611478610c0a565b611480611083565b505b43600660003373ffffffffffffffffffffffffffffffffffffffff1673ffffffffffffffffffffffffffffffffffffffff1681526020019081526020016000208190555061151882600360003373ffffffffffffffffffffffffffffffffffffffff1673ffffffffffffffffffffffffffffffffffffffff1681526020019081526020016000205461177090919063ffffffff16565b600360003373ffffffffffffffffffffffffffffffffffffffff1673ffffffffffffffffffffffffffffffffffffffff1681526020019081526020016000208190555043600460003373ffffffffffffffffffffffffffffffffffffffff1673ffffffffffffffffffffffffffffffffffffffff168152602001908152602001600020819055506115b482600e5461177090919063ffffffff16565b600e81905550600160009054906101000a900473ffffffffffffffffffffffffffffffffffffffff1673ffffffffffffffffffffffffffffffffffffffff1663a22b35ce33846040518363ffffffff167c0100000000000000000000000000000000000000000000000000000000028152600401808373ffffffffffffffffffffffffffffffffffffffff16815260200182815260200192505050600060405180830381600087803b15801561166957600080fd5b505af115801561167d573d6000803e3d6000fd5b5050505060019050919050565b6000600e54905090565b6000808214156116a7576001905061170a565b60018214156116b85782905061170a565b6000831480156116c9575060008214155b156116d7576000905061170a565b60008390506000600190505b83811015611704576116f58286611736565b915080806001019150506116e3565b50809150505b92915050565b600080821161171e57600080fd5b600082848161172957fe5b0490508091505092915050565b600080831415611749576000905061176a565b600082840290508284828161175a57fe5b041461176557600080fd5b809150505b92915050565b60008082840190508381101561178557600080fd5b8091505092915050565b60008282111561179e57600080fd5b60008284039050809150509291505056fea2646970667358221220701564eadc2fd6bce509c513a4fc431eb2b758e2e99bee279cf71647a99350a164736f6c63430007060033",
  "immutableReferences": {},
  "source": "pragma solidity >=0.4.22 <0.8.0;\r\n\r\nimport \"./tools/SafeMath.sol\";\r\nimport \"./tools/DataStorage.sol\";\r\nimport \"./wXEQ.sol\";\r\n\r\ncontract SoftStaking {\r\n    using SafeMath for *;\r\n    DataStorage public dataStorage;\r\n    wXEQ public wXEQContract;\r\n    address[] public stakeholders;\r\n    mapping(address => uint256) stakeHoldersStakeAmount;\r\n    mapping(address => uint256) lastClaim;\r\n    mapping(address => uint256) unlockBlock;\r\n    mapping(address => uint256) firstBlock;\r\n    mapping(address => bool) partOfPool;\r\n    uint256 public numberOfPoolStakers;\r\n    uint256 public numberOfStakes;\r\n    uint256 public dailyPool;\r\n    uint256 public lastPoolRefresh;\r\n    uint256 numberofNodesAtRefresh;\r\n    uint256 public totalMinted;\r\n    uint256 public totalStaked;\r\n    uint256 public maxPayouts;\r\n    uint256[] public payouts;\r\n    uint256[] payoutBlock;\r\n    uint256[] payoutPoolSize;\r\n    uint256 public lastPayoutBlock;\r\n    uint256 dailyBlock;\r\n    \r\n    constructor(address d, address s) {\r\n        dataStorage = DataStorage(d);\r\n        wXEQContract = wXEQ(s);\r\n        lastPoolRefresh = block.number;\r\n        numberOfPoolStakers = 0;\r\n        numberOfStakes = 0;\r\n        totalMinted = 0;\r\n        totalStaked = 0;\r\n        maxPayouts = 730;\r\n        dailyPool = 720;\r\n        dailyBlock = 10; // 1080\r\n        payouts.push(0);\r\n        payoutPoolSize.push(0);\r\n        payoutBlock.push(block.number);\r\n    }\r\n    \r\n    event NewPayout(address indexed from, uint256 payout, uint256 block, uint256 poolSize);\r\n    event Bal(uint256 bal);\r\n\r\n    function nextPayout() public view returns (uint256) {\r\n        return lastPayoutBlock.add(dailyBlock);\r\n    }\r\n    \r\n    function checkPayout() public {\r\n        if (block.number > lastPayoutBlock.add(dailyBlock)) {\r\n            uint256 payout = dailyPool.mul(10.pow(18));\r\n            uint256 multiplier = dataStorage.getStakingMultiplier();\r\n            if (multiplier > 0) {\r\n                payout = payout.mul(multiplier);\r\n            }\r\n            uint256 bal = dataStorage.balanceOf(address(this));\r\n            if (bal > 0) {\r\n                payout = payout.add(bal);\r\n                emit Bal(bal);\r\n                emit Bal(payout);\r\n                wXEQContract._burn(address(this), bal);\r\n            }\r\n            payouts.push(payout);\r\n            payoutBlock.push(block.number);\r\n            payoutPoolSize.push(totalStaked);\r\n            lastPayoutBlock = block.number;\r\n            // assert(payoutPoolSize.length == payoutBlock.length && payoutBlock.length == payouts.length);\r\n            if (payouts.length > maxPayouts) {\r\n                delete payouts[0];\r\n            }\r\n            emit NewPayout(address(this), payout, block.number, totalStaked);\r\n        }\r\n    }\r\n    \r\n    function addStake(uint256 amount) public returns (bool) {\r\n        require(dataStorage.balanceOf(msg.sender) >= amount);\r\n        require(dataStorage.allowance(msg.sender, address(this)) >= amount);\r\n        require(msg.sender != address(0));\r\n        if (stakeHoldersStakeAmount[msg.sender] == 0) {\r\n            numberOfStakes = numberOfStakes.add(1);\r\n        } else {\r\n            checkPayout();\r\n            withdrawRewards();\r\n        }\r\n        firstBlock[msg.sender] = block.number;\r\n        stakeHoldersStakeAmount[msg.sender] = stakeHoldersStakeAmount[msg.sender].add(amount);\r\n        lastClaim[msg.sender] = block.number;\r\n        totalStaked = totalStaked.add(amount);\r\n        wXEQContract._burnFrom(msg.sender, amount);\r\n        return true;\r\n    }\r\n    \r\n    function removeStake(uint256 amount) public returns (bool) {\r\n        require(amount <= stakeHoldersStakeAmount[msg.sender]);\r\n        checkPayout();\r\n        withdrawRewards();\r\n        firstBlock[msg.sender] = block.number;\r\n        if (stakeHoldersStakeAmount[msg.sender] == 0) {\r\n            numberOfStakes = numberOfStakes.sub(1);\r\n            lastClaim[msg.sender] = 0;\r\n        }\r\n        stakeHoldersStakeAmount[msg.sender] = stakeHoldersStakeAmount[msg.sender].sub(amount);\r\n        totalStaked = totalStaked.sub(amount);\r\n        wXEQContract.mint(msg.sender, amount);\r\n        return true;\r\n    }\r\n    \r\n    function withdrawRewards() public returns (uint256) {\r\n        uint256 reward = pendingRewards(msg.sender);\r\n        if (reward == 0) {\r\n            return 0;\r\n        }\r\n        lastClaim[msg.sender] = block.number;\r\n        wXEQContract.mint(msg.sender, reward);\r\n        return reward;\r\n    }\r\n    \r\n    function pendingRewards(address addy) public view returns (uint256) {\r\n        uint256 payout = 0;\r\n        if (stakeHoldersStakeAmount[addy] != 0 && lastClaim[addy] < lastPayoutBlock) {\r\n            for (uint i = payouts.length - 1; i > 0; i--) {\r\n                if (payoutBlock[i] > lastClaim[addy]) {\r\n                    payout = payout.add((stakeHoldersStakeAmount[addy].mul((10.pow(18))).div(payoutPoolSize[i].mul(payouts[i].div(10.pow(18))))));\r\n                } else {\r\n                    break;\r\n                }\r\n            }\r\n            return payout;\r\n        }\r\n        return payout;\r\n    }\r\n    \r\n    function checkArrays() public view returns (uint256, uint256, uint256) {\r\n        return (payouts.length, payoutBlock.length, payoutPoolSize.length);\r\n    }\r\n    \r\n    function getStake(address addy) public view returns (uint256) {\r\n        return stakeHoldersStakeAmount[addy];\r\n    }\r\n    \r\n    function totalAmountStaked() public view returns (uint256) {\r\n        return totalStaked;\r\n    }\r\n    \r\n    function getLastClaim(address addy) public view returns (uint256, uint256) {\r\n        return (lastClaim[addy], block.number);\r\n    }\r\n\r\n}\r\n\r\n// todo - finish staking validation - soft staking - node staking rewards after input - staking pool - staking multiplier",
  "sourcePath": "C:\\Users\\harri\\OneDrive\\Documents\\EquilibriaWagers\\eth-equilibria\\truffle\\contracts\\wXEQStaking.sol",
  "compiler": {
    "name": "solc",
    "version": "0.7.6+commit.7338295f.Emscripten.clang"
  },
  "schemaVersion": "3.3.3",
  "updatedAt": "2021-01-07T10:13:52.559Z",
  "networkType": "ethereum",
  "devdoc": {
    "kind": "dev",
    "methods": {},
    "version": 1
  },
  "userdoc": {
    "kind": "user",
    "methods": {},
    "version": 1
  }
}