{
  "contractName": "SoftStaking",
  "abi": [
    {
      "inputs": [
        {
          "internalType": "address",
          "name": "_wxeq",
          "type": "address"
        },
        {
          "internalType": "address",
          "name": "_dataStorage",
          "type": "address"
        },
        {
          "internalType": "address",
          "name": "_master",
          "type": "address"
        }
      ],
      "stateMutability": "nonpayable",
      "type": "constructor"
    },
    {
      "anonymous": false,
      "inputs": [
        {
          "indexed": true,
          "internalType": "address",
          "name": "user",
          "type": "address"
        },
        {
          "indexed": false,
          "internalType": "uint256",
          "name": "amount",
          "type": "uint256"
        }
      ],
      "name": "Enter",
      "type": "event"
    },
    {
      "anonymous": false,
      "inputs": [
        {
          "indexed": true,
          "internalType": "address",
          "name": "user",
          "type": "address"
        },
        {
          "indexed": false,
          "internalType": "uint256",
          "name": "amount",
          "type": "uint256"
        }
      ],
      "name": "Leave",
      "type": "event"
    },
    {
      "anonymous": false,
      "inputs": [
        {
          "indexed": true,
          "internalType": "address",
          "name": "previousOwner",
          "type": "address"
        },
        {
          "indexed": true,
          "internalType": "address",
          "name": "newOwner",
          "type": "address"
        }
      ],
      "name": "OwnershipTransferred",
      "type": "event"
    },
    {
      "anonymous": false,
      "inputs": [
        {
          "indexed": true,
          "internalType": "address",
          "name": "user",
          "type": "address"
        },
        {
          "indexed": false,
          "internalType": "uint256",
          "name": "amount",
          "type": "uint256"
        }
      ],
      "name": "WithdrawRewards",
      "type": "event"
    },
    {
      "inputs": [],
      "name": "blockReward",
      "outputs": [
        {
          "internalType": "uint256",
          "name": "",
          "type": "uint256"
        }
      ],
      "stateMutability": "view",
      "type": "function"
    },
    {
      "inputs": [],
      "name": "checkAccess",
      "outputs": [
        {
          "internalType": "bool",
          "name": "",
          "type": "bool"
        }
      ],
      "stateMutability": "nonpayable",
      "type": "function"
    },
    {
      "inputs": [],
      "name": "contractCreator",
      "outputs": [
        {
          "internalType": "address",
          "name": "",
          "type": "address"
        }
      ],
      "stateMutability": "view",
      "type": "function"
    },
    {
      "inputs": [],
      "name": "dataStorage",
      "outputs": [
        {
          "internalType": "contract DataStorage",
          "name": "",
          "type": "address"
        }
      ],
      "stateMutability": "view",
      "type": "function"
    },
    {
      "inputs": [],
      "name": "masterContract",
      "outputs": [
        {
          "internalType": "address",
          "name": "",
          "type": "address"
        }
      ],
      "stateMutability": "view",
      "type": "function"
    },
    {
      "inputs": [
        {
          "internalType": "address",
          "name": "addy",
          "type": "address"
        }
      ],
      "name": "newMaster",
      "outputs": [
        {
          "internalType": "bool",
          "name": "",
          "type": "bool"
        }
      ],
      "stateMutability": "view",
      "type": "function"
    },
    {
      "inputs": [],
      "name": "owner",
      "outputs": [
        {
          "internalType": "address",
          "name": "",
          "type": "address"
        }
      ],
      "stateMutability": "view",
      "type": "function"
    },
    {
      "inputs": [],
      "name": "renounceOwnership",
      "outputs": [],
      "stateMutability": "nonpayable",
      "type": "function"
    },
    {
      "inputs": [],
      "name": "totalStaked",
      "outputs": [
        {
          "internalType": "uint256",
          "name": "",
          "type": "uint256"
        }
      ],
      "stateMutability": "view",
      "type": "function"
    },
    {
      "inputs": [
        {
          "internalType": "address",
          "name": "newOwner",
          "type": "address"
        }
      ],
      "name": "transferOwnership",
      "outputs": [],
      "stateMutability": "nonpayable",
      "type": "function"
    },
    {
      "inputs": [
        {
          "internalType": "address",
          "name": "",
          "type": "address"
        }
      ],
      "name": "userInfo",
      "outputs": [
        {
          "internalType": "uint256",
          "name": "amount",
          "type": "uint256"
        },
        {
          "internalType": "uint256",
          "name": "stakingBlock",
          "type": "uint256"
        }
      ],
      "stateMutability": "view",
      "type": "function"
    },
    {
      "inputs": [],
      "name": "wXEQContract",
      "outputs": [
        {
          "internalType": "contract wXEQ",
          "name": "",
          "type": "address"
        }
      ],
      "stateMutability": "view",
      "type": "function"
    },
    {
      "inputs": [
        {
          "internalType": "uint256",
          "name": "_reward",
          "type": "uint256"
        }
      ],
      "name": "changeStakingReward",
      "outputs": [
        {
          "internalType": "bool",
          "name": "",
          "type": "bool"
        }
      ],
      "stateMutability": "nonpayable",
      "type": "function"
    },
    {
      "inputs": [
        {
          "internalType": "address",
          "name": "_user",
          "type": "address"
        }
      ],
      "name": "getPendingReward",
      "outputs": [
        {
          "internalType": "uint256",
          "name": "",
          "type": "uint256"
        }
      ],
      "stateMutability": "view",
      "type": "function"
    },
    {
      "inputs": [
        {
          "internalType": "address",
          "name": "_user",
          "type": "address"
        }
      ],
      "name": "getFeeReward",
      "outputs": [
        {
          "internalType": "uint256",
          "name": "",
          "type": "uint256"
        }
      ],
      "stateMutability": "view",
      "type": "function"
    },
    {
      "inputs": [
        {
          "internalType": "uint256",
          "name": "_amount",
          "type": "uint256"
        }
      ],
      "name": "enter",
      "outputs": [],
      "stateMutability": "nonpayable",
      "type": "function"
    },
    {
      "inputs": [
        {
          "internalType": "uint256",
          "name": "_amount",
          "type": "uint256"
        }
      ],
      "name": "leave",
      "outputs": [],
      "stateMutability": "nonpayable",
      "type": "function"
    },
    {
      "inputs": [],
      "name": "withdrawRewards",
      "outputs": [],
      "stateMutability": "nonpayable",
      "type": "function"
    }
  ],
  "bytecode": "0x60806040523480156200001157600080fd5b506040516200138738038062001387833981810160405260608110156200003757600080fd5b508051602082015160409092015190919060006200005d64010000000062000148810204565b60018054600160a060020a038316600160a060020a0319918216811790925560028054909116331790556040519192509060009060008051602062001367833981519152908290a35060048054600160a060020a03808616600160a060020a03199283161790925560038054928516929091169190911790556200010d620000f6600a601064010000000062000ec66200014c82021704565b600b9064010000000062000f29620001c382021704565b60055560008054600160a060020a031916600160a060020a0383161790556200013f81640100000000620001f5810204565b50505062000331565b3390565b6000816200015d57506001620001bd565b81600114156200016f575081620001bd565b821580156200017d57508115155b156200018c57506000620001bd565b8260015b83811015620001b957620001ae8286640100000000620001c3810204565b915060010162000190565b5090505b92915050565b600082620001d457506000620001bd565b82820282848281620001e257fe5b0414620001ee57600080fd5b9392505050565b6200020864010000000062000148810204565b600154600160a060020a039081169116146200028557604080517f08c379a000000000000000000000000000000000000000000000000000000000815260206004820181905260248201527f4f776e61626c653a2063616c6c6572206973206e6f7420746865206f776e6572604482015290519081900360640190fd5b600160a060020a038116620002e6576040517f08c379a0000000000000000000000000000000000000000000000000000000008152600401808060200182810382526026815260200180620013416026913960400191505060405180910390fd5b600154604051600160a060020a038084169216906000805160206200136783398151915290600090a360018054600160a060020a031916600160a060020a0392909216919091179055565b61100080620003416000396000f3fe608060405234801561001057600080fd5b5060043610610133576000357c0100000000000000000000000000000000000000000000000000000000900480638870455f116100bf578063c7b8981c1161008e578063c7b8981c14610296578063cd446e221461029e578063d80549f7146102a6578063ecb10135146102cc578063f2fde38b146102d457610133565b80638870455f1461024c5780638da5cb5b14610254578063a552b7341461025c578063a59f3e0c1461027957610133565b8063462dcfa011610106578063462dcfa0146101bd5780634df9d6ba146101f757806367dfd4c91461021d578063715018a61461023c578063817b1cd21461024457610133565b80630ac168a1146101385780631959a002146101525780631e2f73b1146101915780632b2be647146101b5575b600080fd5b6101406102fa565b60408051918252519081900360200190f35b6101786004803603602081101561016857600080fd5b5035600160a060020a0316610300565b6040805192835260208301919091528051918290030190f35b610199610319565b60408051600160a060020a039092168252519081900360200190f35b610199610328565b6101e3600480360360208110156101d357600080fd5b5035600160a060020a0316610337565b604080519115158252519081900360200190f35b6101406004803603602081101561020d57600080fd5b5035600160a060020a031661036e565b61023a6004803603602081101561023357600080fd5b50356103e5565b005b61023a6105b6565b610140610693565b610199610699565b6101996106a8565b6101e36004803603602081101561027257600080fd5b50356106b7565b61023a6004803603602081101561028f57600080fd5b5035610752565b61023a610993565b610199610b45565b610140600480360360208110156102bc57600080fd5b5035600160a060020a0316610b54565b6101e3610c61565b61023a600480360360208110156102ea57600080fd5b5035600160a060020a0316610da8565b60055481565b6007602052600090815260409020805460019091015482565b600254600160a060020a031681565b600454600160a060020a031681565b60008054600160a060020a0316331461034f57600080fd5b600054600160a060020a0383811691161461036657fe5b506001919050565b600160a060020a0381166000908152600760205260408120600181015460055460065443929092039184916103c4916103be906103b86103b0600a6012610ec6565b885490610f29565b90610f57565b90610f29565b90506103dc670de0b6b3a76400006103b88385610f29565b95945050505050565b33600090815260076020526040902080546103ff57600080fd5b805461040b9083610f79565b8155600060018201556006546104219083610f79565b600655600061042f3361036e565b9050600061043c33610b54565b90506000821161044b57600080fd5b43600184015560048054604080517f40c10f1900000000000000000000000000000000000000000000000000000000815233938101939093526024830185905251600160a060020a03909116916340c10f1991604480830192600092919082900301818387803b1580156104be57600080fd5b505af11580156104d2573d6000803e3d6000fd5b50505050600081111561057a5760048054604080517fa9059cbb00000000000000000000000000000000000000000000000000000000815233938101939093526024830184905251600160a060020a039091169163a9059cbb9160448083019260209291908290030181600087803b15801561054d57600080fd5b505af1158015610561573d6000803e3d6000fd5b505050506040513d602081101561057757600080fd5b50505b60408051858152905133917f61a26f7c17d8780c095ccfa67e689a13ee4e06ddce3da18956369f4a396100e8919081900360200190a250505050565b6105be610f8e565b600154600160a060020a03908116911614610623576040805160e560020a62461bcd02815260206004820181905260248201527f4f776e61626c653a2063616c6c6572206973206e6f7420746865206f776e6572604482015290519081900360640190fd5b600254600154604051600160a060020a0392831692909116907f8be0079c531659141344cd1fd0a4f28419497f9722a3daafe3b4186f6b6457e090600090a36002546001805473ffffffffffffffffffffffffffffffffffffffff1916600160a060020a03909216919091179055565b60065481565b600354600160a060020a031681565b600154600160a060020a031690565b60006106c1610f8e565b600154600160a060020a03908116911614610726576040805160e560020a62461bcd02815260206004820181905260248201527f4f776e61626c653a2063616c6c6572206973206e6f7420746865206f776e6572604482015290519081900360640190fd5b61073d610735600a6010610ec6565b603290610f29565b82111561074957600080fd5b60059190915590565b600354604080517f70a0823100000000000000000000000000000000000000000000000000000000815233600482015290518392600160a060020a0316916370a08231916024808301926020929190829003018186803b1580156107b557600080fd5b505afa1580156107c9573d6000803e3d6000fd5b505050506040513d60208110156107df57600080fd5b505110156107ec57600080fd5b600354604080517fdd62ed3e00000000000000000000000000000000000000000000000000000000815233600482015230602482015290518392600160a060020a03169163dd62ed3e916044808301926020929190829003018186803b15801561085557600080fd5b505afa158015610869573d6000803e3d6000fd5b505050506040513d602081101561087f57600080fd5b5051101561088c57600080fd5b3361089657600080fd5b60048054604080517fa22b35ce00000000000000000000000000000000000000000000000000000000815233938101939093526024830184905251600160a060020a039091169163a22b35ce91604480830192600092919082900301818387803b15801561090357600080fd5b505af1158015610917573d6000803e3d6000fd5b50506006546109299250905082610f92565b60065533600090815260076020526040902080546109479083610f92565b81556001810154610959574360018201555b60408051838152905133917f1fb48929215fc354244acea33112720ce5b7ba6912db70bb0149e77aa7c91ce1919081900360200190a25050565b33600090815260076020526040902080546109ad57600080fd5b60006109b83361036e565b905060006109c533610b54565b9050600082116109d457600080fd5b43600184015560048054604080517f40c10f1900000000000000000000000000000000000000000000000000000000815233938101939093526024830185905251600160a060020a03909116916340c10f1991604480830192600092919082900301818387803b158015610a4757600080fd5b505af1158015610a5b573d6000803e3d6000fd5b505050506000811115610b035760048054604080517fa9059cbb00000000000000000000000000000000000000000000000000000000815233938101939093526024830184905251600160a060020a039091169163a9059cbb9160448083019260209291908290030181600087803b158015610ad657600080fd5b505af1158015610aea573d6000803e3d6000fd5b505050506040513d6020811015610b0057600080fd5b50505b337faa1377f7ec93c239e959efa811f7b8554c036fd7a706c23e58024626a8f3db96610b2f8484610f92565b60408051918252519081900360200190a2505050565b600054600160a060020a031681565b600160a060020a038082166000908152600760209081526040808320600181015460035483517f70a08231000000000000000000000000000000000000000000000000000000008152306004820152935195969295439290920394879491909316926370a0823192602480840193829003018186803b158015610bd657600080fd5b505afa158015610bea573d6000803e3d6000fd5b505050506040513d6020811015610c0057600080fd5b5051600654909150600090610c2c9083906103be906103b8610c24600a6012610ec6565b895490610f29565b9050610c3b6119786003610f29565b8311610c45575060005b610c5781670de0b6b3a7640000610f57565b9695505050505050565b604080513360248083019190915282518083039091018152604490910182526020810180517bffffffffffffffffffffffffffffffffffffffffffffffffffffffff167fcec70038000000000000000000000000000000000000000000000000000000001781526000805493518351919485938493600160a060020a0392909216928692909182918083835b60208310610d0c5780518252601f199092019160209182019101610ced565b6001836020036101000a0380198251168184511680821785525050505050509050019150506000604051808303816000865af19150503d8060008114610d6e576040519150601f19603f3d011682016040523d82523d6000602084013e610d73565b606091505b50915091506000818060200190516020811015610d8f57600080fd5b5051905080610d9d57600080fd5b600194505050505090565b610db0610f8e565b600154600160a060020a03908116911614610e15576040805160e560020a62461bcd02815260206004820181905260248201527f4f776e61626c653a2063616c6c6572206973206e6f7420746865206f776e6572604482015290519081900360640190fd5b600160a060020a038116610e5d5760405160e560020a62461bcd028152600401808060200182810382526026815260200180610fa56026913960400191505060405180910390fd5b600154604051600160a060020a038084169216907f8be0079c531659141344cd1fd0a4f28419497f9722a3daafe3b4186f6b6457e090600090a36001805473ffffffffffffffffffffffffffffffffffffffff1916600160a060020a0392909216919091179055565b600081610ed557506001610f23565b8160011415610ee5575081610f23565b82158015610ef257508115155b15610eff57506000610f23565b8260015b83811015610f1f57610f158286610f29565b9150600101610f03565b5090505b92915050565b600082610f3857506000610f23565b82820282848281610f4557fe5b0414610f5057600080fd5b9392505050565b6000808211610f6557600080fd5b6000828481610f7057fe5b04949350505050565b600082821115610f8857600080fd5b50900390565b3390565b600082820183811015610f5057600080fdfe4f776e61626c653a206e6577206f776e657220697320746865207a65726f2061646472657373a2646970667358221220223130ec56f4052ed611c9eab0e1a04b4a794d2d9c826a3c3cdfc58b5834761c64736f6c634300070600334f776e61626c653a206e6577206f776e657220697320746865207a65726f20616464726573738be0079c531659141344cd1fd0a4f28419497f9722a3daafe3b4186f6b6457e0",
  "immutableReferences": {},
  "source": "pragma solidity >=0.4.22 <0.8.0;\r\n\r\nimport \"./tools/Ownable.sol\";\r\nimport \"./tools/ExternalAccessible.sol\";\r\nimport \"./tools/SafeMath.sol\";\r\nimport \"./tools/DataStorage.sol\";\r\nimport \"./wXEQ.sol\";\r\n\r\ncontract SoftStaking is ExternalAccessible, Ownable {\r\n    \r\n    using SafeMath for *;\r\n    DataStorage public dataStorage;\r\n    wXEQ public wXEQContract;\r\n    event Enter(address indexed user, uint256 amount);\r\n    event Leave(address indexed user, uint256 amount);\r\n    event WithdrawRewards(address indexed user, uint256 amount);\r\n\r\n    struct UserInfo {\r\n        uint256 amount;\r\n        uint256 stakingBlock;\r\n    }\r\n\r\n    uint256 public blockReward;\r\n\r\n    uint256 public totalStaked;\r\n\r\n    mapping (address => UserInfo) public userInfo;\r\n\r\n    constructor(address _wxeq, address _dataStorage, address _master) public {\r\n\r\n        wXEQContract = wXEQ(_wxeq);\r\n        dataStorage = DataStorage(_dataStorage);\r\n        blockReward = (11.mul(10.pow(16)));  // .11 wXEQ per block\r\n        masterContract = _master;\r\n        transferOwnership(_master);\r\n    }\r\n\r\n    function changeStakingReward(uint256 _reward) public onlyOwner returns (bool) {\r\n        require(_reward <= (50.mul(10.pow(16)))); //.5 wXEQ max\r\n        blockReward = _reward;\r\n    }\r\n\r\n    // Get user pending reward. May be outdated until someone calls cleanup.\r\n    function getPendingReward(address _user) public view returns (uint256) {\r\n        UserInfo storage user = userInfo[_user];\r\n        uint256 user_time = block.number - user.stakingBlock;\r\n        uint256 baseReward = user.amount.mul(10.pow(18)).div(totalStaked).mul(blockReward);\r\n\r\n        return baseReward.mul(user_time).div(1e18);\r\n    }\r\n\r\n    function getFeeReward(address _user) public view returns (uint256) {\r\n        UserInfo storage user = userInfo[_user];\r\n        uint256 user_time = block.number - user.stakingBlock;\r\n        uint256 fees = dataStorage.balanceOf(address(this));\r\n        uint256 my_fees = user.amount.mul(10.pow(18)).div(totalStaked).mul(fees);\r\n\r\n        if (user_time <= 6520.mul(3)) {\r\n            my_fees = 0;\r\n        }\r\n        return my_fees.div(1e18);\r\n    }\r\n\r\n    function enter(uint256 _amount) public {\r\n        require(dataStorage.balanceOf(msg.sender) >= _amount);\r\n        require(dataStorage.allowance(msg.sender, address(this)) >= _amount);\r\n        require(msg.sender != address(0));\r\n\r\n        wXEQContract._burnFrom(msg.sender, _amount);\r\n        totalStaked = totalStaked.add(_amount);\r\n        UserInfo storage user = userInfo[msg.sender];\r\n        user.amount = user.amount.add(_amount);\r\n\r\n        if (user.stakingBlock == 0)  {\r\n            user.stakingBlock = block.number;\r\n        }\r\n\r\n        emit Enter(msg.sender, _amount);\r\n    }\r\n\r\n    function leave(uint256 _amount) public {\r\n        UserInfo storage user = userInfo[msg.sender];\r\n        require(user.amount > 0);\r\n\r\n        user.amount = user.amount.sub(_amount);\r\n        user.stakingBlock = 0;\r\n        totalStaked = totalStaked.sub(_amount);\r\n        \r\n        uint256 base_reward = getPendingReward(msg.sender);\r\n        uint256 fee_reward = getFeeReward(msg.sender);\r\n        require(base_reward > 0);\r\n        user.stakingBlock = block.number;\r\n        wXEQContract.mint(msg.sender, base_reward);\r\n        if (fee_reward > 0) {\r\n            wXEQContract.transfer(msg.sender, fee_reward);\r\n        }\r\n        emit Leave(msg.sender, _amount);\r\n    }\r\n\r\n    function withdrawRewards() public {\r\n        UserInfo storage user = userInfo[msg.sender];\r\n        require(user.amount > 0);\r\n        uint256 base_reward = getPendingReward(msg.sender);\r\n        uint256 fee_reward = getFeeReward(msg.sender);\r\n        require(base_reward > 0);\r\n        user.stakingBlock = block.number;\r\n        wXEQContract.mint(msg.sender, base_reward);\r\n        if (fee_reward > 0) {\r\n            wXEQContract.transfer(msg.sender, fee_reward);\r\n        }\r\n        emit WithdrawRewards(msg.sender, base_reward.add(fee_reward));\r\n    }\r\n\r\n}\r\n\r\n// todo - finish staking validation - soft staking - node staking rewards after input - staking pool - staking multiplier",
  "sourcePath": "C:\\Users\\harri\\OneDrive\\Documents\\EquilibriaWagers\\eth-equilibria\\truffle\\contracts\\wXEQStaking.sol",
  "compiler": {
    "name": "solc",
    "version": "0.7.6+commit.7338295f.Emscripten.clang"
  },
  "schemaVersion": "3.3.3",
  "updatedAt": "2021-01-09T01:02:38.438Z",
  "devdoc": {
    "kind": "dev",
    "methods": {},
    "version": 1
  },
  "userdoc": {
    "kind": "user",
    "methods": {},
    "version": 1
  }
}