{
  "contractName": "SoftStaking",
  "abi": [
    {
      "inputs": [
        {
          "internalType": "address",
          "name": "_wxeq",
          "type": "address"
        },
        {
          "internalType": "address",
          "name": "_dataStorage",
          "type": "address"
        },
        {
          "internalType": "address",
          "name": "_master",
          "type": "address"
        }
      ],
      "stateMutability": "nonpayable",
      "type": "constructor"
    },
    {
      "anonymous": false,
      "inputs": [
        {
          "indexed": true,
          "internalType": "address",
          "name": "user",
          "type": "address"
        },
        {
          "indexed": false,
          "internalType": "uint256",
          "name": "amount",
          "type": "uint256"
        }
      ],
      "name": "Enter",
      "type": "event"
    },
    {
      "anonymous": false,
      "inputs": [
        {
          "indexed": true,
          "internalType": "address",
          "name": "user",
          "type": "address"
        },
        {
          "indexed": false,
          "internalType": "uint256",
          "name": "amount",
          "type": "uint256"
        }
      ],
      "name": "Leave",
      "type": "event"
    },
    {
      "anonymous": false,
      "inputs": [
        {
          "indexed": true,
          "internalType": "address",
          "name": "previousOwner",
          "type": "address"
        },
        {
          "indexed": true,
          "internalType": "address",
          "name": "newOwner",
          "type": "address"
        }
      ],
      "name": "OwnershipTransferred",
      "type": "event"
    },
    {
      "anonymous": false,
      "inputs": [
        {
          "indexed": true,
          "internalType": "address",
          "name": "user",
          "type": "address"
        },
        {
          "indexed": false,
          "internalType": "uint256",
          "name": "amount",
          "type": "uint256"
        }
      ],
      "name": "WithdrawRewards",
      "type": "event"
    },
    {
      "inputs": [],
      "name": "blockReward",
      "outputs": [
        {
          "internalType": "uint256",
          "name": "",
          "type": "uint256"
        }
      ],
      "stateMutability": "view",
      "type": "function",
      "constant": true
    },
    {
      "inputs": [],
      "name": "contractCreator",
      "outputs": [
        {
          "internalType": "address",
          "name": "",
          "type": "address"
        }
      ],
      "stateMutability": "view",
      "type": "function",
      "constant": true
    },
    {
      "inputs": [],
      "name": "dataStorage",
      "outputs": [
        {
          "internalType": "contract DataStorage",
          "name": "",
          "type": "address"
        }
      ],
      "stateMutability": "view",
      "type": "function",
      "constant": true
    },
    {
      "inputs": [],
      "name": "owner",
      "outputs": [
        {
          "internalType": "address",
          "name": "",
          "type": "address"
        }
      ],
      "stateMutability": "view",
      "type": "function",
      "constant": true
    },
    {
      "inputs": [],
      "name": "renounceOwnership",
      "outputs": [],
      "stateMutability": "nonpayable",
      "type": "function"
    },
    {
      "inputs": [],
      "name": "totalStaked",
      "outputs": [
        {
          "internalType": "uint256",
          "name": "",
          "type": "uint256"
        }
      ],
      "stateMutability": "view",
      "type": "function",
      "constant": true
    },
    {
      "inputs": [
        {
          "internalType": "address",
          "name": "newOwner",
          "type": "address"
        }
      ],
      "name": "transferOwnership",
      "outputs": [],
      "stateMutability": "nonpayable",
      "type": "function"
    },
    {
      "inputs": [
        {
          "internalType": "address",
          "name": "",
          "type": "address"
        }
      ],
      "name": "userInfo",
      "outputs": [
        {
          "internalType": "uint256",
          "name": "amount",
          "type": "uint256"
        },
        {
          "internalType": "uint256",
          "name": "stakingBlock",
          "type": "uint256"
        }
      ],
      "stateMutability": "view",
      "type": "function",
      "constant": true
    },
    {
      "inputs": [],
      "name": "wXEQContract",
      "outputs": [
        {
          "internalType": "contract wXEQ",
          "name": "",
          "type": "address"
        }
      ],
      "stateMutability": "view",
      "type": "function",
      "constant": true
    },
    {
      "inputs": [
        {
          "internalType": "uint256",
          "name": "_reward",
          "type": "uint256"
        }
      ],
      "name": "changeStakingReward",
      "outputs": [
        {
          "internalType": "bool",
          "name": "",
          "type": "bool"
        }
      ],
      "stateMutability": "nonpayable",
      "type": "function"
    },
    {
      "inputs": [
        {
          "internalType": "address",
          "name": "_user",
          "type": "address"
        }
      ],
      "name": "getPendingReward",
      "outputs": [
        {
          "internalType": "uint256",
          "name": "",
          "type": "uint256"
        }
      ],
      "stateMutability": "view",
      "type": "function",
      "constant": true
    },
    {
      "inputs": [
        {
          "internalType": "address",
          "name": "_user",
          "type": "address"
        }
      ],
      "name": "getFeeReward",
      "outputs": [
        {
          "internalType": "uint256",
          "name": "",
          "type": "uint256"
        }
      ],
      "stateMutability": "view",
      "type": "function",
      "constant": true
    },
    {
      "inputs": [
        {
          "internalType": "uint256",
          "name": "_amount",
          "type": "uint256"
        }
      ],
      "name": "enter",
      "outputs": [],
      "stateMutability": "nonpayable",
      "type": "function"
    },
    {
      "inputs": [
        {
          "internalType": "uint256",
          "name": "_amount",
          "type": "uint256"
        }
      ],
      "name": "leave",
      "outputs": [],
      "stateMutability": "nonpayable",
      "type": "function"
    },
    {
      "inputs": [],
      "name": "withdrawRewards",
      "outputs": [],
      "stateMutability": "nonpayable",
      "type": "function"
    }
  ],
  "bytecode": "0x60806040523480156200001157600080fd5b506040516200124138038062001241833981810160405260608110156200003757600080fd5b508051602082015160409092015190919060006200005d6401000000006200012a810204565b60008054600160a060020a038316600160a060020a0319918216811783556001805490921633179091556040519293509160008051602062001221833981519152908290a35060038054600160a060020a03808616600160a060020a03199283161790925560028054928516929091169190911790556200010a620000f3600a601064010000000062000d9f6200012e82021704565b600b9064010000000062000e02620001a582021704565b6004556200012181640100000000620001d7810204565b50505062000312565b3390565b6000816200013f575060016200019f565b8160011415620001515750816200019f565b821580156200015f57508115155b156200016e575060006200019f565b8260015b838110156200019b57620001908286640100000000620001a5810204565b915060010162000172565b5090505b92915050565b600082620001b6575060006200019f565b82820282848281620001c457fe5b0414620001d057600080fd5b9392505050565b620001ea6401000000006200012a810204565b600054600160a060020a039081169116146200026757604080517f08c379a000000000000000000000000000000000000000000000000000000000815260206004820181905260248201527f4f776e61626c653a2063616c6c6572206973206e6f7420746865206f776e6572604482015290519081900360640190fd5b600160a060020a038116620002c8576040517f08c379a0000000000000000000000000000000000000000000000000000000008152600401808060200182810382526026815260200180620011fb6026913960400191505060405180910390fd5b60008054604051600160a060020a03808516939216916000805160206200122183398151915291a360008054600160a060020a031916600160a060020a0392909216919091179055565b610ed980620003226000396000f3fe608060405234801561001057600080fd5b5060043610610112576000357c010000000000000000000000000000000000000000000000000000000090048063817b1cd2116100b4578063a59f3e0c11610083578063a59f3e0c14610232578063c7b8981c1461024f578063d80549f714610257578063f2fde38b1461027d57610112565b8063817b1cd2146101e95780638870455f146101f15780638da5cb5b146101f9578063a552b7341461020157610112565b80632b2be647116100f05780632b2be647146101945780634df9d6ba1461019c57806367dfd4c9146101c2578063715018a6146101e157610112565b80630ac168a1146101175780631959a002146101315780631e2f73b114610170575b600080fd5b61011f6102a3565b60408051918252519081900360200190f35b6101576004803603602081101561014757600080fd5b5035600160a060020a03166102a9565b6040805192835260208301919091528051918290030190f35b6101786102c2565b60408051600160a060020a039092168252519081900360200190f35b6101786102d1565b61011f600480360360208110156101b257600080fd5b5035600160a060020a03166102e0565b6101df600480360360208110156101d857600080fd5b5035610370565b005b6101df6105d6565b61011f6106b1565b6101786106b7565b6101786106c6565b61021e6004803603602081101561021757600080fd5b50356106d5565b604080519115158252519081900360200190f35b6101df6004803603602081101561024857600080fd5b5035610770565b6101df6109b0565b61011f6004803603602081101561026d57600080fd5b5035600160a060020a0316610b60565b6101df6004803603602081101561029357600080fd5b5035600160a060020a0316610c82565b60045481565b6006602052600090815260409020805460019091015482565b600154600160a060020a031681565b600354600160a060020a031681565b600160a060020a0381166000908152600660205260408120805461030857600091505061036b565b6000816001015443039050600061034d6004546103476005546103416103396012600a610d9f90919063ffffffff16565b885490610e02565b90610e30565b90610e02565b9050610365670de0b6b3a76400006103418385610e02565b93505050505b919050565b336000908152600660205260409020805461038a57600080fd5b6000610395336102e0565b905060006103a233610b60565b905060006103b08584610e52565b84549091506103bf9086610e64565b8455600060018501556005546103d59086610e64565b600555600354604080517f40c10f19000000000000000000000000000000000000000000000000000000008152336004820152602481018490529051600160a060020a03909216916340c10f199160448082019260009290919082900301818387803b15801561044457600080fd5b505af1158015610458573d6000803e3d6000fd5b50505050600082111561059957600254604080517f70a0823100000000000000000000000000000000000000000000000000000000815230600482015290518492600160a060020a0316916370a08231916024808301926020929190829003018186803b1580156104c857600080fd5b505afa1580156104dc573d6000803e3d6000fd5b505050506040513d60208110156104f257600080fd5b505110156104ff57600080fd5b600354604080517fa9059cbb000000000000000000000000000000000000000000000000000000008152336004820152602481018590529051600160a060020a039092169163a9059cbb916044808201926020929091908290030181600087803b15801561056c57600080fd5b505af1158015610580573d6000803e3d6000fd5b505050506040513d602081101561059657600080fd5b50505b60408051828152905133917f61a26f7c17d8780c095ccfa67e689a13ee4e06ddce3da18956369f4a396100e8919081900360200190a25050505050565b6105de610e79565b600054600160a060020a03908116911614610643576040805160e560020a62461bcd02815260206004820181905260248201527f4f776e61626c653a2063616c6c6572206973206e6f7420746865206f776e6572604482015290519081900360640190fd5b60015460008054604051600160a060020a0393841693909116917f8be0079c531659141344cd1fd0a4f28419497f9722a3daafe3b4186f6b6457e091a36001546000805473ffffffffffffffffffffffffffffffffffffffff1916600160a060020a03909216919091179055565b60055481565b600254600160a060020a031681565b600054600160a060020a031690565b60006106df610e79565b600054600160a060020a03908116911614610744576040805160e560020a62461bcd02815260206004820181905260248201527f4f776e61626c653a2063616c6c6572206973206e6f7420746865206f776e6572604482015290519081900360640190fd5b61075b610753600a6010610d9f565b603290610e02565b82111561076757600080fd5b60049190915590565b600254604080517f70a0823100000000000000000000000000000000000000000000000000000000815233600482015290518392600160a060020a0316916370a08231916024808301926020929190829003018186803b1580156107d357600080fd5b505afa1580156107e7573d6000803e3d6000fd5b505050506040513d60208110156107fd57600080fd5b5051101561080a57600080fd5b600254604080517fdd62ed3e00000000000000000000000000000000000000000000000000000000815233600482015230602482015290518392600160a060020a03169163dd62ed3e916044808301926020929190829003018186803b15801561087357600080fd5b505afa158015610887573d6000803e3d6000fd5b505050506040513d602081101561089d57600080fd5b505110156108aa57600080fd5b336108b457600080fd5b600354604080517fa22b35ce000000000000000000000000000000000000000000000000000000008152336004820152602481018490529051600160a060020a039092169163a22b35ce9160448082019260009290919082900301818387803b15801561092057600080fd5b505af1158015610934573d6000803e3d6000fd5b50506005546109469250905082610e52565b60055533600090815260066020526040902080546109649083610e52565b81556001810154610976574360018201555b60408051838152905133917f1fb48929215fc354244acea33112720ce5b7ba6912db70bb0149e77aa7c91ce1919081900360200190a25050565b33600090815260066020526040902080546109ca57600080fd5b60006109d5336102e0565b905060006109e233610b60565b9050600082116109f157600080fd5b436001840155600354604080517f40c10f19000000000000000000000000000000000000000000000000000000008152336004820152602481018590529051600160a060020a03909216916340c10f199160448082019260009290919082900301818387803b158015610a6357600080fd5b505af1158015610a77573d6000803e3d6000fd5b505050506000811115610b1e57600354604080517fa9059cbb000000000000000000000000000000000000000000000000000000008152336004820152602481018490529051600160a060020a039092169163a9059cbb916044808201926020929091908290030181600087803b158015610af157600080fd5b505af1158015610b05573d6000803e3d6000fd5b505050506040513d6020811015610b1b57600080fd5b50505b337faa1377f7ec93c239e959efa811f7b8554c036fd7a706c23e58024626a8f3db96610b4a8484610e52565b60408051918252519081900360200190a2505050565b600160a060020a03811660009081526006602052604081208054610b8857600091505061036b565b6001810154600254604080517f70a082310000000000000000000000000000000000000000000000000000000081523060048201529051439390930392600092600160a060020a0316916370a08231916024808301926020929190829003018186803b158015610bf757600080fd5b505afa158015610c0b573d6000803e3d6000fd5b505050506040513d6020811015610c2157600080fd5b5051600554909150600090610c4d90839061034790610341610c45600a6012610d9f565b895490610e02565b9050610c5c6119786003610e02565b8311610c66575060005b610c7881670de0b6b3a7640000610e30565b9695505050505050565b610c8a610e79565b600054600160a060020a03908116911614610cef576040805160e560020a62461bcd02815260206004820181905260248201527f4f776e61626c653a2063616c6c6572206973206e6f7420746865206f776e6572604482015290519081900360640190fd5b600160a060020a038116610d375760405160e560020a62461bcd028152600401808060200182810382526026815260200180610e7e6026913960400191505060405180910390fd5b60008054604051600160a060020a03808516939216917f8be0079c531659141344cd1fd0a4f28419497f9722a3daafe3b4186f6b6457e091a36000805473ffffffffffffffffffffffffffffffffffffffff1916600160a060020a0392909216919091179055565b600081610dae57506001610dfc565b8160011415610dbe575081610dfc565b82158015610dcb57508115155b15610dd857506000610dfc565b8260015b83811015610df857610dee8286610e02565b9150600101610ddc565b5090505b92915050565b600082610e1157506000610dfc565b82820282848281610e1e57fe5b0414610e2957600080fd5b9392505050565b6000808211610e3e57600080fd5b6000828481610e4957fe5b04949350505050565b600082820183811015610e2957600080fd5b600082821115610e7357600080fd5b50900390565b339056fe4f776e61626c653a206e6577206f776e657220697320746865207a65726f2061646472657373a26469706673582212203d750f493e6192fa81d4f0eefe02361e15cd0d95adada20af1d1d46093689f7264736f6c634300070600334f776e61626c653a206e6577206f776e657220697320746865207a65726f20616464726573738be0079c531659141344cd1fd0a4f28419497f9722a3daafe3b4186f6b6457e0",
  "immutableReferences": {},
  "source": "pragma solidity >=0.4.22 <0.8.0;\r\n\r\nimport \"./tools/Ownable.sol\";\r\nimport \"./tools/SafeMath.sol\";\r\nimport \"./tools/DataStorage.sol\";\r\nimport \"./wXEQ.sol\";\r\n\r\ncontract SoftStaking is Ownable {\r\n    \r\n    using SafeMath for *;\r\n    DataStorage public dataStorage;\r\n    wXEQ public wXEQContract;\r\n    event Enter(address indexed user, uint256 amount);\r\n    event Leave(address indexed user, uint256 amount);\r\n    event WithdrawRewards(address indexed user, uint256 amount);\r\n\r\n    struct UserInfo {\r\n        uint256 amount;\r\n        uint256 stakingBlock;\r\n    }\r\n\r\n    uint256 public blockReward;\r\n\r\n    uint256 public totalStaked;\r\n\r\n    mapping (address => UserInfo) public userInfo;\r\n\r\n    constructor(address _wxeq, address _dataStorage, address _master) public {\r\n\r\n        wXEQContract = wXEQ(_wxeq);\r\n        dataStorage = DataStorage(_dataStorage);\r\n        blockReward = (11.mul(10.pow(16)));  // .11 wXEQ per block\r\n        transferOwnership(_master);\r\n    }\r\n\r\n    function changeStakingReward(uint256 _reward) public onlyOwner returns (bool) {\r\n        require(_reward <= (50.mul(10.pow(16)))); //.5 wXEQ max\r\n        blockReward = _reward;\r\n    }\r\n\r\n    function getPendingReward(address _user) public view returns (uint256) {\r\n        UserInfo storage user = userInfo[_user];\r\n        if (user.amount == 0) {\r\n            return 0;\r\n        }\r\n        uint256 user_time = block.number - user.stakingBlock;\r\n        uint256 baseReward = user.amount.mul(10.pow(18)).div(totalStaked).mul(blockReward);\r\n\r\n        return baseReward.mul(user_time).div(1e18);\r\n    }\r\n\r\n    function getFeeReward(address _user) public view returns (uint256) {\r\n        UserInfo storage user = userInfo[_user];\r\n        if (user.amount == 0) {\r\n            return 0;\r\n        }\r\n        uint256 user_time = block.number - user.stakingBlock;\r\n        uint256 fees = dataStorage.balanceOf(address(this));\r\n        uint256 my_fees = user.amount.mul(10.pow(18)).div(totalStaked).mul(fees);\r\n\r\n        if (user_time <= 6520.mul(3)) {\r\n            my_fees = 0;\r\n        }\r\n        return my_fees.div(1e18);\r\n    }\r\n\r\n    function enter(uint256 _amount) public {\r\n        require(dataStorage.balanceOf(msg.sender) >= _amount);\r\n        require(dataStorage.allowance(msg.sender, address(this)) >= _amount);\r\n        require(msg.sender != address(0));\r\n\r\n        wXEQContract._burnFrom(msg.sender, _amount);\r\n        totalStaked = totalStaked.add(_amount);\r\n        UserInfo storage user = userInfo[msg.sender];\r\n        user.amount = user.amount.add(_amount);\r\n\r\n        if (user.stakingBlock == 0)  {\r\n            user.stakingBlock = block.number;\r\n        }\r\n\r\n        emit Enter(msg.sender, _amount);\r\n    }\r\n\r\n    function leave(uint256 _amount) public {\r\n        UserInfo storage user = userInfo[msg.sender];\r\n        require(user.amount > 0);\r\n        \r\n        uint256 base_reward = getPendingReward(msg.sender);\r\n        uint256 fee_reward = getFeeReward(msg.sender);\r\n        uint256 withdrawAmount = _amount.add(base_reward);\r\n        \r\n        user.amount = user.amount.sub(_amount);\r\n        user.stakingBlock = 0;\r\n        totalStaked = totalStaked.sub(_amount);\r\n        wXEQContract.mint(msg.sender, withdrawAmount);\r\n        if (fee_reward > 0) {\r\n            require(dataStorage.balanceOf(address(this)) >= fee_reward);\r\n            wXEQContract.transfer(msg.sender, fee_reward);\r\n        }\r\n        emit Leave(msg.sender, withdrawAmount);\r\n    }\r\n\r\n    function withdrawRewards() public {\r\n        UserInfo storage user = userInfo[msg.sender];\r\n        require(user.amount > 0);\r\n        uint256 base_reward = getPendingReward(msg.sender);\r\n        uint256 fee_reward = getFeeReward(msg.sender);\r\n        require(base_reward > 0);\r\n        user.stakingBlock = block.number;\r\n        wXEQContract.mint(msg.sender, base_reward);\r\n        if (fee_reward > 0) {\r\n            wXEQContract.transfer(msg.sender, fee_reward);\r\n        }\r\n        emit WithdrawRewards(msg.sender, base_reward.add(fee_reward));\r\n    }\r\n\r\n}\r\n\r\n// todo - finish staking validation - soft staking - node staking rewards after input - staking pool - staking multiplier",
  "sourcePath": "C:\\Users\\harri\\OneDrive\\Documents\\EquilibriaWagers\\eth-equilibria\\truffle\\contracts\\wXEQStaking.sol",
  "compiler": {
    "name": "solc",
    "version": "0.7.6+commit.7338295f.Emscripten.clang"
  },
  "schemaVersion": "3.3.3",
  "updatedAt": "2021-01-10T11:55:45.647Z",
  "networkType": "ethereum",
  "devdoc": {
    "kind": "dev",
    "methods": {},
    "version": 1
  },
  "userdoc": {
    "kind": "user",
    "methods": {},
    "version": 1
  }
}