{
  "contractName": "SoftStaking",
  "abi": [
    {
      "inputs": [
        {
          "internalType": "address",
          "name": "_wxeq",
          "type": "address"
        },
        {
          "internalType": "address",
          "name": "_dataStorage",
          "type": "address"
        },
        {
          "internalType": "address",
          "name": "_master",
          "type": "address"
        }
      ],
      "stateMutability": "nonpayable",
      "type": "constructor"
    },
    {
      "anonymous": false,
      "inputs": [
        {
          "indexed": true,
          "internalType": "address",
          "name": "user",
          "type": "address"
        },
        {
          "indexed": false,
          "internalType": "uint256",
          "name": "amount",
          "type": "uint256"
        }
      ],
      "name": "Enter",
      "type": "event"
    },
    {
      "anonymous": false,
      "inputs": [
        {
          "indexed": true,
          "internalType": "address",
          "name": "user",
          "type": "address"
        },
        {
          "indexed": false,
          "internalType": "uint256",
          "name": "amount",
          "type": "uint256"
        }
      ],
      "name": "Leave",
      "type": "event"
    },
    {
      "anonymous": false,
      "inputs": [
        {
          "indexed": true,
          "internalType": "address",
          "name": "previousOwner",
          "type": "address"
        },
        {
          "indexed": true,
          "internalType": "address",
          "name": "newOwner",
          "type": "address"
        }
      ],
      "name": "OwnershipTransferred",
      "type": "event"
    },
    {
      "anonymous": false,
      "inputs": [
        {
          "indexed": true,
          "internalType": "address",
          "name": "user",
          "type": "address"
        },
        {
          "indexed": false,
          "internalType": "uint256",
          "name": "amount",
          "type": "uint256"
        }
      ],
      "name": "WithdrawRewards",
      "type": "event"
    },
    {
      "inputs": [],
      "name": "blockReward",
      "outputs": [
        {
          "internalType": "uint256",
          "name": "",
          "type": "uint256"
        }
      ],
      "stateMutability": "view",
      "type": "function"
    },
    {
      "inputs": [],
      "name": "contractCreator",
      "outputs": [
        {
          "internalType": "address",
          "name": "",
          "type": "address"
        }
      ],
      "stateMutability": "view",
      "type": "function"
    },
    {
      "inputs": [],
      "name": "dataStorage",
      "outputs": [
        {
          "internalType": "contract DataStorage",
          "name": "",
          "type": "address"
        }
      ],
      "stateMutability": "view",
      "type": "function"
    },
    {
      "inputs": [],
      "name": "owner",
      "outputs": [
        {
          "internalType": "address",
          "name": "",
          "type": "address"
        }
      ],
      "stateMutability": "view",
      "type": "function"
    },
    {
      "inputs": [],
      "name": "renounceOwnership",
      "outputs": [],
      "stateMutability": "nonpayable",
      "type": "function"
    },
    {
      "inputs": [],
      "name": "totalStaked",
      "outputs": [
        {
          "internalType": "uint256",
          "name": "",
          "type": "uint256"
        }
      ],
      "stateMutability": "view",
      "type": "function"
    },
    {
      "inputs": [
        {
          "internalType": "address",
          "name": "newOwner",
          "type": "address"
        }
      ],
      "name": "transferOwnership",
      "outputs": [],
      "stateMutability": "nonpayable",
      "type": "function"
    },
    {
      "inputs": [
        {
          "internalType": "address",
          "name": "",
          "type": "address"
        }
      ],
      "name": "userInfo",
      "outputs": [
        {
          "internalType": "uint256",
          "name": "amount",
          "type": "uint256"
        },
        {
          "internalType": "uint256",
          "name": "stakingBlock",
          "type": "uint256"
        }
      ],
      "stateMutability": "view",
      "type": "function"
    },
    {
      "inputs": [],
      "name": "wXEQContract",
      "outputs": [
        {
          "internalType": "contract wXEQ",
          "name": "",
          "type": "address"
        }
      ],
      "stateMutability": "view",
      "type": "function"
    },
    {
      "inputs": [
        {
          "internalType": "uint256",
          "name": "_reward",
          "type": "uint256"
        }
      ],
      "name": "changeStakingReward",
      "outputs": [
        {
          "internalType": "bool",
          "name": "",
          "type": "bool"
        }
      ],
      "stateMutability": "nonpayable",
      "type": "function"
    },
    {
      "inputs": [
        {
          "internalType": "address",
          "name": "_user",
          "type": "address"
        }
      ],
      "name": "getPendingReward",
      "outputs": [
        {
          "internalType": "uint256",
          "name": "",
          "type": "uint256"
        }
      ],
      "stateMutability": "view",
      "type": "function"
    },
    {
      "inputs": [
        {
          "internalType": "address",
          "name": "_user",
          "type": "address"
        }
      ],
      "name": "getFeeReward",
      "outputs": [
        {
          "internalType": "uint256",
          "name": "",
          "type": "uint256"
        }
      ],
      "stateMutability": "view",
      "type": "function"
    },
    {
      "inputs": [
        {
          "internalType": "uint256",
          "name": "_amount",
          "type": "uint256"
        }
      ],
      "name": "enter",
      "outputs": [],
      "stateMutability": "nonpayable",
      "type": "function"
    },
    {
      "inputs": [
        {
          "internalType": "uint256",
          "name": "_amount",
          "type": "uint256"
        }
      ],
      "name": "leave",
      "outputs": [],
      "stateMutability": "nonpayable",
      "type": "function"
    },
    {
      "inputs": [],
      "name": "withdrawRewards",
      "outputs": [],
      "stateMutability": "nonpayable",
      "type": "function"
    }
  ],
  "bytecode": "0x60806040523480156200001157600080fd5b5060405162001def38038062001def833981810160405260608110156200003757600080fd5b8101908080519060200190929190805190602001909291908051906020019092919050505060006200007762000249640100000000026401000000009004565b9050806000806101000a81548173ffffffffffffffffffffffffffffffffffffffff021916908373ffffffffffffffffffffffffffffffffffffffff16021790555033600160006101000a81548173ffffffffffffffffffffffffffffffffffffffff021916908373ffffffffffffffffffffffffffffffffffffffff1602179055508073ffffffffffffffffffffffffffffffffffffffff16600073ffffffffffffffffffffffffffffffffffffffff167f8be0079c531659141344cd1fd0a4f28419497f9722a3daafe3b4186f6b6457e060405160405180910390a35082600360006101000a81548173ffffffffffffffffffffffffffffffffffffffff021916908373ffffffffffffffffffffffffffffffffffffffff16021790555081600260006101000a81548173ffffffffffffffffffffffffffffffffffffffff021916908373ffffffffffffffffffffffffffffffffffffffff16021790555062000220620002016010600a6200025164010000000002620016f6179091906401000000009004565b600b620002e76401000000000262001772179091906401000000009004565b600481905550620002408162000325640100000000026401000000009004565b50505062000544565b600033905090565b600080821415620002665760019050620002e1565b60018214156200027957829050620002e1565b6000831480156200028b575060008214155b156200029b5760009050620002e1565b60008390506000600190505b83811015620002db57620002cb8286620002e7640100000000026401000000009004565b91508080600101915050620002a7565b50809150505b92915050565b600080831415620002fc57600090506200031f565b60008284029050828482816200030e57fe5b04146200031a57600080fd5b809150505b92915050565b6200033e62000249640100000000026401000000009004565b73ffffffffffffffffffffffffffffffffffffffff1660008054906101000a900473ffffffffffffffffffffffffffffffffffffffff1673ffffffffffffffffffffffffffffffffffffffff1614620003ff576040517f08c379a00000000000000000000000000000000000000000000000000000000081526004018080602001828103825260208152602001807f4f776e61626c653a2063616c6c6572206973206e6f7420746865206f776e657281525060200191505060405180910390fd5b600073ffffffffffffffffffffffffffffffffffffffff168173ffffffffffffffffffffffffffffffffffffffff16141562000487576040517f08c379a000000000000000000000000000000000000000000000000000000000815260040180806020018281038252602681526020018062001dc96026913960400191505060405180910390fd5b8073ffffffffffffffffffffffffffffffffffffffff1660008054906101000a900473ffffffffffffffffffffffffffffffffffffffff1673ffffffffffffffffffffffffffffffffffffffff167f8be0079c531659141344cd1fd0a4f28419497f9722a3daafe3b4186f6b6457e060405160405180910390a3806000806101000a81548173ffffffffffffffffffffffffffffffffffffffff021916908373ffffffffffffffffffffffffffffffffffffffff16021790555050565b61187580620005546000396000f3fe608060405234801561001057600080fd5b5060043610610112576000357c010000000000000000000000000000000000000000000000000000000090048063817b1cd2116100b4578063a59f3e0c11610083578063a59f3e0c14610356578063c7b8981c14610384578063d80549f71461038e578063f2fde38b146103e657610112565b8063817b1cd21461028c5780638870455f146102aa5780638da5cb5b146102de578063a552b7341461031257610112565b80632b2be647116100f05780632b2be647146101c85780634df9d6ba146101fc57806367dfd4c914610254578063715018a61461028257610112565b80630ac168a1146101175780631959a002146101355780631e2f73b114610194575b600080fd5b61011f61042a565b6040518082815260200191505060405180910390f35b6101776004803603602081101561014b57600080fd5b81019080803573ffffffffffffffffffffffffffffffffffffffff169060200190929190505050610430565b604051808381526020018281526020019250505060405180910390f35b61019c610454565b604051808273ffffffffffffffffffffffffffffffffffffffff16815260200191505060405180910390f35b6101d061047a565b604051808273ffffffffffffffffffffffffffffffffffffffff16815260200191505060405180910390f35b61023e6004803603602081101561021257600080fd5b81019080803573ffffffffffffffffffffffffffffffffffffffff1690602001909291905050506104a0565b6040518082815260200191505060405180910390f35b6102806004803603602081101561026a57600080fd5b8101908080359060200190929190505050610595565b005b61028a61095b565b005b610294610b23565b6040518082815260200191505060405180910390f35b6102b2610b29565b604051808273ffffffffffffffffffffffffffffffffffffffff16815260200191505060405180910390f35b6102e6610b4f565b604051808273ffffffffffffffffffffffffffffffffffffffff16815260200191505060405180910390f35b61033e6004803603602081101561032857600080fd5b8101908080359060200190929190505050610b78565b60405180821515815260200191505060405180910390f35b6103826004803603602081101561036c57600080fd5b8101908080359060200190929190505050610c82565b005b61038c61105f565b005b6103d0600480360360208110156103a457600080fd5b81019080803573ffffffffffffffffffffffffffffffffffffffff169060200190929190505050611304565b6040518082815260200191505060405180910390f35b610428600480360360208110156103fc57600080fd5b81019080803573ffffffffffffffffffffffffffffffffffffffff1690602001909291905050506114eb565b005b60045481565b60066020528060005260406000206000915090508060000154908060010154905082565b600160009054906101000a900473ffffffffffffffffffffffffffffffffffffffff1681565b600360009054906101000a900473ffffffffffffffffffffffffffffffffffffffff1681565b600080600660008473ffffffffffffffffffffffffffffffffffffffff1673ffffffffffffffffffffffffffffffffffffffff16815260200190815260200160002090506000816000015414156104fb576000915050610590565b6000816001015443039050600061055b60045461054d60055461053f61052c6012600a6116f690919063ffffffff16565b886000015461177290919063ffffffff16565b6117ac90919063ffffffff16565b61177290919063ffffffff16565b905061058a670de0b6b3a764000061057c848461177290919063ffffffff16565b6117ac90919063ffffffff16565b93505050505b919050565b6000600660003373ffffffffffffffffffffffffffffffffffffffff1673ffffffffffffffffffffffffffffffffffffffff168152602001908152602001600020905060008160000154116105e957600080fd5b60006105f4336104a0565b9050600061060133611304565b9050600061061883866117d290919063ffffffff16565b90506106318585600001546117f190919063ffffffff16565b846000018190555060008460010181905550610658856005546117f190919063ffffffff16565b600581905550600360009054906101000a900473ffffffffffffffffffffffffffffffffffffffff1673ffffffffffffffffffffffffffffffffffffffff166340c10f1933836040518363ffffffff167c0100000000000000000000000000000000000000000000000000000000028152600401808373ffffffffffffffffffffffffffffffffffffffff16815260200182815260200192505050600060405180830381600087803b15801561070d57600080fd5b505af1158015610721573d6000803e3d6000fd5b5050505060008211156109065781600260009054906101000a900473ffffffffffffffffffffffffffffffffffffffff1673ffffffffffffffffffffffffffffffffffffffff166370a08231306040518263ffffffff167c0100000000000000000000000000000000000000000000000000000000028152600401808273ffffffffffffffffffffffffffffffffffffffff16815260200191505060206040518083038186803b1580156107d457600080fd5b505afa1580156107e8573d6000803e3d6000fd5b505050506040513d60208110156107fe57600080fd5b8101908080519060200190929190505050101561081a57600080fd5b600360009054906101000a900473ffffffffffffffffffffffffffffffffffffffff1673ffffffffffffffffffffffffffffffffffffffff1663a9059cbb33846040518363ffffffff167c0100000000000000000000000000000000000000000000000000000000028152600401808373ffffffffffffffffffffffffffffffffffffffff16815260200182815260200192505050602060405180830381600087803b1580156108c957600080fd5b505af11580156108dd573d6000803e3d6000fd5b505050506040513d60208110156108f357600080fd5b8101908080519060200190929190505050505b3373ffffffffffffffffffffffffffffffffffffffff167f61a26f7c17d8780c095ccfa67e689a13ee4e06ddce3da18956369f4a396100e8826040518082815260200191505060405180910390a25050505050565b610963611811565b73ffffffffffffffffffffffffffffffffffffffff1660008054906101000a900473ffffffffffffffffffffffffffffffffffffffff1673ffffffffffffffffffffffffffffffffffffffff1614610a23576040517f08c379a00000000000000000000000000000000000000000000000000000000081526004018080602001828103825260208152602001807f4f776e61626c653a2063616c6c6572206973206e6f7420746865206f776e657281525060200191505060405180910390fd5b600160009054906101000a900473ffffffffffffffffffffffffffffffffffffffff1673ffffffffffffffffffffffffffffffffffffffff1660008054906101000a900473ffffffffffffffffffffffffffffffffffffffff1673ffffffffffffffffffffffffffffffffffffffff167f8be0079c531659141344cd1fd0a4f28419497f9722a3daafe3b4186f6b6457e060405160405180910390a3600160009054906101000a900473ffffffffffffffffffffffffffffffffffffffff166000806101000a81548173ffffffffffffffffffffffffffffffffffffffff021916908373ffffffffffffffffffffffffffffffffffffffff160217905550565b60055481565b600260009054906101000a900473ffffffffffffffffffffffffffffffffffffffff1681565b60008060009054906101000a900473ffffffffffffffffffffffffffffffffffffffff16905090565b6000610b82611811565b73ffffffffffffffffffffffffffffffffffffffff1660008054906101000a900473ffffffffffffffffffffffffffffffffffffffff1673ffffffffffffffffffffffffffffffffffffffff1614610c42576040517f08c379a00000000000000000000000000000000000000000000000000000000081526004018080602001828103825260208152602001807f4f776e61626c653a2063616c6c6572206973206e6f7420746865206f776e657281525060200191505060405180910390fd5b610c6a610c5a6010600a6116f690919063ffffffff16565b603261177290919063ffffffff16565b821115610c7657600080fd5b81600481905550919050565b80600260009054906101000a900473ffffffffffffffffffffffffffffffffffffffff1673ffffffffffffffffffffffffffffffffffffffff166370a08231336040518263ffffffff167c0100000000000000000000000000000000000000000000000000000000028152600401808273ffffffffffffffffffffffffffffffffffffffff16815260200191505060206040518083038186803b158015610d2857600080fd5b505afa158015610d3c573d6000803e3d6000fd5b505050506040513d6020811015610d5257600080fd5b81019080805190602001909291905050501015610d6e57600080fd5b80600260009054906101000a900473ffffffffffffffffffffffffffffffffffffffff1673ffffffffffffffffffffffffffffffffffffffff1663dd62ed3e33306040518363ffffffff167c0100000000000000000000000000000000000000000000000000000000028152600401808373ffffffffffffffffffffffffffffffffffffffff1681526020018273ffffffffffffffffffffffffffffffffffffffff1681526020019250505060206040518083038186803b158015610e3257600080fd5b505afa158015610e46573d6000803e3d6000fd5b505050506040513d6020811015610e5c57600080fd5b81019080805190602001909291905050501015610e7857600080fd5b600073ffffffffffffffffffffffffffffffffffffffff163373ffffffffffffffffffffffffffffffffffffffff161415610eb257600080fd5b600360009054906101000a900473ffffffffffffffffffffffffffffffffffffffff1673ffffffffffffffffffffffffffffffffffffffff1663a22b35ce33836040518363ffffffff167c0100000000000000000000000000000000000000000000000000000000028152600401808373ffffffffffffffffffffffffffffffffffffffff16815260200182815260200192505050600060405180830381600087803b158015610f6157600080fd5b505af1158015610f75573d6000803e3d6000fd5b50505050610f8e816005546117d290919063ffffffff16565b6005819055506000600660003373ffffffffffffffffffffffffffffffffffffffff1673ffffffffffffffffffffffffffffffffffffffff1681526020019081526020016000209050610fee8282600001546117d290919063ffffffff16565b816000018190555060008160010154141561100d574381600101819055505b3373ffffffffffffffffffffffffffffffffffffffff167f1fb48929215fc354244acea33112720ce5b7ba6912db70bb0149e77aa7c91ce1836040518082815260200191505060405180910390a25050565b6000600660003373ffffffffffffffffffffffffffffffffffffffff1673ffffffffffffffffffffffffffffffffffffffff168152602001908152602001600020905060008160000154116110b357600080fd5b60006110be336104a0565b905060006110cb33611304565b9050600082116110da57600080fd5b438360010181905550600360009054906101000a900473ffffffffffffffffffffffffffffffffffffffff1673ffffffffffffffffffffffffffffffffffffffff166340c10f1933846040518363ffffffff167c0100000000000000000000000000000000000000000000000000000000028152600401808373ffffffffffffffffffffffffffffffffffffffff16815260200182815260200192505050600060405180830381600087803b15801561119257600080fd5b505af11580156111a6573d6000803e3d6000fd5b50505050600081111561129f57600360009054906101000a900473ffffffffffffffffffffffffffffffffffffffff1673ffffffffffffffffffffffffffffffffffffffff1663a9059cbb33836040518363ffffffff167c0100000000000000000000000000000000000000000000000000000000028152600401808373ffffffffffffffffffffffffffffffffffffffff16815260200182815260200192505050602060405180830381600087803b15801561126257600080fd5b505af1158015611276573d6000803e3d6000fd5b505050506040513d602081101561128c57600080fd5b8101908080519060200190929190505050505b3373ffffffffffffffffffffffffffffffffffffffff167faa1377f7ec93c239e959efa811f7b8554c036fd7a706c23e58024626a8f3db966112ea83856117d290919063ffffffff16565b6040518082815260200191505060405180910390a2505050565b600080600660008473ffffffffffffffffffffffffffffffffffffffff1673ffffffffffffffffffffffffffffffffffffffff168152602001908152602001600020905060008160000154141561135f5760009150506114e6565b60008160010154430390506000600260009054906101000a900473ffffffffffffffffffffffffffffffffffffffff1673ffffffffffffffffffffffffffffffffffffffff166370a08231306040518263ffffffff167c0100000000000000000000000000000000000000000000000000000000028152600401808273ffffffffffffffffffffffffffffffffffffffff16815260200191505060206040518083038186803b15801561141157600080fd5b505afa158015611425573d6000803e3d6000fd5b505050506040513d602081101561143b57600080fd5b8101908080519060200190929190505050905060006114a1826114936005546114856114726012600a6116f690919063ffffffff16565b896000015461177290919063ffffffff16565b6117ac90919063ffffffff16565b61177290919063ffffffff16565b90506114b9600361197861177290919063ffffffff16565b83116114c457600090505b6114df670de0b6b3a7640000826117ac90919063ffffffff16565b9450505050505b919050565b6114f3611811565b73ffffffffffffffffffffffffffffffffffffffff1660008054906101000a900473ffffffffffffffffffffffffffffffffffffffff1673ffffffffffffffffffffffffffffffffffffffff16146115b3576040517f08c379a00000000000000000000000000000000000000000000000000000000081526004018080602001828103825260208152602001807f4f776e61626c653a2063616c6c6572206973206e6f7420746865206f776e657281525060200191505060405180910390fd5b600073ffffffffffffffffffffffffffffffffffffffff168173ffffffffffffffffffffffffffffffffffffffff161415611639576040517f08c379a000000000000000000000000000000000000000000000000000000000815260040180806020018281038252602681526020018061181a6026913960400191505060405180910390fd5b8073ffffffffffffffffffffffffffffffffffffffff1660008054906101000a900473ffffffffffffffffffffffffffffffffffffffff1673ffffffffffffffffffffffffffffffffffffffff167f8be0079c531659141344cd1fd0a4f28419497f9722a3daafe3b4186f6b6457e060405160405180910390a3806000806101000a81548173ffffffffffffffffffffffffffffffffffffffff021916908373ffffffffffffffffffffffffffffffffffffffff16021790555050565b600080821415611709576001905061176c565b600182141561171a5782905061176c565b60008314801561172b575060008214155b15611739576000905061176c565b60008390506000600190505b83811015611766576117578286611772565b91508080600101915050611745565b50809150505b92915050565b60008083141561178557600090506117a6565b600082840290508284828161179657fe5b04146117a157600080fd5b809150505b92915050565b60008082116117ba57600080fd5b60008284816117c557fe5b0490508091505092915050565b6000808284019050838110156117e757600080fd5b8091505092915050565b60008282111561180057600080fd5b600082840390508091505092915050565b60003390509056fe4f776e61626c653a206e6577206f776e657220697320746865207a65726f2061646472657373a2646970667358221220d5f9bcf995d1f0184a7dd04c74a67c59e9314e11654a4a0b58bbccced06b98c764736f6c634300070600334f776e61626c653a206e6577206f776e657220697320746865207a65726f2061646472657373",
  "immutableReferences": {},
  "source": "pragma solidity >=0.4.22 <0.8.0;\r\n\r\nimport \"./tools/Ownable.sol\";\r\nimport \"./tools/SafeMath.sol\";\r\nimport \"./tools/DataStorage.sol\";\r\nimport \"./wXEQ.sol\";\r\n\r\ncontract SoftStaking is Ownable {\r\n    \r\n    using SafeMath for *;\r\n    DataStorage public dataStorage;\r\n    wXEQ public wXEQContract;\r\n    event Enter(address indexed user, uint256 amount);\r\n    event Leave(address indexed user, uint256 amount);\r\n    event WithdrawRewards(address indexed user, uint256 amount);\r\n\r\n    struct UserInfo {\r\n        uint256 amount;\r\n        uint256 stakingBlock;\r\n    }\r\n\r\n    uint256 public blockReward;\r\n\r\n    uint256 public totalStaked;\r\n\r\n    mapping (address => UserInfo) public userInfo;\r\n\r\n    constructor(address _wxeq, address _dataStorage, address _master) public {\r\n\r\n        wXEQContract = wXEQ(_wxeq);\r\n        dataStorage = DataStorage(_dataStorage);\r\n        blockReward = (11.mul(10.pow(16)));  // .11 wXEQ per block\r\n        transferOwnership(_master);\r\n    }\r\n\r\n    function changeStakingReward(uint256 _reward) public onlyOwner returns (bool) {\r\n        require(_reward <= (50.mul(10.pow(16)))); //.5 wXEQ max\r\n        blockReward = _reward;\r\n    }\r\n\r\n    function getPendingReward(address _user) public view returns (uint256) {\r\n        UserInfo storage user = userInfo[_user];\r\n        if (user.amount == 0) {\r\n            return 0;\r\n        }\r\n        uint256 user_time = block.number - user.stakingBlock;\r\n        uint256 baseReward = user.amount.mul(10.pow(18)).div(totalStaked).mul(blockReward);\r\n\r\n        return baseReward.mul(user_time).div(1e18);\r\n    }\r\n\r\n    function getFeeReward(address _user) public view returns (uint256) {\r\n        UserInfo storage user = userInfo[_user];\r\n        if (user.amount == 0) {\r\n            return 0;\r\n        }\r\n        uint256 user_time = block.number - user.stakingBlock;\r\n        uint256 fees = dataStorage.balanceOf(address(this));\r\n        uint256 my_fees = user.amount.mul(10.pow(18)).div(totalStaked).mul(fees);\r\n\r\n        if (user_time <= 6520.mul(3)) {\r\n            my_fees = 0;\r\n        }\r\n        return my_fees.div(1e18);\r\n    }\r\n\r\n    function enter(uint256 _amount) public {\r\n        require(dataStorage.balanceOf(msg.sender) >= _amount);\r\n        require(dataStorage.allowance(msg.sender, address(this)) >= _amount);\r\n        require(msg.sender != address(0));\r\n\r\n        wXEQContract._burnFrom(msg.sender, _amount);\r\n        totalStaked = totalStaked.add(_amount);\r\n        UserInfo storage user = userInfo[msg.sender];\r\n        user.amount = user.amount.add(_amount);\r\n\r\n        if (user.stakingBlock == 0)  {\r\n            user.stakingBlock = block.number;\r\n        }\r\n\r\n        emit Enter(msg.sender, _amount);\r\n    }\r\n\r\n    function leave(uint256 _amount) public {\r\n        UserInfo storage user = userInfo[msg.sender];\r\n        require(user.amount > 0);\r\n        \r\n        uint256 base_reward = getPendingReward(msg.sender);\r\n        uint256 fee_reward = getFeeReward(msg.sender);\r\n        uint256 withdrawAmount = _amount.add(base_reward);\r\n        \r\n        user.amount = user.amount.sub(_amount);\r\n        user.stakingBlock = 0;\r\n        totalStaked = totalStaked.sub(_amount);\r\n        wXEQContract.mint(msg.sender, withdrawAmount);\r\n        if (fee_reward > 0) {\r\n            require(dataStorage.balanceOf(address(this)) >= fee_reward);\r\n            wXEQContract.transfer(msg.sender, fee_reward);\r\n        }\r\n        emit Leave(msg.sender, withdrawAmount);\r\n    }\r\n\r\n    function withdrawRewards() public {\r\n        UserInfo storage user = userInfo[msg.sender];\r\n        require(user.amount > 0);\r\n        uint256 base_reward = getPendingReward(msg.sender);\r\n        uint256 fee_reward = getFeeReward(msg.sender);\r\n        require(base_reward > 0);\r\n        user.stakingBlock = block.number;\r\n        wXEQContract.mint(msg.sender, base_reward);\r\n        if (fee_reward > 0) {\r\n            wXEQContract.transfer(msg.sender, fee_reward);\r\n        }\r\n        emit WithdrawRewards(msg.sender, base_reward.add(fee_reward));\r\n    }\r\n\r\n}\r\n\r\n// todo - finish staking validation - soft staking - node staking rewards after input - staking pool - staking multiplier",
  "sourcePath": "C:/Users/Thomas/WebstormProjects/eth-equilibria/truffle/contracts/wXEQStaking.sol",
  "compiler": {
    "name": "solc",
    "version": "0.7.6+commit.7338295f.Emscripten.clang"
  },
  "schemaVersion": "3.3.4",
  "updatedAt": "2021-03-13T06:50:28.147Z",
  "devdoc": {
    "kind": "dev",
    "methods": {},
    "version": 1
  },
  "userdoc": {
    "kind": "user",
    "methods": {},
    "version": 1
  }
}