{
  "contractName": "SoftStaking",
  "abi": [
    {
      "inputs": [
        {
          "internalType": "address",
          "name": "d",
          "type": "address"
        },
        {
          "internalType": "address",
          "name": "s",
          "type": "address"
        }
      ],
      "stateMutability": "nonpayable",
      "type": "constructor"
    },
    {
      "anonymous": false,
      "inputs": [
        {
          "indexed": false,
          "internalType": "uint256",
          "name": "bal",
          "type": "uint256"
        }
      ],
      "name": "Bal",
      "type": "event"
    },
    {
      "anonymous": false,
      "inputs": [
        {
          "indexed": true,
          "internalType": "address",
          "name": "from",
          "type": "address"
        },
        {
          "indexed": false,
          "internalType": "uint256",
          "name": "payout",
          "type": "uint256"
        },
        {
          "indexed": false,
          "internalType": "uint256",
          "name": "block",
          "type": "uint256"
        },
        {
          "indexed": false,
          "internalType": "uint256",
          "name": "poolSize",
          "type": "uint256"
        }
      ],
      "name": "NewPayout",
      "type": "event"
    },
    {
      "inputs": [],
      "name": "dailyPool",
      "outputs": [
        {
          "internalType": "uint256",
          "name": "",
          "type": "uint256"
        }
      ],
      "stateMutability": "view",
      "type": "function"
    },
    {
      "inputs": [],
      "name": "dataStorage",
      "outputs": [
        {
          "internalType": "contract DataStorage",
          "name": "",
          "type": "address"
        }
      ],
      "stateMutability": "view",
      "type": "function"
    },
    {
      "inputs": [],
      "name": "lastPayoutBlock",
      "outputs": [
        {
          "internalType": "uint256",
          "name": "",
          "type": "uint256"
        }
      ],
      "stateMutability": "view",
      "type": "function"
    },
    {
      "inputs": [],
      "name": "lastPoolRefresh",
      "outputs": [
        {
          "internalType": "uint256",
          "name": "",
          "type": "uint256"
        }
      ],
      "stateMutability": "view",
      "type": "function"
    },
    {
      "inputs": [],
      "name": "maxPayouts",
      "outputs": [
        {
          "internalType": "uint256",
          "name": "",
          "type": "uint256"
        }
      ],
      "stateMutability": "view",
      "type": "function"
    },
    {
      "inputs": [],
      "name": "numberOfPoolStakers",
      "outputs": [
        {
          "internalType": "uint256",
          "name": "",
          "type": "uint256"
        }
      ],
      "stateMutability": "view",
      "type": "function"
    },
    {
      "inputs": [],
      "name": "numberOfStakes",
      "outputs": [
        {
          "internalType": "uint256",
          "name": "",
          "type": "uint256"
        }
      ],
      "stateMutability": "view",
      "type": "function"
    },
    {
      "inputs": [
        {
          "internalType": "uint256",
          "name": "",
          "type": "uint256"
        }
      ],
      "name": "payouts",
      "outputs": [
        {
          "internalType": "uint256",
          "name": "",
          "type": "uint256"
        }
      ],
      "stateMutability": "view",
      "type": "function"
    },
    {
      "inputs": [
        {
          "internalType": "uint256",
          "name": "",
          "type": "uint256"
        }
      ],
      "name": "stakeholders",
      "outputs": [
        {
          "internalType": "address",
          "name": "",
          "type": "address"
        }
      ],
      "stateMutability": "view",
      "type": "function"
    },
    {
      "inputs": [],
      "name": "totalMinted",
      "outputs": [
        {
          "internalType": "uint256",
          "name": "",
          "type": "uint256"
        }
      ],
      "stateMutability": "view",
      "type": "function"
    },
    {
      "inputs": [],
      "name": "totalStaked",
      "outputs": [
        {
          "internalType": "uint256",
          "name": "",
          "type": "uint256"
        }
      ],
      "stateMutability": "view",
      "type": "function"
    },
    {
      "inputs": [],
      "name": "wXEQContract",
      "outputs": [
        {
          "internalType": "contract wXEQ",
          "name": "",
          "type": "address"
        }
      ],
      "stateMutability": "view",
      "type": "function"
    },
    {
      "inputs": [],
      "name": "checkPayout",
      "outputs": [],
      "stateMutability": "nonpayable",
      "type": "function"
    },
    {
      "inputs": [
        {
          "internalType": "uint256",
          "name": "amount",
          "type": "uint256"
        }
      ],
      "name": "addStake",
      "outputs": [
        {
          "internalType": "bool",
          "name": "",
          "type": "bool"
        }
      ],
      "stateMutability": "nonpayable",
      "type": "function"
    },
    {
      "inputs": [
        {
          "internalType": "uint256",
          "name": "amount",
          "type": "uint256"
        }
      ],
      "name": "removeStake",
      "outputs": [
        {
          "internalType": "bool",
          "name": "",
          "type": "bool"
        }
      ],
      "stateMutability": "nonpayable",
      "type": "function"
    },
    {
      "inputs": [],
      "name": "withdrawRewards",
      "outputs": [
        {
          "internalType": "uint256",
          "name": "",
          "type": "uint256"
        }
      ],
      "stateMutability": "nonpayable",
      "type": "function"
    },
    {
      "inputs": [
        {
          "internalType": "address",
          "name": "addy",
          "type": "address"
        }
      ],
      "name": "pendingRewards",
      "outputs": [
        {
          "internalType": "uint256",
          "name": "",
          "type": "uint256"
        }
      ],
      "stateMutability": "view",
      "type": "function"
    },
    {
      "inputs": [],
      "name": "checkArrays",
      "outputs": [
        {
          "internalType": "uint256",
          "name": "",
          "type": "uint256"
        },
        {
          "internalType": "uint256",
          "name": "",
          "type": "uint256"
        },
        {
          "internalType": "uint256",
          "name": "",
          "type": "uint256"
        }
      ],
      "stateMutability": "view",
      "type": "function"
    },
    {
      "inputs": [
        {
          "internalType": "address",
          "name": "addy",
          "type": "address"
        }
      ],
      "name": "getStake",
      "outputs": [
        {
          "internalType": "uint256",
          "name": "",
          "type": "uint256"
        }
      ],
      "stateMutability": "view",
      "type": "function"
    },
    {
      "inputs": [],
      "name": "totalAmountStaked",
      "outputs": [
        {
          "internalType": "uint256",
          "name": "",
          "type": "uint256"
        }
      ],
      "stateMutability": "view",
      "type": "function"
    },
    {
      "inputs": [
        {
          "internalType": "address",
          "name": "addy",
          "type": "address"
        }
      ],
      "name": "getLastClaim",
      "outputs": [
        {
          "internalType": "uint256",
          "name": "",
          "type": "uint256"
        },
        {
          "internalType": "uint256",
          "name": "",
          "type": "uint256"
        }
      ],
      "stateMutability": "view",
      "type": "function"
    }
  ],
  "bytecode": "0x608060405234801561001057600080fd5b506040516119343803806119348339818101604052604081101561003357600080fd5b810190808051906020019092919080519060200190929190505050816000806101000a81548173ffffffffffffffffffffffffffffffffffffffff021916908373ffffffffffffffffffffffffffffffffffffffff16021790555080600160006101000a81548173ffffffffffffffffffffffffffffffffffffffff021916908373ffffffffffffffffffffffffffffffffffffffff16021790555043600b81905550600060088190555060006009819055506000600d819055506000600e819055506102da600f819055506102d0600a81905550600a601481905550601060009080600181540180825580915050600190039060005260206000200160009091909190915055601260009080600181540180825580915050600190039060005260206000200160009091909190915055601143908060018154018082558091505060019003906000526020600020016000909190919091505550506117968061019e6000396000f3fe608060405234801561001057600080fd5b5060043610610154576000357c010000000000000000000000000000000000000000000000000000000090048063817b1cd2116100d5578063a2a6f65711610099578063a2a6f65714610480578063b145c0131461049e578063c7b8981c146104a8578063de4b8225146104c6578063eb4f16b5146104f2578063fe961f611461053657610154565b8063817b1cd21461036d5780638778f4151461038b5780638870455f146103ea578063939624ab1461041e578063a2309ff81461046257610154565b806331d7a2621161011c57806331d7a26214610263578063339ec34b146102bb5780633ab39dc6146102d95780633d2b1294146102f75780637a7664601461031557610154565b80630d62e327146101595780631d6b8b72146101775780632136e55a146101cf57806329652e86146101ed5780632b2be6471461022f575b600080fd5b610161610554565b6040518082815260200191505060405180910390f35b6101a36004803603602081101561018d57600080fd5b810190808035906020019092919050505061055a565b604051808273ffffffffffffffffffffffffffffffffffffffff16815260200191505060405180910390f35b6101d7610599565b6040518082815260200191505060405180910390f35b6102196004803603602081101561020357600080fd5b810190808035906020019092919050505061059f565b6040518082815260200191505060405180910390f35b6102376105c3565b604051808273ffffffffffffffffffffffffffffffffffffffff16815260200191505060405180910390f35b6102a56004803603602081101561027957600080fd5b81019080803573ffffffffffffffffffffffffffffffffffffffff1690602001909291905050506105e9565b6040518082815260200191505060405180910390f35b6102c3610818565b6040518082815260200191505060405180910390f35b6102e161081e565b6040518082815260200191505060405180910390f35b6102ff610824565b6040518082815260200191505060405180910390f35b6103576004803603602081101561032b57600080fd5b81019080803573ffffffffffffffffffffffffffffffffffffffff16906020019092919050505061082a565b6040518082815260200191505060405180910390f35b610375610873565b6040518082815260200191505060405180910390f35b6103cd600480360360208110156103a157600080fd5b81019080803573ffffffffffffffffffffffffffffffffffffffff169060200190929190505050610879565b604051808381526020018281526020019250505060405180910390f35b6103f26108c6565b604051808273ffffffffffffffffffffffffffffffffffffffff16815260200191505060405180910390f35b61044a6004803603602081101561043457600080fd5b81019080803590602001909291905050506108ea565b60405180821515815260200191505060405180910390f35b61046a610bb3565b6040518082815260200191505060405180910390f35b610488610bb9565b6040518082815260200191505060405180910390f35b6104a6610bbf565b005b6104b0611038565b6040518082815260200191505060405180910390f35b6104ce61116c565b60405180848152602001838152602001828152602001935050505060405180910390f35b61051e6004803603602081101561050857600080fd5b810190808035906020019092919050505061118e565b60405180821515815260200191505060405180910390f35b61053e61163b565b6040518082815260200191505060405180910390f35b60085481565b6002818154811061056a57600080fd5b906000526020600020016000915054906101000a900473ffffffffffffffffffffffffffffffffffffffff1681565b600b5481565b601081815481106105af57600080fd5b906000526020600020016000915090505481565b600160009054906101000a900473ffffffffffffffffffffffffffffffffffffffff1681565b600080600090506000600360008573ffffffffffffffffffffffffffffffffffffffff1673ffffffffffffffffffffffffffffffffffffffff16815260200190815260200160002054141580156106805750601354600460008573ffffffffffffffffffffffffffffffffffffffff1673ffffffffffffffffffffffffffffffffffffffff16815260200190815260200160002054105b1561080e57600060016010805490500390505b600081111561080457600460008573ffffffffffffffffffffffffffffffffffffffff1673ffffffffffffffffffffffffffffffffffffffff16815260200190815260200160002054601182815481106106e957fe5b906000526020600020015411156107f1576107ea6107db61076761074161071b6012600a61164590919063ffffffff16565b6010868154811061072857fe5b90600052602060002001546116c190919063ffffffff16565b6012858154811061074e57fe5b90600052602060002001546116e790919063ffffffff16565b6107cd61077f6012600a61164590919063ffffffff16565b600360008a73ffffffffffffffffffffffffffffffffffffffff1673ffffffffffffffffffffffffffffffffffffffff168152602001908152602001600020546116e790919063ffffffff16565b6116c190919063ffffffff16565b8361172190919063ffffffff16565b91506107f6565b610804565b808060019003915050610693565b5080915050610813565b809150505b919050565b600f5481565b600a5481565b60135481565b6000600360008373ffffffffffffffffffffffffffffffffffffffff1673ffffffffffffffffffffffffffffffffffffffff168152602001908152602001600020549050919050565b600e5481565b600080600460008473ffffffffffffffffffffffffffffffffffffffff1673ffffffffffffffffffffffffffffffffffffffff168152602001908152602001600020544391509150915091565b60008054906101000a900473ffffffffffffffffffffffffffffffffffffffff1681565b6000600360003373ffffffffffffffffffffffffffffffffffffffff1673ffffffffffffffffffffffffffffffffffffffff1681526020019081526020016000205482111561093857600080fd5b610940610bbf565b610948611038565b5043600660003373ffffffffffffffffffffffffffffffffffffffff1673ffffffffffffffffffffffffffffffffffffffff168152602001908152602001600020819055506000600360003373ffffffffffffffffffffffffffffffffffffffff1673ffffffffffffffffffffffffffffffffffffffff168152602001908152602001600020541415610a37576109eb600160095461174090919063ffffffff16565b6009819055506000600460003373ffffffffffffffffffffffffffffffffffffffff1673ffffffffffffffffffffffffffffffffffffffff168152602001908152602001600020819055505b610a8982600360003373ffffffffffffffffffffffffffffffffffffffff1673ffffffffffffffffffffffffffffffffffffffff1681526020019081526020016000205461174090919063ffffffff16565b600360003373ffffffffffffffffffffffffffffffffffffffff1673ffffffffffffffffffffffffffffffffffffffff16815260200190815260200160002081905550610ae182600e5461174090919063ffffffff16565b600e81905550600160009054906101000a900473ffffffffffffffffffffffffffffffffffffffff1673ffffffffffffffffffffffffffffffffffffffff166340c10f1933846040518363ffffffff167c0100000000000000000000000000000000000000000000000000000000028152600401808373ffffffffffffffffffffffffffffffffffffffff16815260200182815260200192505050600060405180830381600087803b158015610b9657600080fd5b505af1158015610baa573d6000803e3d6000fd5b50505050919050565b600d5481565b60095481565b610bd660145460135461172190919063ffffffff16565b431115611036576000610c08610bf76012600a61164590919063ffffffff16565b600a546116e790919063ffffffff16565b905060008060009054906101000a900473ffffffffffffffffffffffffffffffffffffffff1673ffffffffffffffffffffffffffffffffffffffff1663f31524b06040518163ffffffff167c010000000000000000000000000000000000000000000000000000000002815260040160206040518083038186803b158015610c8f57600080fd5b505afa158015610ca3573d6000803e3d6000fd5b505050506040513d6020811015610cb957600080fd5b810190808051906020019092919050505090506000811115610ceb57610ce881836116e790919063ffffffff16565b91505b60008060009054906101000a900473ffffffffffffffffffffffffffffffffffffffff1673ffffffffffffffffffffffffffffffffffffffff166370a08231306040518263ffffffff167c0100000000000000000000000000000000000000000000000000000000028152600401808273ffffffffffffffffffffffffffffffffffffffff16815260200191505060206040518083038186803b158015610d9157600080fd5b505afa158015610da5573d6000803e3d6000fd5b505050506040513d6020811015610dbb57600080fd5b810190808051906020019092919050505090506000811115610f2257610dea818461172190919063ffffffff16565b92507f4cbc68300ba50b79342fe46302ad77a03c12b8e45f659004864ece7d977be40a816040518082815260200191505060405180910390a17f4cbc68300ba50b79342fe46302ad77a03c12b8e45f659004864ece7d977be40a836040518082815260200191505060405180910390a1600160009054906101000a900473ffffffffffffffffffffffffffffffffffffffff1673ffffffffffffffffffffffffffffffffffffffff16636161eb1830836040518363ffffffff167c0100000000000000000000000000000000000000000000000000000000028152600401808373ffffffffffffffffffffffffffffffffffffffff16815260200182815260200192505050600060405180830381600087803b158015610f0957600080fd5b505af1158015610f1d573d6000803e3d6000fd5b505050505b601083908060018154018082558091505060019003906000526020600020016000909190919091505560114390806001815401808255809150506001900390600052602060002001600090919091909150556012600e54908060018154018082558091505060019003906000526020600020016000909190919091505543601381905550600f546010805490501115610fd2576010600081548110610fc357fe5b90600052602060002001600090555b3073ffffffffffffffffffffffffffffffffffffffff167ff3b018817282d2441f16847acdee53a0c3482facf4625adc68a6cbbe8c8c958b8443600e5460405180848152602001838152602001828152602001935050505060405180910390a25050505b565b600080611044336105e9565b90506000811415611059576000915050611169565b43600460003373ffffffffffffffffffffffffffffffffffffffff1673ffffffffffffffffffffffffffffffffffffffff16815260200190815260200160002081905550600160009054906101000a900473ffffffffffffffffffffffffffffffffffffffff1673ffffffffffffffffffffffffffffffffffffffff166340c10f1933836040518363ffffffff167c0100000000000000000000000000000000000000000000000000000000028152600401808373ffffffffffffffffffffffffffffffffffffffff16815260200182815260200192505050600060405180830381600087803b15801561114c57600080fd5b505af1158015611160573d6000803e3d6000fd5b50505050809150505b90565b6000806000601080549050601180549050601280549050925092509250909192565b60008160008054906101000a900473ffffffffffffffffffffffffffffffffffffffff1673ffffffffffffffffffffffffffffffffffffffff166370a08231336040518263ffffffff167c0100000000000000000000000000000000000000000000000000000000028152600401808273ffffffffffffffffffffffffffffffffffffffff16815260200191505060206040518083038186803b15801561123457600080fd5b505afa158015611248573d6000803e3d6000fd5b505050506040513d602081101561125e57600080fd5b8101908080519060200190929190505050101561127a57600080fd5b8160008054906101000a900473ffffffffffffffffffffffffffffffffffffffff1673ffffffffffffffffffffffffffffffffffffffff1663dd62ed3e33306040518363ffffffff167c0100000000000000000000000000000000000000000000000000000000028152600401808373ffffffffffffffffffffffffffffffffffffffff1681526020018273ffffffffffffffffffffffffffffffffffffffff1681526020019250505060206040518083038186803b15801561133c57600080fd5b505afa158015611350573d6000803e3d6000fd5b505050506040513d602081101561136657600080fd5b8101908080519060200190929190505050101561138257600080fd5b600073ffffffffffffffffffffffffffffffffffffffff163373ffffffffffffffffffffffffffffffffffffffff1614156113bc57600080fd5b6000600360003373ffffffffffffffffffffffffffffffffffffffff1673ffffffffffffffffffffffffffffffffffffffff1681526020019081526020016000205414156114255761141a600160095461172190919063ffffffff16565b600981905550611437565b61142d610bbf565b611435611038565b505b43600660003373ffffffffffffffffffffffffffffffffffffffff1673ffffffffffffffffffffffffffffffffffffffff168152602001908152602001600020819055506114cd82600360003373ffffffffffffffffffffffffffffffffffffffff1673ffffffffffffffffffffffffffffffffffffffff1681526020019081526020016000205461172190919063ffffffff16565b600360003373ffffffffffffffffffffffffffffffffffffffff1673ffffffffffffffffffffffffffffffffffffffff1681526020019081526020016000208190555043600460003373ffffffffffffffffffffffffffffffffffffffff1673ffffffffffffffffffffffffffffffffffffffff1681526020019081526020016000208190555061156982600e5461172190919063ffffffff16565b600e81905550600160009054906101000a900473ffffffffffffffffffffffffffffffffffffffff1673ffffffffffffffffffffffffffffffffffffffff1663a22b35ce33846040518363ffffffff167c0100000000000000000000000000000000000000000000000000000000028152600401808373ffffffffffffffffffffffffffffffffffffffff16815260200182815260200192505050600060405180830381600087803b15801561161e57600080fd5b505af1158015611632573d6000803e3d6000fd5b50505050919050565b6000600e54905090565b60008082141561165857600190506116bb565b6001821415611669578290506116bb565b60008314801561167a575060008214155b1561168857600090506116bb565b60008390506000600190505b838110156116b5576116a682866116e7565b91508080600101915050611694565b50809150505b92915050565b60008082116116cf57600080fd5b60008284816116da57fe5b0490508091505092915050565b6000808314156116fa576000905061171b565b600082840290508284828161170b57fe5b041461171657600080fd5b809150505b92915050565b60008082840190508381101561173657600080fd5b8091505092915050565b60008282111561174f57600080fd5b60008284039050809150509291505056fea2646970667358221220761320d4c47839ef97e944c59a939a54a73f271c55fa03e8daa0b06ecd57347364736f6c63430007060033",
  "immutableReferences": {},
  "source": "pragma solidity >=0.4.22 <0.8.0;\n\nimport \"./tools/SafeMath.sol\";\nimport \"./tools/DataStorage.sol\";\nimport \"./wXEQ.sol\";\n\ncontract SoftStaking {\n    using SafeMath for *;\n    DataStorage public dataStorage;\n    wXEQ public wXEQContract;\n    address[] public stakeholders;\n    mapping(address => uint256) stakeHoldersStakeAmount;\n    mapping(address => uint256) lastClaim;\n    mapping(address => uint256) unlockBlock;\n    mapping(address => uint256) firstBlock;\n    mapping(address => bool) partOfPool;\n    uint256 public numberOfPoolStakers;\n    uint256 public numberOfStakes;\n    uint256 public dailyPool;\n    uint256 public lastPoolRefresh;\n    uint256 numberofNodesAtRefresh;\n    uint256 public totalMinted;\n    uint256 public totalStaked;\n    uint256 public maxPayouts;\n    uint256[] public payouts;\n    uint256[] payoutBlock;\n    uint256[] payoutPoolSize;\n    uint256 public lastPayoutBlock;\n    uint256 dailyBlock;\n    \n    constructor(address d, address s) {\n        dataStorage = DataStorage(d);\n        wXEQContract = wXEQ(s);\n        lastPoolRefresh = block.number;\n        numberOfPoolStakers = 0;\n        numberOfStakes = 0;\n        totalMinted = 0;\n        totalStaked = 0;\n        maxPayouts = 730;\n        dailyPool = 720;\n        dailyBlock = 10; // 1080\n        payouts.push(0);\n        payoutPoolSize.push(0);\n        payoutBlock.push(block.number);\n    }\n    \n    event NewPayout(address indexed from, uint256 payout, uint256 block, uint256 poolSize);\n    event Bal(uint256 bal);\n    \n    function checkPayout() public {\n        if (block.number > lastPayoutBlock.add(dailyBlock)) {\n            uint256 payout = dailyPool.mul(10.pow(18));\n            uint256 multiplier = dataStorage.getStakingMultiplier();\n            if (multiplier > 0) {\n                payout = payout.mul(multiplier);\n            }\n            uint256 bal = dataStorage.balanceOf(address(this));\n            if (bal > 0) {\n                payout = payout.add(bal);\n                emit Bal(bal);\n                emit Bal(payout);\n                wXEQContract._burn(address(this), bal);\n            }\n            payouts.push(payout);\n            payoutBlock.push(block.number);\n            payoutPoolSize.push(totalStaked);\n            lastPayoutBlock = block.number;\n            // assert(payoutPoolSize.length == payoutBlock.length && payoutBlock.length == payouts.length);\n            if (payouts.length > maxPayouts) {\n                delete payouts[0];\n            }\n            emit NewPayout(address(this), payout, block.number, totalStaked);\n        }\n    }\n    \n    function addStake(uint256 amount) public returns (bool) {\n        require(dataStorage.balanceOf(msg.sender) >= amount);\n        require(dataStorage.allowance(msg.sender, address(this)) >= amount);\n        require(msg.sender != address(0));\n        if (stakeHoldersStakeAmount[msg.sender] == 0) {\n            numberOfStakes = numberOfStakes.add(1);\n        } else {\n            checkPayout();\n            withdrawRewards();\n        }\n        firstBlock[msg.sender] = block.number;\n        stakeHoldersStakeAmount[msg.sender] = stakeHoldersStakeAmount[msg.sender].add(amount);\n        lastClaim[msg.sender] = block.number;\n        totalStaked = totalStaked.add(amount);\n        wXEQContract._burnFrom(msg.sender, amount);\n    }\n    \n    function removeStake(uint256 amount) public returns (bool) {\n        require(amount <= stakeHoldersStakeAmount[msg.sender]);\n        checkPayout();\n        withdrawRewards();\n        firstBlock[msg.sender] = block.number;\n        if (stakeHoldersStakeAmount[msg.sender] == 0) {\n            numberOfStakes = numberOfStakes.sub(1);\n            lastClaim[msg.sender] = 0;\n        }\n        stakeHoldersStakeAmount[msg.sender] = stakeHoldersStakeAmount[msg.sender].sub(amount);\n        totalStaked = totalStaked.sub(amount);\n        wXEQContract.mint(msg.sender, amount);\n    }\n    \n    function withdrawRewards() public returns (uint256) {\n        uint256 reward = pendingRewards(msg.sender);\n        if (reward == 0) {\n            return 0;\n        }\n        lastClaim[msg.sender] = block.number;\n        wXEQContract.mint(msg.sender, reward);\n        return reward;\n    }\n    \n    function pendingRewards(address addy) public view returns (uint256) {\n        uint256 payout = 0;\n        if (stakeHoldersStakeAmount[addy] != 0 && lastClaim[addy] < lastPayoutBlock) {\n            for (uint i = payouts.length - 1; i > 0; i--) {\n                if (payoutBlock[i] > lastClaim[addy]) {\n                    payout = payout.add((stakeHoldersStakeAmount[addy].mul((10.pow(18))).div(payoutPoolSize[i].mul(payouts[i].div(10.pow(18))))));\n                } else {\n                    break;\n                }\n            }\n            return payout;\n        }\n        return payout;\n    }\n    \n    function checkArrays() public view returns (uint256, uint256, uint256) {\n        return (payouts.length, payoutBlock.length, payoutPoolSize.length);\n    }\n    \n    function getStake(address addy) public view returns (uint256) {\n        return stakeHoldersStakeAmount[addy];\n    }\n    \n    function totalAmountStaked() public view returns (uint256) {\n        return totalStaked;\n    }\n    \n    function getLastClaim(address addy) public view returns (uint256, uint256) {\n        return (lastClaim[addy], block.number);\n    }\n\n}\n\n// todo - finish staking validation - soft staking - node staking rewards after input - staking pool - staking multiplier",
  "sourcePath": "D:\\testwxeqfront\\drizzle-react-tutorial\\contracts\\wXEQStaking.sol",
  "compiler": {
    "name": "solc",
    "version": "0.7.6+commit.7338295f.Emscripten.clang"
  },
  "schemaVersion": "3.3.3",
  "updatedAt": "2021-01-07T02:06:52.373Z",
  "devdoc": {
    "kind": "dev",
    "methods": {},
    "version": 1
  },
  "userdoc": {
    "kind": "user",
    "methods": {},
    "version": 1
  }
}