{
  "contractName": "SoftStaking",
  "abi": [
    {
      "inputs": [
        {
          "internalType": "address",
          "name": "_wxeq",
          "type": "address"
        },
        {
          "internalType": "address",
          "name": "_dataStorage",
          "type": "address"
        }
      ],
      "stateMutability": "nonpayable",
      "type": "constructor"
    },
    {
      "anonymous": false,
      "inputs": [
        {
          "indexed": true,
          "internalType": "address",
          "name": "user",
          "type": "address"
        },
        {
          "indexed": false,
          "internalType": "uint256",
          "name": "amount",
          "type": "uint256"
        }
      ],
      "name": "Enter",
      "type": "event"
    },
    {
      "anonymous": false,
      "inputs": [
        {
          "indexed": true,
          "internalType": "address",
          "name": "user",
          "type": "address"
        },
        {
          "indexed": false,
          "internalType": "uint256",
          "name": "amount",
          "type": "uint256"
        }
      ],
      "name": "Leave",
      "type": "event"
    },
    {
      "anonymous": false,
      "inputs": [
        {
          "indexed": true,
          "internalType": "address",
          "name": "previousOwner",
          "type": "address"
        },
        {
          "indexed": true,
          "internalType": "address",
          "name": "newOwner",
          "type": "address"
        }
      ],
      "name": "OwnershipTransferred",
      "type": "event"
    },
    {
      "anonymous": false,
      "inputs": [
        {
          "indexed": true,
          "internalType": "address",
          "name": "user",
          "type": "address"
        },
        {
          "indexed": false,
          "internalType": "uint256",
          "name": "amount",
          "type": "uint256"
        }
      ],
      "name": "WithdrawRewards",
      "type": "event"
    },
    {
      "inputs": [],
      "name": "blockReward",
      "outputs": [
        {
          "internalType": "uint256",
          "name": "",
          "type": "uint256"
        }
      ],
      "stateMutability": "view",
      "type": "function",
      "constant": true
    },
    {
      "inputs": [],
      "name": "contractCreator",
      "outputs": [
        {
          "internalType": "address",
          "name": "",
          "type": "address"
        }
      ],
      "stateMutability": "view",
      "type": "function",
      "constant": true
    },
    {
      "inputs": [],
      "name": "dataStorage",
      "outputs": [
        {
          "internalType": "contract DataStorage",
          "name": "",
          "type": "address"
        }
      ],
      "stateMutability": "view",
      "type": "function",
      "constant": true
    },
    {
      "inputs": [],
      "name": "owner",
      "outputs": [
        {
          "internalType": "address",
          "name": "",
          "type": "address"
        }
      ],
      "stateMutability": "view",
      "type": "function",
      "constant": true
    },
    {
      "inputs": [],
      "name": "renounceOwnership",
      "outputs": [],
      "stateMutability": "nonpayable",
      "type": "function"
    },
    {
      "inputs": [],
      "name": "totalStaked",
      "outputs": [
        {
          "internalType": "uint256",
          "name": "",
          "type": "uint256"
        }
      ],
      "stateMutability": "view",
      "type": "function",
      "constant": true
    },
    {
      "inputs": [
        {
          "internalType": "address",
          "name": "newOwner",
          "type": "address"
        }
      ],
      "name": "transferOwnership",
      "outputs": [],
      "stateMutability": "nonpayable",
      "type": "function"
    },
    {
      "inputs": [
        {
          "internalType": "address",
          "name": "",
          "type": "address"
        }
      ],
      "name": "userInfo",
      "outputs": [
        {
          "internalType": "uint256",
          "name": "amount",
          "type": "uint256"
        },
        {
          "internalType": "uint256",
          "name": "stakingBlock",
          "type": "uint256"
        }
      ],
      "stateMutability": "view",
      "type": "function",
      "constant": true
    },
    {
      "inputs": [],
      "name": "wXEQContract",
      "outputs": [
        {
          "internalType": "contract wXEQ",
          "name": "",
          "type": "address"
        }
      ],
      "stateMutability": "view",
      "type": "function",
      "constant": true
    },
    {
      "inputs": [
        {
          "internalType": "uint256",
          "name": "_reward",
          "type": "uint256"
        }
      ],
      "name": "changeStakingReward",
      "outputs": [
        {
          "internalType": "bool",
          "name": "",
          "type": "bool"
        }
      ],
      "stateMutability": "nonpayable",
      "type": "function"
    },
    {
      "inputs": [
        {
          "internalType": "address",
          "name": "_user",
          "type": "address"
        }
      ],
      "name": "getPendingReward",
      "outputs": [
        {
          "internalType": "uint256",
          "name": "",
          "type": "uint256"
        }
      ],
      "stateMutability": "view",
      "type": "function",
      "constant": true
    },
    {
      "inputs": [
        {
          "internalType": "uint256",
          "name": "_amount",
          "type": "uint256"
        }
      ],
      "name": "enter",
      "outputs": [],
      "stateMutability": "nonpayable",
      "type": "function"
    },
    {
      "inputs": [
        {
          "internalType": "uint256",
          "name": "_amount",
          "type": "uint256"
        }
      ],
      "name": "leave",
      "outputs": [],
      "stateMutability": "nonpayable",
      "type": "function"
    },
    {
      "inputs": [],
      "name": "withdrawRewards",
      "outputs": [],
      "stateMutability": "nonpayable",
      "type": "function"
    }
  ],
  "bytecode": "0x60806040523480156200001157600080fd5b506040516200179a3803806200179a833981810160405260408110156200003757600080fd5b81019080805190602001909291908051906020019092919050505060006200006d62000224640100000000026401000000009004565b9050806000806101000a81548173ffffffffffffffffffffffffffffffffffffffff021916908373ffffffffffffffffffffffffffffffffffffffff16021790555033600160006101000a81548173ffffffffffffffffffffffffffffffffffffffff021916908373ffffffffffffffffffffffffffffffffffffffff1602179055508073ffffffffffffffffffffffffffffffffffffffff16600073ffffffffffffffffffffffffffffffffffffffff167f8be0079c531659141344cd1fd0a4f28419497f9722a3daafe3b4186f6b6457e060405160405180910390a35081600360006101000a81548173ffffffffffffffffffffffffffffffffffffffff021916908373ffffffffffffffffffffffffffffffffffffffff16021790555080600260006101000a81548173ffffffffffffffffffffffffffffffffffffffff021916908373ffffffffffffffffffffffffffffffffffffffff16021790555062000216620001f76010600a6200022c640100000000026200130b179091906401000000009004565b600b620002c26401000000000262001387179091906401000000009004565b600481905550505062000300565b600033905090565b600080821415620002415760019050620002bc565b60018214156200025457829050620002bc565b60008314801562000266575060008214155b15620002765760009050620002bc565b60008390506000600190505b83811015620002b657620002a68286620002c2640100000000026401000000009004565b9150808060010191505062000282565b50809150505b92915050565b600080831415620002d75760009050620002fa565b6000828402905082848281620002e957fe5b0414620002f557600080fd5b809150505b92915050565b61148a80620003106000396000f3fe608060405234801561001057600080fd5b5060043610610107576000357c010000000000000000000000000000000000000000000000000000000090048063817b1cd2116100a9578063a552b73411610083578063a552b73414610307578063a59f3e0c1461034b578063c7b8981c14610379578063f2fde38b1461038357610107565b8063817b1cd2146102815780638870455f1461029f5780638da5cb5b146102d357610107565b80632b2be647116100e55780632b2be647146101bd5780634df9d6ba146101f157806367dfd4c914610249578063715018a61461027757610107565b80630ac168a11461010c5780631959a0021461012a5780631e2f73b114610189575b600080fd5b6101146103c7565b6040518082815260200191505060405180910390f35b61016c6004803603602081101561014057600080fd5b81019080803573ffffffffffffffffffffffffffffffffffffffff1690602001909291905050506103cd565b604051808381526020018281526020019250505060405180910390f35b6101916103f1565b604051808273ffffffffffffffffffffffffffffffffffffffff16815260200191505060405180910390f35b6101c5610417565b604051808273ffffffffffffffffffffffffffffffffffffffff16815260200191505060405180910390f35b6102336004803603602081101561020757600080fd5b81019080803573ffffffffffffffffffffffffffffffffffffffff16906020019092919050505061043d565b6040518082815260200191505060405180910390f35b6102756004803603602081101561025f57600080fd5b8101908080359060200190929190505050610688565b005b61027f61086c565b005b610289610a34565b6040518082815260200191505060405180910390f35b6102a7610a3a565b604051808273ffffffffffffffffffffffffffffffffffffffff16815260200191505060405180910390f35b6102db610a60565b604051808273ffffffffffffffffffffffffffffffffffffffff16815260200191505060405180910390f35b6103336004803603602081101561031d57600080fd5b8101908080359060200190929190505050610a89565b60405180821515815260200191505060405180910390f35b6103776004803603602081101561036157600080fd5b8101908080359060200190929190505050610b93565b005b610381610f70565b005b6103c56004803603602081101561039957600080fd5b81019080803573ffffffffffffffffffffffffffffffffffffffff169060200190929190505050611100565b005b60045481565b60066020528060005260406000206000915090508060000154908060010154905082565b600160009054906101000a900473ffffffffffffffffffffffffffffffffffffffff1681565b600360009054906101000a900473ffffffffffffffffffffffffffffffffffffffff1681565b600080600660008473ffffffffffffffffffffffffffffffffffffffff1673ffffffffffffffffffffffffffffffffffffffff168152602001908152602001600020905060008160010154430390506000600260009054906101000a900473ffffffffffffffffffffffffffffffffffffffff1673ffffffffffffffffffffffffffffffffffffffff166370a08231306040518263ffffffff167c0100000000000000000000000000000000000000000000000000000000028152600401808273ffffffffffffffffffffffffffffffffffffffff16815260200191505060206040518083038186803b15801561053357600080fd5b505afa158015610547573d6000803e3d6000fd5b505050506040513d602081101561055d57600080fd5b8101908080519060200190929190505050905060006105c3826105b56005546105a76105946012600a61130b90919063ffffffff16565b896000015461138790919063ffffffff16565b6113c190919063ffffffff16565b61138790919063ffffffff16565b90506105db600361197861138790919063ffffffff16565b83116105e657600090505b600061063b60045461062d60055461061f61060c6012600a61130b90919063ffffffff16565b8a6000015461138790919063ffffffff16565b6113c190919063ffffffff16565b61138790919063ffffffff16565b905061067c670de0b6b3a764000061066e84610660888661138790919063ffffffff16565b6113e790919063ffffffff16565b6113c190919063ffffffff16565b95505050505050919050565b6000600660003373ffffffffffffffffffffffffffffffffffffffff1673ffffffffffffffffffffffffffffffffffffffff168152602001908152602001600020905060008160000154116106dc57600080fd5b60006106e73361043d565b9050600081116106f657600080fd5b61070d83836000015461140690919063ffffffff16565b8260000181905550600082600101819055506107348360055461140690919063ffffffff16565b600581905550600061074f82856113e790919063ffffffff16565b9050600360009054906101000a900473ffffffffffffffffffffffffffffffffffffffff1673ffffffffffffffffffffffffffffffffffffffff166340c10f1933836040518363ffffffff167c0100000000000000000000000000000000000000000000000000000000028152600401808373ffffffffffffffffffffffffffffffffffffffff16815260200182815260200192505050600060405180830381600087803b15801561080057600080fd5b505af1158015610814573d6000803e3d6000fd5b505050503373ffffffffffffffffffffffffffffffffffffffff167f61a26f7c17d8780c095ccfa67e689a13ee4e06ddce3da18956369f4a396100e8856040518082815260200191505060405180910390a250505050565b610874611426565b73ffffffffffffffffffffffffffffffffffffffff1660008054906101000a900473ffffffffffffffffffffffffffffffffffffffff1673ffffffffffffffffffffffffffffffffffffffff1614610934576040517f08c379a00000000000000000000000000000000000000000000000000000000081526004018080602001828103825260208152602001807f4f776e61626c653a2063616c6c6572206973206e6f7420746865206f776e657281525060200191505060405180910390fd5b600160009054906101000a900473ffffffffffffffffffffffffffffffffffffffff1673ffffffffffffffffffffffffffffffffffffffff1660008054906101000a900473ffffffffffffffffffffffffffffffffffffffff1673ffffffffffffffffffffffffffffffffffffffff167f8be0079c531659141344cd1fd0a4f28419497f9722a3daafe3b4186f6b6457e060405160405180910390a3600160009054906101000a900473ffffffffffffffffffffffffffffffffffffffff166000806101000a81548173ffffffffffffffffffffffffffffffffffffffff021916908373ffffffffffffffffffffffffffffffffffffffff160217905550565b60055481565b600260009054906101000a900473ffffffffffffffffffffffffffffffffffffffff1681565b60008060009054906101000a900473ffffffffffffffffffffffffffffffffffffffff16905090565b6000610a93611426565b73ffffffffffffffffffffffffffffffffffffffff1660008054906101000a900473ffffffffffffffffffffffffffffffffffffffff1673ffffffffffffffffffffffffffffffffffffffff1614610b53576040517f08c379a00000000000000000000000000000000000000000000000000000000081526004018080602001828103825260208152602001807f4f776e61626c653a2063616c6c6572206973206e6f7420746865206f776e657281525060200191505060405180910390fd5b610b7b610b6b6010600a61130b90919063ffffffff16565b603261138790919063ffffffff16565b821115610b8757600080fd5b81600481905550919050565b80600260009054906101000a900473ffffffffffffffffffffffffffffffffffffffff1673ffffffffffffffffffffffffffffffffffffffff166370a08231336040518263ffffffff167c0100000000000000000000000000000000000000000000000000000000028152600401808273ffffffffffffffffffffffffffffffffffffffff16815260200191505060206040518083038186803b158015610c3957600080fd5b505afa158015610c4d573d6000803e3d6000fd5b505050506040513d6020811015610c6357600080fd5b81019080805190602001909291905050501015610c7f57600080fd5b80600260009054906101000a900473ffffffffffffffffffffffffffffffffffffffff1673ffffffffffffffffffffffffffffffffffffffff1663dd62ed3e33306040518363ffffffff167c0100000000000000000000000000000000000000000000000000000000028152600401808373ffffffffffffffffffffffffffffffffffffffff1681526020018273ffffffffffffffffffffffffffffffffffffffff1681526020019250505060206040518083038186803b158015610d4357600080fd5b505afa158015610d57573d6000803e3d6000fd5b505050506040513d6020811015610d6d57600080fd5b81019080805190602001909291905050501015610d8957600080fd5b600073ffffffffffffffffffffffffffffffffffffffff163373ffffffffffffffffffffffffffffffffffffffff161415610dc357600080fd5b600360009054906101000a900473ffffffffffffffffffffffffffffffffffffffff1673ffffffffffffffffffffffffffffffffffffffff1663a22b35ce33836040518363ffffffff167c0100000000000000000000000000000000000000000000000000000000028152600401808373ffffffffffffffffffffffffffffffffffffffff16815260200182815260200192505050600060405180830381600087803b158015610e7257600080fd5b505af1158015610e86573d6000803e3d6000fd5b50505050610e9f816005546113e790919063ffffffff16565b6005819055506000600660003373ffffffffffffffffffffffffffffffffffffffff1673ffffffffffffffffffffffffffffffffffffffff1681526020019081526020016000209050610eff8282600001546113e790919063ffffffff16565b8160000181905550600081600101541415610f1e574381600101819055505b3373ffffffffffffffffffffffffffffffffffffffff167f1fb48929215fc354244acea33112720ce5b7ba6912db70bb0149e77aa7c91ce1836040518082815260200191505060405180910390a25050565b6000600660003373ffffffffffffffffffffffffffffffffffffffff1673ffffffffffffffffffffffffffffffffffffffff16815260200190815260200160002090506000816000015411610fc457600080fd5b6000610fcf3361043d565b905060008111610fde57600080fd5b438260010181905550600360009054906101000a900473ffffffffffffffffffffffffffffffffffffffff1673ffffffffffffffffffffffffffffffffffffffff166340c10f1933836040518363ffffffff167c0100000000000000000000000000000000000000000000000000000000028152600401808373ffffffffffffffffffffffffffffffffffffffff16815260200182815260200192505050600060405180830381600087803b15801561109657600080fd5b505af11580156110aa573d6000803e3d6000fd5b505050503373ffffffffffffffffffffffffffffffffffffffff167faa1377f7ec93c239e959efa811f7b8554c036fd7a706c23e58024626a8f3db96826040518082815260200191505060405180910390a25050565b611108611426565b73ffffffffffffffffffffffffffffffffffffffff1660008054906101000a900473ffffffffffffffffffffffffffffffffffffffff1673ffffffffffffffffffffffffffffffffffffffff16146111c8576040517f08c379a00000000000000000000000000000000000000000000000000000000081526004018080602001828103825260208152602001807f4f776e61626c653a2063616c6c6572206973206e6f7420746865206f776e657281525060200191505060405180910390fd5b600073ffffffffffffffffffffffffffffffffffffffff168173ffffffffffffffffffffffffffffffffffffffff16141561124e576040517f08c379a000000000000000000000000000000000000000000000000000000000815260040180806020018281038252602681526020018061142f6026913960400191505060405180910390fd5b8073ffffffffffffffffffffffffffffffffffffffff1660008054906101000a900473ffffffffffffffffffffffffffffffffffffffff1673ffffffffffffffffffffffffffffffffffffffff167f8be0079c531659141344cd1fd0a4f28419497f9722a3daafe3b4186f6b6457e060405160405180910390a3806000806101000a81548173ffffffffffffffffffffffffffffffffffffffff021916908373ffffffffffffffffffffffffffffffffffffffff16021790555050565b60008082141561131e5760019050611381565b600182141561132f57829050611381565b600083148015611340575060008214155b1561134e5760009050611381565b60008390506000600190505b8381101561137b5761136c8286611387565b9150808060010191505061135a565b50809150505b92915050565b60008083141561139a57600090506113bb565b60008284029050828482816113ab57fe5b04146113b657600080fd5b809150505b92915050565b60008082116113cf57600080fd5b60008284816113da57fe5b0490508091505092915050565b6000808284019050838110156113fc57600080fd5b8091505092915050565b60008282111561141557600080fd5b600082840390508091505092915050565b60003390509056fe4f776e61626c653a206e6577206f776e657220697320746865207a65726f2061646472657373a2646970667358221220d0b48c9edee858a47ed2c662235c8a946f7661d67bc42a0c56ac4d379f4ff46a64736f6c63430007060033",
  "immutableReferences": {},
  "source": "pragma solidity >=0.4.22 <0.8.0;\r\n\r\nimport \"./tools/Ownable.sol\";\r\nimport \"./tools/SafeMath.sol\";\r\nimport \"./tools/DataStorage.sol\";\r\nimport \"./wXEQ.sol\";\r\n\r\ncontract SoftStaking is Ownable {\r\n    \r\n    using SafeMath for *;\r\n    DataStorage public dataStorage;\r\n    wXEQ public wXEQContract;\r\n    event Enter(address indexed user, uint256 amount);\r\n    event Leave(address indexed user, uint256 amount);\r\n    event WithdrawRewards(address indexed user, uint256 amount);\r\n\r\n    struct UserInfo {\r\n        uint256 amount;\r\n        uint256 stakingBlock;\r\n    }\r\n\r\n    uint256 public blockReward;\r\n\r\n    uint256 public totalStaked;\r\n\r\n    mapping (address => UserInfo) public userInfo;\r\n\r\n    constructor(address _wxeq, address _dataStorage) public {\r\n\r\n        wXEQContract = wXEQ(_wxeq);\r\n        dataStorage = DataStorage(_dataStorage);\r\n        blockReward = (11.mul(10.pow(16)));  // .11 wXEQ per block\r\n    }\r\n\r\n    function changeStakingReward(uint256 _reward) public onlyOwner returns (bool) {\r\n        require(_reward <= (50.mul(10.pow(16)))); //.5 wXEQ max\r\n        blockReward = _reward;\r\n    }\r\n\r\n    // Get user pending reward. May be outdated until someone calls cleanup.\r\n    function getPendingReward(address _user) public view returns (uint256) {\r\n        UserInfo storage user = userInfo[_user];\r\n        uint256 user_time = block.number - user.stakingBlock;\r\n        uint256 fees = dataStorage.balanceOf(address(this));\r\n        uint256 my_fees = user.amount.mul(10.pow(18)).div(totalStaked).mul(fees);\r\n\r\n        //Must be in pool for 3 days to claim oracle/swap fees.\r\n        if (user_time <= 6520.mul(3)) {\r\n            my_fees = 0;\r\n        }\r\n\r\n        uint256 baseReward = user.amount.mul(10.pow(18)).div(totalStaked).mul(blockReward);\r\n\r\n        return baseReward.mul(user_time).add(my_fees).div(1e18);\r\n    }\r\n\r\n    function enter(uint256 _amount) public {\r\n        require(dataStorage.balanceOf(msg.sender) >= _amount);\r\n        require(dataStorage.allowance(msg.sender, address(this)) >= _amount);\r\n        require(msg.sender != address(0));\r\n\r\n        wXEQContract._burnFrom(msg.sender, _amount);\r\n        totalStaked = totalStaked.add(_amount);\r\n        UserInfo storage user = userInfo[msg.sender];\r\n        user.amount = user.amount.add(_amount);\r\n\r\n        if (user.stakingBlock == 0)  {\r\n            user.stakingBlock = block.number;\r\n        }\r\n\r\n        emit Enter(msg.sender, _amount);\r\n    }\r\n\r\n    function leave(uint256 _amount) public {\r\n        UserInfo storage user = userInfo[msg.sender];\r\n        require(user.amount > 0);\r\n        uint256 rewards = getPendingReward(msg.sender);\r\n        require(rewards > 0);\r\n        user.amount = user.amount.sub(_amount);\r\n        user.stakingBlock = 0;\r\n        totalStaked = totalStaked.sub(_amount);\r\n        uint256 withdrawAmount = _amount.add(rewards);\r\n        wXEQContract.mint(msg.sender, withdrawAmount);\r\n        emit Leave(msg.sender, _amount);\r\n    }\r\n\r\n    function withdrawRewards() public {\r\n        UserInfo storage user = userInfo[msg.sender];\r\n        require(user.amount > 0);\r\n        uint256 rewards = getPendingReward(msg.sender);\r\n        require(rewards > 0);\r\n        user.stakingBlock = block.number;\r\n        wXEQContract.mint(msg.sender, rewards);\r\n        emit WithdrawRewards(msg.sender, rewards);\r\n    }\r\n\r\n}\r\n\r\n// todo - finish staking validation - soft staking - node staking rewards after input - staking pool - staking multiplier",
  "sourcePath": "C:\\Users\\harri\\OneDrive\\Documents\\EquilibriaWagers\\eth-equilibria\\truffle\\contracts\\wXEQStaking.sol",
  "compiler": {
    "name": "solc",
    "version": "0.7.6+commit.7338295f.Emscripten.clang"
  },
  "schemaVersion": "3.3.3",
  "updatedAt": "2021-01-08T09:28:32.479Z",
  "networkType": "ethereum",
  "devdoc": {
    "kind": "dev",
    "methods": {},
    "version": 1
  },
  "userdoc": {
    "kind": "user",
    "methods": {},
    "version": 1
  }
}