{
  "contractName": "SoftStakingv2",
  "abi": [
    {
      "inputs": [
        {
          "internalType": "address",
          "name": "_wxeq",
          "type": "address"
        },
        {
          "internalType": "address",
          "name": "_dataStorage",
          "type": "address"
        },
        {
          "internalType": "address",
          "name": "_master",
          "type": "address"
        }
      ],
      "stateMutability": "nonpayable",
      "type": "constructor"
    },
    {
      "anonymous": false,
      "inputs": [
        {
          "indexed": true,
          "internalType": "address",
          "name": "user",
          "type": "address"
        },
        {
          "indexed": false,
          "internalType": "uint256",
          "name": "amount",
          "type": "uint256"
        }
      ],
      "name": "Enter",
      "type": "event"
    },
    {
      "anonymous": false,
      "inputs": [
        {
          "indexed": true,
          "internalType": "address",
          "name": "user",
          "type": "address"
        },
        {
          "indexed": false,
          "internalType": "uint256",
          "name": "amount",
          "type": "uint256"
        }
      ],
      "name": "Leave",
      "type": "event"
    },
    {
      "anonymous": false,
      "inputs": [
        {
          "indexed": true,
          "internalType": "address",
          "name": "previousOwner",
          "type": "address"
        },
        {
          "indexed": true,
          "internalType": "address",
          "name": "newOwner",
          "type": "address"
        }
      ],
      "name": "OwnershipTransferred",
      "type": "event"
    },
    {
      "anonymous": false,
      "inputs": [
        {
          "indexed": true,
          "internalType": "address",
          "name": "user",
          "type": "address"
        },
        {
          "indexed": false,
          "internalType": "uint256",
          "name": "amount",
          "type": "uint256"
        }
      ],
      "name": "WithdrawRewards",
      "type": "event"
    },
    {
      "inputs": [],
      "name": "blockReward",
      "outputs": [
        {
          "internalType": "uint256",
          "name": "",
          "type": "uint256"
        }
      ],
      "stateMutability": "view",
      "type": "function"
    },
    {
      "inputs": [],
      "name": "contractCreator",
      "outputs": [
        {
          "internalType": "address",
          "name": "",
          "type": "address"
        }
      ],
      "stateMutability": "view",
      "type": "function"
    },
    {
      "inputs": [],
      "name": "dataStorage",
      "outputs": [
        {
          "internalType": "contract DataStorage",
          "name": "",
          "type": "address"
        }
      ],
      "stateMutability": "view",
      "type": "function"
    },
    {
      "inputs": [],
      "name": "owner",
      "outputs": [
        {
          "internalType": "address",
          "name": "",
          "type": "address"
        }
      ],
      "stateMutability": "view",
      "type": "function"
    },
    {
      "inputs": [],
      "name": "renounceOwnership",
      "outputs": [],
      "stateMutability": "nonpayable",
      "type": "function"
    },
    {
      "inputs": [],
      "name": "totalStaked",
      "outputs": [
        {
          "internalType": "uint256",
          "name": "",
          "type": "uint256"
        }
      ],
      "stateMutability": "view",
      "type": "function"
    },
    {
      "inputs": [
        {
          "internalType": "address",
          "name": "newOwner",
          "type": "address"
        }
      ],
      "name": "transferOwnership",
      "outputs": [],
      "stateMutability": "nonpayable",
      "type": "function"
    },
    {
      "inputs": [
        {
          "internalType": "address",
          "name": "",
          "type": "address"
        }
      ],
      "name": "userInfo",
      "outputs": [
        {
          "internalType": "uint256",
          "name": "amount",
          "type": "uint256"
        },
        {
          "internalType": "uint256",
          "name": "stakingBlock",
          "type": "uint256"
        },
        {
          "internalType": "uint256",
          "name": "claimedBalance",
          "type": "uint256"
        }
      ],
      "stateMutability": "view",
      "type": "function"
    },
    {
      "inputs": [],
      "name": "wXEQContract",
      "outputs": [
        {
          "internalType": "contract wXEQ",
          "name": "",
          "type": "address"
        }
      ],
      "stateMutability": "view",
      "type": "function"
    },
    {
      "inputs": [
        {
          "internalType": "uint256",
          "name": "_reward",
          "type": "uint256"
        }
      ],
      "name": "changeStakingReward",
      "outputs": [],
      "stateMutability": "nonpayable",
      "type": "function"
    },
    {
      "inputs": [
        {
          "internalType": "address",
          "name": "_user",
          "type": "address"
        }
      ],
      "name": "getPendingReward",
      "outputs": [
        {
          "internalType": "uint256",
          "name": "",
          "type": "uint256"
        }
      ],
      "stateMutability": "view",
      "type": "function"
    },
    {
      "inputs": [
        {
          "internalType": "uint256",
          "name": "_amount",
          "type": "uint256"
        }
      ],
      "name": "enter",
      "outputs": [],
      "stateMutability": "nonpayable",
      "type": "function"
    },
    {
      "inputs": [
        {
          "internalType": "uint256",
          "name": "_amount",
          "type": "uint256"
        }
      ],
      "name": "leave",
      "outputs": [],
      "stateMutability": "nonpayable",
      "type": "function"
    },
    {
      "inputs": [],
      "name": "withdrawRewards",
      "outputs": [],
      "stateMutability": "nonpayable",
      "type": "function"
    },
    {
      "inputs": [],
      "name": "lockRewards",
      "outputs": [],
      "stateMutability": "nonpayable",
      "type": "function"
    }
  ],
  "bytecode": "0x60806040523480156200001157600080fd5b5060405162001aba38038062001aba833981810160405260608110156200003757600080fd5b8101908080519060200190929190805190602001909291908051906020019092919050505060006200007762000249640100000000026401000000009004565b9050806000806101000a81548173ffffffffffffffffffffffffffffffffffffffff021916908373ffffffffffffffffffffffffffffffffffffffff16021790555033600160006101000a81548173ffffffffffffffffffffffffffffffffffffffff021916908373ffffffffffffffffffffffffffffffffffffffff1602179055508073ffffffffffffffffffffffffffffffffffffffff16600073ffffffffffffffffffffffffffffffffffffffff167f8be0079c531659141344cd1fd0a4f28419497f9722a3daafe3b4186f6b6457e060405160405180910390a35082600360006101000a81548173ffffffffffffffffffffffffffffffffffffffff021916908373ffffffffffffffffffffffffffffffffffffffff16021790555081600260006101000a81548173ffffffffffffffffffffffffffffffffffffffff021916908373ffffffffffffffffffffffffffffffffffffffff16021790555062000220620002016010600a6200025164010000000002620013c1179091906401000000009004565b600b620002e7640100000000026200143d179091906401000000009004565b600481905550620002408162000325640100000000026401000000009004565b50505062000544565b600033905090565b600080821415620002665760019050620002e1565b60018214156200027957829050620002e1565b6000831480156200028b575060008214155b156200029b5760009050620002e1565b60008390506000600190505b83811015620002db57620002cb8286620002e7640100000000026401000000009004565b91508080600101915050620002a7565b50809150505b92915050565b600080831415620002fc57600090506200031f565b60008284029050828482816200030e57fe5b04146200031a57600080fd5b809150505b92915050565b6200033e62000249640100000000026401000000009004565b73ffffffffffffffffffffffffffffffffffffffff1660008054906101000a900473ffffffffffffffffffffffffffffffffffffffff1673ffffffffffffffffffffffffffffffffffffffff1614620003ff576040517f08c379a00000000000000000000000000000000000000000000000000000000081526004018080602001828103825260208152602001807f4f776e61626c653a2063616c6c6572206973206e6f7420746865206f776e657281525060200191505060405180910390fd5b600073ffffffffffffffffffffffffffffffffffffffff168173ffffffffffffffffffffffffffffffffffffffff16141562000487576040517f08c379a000000000000000000000000000000000000000000000000000000000815260040180806020018281038252602681526020018062001a946026913960400191505060405180910390fd5b8073ffffffffffffffffffffffffffffffffffffffff1660008054906101000a900473ffffffffffffffffffffffffffffffffffffffff1673ffffffffffffffffffffffffffffffffffffffff167f8be0079c531659141344cd1fd0a4f28419497f9722a3daafe3b4186f6b6457e060405160405180910390a3806000806101000a81548173ffffffffffffffffffffffffffffffffffffffff021916908373ffffffffffffffffffffffffffffffffffffffff16021790555050565b61154080620005546000396000f3fe608060405234801561001057600080fd5b5060043610610112576000357c010000000000000000000000000000000000000000000000000000000090048063715018a6116100b4578063a552b73411610083578063a552b73414610323578063a59f3e0c14610351578063c7b8981c1461037f578063f2fde38b1461038957610112565b8063715018a614610293578063817b1cd21461029d5780638870455f146102bb5780638da5cb5b146102ef57610112565b80632b2be647116100f05780632b2be647146101cf578063376d771a146102035780634df9d6ba1461020d57806367dfd4c91461026557610112565b80630ac168a1146101175780631959a002146101355780631e2f73b11461019b575b600080fd5b61011f6103cd565b6040518082815260200191505060405180910390f35b6101776004803603602081101561014b57600080fd5b81019080803573ffffffffffffffffffffffffffffffffffffffff1690602001909291905050506103d3565b60405180848152602001838152602001828152602001935050505060405180910390f35b6101a36103fd565b604051808273ffffffffffffffffffffffffffffffffffffffff16815260200191505060405180910390f35b6101d7610423565b604051808273ffffffffffffffffffffffffffffffffffffffff16815260200191505060405180910390f35b61020b610449565b005b61024f6004803603602081101561022357600080fd5b81019080803573ffffffffffffffffffffffffffffffffffffffff1690602001909291905050506104e3565b6040518082815260200191505060405180910390f35b6102916004803603602081101561027b57600080fd5b81019080803590602001909291905050506105ee565b005b61029b61095a565b005b6102a5610b22565b6040518082815260200191505060405180910390f35b6102c3610b28565b604051808273ffffffffffffffffffffffffffffffffffffffff16815260200191505060405180910390f35b6102f7610b4e565b604051808273ffffffffffffffffffffffffffffffffffffffff16815260200191505060405180910390f35b61034f6004803603602081101561033957600080fd5b8101908080359060200190929190505050610b77565b005b61037d6004803603602081101561036757600080fd5b8101908080359060200190929190505050610c49565b005b61038761101c565b005b6103cb6004803603602081101561039f57600080fd5b81019080803573ffffffffffffffffffffffffffffffffffffffff1690602001909291905050506111b6565b005b60045481565b60066020528060005260406000206000915090508060000154908060010154908060020154905083565b600160009054906101000a900473ffffffffffffffffffffffffffffffffffffffff1681565b600360009054906101000a900473ffffffffffffffffffffffffffffffffffffffff1681565b6000600660003373ffffffffffffffffffffffffffffffffffffffff1673ffffffffffffffffffffffffffffffffffffffff1681526020019081526020016000209050600081600001541161049d57600080fd5b60006104a8336104e3565b9050600081116104b757600080fd5b4382600101819055506104d781836002015461147790919063ffffffff16565b82600201819055505050565b600080600660008473ffffffffffffffffffffffffffffffffffffffff1673ffffffffffffffffffffffffffffffffffffffff168152602001908152602001600020905060008160000154141561053e5760009150506105e9565b6000816001015443039050600061059e60045461059060055461058261056f6012600a6113c190919063ffffffff16565b886000015461143d90919063ffffffff16565b61149690919063ffffffff16565b61143d90919063ffffffff16565b90506105e383600201546105d5670de0b6b3a76400006105c7868661143d90919063ffffffff16565b61149690919063ffffffff16565b61147790919063ffffffff16565b93505050505b919050565b6000600660003373ffffffffffffffffffffffffffffffffffffffff1673ffffffffffffffffffffffffffffffffffffffff1681526020019081526020016000209050600081600001541161064257600080fd5b600061064d336104e3565b9050600073c76ff45757091b2a718da1c48a604de6cbec7f71905061067f8484600001546114bc90919063ffffffff16565b8360000181905550600083600101819055506106a6846005546114bc90919063ffffffff16565b600581905550838173ffffffffffffffffffffffffffffffffffffffff166370a08231306040518263ffffffff167c0100000000000000000000000000000000000000000000000000000000028152600401808273ffffffffffffffffffffffffffffffffffffffff16815260200191505060206040518083038186803b15801561073057600080fd5b505afa158015610744573d6000803e3d6000fd5b505050506040513d602081101561075a57600080fd5b8101908080519060200190929190505050101561077657600080fd5b600360009054906101000a900473ffffffffffffffffffffffffffffffffffffffff1673ffffffffffffffffffffffffffffffffffffffff166340c10f1933846040518363ffffffff167c0100000000000000000000000000000000000000000000000000000000028152600401808373ffffffffffffffffffffffffffffffffffffffff16815260200182815260200192505050600060405180830381600087803b15801561082557600080fd5b505af1158015610839573d6000803e3d6000fd5b505050508073ffffffffffffffffffffffffffffffffffffffff1663a9059cbb33866040518363ffffffff167c0100000000000000000000000000000000000000000000000000000000028152600401808373ffffffffffffffffffffffffffffffffffffffff16815260200182815260200192505050602060405180830381600087803b1580156108ca57600080fd5b505af11580156108de573d6000803e3d6000fd5b505050506040513d60208110156108f457600080fd5b8101908080519060200190929190505050503373ffffffffffffffffffffffffffffffffffffffff167f61a26f7c17d8780c095ccfa67e689a13ee4e06ddce3da18956369f4a396100e8856040518082815260200191505060405180910390a250505050565b6109626114dc565b73ffffffffffffffffffffffffffffffffffffffff1660008054906101000a900473ffffffffffffffffffffffffffffffffffffffff1673ffffffffffffffffffffffffffffffffffffffff1614610a22576040517f08c379a00000000000000000000000000000000000000000000000000000000081526004018080602001828103825260208152602001807f4f776e61626c653a2063616c6c6572206973206e6f7420746865206f776e657281525060200191505060405180910390fd5b600160009054906101000a900473ffffffffffffffffffffffffffffffffffffffff1673ffffffffffffffffffffffffffffffffffffffff1660008054906101000a900473ffffffffffffffffffffffffffffffffffffffff1673ffffffffffffffffffffffffffffffffffffffff167f8be0079c531659141344cd1fd0a4f28419497f9722a3daafe3b4186f6b6457e060405160405180910390a3600160009054906101000a900473ffffffffffffffffffffffffffffffffffffffff166000806101000a81548173ffffffffffffffffffffffffffffffffffffffff021916908373ffffffffffffffffffffffffffffffffffffffff160217905550565b60055481565b600260009054906101000a900473ffffffffffffffffffffffffffffffffffffffff1681565b60008060009054906101000a900473ffffffffffffffffffffffffffffffffffffffff16905090565b610b7f6114dc565b73ffffffffffffffffffffffffffffffffffffffff1660008054906101000a900473ffffffffffffffffffffffffffffffffffffffff1673ffffffffffffffffffffffffffffffffffffffff1614610c3f576040517f08c379a00000000000000000000000000000000000000000000000000000000081526004018080602001828103825260208152602001807f4f776e61626c653a2063616c6c6572206973206e6f7420746865206f776e657281525060200191505060405180910390fd5b8060048190555050565b600073ffffffffffffffffffffffffffffffffffffffff163373ffffffffffffffffffffffffffffffffffffffff161415610c8357600080fd5b600073c76ff45757091b2a718da1c48a604de6cbec7f719050818173ffffffffffffffffffffffffffffffffffffffff166370a08231336040518263ffffffff167c0100000000000000000000000000000000000000000000000000000000028152600401808273ffffffffffffffffffffffffffffffffffffffff16815260200191505060206040518083038186803b158015610d2057600080fd5b505afa158015610d34573d6000803e3d6000fd5b505050506040513d6020811015610d4a57600080fd5b81019080805190602001909291905050501015610d6657600080fd5b818173ffffffffffffffffffffffffffffffffffffffff1663dd62ed3e33306040518363ffffffff167c0100000000000000000000000000000000000000000000000000000000028152600401808373ffffffffffffffffffffffffffffffffffffffff1681526020018273ffffffffffffffffffffffffffffffffffffffff1681526020019250505060206040518083038186803b158015610e0857600080fd5b505afa158015610e1c573d6000803e3d6000fd5b505050506040513d6020811015610e3257600080fd5b81019080805190602001909291905050501015610e4e57600080fd5b8073ffffffffffffffffffffffffffffffffffffffff166323b872dd3330856040518463ffffffff167c0100000000000000000000000000000000000000000000000000000000028152600401808473ffffffffffffffffffffffffffffffffffffffff1681526020018373ffffffffffffffffffffffffffffffffffffffff1681526020018281526020019350505050602060405180830381600087803b158015610ef957600080fd5b505af1158015610f0d573d6000803e3d6000fd5b505050506040513d6020811015610f2357600080fd5b810190808051906020019092919050505050610f4a8260055461147790919063ffffffff16565b6005819055506000600660003373ffffffffffffffffffffffffffffffffffffffff1673ffffffffffffffffffffffffffffffffffffffff1681526020019081526020016000209050610faa83826000015461147790919063ffffffff16565b8160000181905550600081600101541415610fc9574381600101819055505b3373ffffffffffffffffffffffffffffffffffffffff167f1fb48929215fc354244acea33112720ce5b7ba6912db70bb0149e77aa7c91ce1846040518082815260200191505060405180910390a2505050565b6000600660003373ffffffffffffffffffffffffffffffffffffffff1673ffffffffffffffffffffffffffffffffffffffff1681526020019081526020016000209050600081600001541161107057600080fd5b600061107b336104e3565b90506000811161108a57600080fd5b43826001018190555060008260020181905550600360009054906101000a900473ffffffffffffffffffffffffffffffffffffffff1673ffffffffffffffffffffffffffffffffffffffff166340c10f1933836040518363ffffffff167c0100000000000000000000000000000000000000000000000000000000028152600401808373ffffffffffffffffffffffffffffffffffffffff16815260200182815260200192505050600060405180830381600087803b15801561114c57600080fd5b505af1158015611160573d6000803e3d6000fd5b505050503373ffffffffffffffffffffffffffffffffffffffff167faa1377f7ec93c239e959efa811f7b8554c036fd7a706c23e58024626a8f3db96826040518082815260200191505060405180910390a25050565b6111be6114dc565b73ffffffffffffffffffffffffffffffffffffffff1660008054906101000a900473ffffffffffffffffffffffffffffffffffffffff1673ffffffffffffffffffffffffffffffffffffffff161461127e576040517f08c379a00000000000000000000000000000000000000000000000000000000081526004018080602001828103825260208152602001807f4f776e61626c653a2063616c6c6572206973206e6f7420746865206f776e657281525060200191505060405180910390fd5b600073ffffffffffffffffffffffffffffffffffffffff168173ffffffffffffffffffffffffffffffffffffffff161415611304576040517f08c379a00000000000000000000000000000000000000000000000000000000081526004018080602001828103825260268152602001806114e56026913960400191505060405180910390fd5b8073ffffffffffffffffffffffffffffffffffffffff1660008054906101000a900473ffffffffffffffffffffffffffffffffffffffff1673ffffffffffffffffffffffffffffffffffffffff167f8be0079c531659141344cd1fd0a4f28419497f9722a3daafe3b4186f6b6457e060405160405180910390a3806000806101000a81548173ffffffffffffffffffffffffffffffffffffffff021916908373ffffffffffffffffffffffffffffffffffffffff16021790555050565b6000808214156113d45760019050611437565b60018214156113e557829050611437565b6000831480156113f6575060008214155b156114045760009050611437565b60008390506000600190505b8381101561143157611422828661143d565b91508080600101915050611410565b50809150505b92915050565b6000808314156114505760009050611471565b600082840290508284828161146157fe5b041461146c57600080fd5b809150505b92915050565b60008082840190508381101561148c57600080fd5b8091505092915050565b60008082116114a457600080fd5b60008284816114af57fe5b0490508091505092915050565b6000828211156114cb57600080fd5b600082840390508091505092915050565b60003390509056fe4f776e61626c653a206e6577206f776e657220697320746865207a65726f2061646472657373a26469706673582212207123f56a656296779e7994a4614f7ddaf660c750473dc42a047199ffe69231fc64736f6c634300070600334f776e61626c653a206e6577206f776e657220697320746865207a65726f2061646472657373",
  "immutableReferences": {},
  "source": "\r\npragma solidity >=0.4.22 <0.8.0;\r\n\r\nimport \"./tools/Ownable.sol\";\r\nimport \"./tools/SafeMath.sol\";\r\nimport \"./tools/DataStorage.sol\";\r\nimport \"./wXEQ.sol\";\r\nimport \"./tools/ERC20.sol\";\r\nimport \"./tools/IERC20.sol\";\r\nimport \"./tools/SafeERC20.sol\";\r\n\r\ncontract SoftStakingv2 is Ownable {\r\n\r\n    using SafeMath for *;\r\n    using SafeERC20 for IERC20;\r\n\r\n    DataStorage public dataStorage;\r\n    wXEQ public wXEQContract;\r\n    event Enter(address indexed user, uint256 amount);\r\n    event Leave(address indexed user, uint256 amount);\r\n    event WithdrawRewards(address indexed user, uint256 amount);\r\n\r\n    struct UserInfo {\r\n        uint256 amount;\r\n        uint256 stakingBlock;\r\n        uint256 claimedBalance;\r\n    }\r\n\r\n    uint256 public blockReward;\r\n\r\n    uint256 public totalStaked;\r\n\r\n    mapping (address => UserInfo) public userInfo;\r\n\r\n    constructor(address _wxeq, address _dataStorage, address _master) public {\r\n\r\n        wXEQContract = wXEQ(_wxeq);\r\n        dataStorage = DataStorage(_dataStorage);\r\n        blockReward = (11.mul(10.pow(16)));  // .11 wXEQ per block\r\n        transferOwnership(_master);\r\n    }\r\n\r\n    function changeStakingReward(uint256 _reward) public onlyOwner {\r\n        blockReward = _reward;\r\n    }\r\n\r\n    function getPendingReward(address _user) public view returns (uint256) {\r\n        UserInfo storage user = userInfo[_user];\r\n        if (user.amount == 0) {\r\n            return 0;\r\n        }\r\n        uint256 user_time = block.number - user.stakingBlock;\r\n        uint256 baseReward = user.amount.mul(10.pow(18)).div(totalStaked).mul(blockReward);\r\n\r\n        return baseReward.mul(user_time).div(1e18).add(user.claimedBalance);\r\n    }\r\n\r\n    function enter(uint256 _amount) public {\r\n        require(msg.sender != address(0));\r\n\r\n        IERC20 pair = IERC20(0xC76ff45757091b2A718dA1C48a604dE6cbec7F71);\r\n        require(pair.balanceOf(msg.sender) >= _amount);\r\n        require(pair.allowance(msg.sender, address(this)) >= _amount);\r\n\r\n        pair.transferFrom(msg.sender, address(this), _amount);\r\n        totalStaked = totalStaked.add(_amount);\r\n        UserInfo storage user = userInfo[msg.sender];\r\n        user.amount = user.amount.add(_amount);\r\n\r\n        if (user.stakingBlock == 0)  {\r\n            user.stakingBlock = block.number;\r\n        }\r\n\r\n        emit Enter(msg.sender, _amount);\r\n    }\r\n\r\n    function leave(uint256 _amount) public {\r\n        UserInfo storage user = userInfo[msg.sender];\r\n        require(user.amount > 0);\r\n\r\n        uint256 base_reward = getPendingReward(msg.sender);\r\n        IERC20 token = IERC20(0xC76ff45757091b2A718dA1C48a604dE6cbec7F71);\r\n\r\n        user.amount = user.amount.sub(_amount);\r\n        user.stakingBlock = 0;\r\n        totalStaked = totalStaked.sub(_amount);\r\n        require((token.balanceOf(address(this))) >= _amount);\r\n        wXEQContract.mint(msg.sender, base_reward);\r\n        token.transfer(msg.sender, _amount);\r\n        emit Leave(msg.sender, _amount);\r\n    }\r\n\r\n    function withdrawRewards() public {\r\n        UserInfo storage user = userInfo[msg.sender];\r\n        require(user.amount > 0);\r\n        uint256 base_reward = getPendingReward(msg.sender);\r\n        require(base_reward > 0);\r\n        user.stakingBlock = block.number;\r\n        user.claimedBalance = 0;\r\n        wXEQContract.mint(msg.sender, base_reward);\r\n        emit WithdrawRewards(msg.sender, base_reward);\r\n    }\r\n\r\n    function lockRewards() public {\r\n        UserInfo storage user = userInfo[msg.sender];\r\n        require(user.amount > 0);\r\n        uint256 base_reward = getPendingReward(msg.sender);\r\n        require(base_reward > 0);\r\n        user.stakingBlock = block.number;\r\n        user.claimedBalance = user.claimedBalance.add(base_reward);\r\n    }\r\n\r\n}\r\n",
  "sourcePath": "C:/Users/Thomas/WebstormProjects/eth-equilibria/truffle/contracts/wXEQStakingV2.sol",
  "compiler": {
    "name": "solc",
    "version": "0.7.6+commit.7338295f.Emscripten.clang"
  },
  "schemaVersion": "3.3.4",
  "updatedAt": "2021-03-13T06:50:28.152Z",
  "devdoc": {
    "kind": "dev",
    "methods": {},
    "version": 1
  },
  "userdoc": {
    "kind": "user",
    "methods": {},
    "version": 1
  }
}