{
  "contractName": "wXEQ",
  "abi": [
    {
      "inputs": [
        {
          "internalType": "address",
          "name": "_masterContract",
          "type": "address"
        }
      ],
      "stateMutability": "nonpayable",
      "type": "constructor"
    },
    {
      "anonymous": false,
      "inputs": [
        {
          "indexed": true,
          "internalType": "address",
          "name": "owner",
          "type": "address"
        },
        {
          "indexed": true,
          "internalType": "address",
          "name": "spender",
          "type": "address"
        },
        {
          "indexed": false,
          "internalType": "uint256",
          "name": "value",
          "type": "uint256"
        }
      ],
      "name": "Approval",
      "type": "event"
    },
    {
      "anonymous": false,
      "inputs": [
        {
          "indexed": true,
          "internalType": "address",
          "name": "from",
          "type": "address"
        },
        {
          "indexed": true,
          "internalType": "address",
          "name": "to",
          "type": "address"
        },
        {
          "indexed": false,
          "internalType": "uint256",
          "name": "value",
          "type": "uint256"
        }
      ],
      "name": "Transfer",
      "type": "event"
    },
    {
      "inputs": [
        {
          "internalType": "address",
          "name": "",
          "type": "address"
        }
      ],
      "name": "_balances",
      "outputs": [
        {
          "internalType": "uint256",
          "name": "",
          "type": "uint256"
        }
      ],
      "stateMutability": "view",
      "type": "function"
    },
    {
      "inputs": [],
      "name": "_decimals",
      "outputs": [
        {
          "internalType": "uint8",
          "name": "",
          "type": "uint8"
        }
      ],
      "stateMutability": "view",
      "type": "function"
    },
    {
      "inputs": [],
      "name": "_name",
      "outputs": [
        {
          "internalType": "string",
          "name": "",
          "type": "string"
        }
      ],
      "stateMutability": "view",
      "type": "function"
    },
    {
      "inputs": [],
      "name": "_symbol",
      "outputs": [
        {
          "internalType": "string",
          "name": "",
          "type": "string"
        }
      ],
      "stateMutability": "view",
      "type": "function"
    },
    {
      "inputs": [],
      "name": "checkAccess",
      "outputs": [
        {
          "internalType": "bool",
          "name": "",
          "type": "bool"
        }
      ],
      "stateMutability": "nonpayable",
      "type": "function"
    },
    {
      "inputs": [],
      "name": "contractCreator",
      "outputs": [
        {
          "internalType": "address",
          "name": "",
          "type": "address"
        }
      ],
      "stateMutability": "view",
      "type": "function"
    },
    {
      "inputs": [],
      "name": "masterContract",
      "outputs": [
        {
          "internalType": "address",
          "name": "",
          "type": "address"
        }
      ],
      "stateMutability": "view",
      "type": "function"
    },
    {
      "inputs": [
        {
          "internalType": "address",
          "name": "addy",
          "type": "address"
        }
      ],
      "name": "newMaster",
      "outputs": [
        {
          "internalType": "bool",
          "name": "",
          "type": "bool"
        }
      ],
      "stateMutability": "view",
      "type": "function"
    },
    {
      "inputs": [],
      "name": "decimals",
      "outputs": [
        {
          "internalType": "uint8",
          "name": "",
          "type": "uint8"
        }
      ],
      "stateMutability": "view",
      "type": "function"
    },
    {
      "inputs": [],
      "name": "name",
      "outputs": [
        {
          "internalType": "string",
          "name": "",
          "type": "string"
        }
      ],
      "stateMutability": "view",
      "type": "function"
    },
    {
      "inputs": [],
      "name": "symbol",
      "outputs": [
        {
          "internalType": "string",
          "name": "",
          "type": "string"
        }
      ],
      "stateMutability": "view",
      "type": "function"
    },
    {
      "inputs": [],
      "name": "totalSupply",
      "outputs": [
        {
          "internalType": "uint256",
          "name": "",
          "type": "uint256"
        }
      ],
      "stateMutability": "view",
      "type": "function"
    },
    {
      "inputs": [
        {
          "internalType": "address",
          "name": "_owner",
          "type": "address"
        }
      ],
      "name": "balanceOf",
      "outputs": [
        {
          "internalType": "uint256",
          "name": "",
          "type": "uint256"
        }
      ],
      "stateMutability": "view",
      "type": "function"
    },
    {
      "inputs": [
        {
          "internalType": "address",
          "name": "to",
          "type": "address"
        },
        {
          "internalType": "uint256",
          "name": "value",
          "type": "uint256"
        }
      ],
      "name": "transfer",
      "outputs": [
        {
          "internalType": "bool",
          "name": "",
          "type": "bool"
        }
      ],
      "stateMutability": "nonpayable",
      "type": "function"
    },
    {
      "inputs": [
        {
          "internalType": "address",
          "name": "spender",
          "type": "address"
        },
        {
          "internalType": "uint256",
          "name": "value",
          "type": "uint256"
        }
      ],
      "name": "approve",
      "outputs": [
        {
          "internalType": "bool",
          "name": "",
          "type": "bool"
        }
      ],
      "stateMutability": "nonpayable",
      "type": "function"
    },
    {
      "inputs": [
        {
          "internalType": "address",
          "name": "owner",
          "type": "address"
        },
        {
          "internalType": "address",
          "name": "spender",
          "type": "address"
        }
      ],
      "name": "allowance",
      "outputs": [
        {
          "internalType": "uint256",
          "name": "",
          "type": "uint256"
        }
      ],
      "stateMutability": "view",
      "type": "function"
    },
    {
      "inputs": [
        {
          "internalType": "address",
          "name": "spender",
          "type": "address"
        },
        {
          "internalType": "uint256",
          "name": "subtractedValue",
          "type": "uint256"
        }
      ],
      "name": "decreaseAllowance",
      "outputs": [
        {
          "internalType": "bool",
          "name": "",
          "type": "bool"
        }
      ],
      "stateMutability": "nonpayable",
      "type": "function"
    },
    {
      "inputs": [
        {
          "internalType": "address",
          "name": "_from",
          "type": "address"
        },
        {
          "internalType": "address",
          "name": "to",
          "type": "address"
        },
        {
          "internalType": "uint256",
          "name": "value",
          "type": "uint256"
        }
      ],
      "name": "transferFrom",
      "outputs": [
        {
          "internalType": "bool",
          "name": "",
          "type": "bool"
        }
      ],
      "stateMutability": "nonpayable",
      "type": "function"
    },
    {
      "inputs": [
        {
          "internalType": "address",
          "name": "spender",
          "type": "address"
        },
        {
          "internalType": "uint256",
          "name": "addedValue",
          "type": "uint256"
        }
      ],
      "name": "increaseAllowance",
      "outputs": [
        {
          "internalType": "bool",
          "name": "",
          "type": "bool"
        }
      ],
      "stateMutability": "nonpayable",
      "type": "function"
    },
    {
      "inputs": [
        {
          "internalType": "address",
          "name": "account",
          "type": "address"
        },
        {
          "internalType": "uint256",
          "name": "amount",
          "type": "uint256"
        }
      ],
      "name": "_burn",
      "outputs": [],
      "stateMutability": "nonpayable",
      "type": "function"
    },
    {
      "inputs": [
        {
          "internalType": "address",
          "name": "account",
          "type": "address"
        },
        {
          "internalType": "uint256",
          "name": "amount",
          "type": "uint256"
        }
      ],
      "name": "_burnFrom",
      "outputs": [],
      "stateMutability": "nonpayable",
      "type": "function"
    },
    {
      "inputs": [
        {
          "internalType": "address",
          "name": "account",
          "type": "address"
        },
        {
          "internalType": "uint256",
          "name": "amount",
          "type": "uint256"
        }
      ],
      "name": "mint",
      "outputs": [],
      "stateMutability": "nonpayable",
      "type": "function"
    }
  ],
  "bytecode": "0x60806040523480156200001157600080fd5b506040516200431538038062004315833981810160405260208110156200003757600080fd5b810190808051906020019092919050505080600460006101000a81548173ffffffffffffffffffffffffffffffffffffffff021916908373ffffffffffffffffffffffffffffffffffffffff1602179055506012600360146101000a81548160ff021916908360ff1602179055506040518060400160405280601281526020017f5772617070656420457175696c6962726961000000000000000000000000000081525060019080519060200190620000f292919062000189565b506040518060400160405280600481526020017f7758455100000000000000000000000000000000000000000000000000000000815250600290805190602001906200014092919062000189565b5033600360006101000a81548173ffffffffffffffffffffffffffffffffffffffff021916908373ffffffffffffffffffffffffffffffffffffffff160217905550506200023f565b828054600181600116156101000203166002900490600052602060002090601f016020900481019282620001c157600085556200020d565b82601f10620001dc57805160ff19168380011785556200020d565b828001600101855582156200020d579182015b828111156200020c578251825591602001919060010190620001ef565b5b5090506200021c919062000220565b5090565b5b808211156200023b57600081600090555060010162000221565b5090565b6140c6806200024f6000396000f3fe608060405234801561001057600080fd5b506004361061015f576000357c0100000000000000000000000000000000000000000000000000000000900480636ebcf607116100d5578063a9059cbb11610099578063a9059cbb146106a2578063b09f126614610706578063cd446e2214610789578063d28d8852146107bd578063dd62ed3e14610840578063ecb10135146108b85761015f565b80636ebcf607146104bd57806370a082311461051557806395d89b411461056d578063a22b35ce146105f0578063a457c2d71461063e5761015f565b8063313ce56711610127578063313ce5671461032157806332424aa314610342578063395093511461036357806340c10f19146103c7578063462dcfa0146104155780636161eb181461046f5761015f565b806306fdde0314610164578063095ea7b3146101e757806318160ddd1461024b5780631e2f73b11461026957806323b872dd1461029d575b600080fd5b61016c6108d8565b6040518080602001828103825283818151815260200191508051906020019080838360005b838110156101ac578082015181840152602081019050610191565b50505050905090810190601f1680156101d95780820380516001836020036101000a031916815260200191505b509250505060405180910390f35b610233600480360360408110156101fd57600080fd5b81019080803573ffffffffffffffffffffffffffffffffffffffff1690602001909291908035906020019092919050505061097a565b60405180821515815260200191505060405180910390f35b610253610d29565b6040518082815260200191505060405180910390f35b610271610def565b604051808273ffffffffffffffffffffffffffffffffffffffff16815260200191505060405180910390f35b610309600480360360608110156102b357600080fd5b81019080803573ffffffffffffffffffffffffffffffffffffffff169060200190929190803573ffffffffffffffffffffffffffffffffffffffff16906020019092919080359060200190929190505050610e15565b60405180821515815260200191505060405180910390f35b6103296116a4565b604051808260ff16815260200191505060405180910390f35b61034a6116bb565b604051808260ff16815260200191505060405180910390f35b6103af6004803603604081101561037957600080fd5b81019080803573ffffffffffffffffffffffffffffffffffffffff169060200190929190803590602001909291905050506116ce565b60405180821515815260200191505060405180910390f35b610413600480360360408110156103dd57600080fd5b81019080803573ffffffffffffffffffffffffffffffffffffffff16906020019092919080359060200190929190505050611cb3565b005b6104576004803603602081101561042b57600080fd5b81019080803573ffffffffffffffffffffffffffffffffffffffff16906020019092919050505061228f565b60405180821515815260200191505060405180910390f35b6104bb6004803603604081101561048557600080fd5b81019080803573ffffffffffffffffffffffffffffffffffffffff16906020019092919080359060200190929190505050612368565b005b6104ff600480360360208110156104d357600080fd5b81019080803573ffffffffffffffffffffffffffffffffffffffff169060200190929190505050612a31565b6040518082815260200191505060405180910390f35b6105576004803603602081101561052b57600080fd5b81019080803573ffffffffffffffffffffffffffffffffffffffff169060200190929190505050612a49565b6040518082815260200191505060405180910390f35b610575612b32565b6040518080602001828103825283818151815260200191508051906020019080838360005b838110156105b557808201518184015260208101905061059a565b50505050905090810190601f1680156105e25780820380516001836020036101000a031916815260200191505b509250505060405180910390f35b61063c6004803603604081101561060657600080fd5b81019080803573ffffffffffffffffffffffffffffffffffffffff16906020019092919080359060200190929190505050612bd4565b005b61068a6004803603604081101561065457600080fd5b81019080803573ffffffffffffffffffffffffffffffffffffffff1690602001909291908035906020019092919050505061302c565b60405180821515815260200191505060405180910390f35b6106ee600480360360408110156106b857600080fd5b81019080803573ffffffffffffffffffffffffffffffffffffffff16906020019092919080359060200190929190505050613513565b60405180821515815260200191505060405180910390f35b61070e613c73565b6040518080602001828103825283818151815260200191508051906020019080838360005b8381101561074e578082015181840152602081019050610733565b50505050905090810190601f16801561077b5780820380516001836020036101000a031916815260200191505b509250505060405180910390f35b610791613d11565b604051808273ffffffffffffffffffffffffffffffffffffffff16815260200191505060405180910390f35b6107c5613d35565b6040518080602001828103825283818151815260200191508051906020019080838360005b838110156108055780820151818401526020810190506107ea565b50505050905090810190601f1680156108325780820380516001836020036101000a031916815260200191505b509250505060405180910390f35b6108a26004803603604081101561085657600080fd5b81019080803573ffffffffffffffffffffffffffffffffffffffff169060200190929190803573ffffffffffffffffffffffffffffffffffffffff169060200190929190505050613dd3565b6040518082815260200191505060405180910390f35b6108c0613edb565b60405180821515815260200191505060405180910390f35b606060018054600181600116156101000203166002900480601f0160208091040260200160405190810160405280929190818152602001828054600181600116156101000203166002900480156109705780601f1061094557610100808354040283529160200191610970565b820191906000526020600020905b81548152906001019060200180831161095357829003601f168201915b5050505050905090565b60008073ffffffffffffffffffffffffffffffffffffffff168373ffffffffffffffffffffffffffffffffffffffff1614156109b557600080fd5b81600460009054906101000a900473ffffffffffffffffffffffffffffffffffffffff1673ffffffffffffffffffffffffffffffffffffffff166370a08231336040518263ffffffff167c0100000000000000000000000000000000000000000000000000000000028152600401808273ffffffffffffffffffffffffffffffffffffffff16815260200191505060206040518083038186803b158015610a5b57600080fd5b505afa158015610a6f573d6000803e3d6000fd5b505050506040513d6020811015610a8557600080fd5b81019080805190602001909291905050501015610aa157600080fd5b600460009054906101000a900473ffffffffffffffffffffffffffffffffffffffff1673ffffffffffffffffffffffffffffffffffffffff166349a3d2bb3385856040518463ffffffff167c0100000000000000000000000000000000000000000000000000000000028152600401808473ffffffffffffffffffffffffffffffffffffffff1681526020018373ffffffffffffffffffffffffffffffffffffffff16815260200182815260200193505050506040805180830381600087803b158015610b6d57600080fd5b505af1158015610b81573d6000803e3d6000fd5b505050506040513d6040811015610b9757600080fd5b810190808051906020019092919080519060200190929190505050505081600460009054906101000a900473ffffffffffffffffffffffffffffffffffffffff1673ffffffffffffffffffffffffffffffffffffffff1663dd62ed3e33866040518363ffffffff167c0100000000000000000000000000000000000000000000000000000000028152600401808373ffffffffffffffffffffffffffffffffffffffff1681526020018273ffffffffffffffffffffffffffffffffffffffff1681526020019250505060206040518083038186803b158015610c7857600080fd5b505afa158015610c8c573d6000803e3d6000fd5b505050506040513d6020811015610ca257600080fd5b810190808051906020019092919050505014610cba57fe5b8273ffffffffffffffffffffffffffffffffffffffff163373ffffffffffffffffffffffffffffffffffffffff167f8c5be1e5ebec7d5bd14f71427d1e84f3dd0314c0f7b2291e5b200ac8c7c3b925846040518082815260200191505060405180910390a36001905092915050565b6000600460009054906101000a900473ffffffffffffffffffffffffffffffffffffffff1673ffffffffffffffffffffffffffffffffffffffff166318160ddd6040518163ffffffff167c010000000000000000000000000000000000000000000000000000000002815260040160206040518083038186803b158015610daf57600080fd5b505afa158015610dc3573d6000803e3d6000fd5b505050506040513d6020811015610dd957600080fd5b8101908080519060200190929190505050905090565b600360009054906101000a900473ffffffffffffffffffffffffffffffffffffffff1681565b60008073ffffffffffffffffffffffffffffffffffffffff168373ffffffffffffffffffffffffffffffffffffffff161415610e5057600080fd5b600460009054906101000a900473ffffffffffffffffffffffffffffffffffffffff1673ffffffffffffffffffffffffffffffffffffffff166370a08231856040518263ffffffff167c0100000000000000000000000000000000000000000000000000000000028152600401808273ffffffffffffffffffffffffffffffffffffffff16815260200191505060206040518083038186803b158015610ef557600080fd5b505afa158015610f09573d6000803e3d6000fd5b505050506040513d6020811015610f1f57600080fd5b8101908080519060200190929190505050821115610f3c57600080fd5b600460009054906101000a900473ffffffffffffffffffffffffffffffffffffffff1673ffffffffffffffffffffffffffffffffffffffff1663dd62ed3e85336040518363ffffffff167c0100000000000000000000000000000000000000000000000000000000028152600401808373ffffffffffffffffffffffffffffffffffffffff1681526020018273ffffffffffffffffffffffffffffffffffffffff1681526020019250505060206040518083038186803b158015610fff57600080fd5b505afa158015611013573d6000803e3d6000fd5b505050506040513d602081101561102957600080fd5b810190808051906020019092919050505082111561104657600080fd5b600460009054906101000a900473ffffffffffffffffffffffffffffffffffffffff1673ffffffffffffffffffffffffffffffffffffffff1663e0b1cccb8561117785600460009054906101000a900473ffffffffffffffffffffffffffffffffffffffff1673ffffffffffffffffffffffffffffffffffffffff166370a082318a6040518263ffffffff167c0100000000000000000000000000000000000000000000000000000000028152600401808273ffffffffffffffffffffffffffffffffffffffff16815260200191505060206040518083038186803b15801561112e57600080fd5b505afa158015611142573d6000803e3d6000fd5b505050506040513d602081101561115857600080fd5b810190808051906020019092919050505061405190919063ffffffff16565b6040518363ffffffff167c0100000000000000000000000000000000000000000000000000000000028152600401808373ffffffffffffffffffffffffffffffffffffffff168152602001828152602001925050506040805180830381600087803b1580156111e557600080fd5b505af11580156111f9573d6000803e3d6000fd5b505050506040513d604081101561120f57600080fd5b8101908080519060200190929190805190602001909291905050505050600460009054906101000a900473ffffffffffffffffffffffffffffffffffffffff1673ffffffffffffffffffffffffffffffffffffffff1663e0b1cccb8461135d85600460009054906101000a900473ffffffffffffffffffffffffffffffffffffffff1673ffffffffffffffffffffffffffffffffffffffff166370a08231896040518263ffffffff167c0100000000000000000000000000000000000000000000000000000000028152600401808273ffffffffffffffffffffffffffffffffffffffff16815260200191505060206040518083038186803b15801561131457600080fd5b505afa158015611328573d6000803e3d6000fd5b505050506040513d602081101561133e57600080fd5b810190808051906020019092919050505061407190919063ffffffff16565b6040518363ffffffff167c0100000000000000000000000000000000000000000000000000000000028152600401808373ffffffffffffffffffffffffffffffffffffffff168152602001828152602001925050506040805180830381600087803b1580156113cb57600080fd5b505af11580156113df573d6000803e3d6000fd5b505050506040513d60408110156113f557600080fd5b8101908080519060200190929190805190602001909291905050505050600460009054906101000a900473ffffffffffffffffffffffffffffffffffffffff1673ffffffffffffffffffffffffffffffffffffffff166349a3d2bb853361156286600460009054906101000a900473ffffffffffffffffffffffffffffffffffffffff1673ffffffffffffffffffffffffffffffffffffffff1663dd62ed3e8b336040518363ffffffff167c0100000000000000000000000000000000000000000000000000000000028152600401808373ffffffffffffffffffffffffffffffffffffffff1681526020018273ffffffffffffffffffffffffffffffffffffffff1681526020019250505060206040518083038186803b15801561151957600080fd5b505afa15801561152d573d6000803e3d6000fd5b505050506040513d602081101561154357600080fd5b810190808051906020019092919050505061405190919063ffffffff16565b6040518463ffffffff167c0100000000000000000000000000000000000000000000000000000000028152600401808473ffffffffffffffffffffffffffffffffffffffff1681526020018373ffffffffffffffffffffffffffffffffffffffff16815260200182815260200193505050506040805180830381600087803b1580156115ed57600080fd5b505af1158015611601573d6000803e3d6000fd5b505050506040513d604081101561161757600080fd5b81019080805190602001909291908051906020019092919050505050508273ffffffffffffffffffffffffffffffffffffffff168473ffffffffffffffffffffffffffffffffffffffff167fddf252ad1be2c89b69c2b068fc378daa952ba7f163c4a11628f55a4df523b3ef846040518082815260200191505060405180910390a3600190509392505050565b6000600360149054906101000a900460ff16905090565b600360149054906101000a900460ff1681565b60008073ffffffffffffffffffffffffffffffffffffffff168373ffffffffffffffffffffffffffffffffffffffff16141561170957600080fd5b6000600460009054906101000a900473ffffffffffffffffffffffffffffffffffffffff1673ffffffffffffffffffffffffffffffffffffffff1663dd62ed3e33866040518363ffffffff167c0100000000000000000000000000000000000000000000000000000000028152600401808373ffffffffffffffffffffffffffffffffffffffff1681526020018273ffffffffffffffffffffffffffffffffffffffff1681526020019250505060206040518083038186803b1580156117ce57600080fd5b505afa1580156117e2573d6000803e3d6000fd5b505050506040513d60208110156117f857600080fd5b81019080805190602001909291905050509050600460009054906101000a900473ffffffffffffffffffffffffffffffffffffffff1673ffffffffffffffffffffffffffffffffffffffff166370a08231336040518263ffffffff167c0100000000000000000000000000000000000000000000000000000000028152600401808273ffffffffffffffffffffffffffffffffffffffff16815260200191505060206040518083038186803b1580156118b057600080fd5b505afa1580156118c4573d6000803e3d6000fd5b505050506040513d60208110156118da57600080fd5b81019080805190602001909291905050506118fe848361407190919063ffffffff16565b111561190957600080fd5b600460009054906101000a900473ffffffffffffffffffffffffffffffffffffffff1673ffffffffffffffffffffffffffffffffffffffff166349a3d2bb338661195c878661407190919063ffffffff16565b6040518463ffffffff167c0100000000000000000000000000000000000000000000000000000000028152600401808473ffffffffffffffffffffffffffffffffffffffff1681526020018373ffffffffffffffffffffffffffffffffffffffff16815260200182815260200193505050506040805180830381600087803b1580156119e757600080fd5b505af11580156119fb573d6000803e3d6000fd5b505050506040513d6040811015611a1157600080fd5b8101908080519060200190929190805190602001909291905050505050600460009054906101000a900473ffffffffffffffffffffffffffffffffffffffff1673ffffffffffffffffffffffffffffffffffffffff1663dd62ed3e33866040518363ffffffff167c0100000000000000000000000000000000000000000000000000000000028152600401808373ffffffffffffffffffffffffffffffffffffffff1681526020018273ffffffffffffffffffffffffffffffffffffffff1681526020019250505060206040518083038186803b158015611af157600080fd5b505afa158015611b05573d6000803e3d6000fd5b505050506040513d6020811015611b1b57600080fd5b8101908080519060200190929190505050611b3f848361407190919063ffffffff16565b14611b4657fe5b8373ffffffffffffffffffffffffffffffffffffffff163373ffffffffffffffffffffffffffffffffffffffff167f8c5be1e5ebec7d5bd14f71427d1e84f3dd0314c0f7b2291e5b200ac8c7c3b925600460009054906101000a900473ffffffffffffffffffffffffffffffffffffffff1673ffffffffffffffffffffffffffffffffffffffff1663dd62ed3e33896040518363ffffffff167c0100000000000000000000000000000000000000000000000000000000028152600401808373ffffffffffffffffffffffffffffffffffffffff1681526020018273ffffffffffffffffffffffffffffffffffffffff1681526020019250505060206040518083038186803b158015611c5857600080fd5b505afa158015611c6c573d6000803e3d6000fd5b505050506040513d6020811015611c8257600080fd5b81019080805190602001909291905050506040518082815260200191505060405180910390a3600191505092915050565b611cbb613edb565b611cc457600080fd5b6000600460009054906101000a900473ffffffffffffffffffffffffffffffffffffffff1673ffffffffffffffffffffffffffffffffffffffff166318160ddd6040518163ffffffff167c010000000000000000000000000000000000000000000000000000000002815260040160206040518083038186803b158015611d4a57600080fd5b505afa158015611d5e573d6000803e3d6000fd5b505050506040513d6020811015611d7457600080fd5b81019080805190602001909291905050509050600460009054906101000a900473ffffffffffffffffffffffffffffffffffffffff1673ffffffffffffffffffffffffffffffffffffffff16636bd08049611dd8848461407190919063ffffffff16565b6040518263ffffffff167c010000000000000000000000000000000000000000000000000000000002815260040180828152602001915050602060405180830381600087803b158015611e2a57600080fd5b505af1158015611e3e573d6000803e3d6000fd5b505050506040513d6020811015611e5457600080fd5b81019080805190602001909291905050505080611f3883600460009054906101000a900473ffffffffffffffffffffffffffffffffffffffff1673ffffffffffffffffffffffffffffffffffffffff166318160ddd6040518163ffffffff167c010000000000000000000000000000000000000000000000000000000002815260040160206040518083038186803b158015611eef57600080fd5b505afa158015611f03573d6000803e3d6000fd5b505050506040513d6020811015611f1957600080fd5b810190808051906020019092919050505061405190919063ffffffff16565b14611f3f57fe5b6000600460009054906101000a900473ffffffffffffffffffffffffffffffffffffffff1673ffffffffffffffffffffffffffffffffffffffff166370a08231856040518263ffffffff167c0100000000000000000000000000000000000000000000000000000000028152600401808273ffffffffffffffffffffffffffffffffffffffff16815260200191505060206040518083038186803b158015611fe657600080fd5b505afa158015611ffa573d6000803e3d6000fd5b505050506040513d602081101561201057600080fd5b81019080805190602001909291905050509050600460009054906101000a900473ffffffffffffffffffffffffffffffffffffffff1673ffffffffffffffffffffffffffffffffffffffff1663e0b1cccb85612075868561407190919063ffffffff16565b6040518363ffffffff167c0100000000000000000000000000000000000000000000000000000000028152600401808373ffffffffffffffffffffffffffffffffffffffff168152602001828152602001925050506040805180830381600087803b1580156120e357600080fd5b505af11580156120f7573d6000803e3d6000fd5b505050506040513d604081101561210d57600080fd5b81019080805190602001909291908051906020019092919050505050508061221d84600460009054906101000a900473ffffffffffffffffffffffffffffffffffffffff1673ffffffffffffffffffffffffffffffffffffffff166370a08231886040518263ffffffff167c0100000000000000000000000000000000000000000000000000000000028152600401808273ffffffffffffffffffffffffffffffffffffffff16815260200191505060206040518083038186803b1580156121d457600080fd5b505afa1580156121e8573d6000803e3d6000fd5b505050506040513d60208110156121fe57600080fd5b810190808051906020019092919050505061405190919063ffffffff16565b1461222457fe5b8373ffffffffffffffffffffffffffffffffffffffff163373ffffffffffffffffffffffffffffffffffffffff167fddf252ad1be2c89b69c2b068fc378daa952ba7f163c4a11628f55a4df523b3ef856040518082815260200191505060405180910390a350505050565b60008060009054906101000a900473ffffffffffffffffffffffffffffffffffffffff1673ffffffffffffffffffffffffffffffffffffffff163373ffffffffffffffffffffffffffffffffffffffff16146122ea57600080fd5b8173ffffffffffffffffffffffffffffffffffffffff1660008054906101000a9050505060008054906101000a900473ffffffffffffffffffffffffffffffffffffffff1673ffffffffffffffffffffffffffffffffffffffff168273ffffffffffffffffffffffffffffffffffffffff161461236357fe5b919050565b612370613edb565b61237957600080fd5b600460009054906101000a900473ffffffffffffffffffffffffffffffffffffffff1673ffffffffffffffffffffffffffffffffffffffff166370a08231836040518263ffffffff167c0100000000000000000000000000000000000000000000000000000000028152600401808273ffffffffffffffffffffffffffffffffffffffff16815260200191505060206040518083038186803b15801561241e57600080fd5b505afa158015612432573d6000803e3d6000fd5b505050506040513d602081101561244857600080fd5b810190808051906020019092919050505081111561246557600080fd5b6000600460009054906101000a900473ffffffffffffffffffffffffffffffffffffffff1673ffffffffffffffffffffffffffffffffffffffff166318160ddd6040518163ffffffff167c010000000000000000000000000000000000000000000000000000000002815260040160206040518083038186803b1580156124eb57600080fd5b505afa1580156124ff573d6000803e3d6000fd5b505050506040513d602081101561251557600080fd5b81019080805190602001909291905050509050600460009054906101000a900473ffffffffffffffffffffffffffffffffffffffff1673ffffffffffffffffffffffffffffffffffffffff16636bd08049612579848461405190919063ffffffff16565b6040518263ffffffff167c010000000000000000000000000000000000000000000000000000000002815260040180828152602001915050602060405180830381600087803b1580156125cb57600080fd5b505af11580156125df573d6000803e3d6000fd5b505050506040513d60208110156125f557600080fd5b8101908080519060200190929190505050506126d882600460009054906101000a900473ffffffffffffffffffffffffffffffffffffffff1673ffffffffffffffffffffffffffffffffffffffff166318160ddd6040518163ffffffff167c010000000000000000000000000000000000000000000000000000000002815260040160206040518083038186803b15801561268f57600080fd5b505afa1580156126a3573d6000803e3d6000fd5b505050506040513d60208110156126b957600080fd5b810190808051906020019092919050505061407190919063ffffffff16565b81146126e057fe5b6000600460009054906101000a900473ffffffffffffffffffffffffffffffffffffffff1673ffffffffffffffffffffffffffffffffffffffff166370a08231856040518263ffffffff167c0100000000000000000000000000000000000000000000000000000000028152600401808273ffffffffffffffffffffffffffffffffffffffff16815260200191505060206040518083038186803b15801561278757600080fd5b505afa15801561279b573d6000803e3d6000fd5b505050506040513d60208110156127b157600080fd5b81019080805190602001909291905050509050600460009054906101000a900473ffffffffffffffffffffffffffffffffffffffff1673ffffffffffffffffffffffffffffffffffffffff1663e0b1cccb85612816868561405190919063ffffffff16565b6040518363ffffffff167c0100000000000000000000000000000000000000000000000000000000028152600401808373ffffffffffffffffffffffffffffffffffffffff168152602001828152602001925050506040805180830381600087803b15801561288457600080fd5b505af1158015612898573d6000803e3d6000fd5b505050506040513d60408110156128ae57600080fd5b81019080805190602001909291908051906020019092919050505050506129bd83600460009054906101000a900473ffffffffffffffffffffffffffffffffffffffff1673ffffffffffffffffffffffffffffffffffffffff166370a08231876040518263ffffffff167c0100000000000000000000000000000000000000000000000000000000028152600401808273ffffffffffffffffffffffffffffffffffffffff16815260200191505060206040518083038186803b15801561297457600080fd5b505afa158015612988573d6000803e3d6000fd5b505050506040513d602081101561299e57600080fd5b810190808051906020019092919050505061407190919063ffffffff16565b81146129c557fe5b600073ffffffffffffffffffffffffffffffffffffffff168473ffffffffffffffffffffffffffffffffffffffff167fddf252ad1be2c89b69c2b068fc378daa952ba7f163c4a11628f55a4df523b3ef856040518082815260200191505060405180910390a350505050565b60056020528060005260406000206000915090505481565b6000600460009054906101000a900473ffffffffffffffffffffffffffffffffffffffff1673ffffffffffffffffffffffffffffffffffffffff166370a08231836040518263ffffffff167c0100000000000000000000000000000000000000000000000000000000028152600401808273ffffffffffffffffffffffffffffffffffffffff16815260200191505060206040518083038186803b158015612af057600080fd5b505afa158015612b04573d6000803e3d6000fd5b505050506040513d6020811015612b1a57600080fd5b81019080805190602001909291905050509050919050565b606060028054600181600116156101000203166002900480601f016020809104026020016040519081016040528092919081815260200182805460018160011615610100020316600290048015612bca5780601f10612b9f57610100808354040283529160200191612bca565b820191906000526020600020905b815481529060010190602001808311612bad57829003601f168201915b5050505050905090565b600460009054906101000a900473ffffffffffffffffffffffffffffffffffffffff1673ffffffffffffffffffffffffffffffffffffffff1663dd62ed3e83336040518363ffffffff167c0100000000000000000000000000000000000000000000000000000000028152600401808373ffffffffffffffffffffffffffffffffffffffff1681526020018273ffffffffffffffffffffffffffffffffffffffff1681526020019250505060206040518083038186803b158015612c9757600080fd5b505afa158015612cab573d6000803e3d6000fd5b505050506040513d6020811015612cc157600080fd5b8101908080519060200190929190505050811115612cde57600080fd5b6000600460009054906101000a900473ffffffffffffffffffffffffffffffffffffffff1673ffffffffffffffffffffffffffffffffffffffff1663dd62ed3e84336040518363ffffffff167c0100000000000000000000000000000000000000000000000000000000028152600401808373ffffffffffffffffffffffffffffffffffffffff1681526020018273ffffffffffffffffffffffffffffffffffffffff1681526020019250505060206040518083038186803b158015612da357600080fd5b505afa158015612db7573d6000803e3d6000fd5b505050506040513d6020811015612dcd57600080fd5b81019080805190602001909291905050509050600460009054906101000a900473ffffffffffffffffffffffffffffffffffffffff1673ffffffffffffffffffffffffffffffffffffffff166349a3d2bb8433612e33868661405190919063ffffffff16565b6040518463ffffffff167c0100000000000000000000000000000000000000000000000000000000028152600401808473ffffffffffffffffffffffffffffffffffffffff1681526020018373ffffffffffffffffffffffffffffffffffffffff16815260200182815260200193505050506040805180830381600087803b158015612ebe57600080fd5b505af1158015612ed2573d6000803e3d6000fd5b505050506040513d6040811015612ee857600080fd5b8101908080519060200190929190805190602001909291905050505050600460009054906101000a900473ffffffffffffffffffffffffffffffffffffffff1673ffffffffffffffffffffffffffffffffffffffff1663dd62ed3e84336040518363ffffffff167c0100000000000000000000000000000000000000000000000000000000028152600401808373ffffffffffffffffffffffffffffffffffffffff1681526020018273ffffffffffffffffffffffffffffffffffffffff1681526020019250505060206040518083038186803b158015612fc857600080fd5b505afa158015612fdc573d6000803e3d6000fd5b505050506040513d6020811015612ff257600080fd5b8101908080519060200190929190505050613016838361405190919063ffffffff16565b1461301d57fe5b6130278383612368565b505050565b60008073ffffffffffffffffffffffffffffffffffffffff168373ffffffffffffffffffffffffffffffffffffffff16141561306757600080fd5b6000600460009054906101000a900473ffffffffffffffffffffffffffffffffffffffff1673ffffffffffffffffffffffffffffffffffffffff1663dd62ed3e33866040518363ffffffff167c0100000000000000000000000000000000000000000000000000000000028152600401808373ffffffffffffffffffffffffffffffffffffffff1681526020018273ffffffffffffffffffffffffffffffffffffffff1681526020019250505060206040518083038186803b15801561312c57600080fd5b505afa158015613140573d6000803e3d6000fd5b505050506040513d602081101561315657600080fd5b81019080805190602001909291905050509050600460009054906101000a900473ffffffffffffffffffffffffffffffffffffffff1673ffffffffffffffffffffffffffffffffffffffff166349a3d2bb33866131bc878661405190919063ffffffff16565b6040518463ffffffff167c0100000000000000000000000000000000000000000000000000000000028152600401808473ffffffffffffffffffffffffffffffffffffffff1681526020018373ffffffffffffffffffffffffffffffffffffffff16815260200182815260200193505050506040805180830381600087803b15801561324757600080fd5b505af115801561325b573d6000803e3d6000fd5b505050506040513d604081101561327157600080fd5b8101908080519060200190929190805190602001909291905050505050600460009054906101000a900473ffffffffffffffffffffffffffffffffffffffff1673ffffffffffffffffffffffffffffffffffffffff1663dd62ed3e33866040518363ffffffff167c0100000000000000000000000000000000000000000000000000000000028152600401808373ffffffffffffffffffffffffffffffffffffffff1681526020018273ffffffffffffffffffffffffffffffffffffffff1681526020019250505060206040518083038186803b15801561335157600080fd5b505afa158015613365573d6000803e3d6000fd5b505050506040513d602081101561337b57600080fd5b810190808051906020019092919050505061339f848361405190919063ffffffff16565b146133a657fe5b8373ffffffffffffffffffffffffffffffffffffffff163373ffffffffffffffffffffffffffffffffffffffff167f8c5be1e5ebec7d5bd14f71427d1e84f3dd0314c0f7b2291e5b200ac8c7c3b925600460009054906101000a900473ffffffffffffffffffffffffffffffffffffffff1673ffffffffffffffffffffffffffffffffffffffff1663dd62ed3e33896040518363ffffffff167c0100000000000000000000000000000000000000000000000000000000028152600401808373ffffffffffffffffffffffffffffffffffffffff1681526020018273ffffffffffffffffffffffffffffffffffffffff1681526020019250505060206040518083038186803b1580156134b857600080fd5b505afa1580156134cc573d6000803e3d6000fd5b505050506040513d60208110156134e257600080fd5b81019080805190602001909291905050506040518082815260200191505060405180910390a3600191505092915050565b6000600460009054906101000a900473ffffffffffffffffffffffffffffffffffffffff1673ffffffffffffffffffffffffffffffffffffffff166370a08231336040518263ffffffff167c0100000000000000000000000000000000000000000000000000000000028152600401808273ffffffffffffffffffffffffffffffffffffffff16815260200191505060206040518083038186803b1580156135ba57600080fd5b505afa1580156135ce573d6000803e3d6000fd5b505050506040513d60208110156135e457600080fd5b810190808051906020019092919050505082111561360157600080fd5b600073ffffffffffffffffffffffffffffffffffffffff168373ffffffffffffffffffffffffffffffffffffffff16141561363b57600080fd5b6000600460009054906101000a900473ffffffffffffffffffffffffffffffffffffffff1673ffffffffffffffffffffffffffffffffffffffff166370a08231336040518263ffffffff167c0100000000000000000000000000000000000000000000000000000000028152600401808273ffffffffffffffffffffffffffffffffffffffff16815260200191505060206040518083038186803b1580156136e257600080fd5b505afa1580156136f6573d6000803e3d6000fd5b505050506040513d602081101561370c57600080fd5b81019080805190602001909291905050509050600460009054906101000a900473ffffffffffffffffffffffffffffffffffffffff1673ffffffffffffffffffffffffffffffffffffffff1663e0b1cccb33613771868561405190919063ffffffff16565b6040518363ffffffff167c0100000000000000000000000000000000000000000000000000000000028152600401808373ffffffffffffffffffffffffffffffffffffffff168152602001828152602001925050506040805180830381600087803b1580156137df57600080fd5b505af11580156137f3573d6000803e3d6000fd5b505050506040513d604081101561380957600080fd5b81019080805190602001909291908051906020019092919050505050508061391984600460009054906101000a900473ffffffffffffffffffffffffffffffffffffffff1673ffffffffffffffffffffffffffffffffffffffff166370a08231336040518263ffffffff167c0100000000000000000000000000000000000000000000000000000000028152600401808273ffffffffffffffffffffffffffffffffffffffff16815260200191505060206040518083038186803b1580156138d057600080fd5b505afa1580156138e4573d6000803e3d6000fd5b505050506040513d60208110156138fa57600080fd5b810190808051906020019092919050505061407190919063ffffffff16565b1461392057fe5b600460009054906101000a900473ffffffffffffffffffffffffffffffffffffffff1673ffffffffffffffffffffffffffffffffffffffff166370a08231856040518263ffffffff167c0100000000000000000000000000000000000000000000000000000000028152600401808273ffffffffffffffffffffffffffffffffffffffff16815260200191505060206040518083038186803b1580156139c557600080fd5b505afa1580156139d9573d6000803e3d6000fd5b505050506040513d60208110156139ef57600080fd5b81019080805190602001909291905050509050600460009054906101000a900473ffffffffffffffffffffffffffffffffffffffff1673ffffffffffffffffffffffffffffffffffffffff1663e0b1cccb85613a54868561407190919063ffffffff16565b6040518363ffffffff167c0100000000000000000000000000000000000000000000000000000000028152600401808373ffffffffffffffffffffffffffffffffffffffff168152602001828152602001925050506040805180830381600087803b158015613ac257600080fd5b505af1158015613ad6573d6000803e3d6000fd5b505050506040513d6040811015613aec57600080fd5b810190808051906020019092919080519060200190929190505050505080613bfc84600460009054906101000a900473ffffffffffffffffffffffffffffffffffffffff1673ffffffffffffffffffffffffffffffffffffffff166370a08231886040518263ffffffff167c0100000000000000000000000000000000000000000000000000000000028152600401808273ffffffffffffffffffffffffffffffffffffffff16815260200191505060206040518083038186803b158015613bb357600080fd5b505afa158015613bc7573d6000803e3d6000fd5b505050506040513d6020811015613bdd57600080fd5b810190808051906020019092919050505061405190919063ffffffff16565b14613c0357fe5b8373ffffffffffffffffffffffffffffffffffffffff163373ffffffffffffffffffffffffffffffffffffffff167fddf252ad1be2c89b69c2b068fc378daa952ba7f163c4a11628f55a4df523b3ef856040518082815260200191505060405180910390a3600191505092915050565b60028054600181600116156101000203166002900480601f016020809104026020016040519081016040528092919081815260200182805460018160011615610100020316600290048015613d095780601f10613cde57610100808354040283529160200191613d09565b820191906000526020600020905b815481529060010190602001808311613cec57829003601f168201915b505050505081565b60008054906101000a900473ffffffffffffffffffffffffffffffffffffffff1681565b60018054600181600116156101000203166002900480601f016020809104026020016040519081016040528092919081815260200182805460018160011615610100020316600290048015613dcb5780601f10613da057610100808354040283529160200191613dcb565b820191906000526020600020905b815481529060010190602001808311613dae57829003601f168201915b505050505081565b6000600460009054906101000a900473ffffffffffffffffffffffffffffffffffffffff1673ffffffffffffffffffffffffffffffffffffffff1663dd62ed3e84846040518363ffffffff167c0100000000000000000000000000000000000000000000000000000000028152600401808373ffffffffffffffffffffffffffffffffffffffff1681526020018273ffffffffffffffffffffffffffffffffffffffff1681526020019250505060206040518083038186803b158015613e9857600080fd5b505afa158015613eac573d6000803e3d6000fd5b505050506040513d6020811015613ec257600080fd5b8101908080519060200190929190505050905092915050565b6000806040516024016040516020818303038152906040527fecb10135000000000000000000000000000000000000000000000000000000007bffffffffffffffffffffffffffffffffffffffffffffffffffffffff19166020820180517bffffffffffffffffffffffffffffffffffffffffffffffffffffffff8381831617835250505050905060008060008054906101000a900473ffffffffffffffffffffffffffffffffffffffff1673ffffffffffffffffffffffffffffffffffffffff16836040518082805190602001908083835b60208310613fd15780518252602082019150602081019050602083039250613fae565b6001836020036101000a0380198251168184511680821785525050505050509050019150506000604051808303816000865af19150503d8060008114614033576040519150601f19603f3d011682016040523d82523d6000602084013e614038565b606091505b50915091508161404757600080fd5b6001935050505090565b60008282111561406057600080fd5b600082840390508091505092915050565b60008082840190508381101561408657600080fd5b809150509291505056fea2646970667358221220cb19156662009e53341b5c4fac27397b60325824fe2f73b8edbbb002cc254f8264736f6c63430007060033",
  "immutableReferences": {},
  "source": "// SPDX-License-Identifier: MIT\npragma solidity >=0.4.22 <0.8.0;\nimport \"./oracle/AggregatorInterface.sol\";\nimport \"./tools/DataStorage.sol\";\nimport \"./tools/ExternalAccessible.sol\";\nimport \"./tools/SafeMath.sol\";\n\ncontract wXEQ is ExternalAccessible {\n\n    using SafeMath for *;\n\n    struct mintXEQStruct {\n        address addr;\n        uint amount;\n        string xeqAddress;\n    }\n\n    struct TxStorage {\n        string hash;\n        uint amountMinted;\n    }\n\n    string public _name;\n    string public _symbol;\n    address public contractCreator;\n    uint8 public _decimals;\n    DataStorage dataStorage;\n    mapping(address => uint256) public _balances;\n    mapping(address => mapping(address => uint256)) _allowed;\n    mapping(address => bool) haveSynced;\n\n    event Transfer(address indexed from, address indexed to, uint256 value);\n    event Approval(address indexed owner, address indexed spender, uint256 value);\n\n    constructor (address _masterContract) {\n        dataStorage = DataStorage(_masterContract);\n        _decimals = 18;\n        _name = \"Wrapped Equilibria\";\n        _symbol = \"wXEQ\";\n        contractCreator = msg.sender;\n        // masterContract = Master(address(msg.sender));\n    }\n\n    function decimals() public view returns (uint8) {\n        return _decimals;\n    }\n\n    function name() public view returns (string memory) {\n        return _name;\n    }\n\n    function symbol() public view returns (string memory) {\n        return _symbol;\n    }\n\n    function totalSupply() public view returns (uint256) {\n        return dataStorage.totalSupply();\n    }\n\n    function balanceOf(address _owner) public view returns (uint256) {\n        return dataStorage.balanceOf(_owner);\n    }\n\n    function transfer(address to, uint256 value) public returns (bool) {\n        require(value <= dataStorage.balanceOf(msg.sender));\n        require(to != address(0));\n        uint256 bal = dataStorage.balanceOf(msg.sender);\n        dataStorage.updateBalance(msg.sender, bal.sub(value));\n        assert(dataStorage.balanceOf(msg.sender).add(value) == bal);\n        bal = dataStorage.balanceOf(to);\n        dataStorage.updateBalance(to, bal.add(value));\n        assert(dataStorage.balanceOf(to).sub(value) == bal);\n        emit Transfer(msg.sender, to, value);\n        return true;\n    }\n\n    function approve(address spender, uint256 value) public returns (bool) {\n        require(spender != address(0));\n        require(dataStorage.balanceOf(msg.sender) >= value);\n        dataStorage.updateAllowed(msg.sender, spender, value);\n        assert(dataStorage.allowance(msg.sender, spender) == value);\n        emit Approval(msg.sender, spender, value);\n        return true;\n    }\n\n    function allowance(address owner,address spender) public view returns (uint256) {\n        return dataStorage.allowance(owner, spender);\n    }\n    \n    function decreaseAllowance(address spender,uint256 subtractedValue) public returns (bool) {\n        require(spender != address(0));\n        uint256 allow = dataStorage.allowance(msg.sender, spender);\n        dataStorage.updateAllowed(msg.sender, spender, allow.sub(subtractedValue));\n        assert(allow.sub(subtractedValue) == dataStorage.allowance(msg.sender, spender));\n        emit Approval(msg.sender, spender, dataStorage.allowance(msg.sender, spender));\n        return true;\n    }\n\n    function transferFrom(address _from,address to,uint256 value) public returns (bool){\n        require(to != address(0));\n        require(value <= dataStorage.balanceOf(_from));\n        require(value <= dataStorage.allowance(_from, msg.sender));\n        \n        dataStorage.updateBalance(_from, dataStorage.balanceOf(_from).sub(value));\n        dataStorage.updateBalance(to, dataStorage.balanceOf(to).add(value));\n        dataStorage.updateAllowed(_from, msg.sender, dataStorage.allowance(_from, msg.sender).sub(value));\n        emit Transfer(_from, to, value);\n        return true;\n    }\n\n    function increaseAllowance(address spender,uint256 addedValue) public returns (bool) {\n        require(spender != address(0));\n        uint256 allow = dataStorage.allowance(msg.sender, spender);\n        require(allow.add(addedValue) <= dataStorage.balanceOf(msg.sender));\n        dataStorage.updateAllowed(msg.sender, spender, allow.add(addedValue));\n        assert(allow.add(addedValue) == dataStorage.allowance(msg.sender, spender));\n        emit Approval(msg.sender, spender, dataStorage.allowance(msg.sender, spender));\n        return true;\n    }\n\n    function _burn(address account, uint256 amount) public hasAccess {\n        require(amount <= dataStorage.balanceOf(account));\n        uint256 supply = dataStorage.totalSupply();\n        dataStorage.updateSupply(supply.sub(amount));\n        assert(supply == dataStorage.totalSupply().add(amount));\n        uint256 bal = dataStorage.balanceOf(account);\n        dataStorage.updateBalance(account, bal.sub(amount));\n        assert(bal == dataStorage.balanceOf(account).add(amount));\n        emit Transfer(account, address(0), amount);\n    }\n\n    function _burnFrom(address account, uint256 amount) public {\n        require(amount <= dataStorage.allowance(account, msg.sender));\n        uint256 allow = dataStorage.allowance(account, msg.sender);\n        dataStorage.updateAllowed(account, msg.sender, allow.sub(amount));\n        assert(allow.sub(amount) == dataStorage.allowance(account, msg.sender));\n        _burn(account, amount);\n    }\n\n    function mint(address account, uint256 amount) public hasAccess {\n        uint256 supp = dataStorage.totalSupply();\n        dataStorage.updateSupply(supp.add(amount));\n        assert(dataStorage.totalSupply().sub(amount) == supp);\n        uint256 bal = dataStorage.balanceOf(account);\n        dataStorage.updateBalance(account, bal.add(amount));\n        assert(dataStorage.balanceOf(account).sub(amount) == bal);\n        emit Transfer(msg.sender, account, amount);\n    }\n\n}",
  "sourcePath": "D:\\testwxeqfront\\drizzle-react-tutorial\\contracts\\wXEQ.sol",
  "compiler": {
    "name": "solc",
    "version": "0.7.6+commit.7338295f.Emscripten.clang"
  },
  "schemaVersion": "3.3.3",
  "updatedAt": "2021-01-07T02:06:52.311Z",
  "devdoc": {
    "kind": "dev",
    "methods": {},
    "version": 1
  },
  "userdoc": {
    "kind": "user",
    "methods": {},
    "version": 1
  }
}