{
  "contractName": "wXEQ",
  "abi": [
    {
      "inputs": [
        {
          "internalType": "address",
          "name": "d",
          "type": "address"
        },
        {
          "internalType": "address",
          "name": "_masterContract",
          "type": "address"
        }
      ],
      "stateMutability": "nonpayable",
      "type": "constructor"
    },
    {
      "anonymous": false,
      "inputs": [
        {
          "indexed": true,
          "internalType": "address",
          "name": "owner",
          "type": "address"
        },
        {
          "indexed": true,
          "internalType": "address",
          "name": "spender",
          "type": "address"
        },
        {
          "indexed": false,
          "internalType": "uint256",
          "name": "value",
          "type": "uint256"
        }
      ],
      "name": "Approval",
      "type": "event"
    },
    {
      "anonymous": false,
      "inputs": [
        {
          "indexed": true,
          "internalType": "address",
          "name": "from",
          "type": "address"
        },
        {
          "indexed": true,
          "internalType": "address",
          "name": "to",
          "type": "address"
        },
        {
          "indexed": false,
          "internalType": "uint256",
          "name": "value",
          "type": "uint256"
        }
      ],
      "name": "Transfer",
      "type": "event"
    },
    {
      "inputs": [],
      "name": "_decimals",
      "outputs": [
        {
          "internalType": "uint8",
          "name": "",
          "type": "uint8"
        }
      ],
      "stateMutability": "view",
      "type": "function"
    },
    {
      "inputs": [],
      "name": "_name",
      "outputs": [
        {
          "internalType": "string",
          "name": "",
          "type": "string"
        }
      ],
      "stateMutability": "view",
      "type": "function"
    },
    {
      "inputs": [],
      "name": "_symbol",
      "outputs": [
        {
          "internalType": "string",
          "name": "",
          "type": "string"
        }
      ],
      "stateMutability": "view",
      "type": "function"
    },
    {
      "inputs": [],
      "name": "checkAccess",
      "outputs": [
        {
          "internalType": "bool",
          "name": "",
          "type": "bool"
        }
      ],
      "stateMutability": "nonpayable",
      "type": "function"
    },
    {
      "inputs": [],
      "name": "contractCreator",
      "outputs": [
        {
          "internalType": "address",
          "name": "",
          "type": "address"
        }
      ],
      "stateMutability": "view",
      "type": "function"
    },
    {
      "inputs": [],
      "name": "masterContract",
      "outputs": [
        {
          "internalType": "address",
          "name": "",
          "type": "address"
        }
      ],
      "stateMutability": "view",
      "type": "function"
    },
    {
      "inputs": [
        {
          "internalType": "address",
          "name": "addy",
          "type": "address"
        }
      ],
      "name": "newMaster",
      "outputs": [
        {
          "internalType": "bool",
          "name": "",
          "type": "bool"
        }
      ],
      "stateMutability": "view",
      "type": "function"
    },
    {
      "inputs": [],
      "name": "decimals",
      "outputs": [
        {
          "internalType": "uint8",
          "name": "",
          "type": "uint8"
        }
      ],
      "stateMutability": "view",
      "type": "function"
    },
    {
      "inputs": [],
      "name": "name",
      "outputs": [
        {
          "internalType": "string",
          "name": "",
          "type": "string"
        }
      ],
      "stateMutability": "view",
      "type": "function"
    },
    {
      "inputs": [],
      "name": "symbol",
      "outputs": [
        {
          "internalType": "string",
          "name": "",
          "type": "string"
        }
      ],
      "stateMutability": "view",
      "type": "function"
    },
    {
      "inputs": [],
      "name": "totalSupply",
      "outputs": [
        {
          "internalType": "uint256",
          "name": "",
          "type": "uint256"
        }
      ],
      "stateMutability": "view",
      "type": "function"
    },
    {
      "inputs": [
        {
          "internalType": "address",
          "name": "_owner",
          "type": "address"
        }
      ],
      "name": "balanceOf",
      "outputs": [
        {
          "internalType": "uint256",
          "name": "",
          "type": "uint256"
        }
      ],
      "stateMutability": "view",
      "type": "function"
    },
    {
      "inputs": [
        {
          "internalType": "address",
          "name": "_owner",
          "type": "address"
        },
        {
          "internalType": "address",
          "name": "_spender",
          "type": "address"
        }
      ],
      "name": "allowance",
      "outputs": [
        {
          "internalType": "uint256",
          "name": "",
          "type": "uint256"
        }
      ],
      "stateMutability": "view",
      "type": "function"
    },
    {
      "inputs": [
        {
          "internalType": "address",
          "name": "to",
          "type": "address"
        },
        {
          "internalType": "uint256",
          "name": "value",
          "type": "uint256"
        }
      ],
      "name": "transfer",
      "outputs": [
        {
          "internalType": "bool",
          "name": "",
          "type": "bool"
        }
      ],
      "stateMutability": "nonpayable",
      "type": "function"
    },
    {
      "inputs": [
        {
          "internalType": "address",
          "name": "spender",
          "type": "address"
        },
        {
          "internalType": "uint256",
          "name": "value",
          "type": "uint256"
        }
      ],
      "name": "approve",
      "outputs": [
        {
          "internalType": "bool",
          "name": "",
          "type": "bool"
        }
      ],
      "stateMutability": "nonpayable",
      "type": "function"
    },
    {
      "inputs": [
        {
          "internalType": "address",
          "name": "spender",
          "type": "address"
        },
        {
          "internalType": "uint256",
          "name": "subtractedValue",
          "type": "uint256"
        }
      ],
      "name": "decreaseAllowance",
      "outputs": [
        {
          "internalType": "bool",
          "name": "",
          "type": "bool"
        }
      ],
      "stateMutability": "nonpayable",
      "type": "function"
    },
    {
      "inputs": [
        {
          "internalType": "address",
          "name": "_from",
          "type": "address"
        },
        {
          "internalType": "address",
          "name": "to",
          "type": "address"
        },
        {
          "internalType": "uint256",
          "name": "value",
          "type": "uint256"
        }
      ],
      "name": "transferFrom",
      "outputs": [
        {
          "internalType": "bool",
          "name": "",
          "type": "bool"
        }
      ],
      "stateMutability": "nonpayable",
      "type": "function"
    },
    {
      "inputs": [
        {
          "internalType": "address",
          "name": "spender",
          "type": "address"
        },
        {
          "internalType": "uint256",
          "name": "addedValue",
          "type": "uint256"
        }
      ],
      "name": "increaseAllowance",
      "outputs": [
        {
          "internalType": "bool",
          "name": "",
          "type": "bool"
        }
      ],
      "stateMutability": "nonpayable",
      "type": "function"
    },
    {
      "inputs": [
        {
          "internalType": "address",
          "name": "account",
          "type": "address"
        },
        {
          "internalType": "uint256",
          "name": "amount",
          "type": "uint256"
        }
      ],
      "name": "_burn",
      "outputs": [],
      "stateMutability": "nonpayable",
      "type": "function"
    },
    {
      "inputs": [
        {
          "internalType": "address",
          "name": "account",
          "type": "address"
        },
        {
          "internalType": "uint256",
          "name": "amount",
          "type": "uint256"
        }
      ],
      "name": "_burnFrom",
      "outputs": [],
      "stateMutability": "nonpayable",
      "type": "function"
    },
    {
      "inputs": [
        {
          "internalType": "address",
          "name": "account",
          "type": "address"
        },
        {
          "internalType": "uint256",
          "name": "amount",
          "type": "uint256"
        }
      ],
      "name": "mint",
      "outputs": [],
      "stateMutability": "nonpayable",
      "type": "function"
    }
  ],
  "bytecode": "0x60806040523480156200001157600080fd5b5060405162001f1c38038062001f1c833981810160405260408110156200003757600080fd5b50805160209182015160048054600160a060020a031916600160a060020a0384161790556003805460a060020a60ff021916741200000000000000000000000000000000000000001790556040805180820190915260128082527f5772617070656420457175696c696272696100000000000000000000000000009190940190815291929091620000cc916001919062000149565b506040805180820190915260048082527f77584551000000000000000000000000000000000000000000000000000000006020909201918252620001139160029162000149565b506003805433600160a060020a03199182161790915560008054909116600160a060020a039290921691909117905550620001f5565b828054600181600116156101000203166002900490600052602060002090601f016020900481019282620001815760008555620001cc565b82601f106200019c57805160ff1916838001178555620001cc565b82800160010185558215620001cc579182015b82811115620001cc578251825591602001919060010190620001af565b50620001da929150620001de565b5090565b5b80821115620001da5760008155600101620001df565b611d1780620002056000396000f3fe608060405234801561001057600080fd5b506004361061013b5760003560e060020a900480636161eb18116100bc578063a9059cbb11610080578063a9059cbb146103c9578063b09f1266146103f5578063cd446e22146103fd578063d28d885214610405578063dd62ed3e1461040d578063ecb101351461043b5761013b565b80636161eb181461031757806370a082311461034357806395d89b4114610369578063a22b35ce14610371578063a457c2d71461039d5761013b565b8063313ce56711610103578063313ce5671461027157806332424aa31461028f578063395093511461029757806340c10f19146102c3578063462dcfa0146102f15761013b565b806306fdde0314610140578063095ea7b3146101bd57806318160ddd146101fd5780631e2f73b11461021757806323b872dd1461023b575b600080fd5b610148610443565b6040805160208082528351818301528351919283929083019185019080838360005b8381101561018257818101518382015260200161016a565b50505050905090810190601f1680156101af5780820380516001836020036101000a031916815260200191505b509250505060405180910390f35b6101e9600480360360408110156101d357600080fd5b50600160a060020a0381351690602001356104d8565b604080519115158252519081900360200190f35b61020561065d565b60408051918252519081900360200190f35b61021f6106e1565b60408051600160a060020a039092168252519081900360200190f35b6101e96004803603606081101561025157600080fd5b50600160a060020a038135811691602081013590911690604001356106f0565b610279610a78565b6040805160ff9092168252519081900360200190f35b610279610a99565b6101e9600480360360408110156102ad57600080fd5b50600160a060020a038135169060200135610aba565b6102ef600480360360408110156102d957600080fd5b50600160a060020a038135169060200135610c67565b005b6101e96004803603602081101561030757600080fd5b5035600160a060020a0316610f7b565b6102ef6004803603604081101561032d57600080fd5b50600160a060020a038135169060200135610fb2565b6102056004803603602081101561035957600080fd5b5035600160a060020a0316611364565b6101486113fd565b6102ef6004803603604081101561038757600080fd5b50600160a060020a03813516906020013561145b565b6101e9600480360360408110156103b357600080fd5b50600160a060020a038135169060200135611538565b6101e9600480360360408110156103df57600080fd5b50600160a060020a0381351690602001356115fe565b6101486119b1565b61021f611a3c565b610148611a4b565b6102056004803603604081101561042357600080fd5b50600160a060020a0381358116916020013516611aa5565b6101e9611b4c565b60018054604080516020601f600260001961010087891615020190951694909404938401819004810282018101909252828152606093909290918301828280156104ce5780601f106104a3576101008083540402835291602001916104ce565b820191906000526020600020905b8154815290600101906020018083116104b157829003601f168201915b5050505050905090565b6000600160a060020a0383166104ed57600080fd5b600480546040805160e060020a6370a082310281523393810193909352518492600160a060020a03909216916370a08231916024808301926020929190829003018186803b15801561053e57600080fd5b505afa158015610552573d6000803e3d6000fd5b505050506040513d602081101561056857600080fd5b5051101561057557600080fd5b60048054604080517f49a3d2bb0000000000000000000000000000000000000000000000000000000081523393810193909352600160a060020a0386811660248501526044840186905290519116916349a3d2bb91606480830192600092919082900301818387803b1580156105ea57600080fd5b505af11580156105fe573d6000803e3d6000fd5b505050508161060d3385611aa5565b1461061457fe5b604080518381529051600160a060020a0385169133917f8c5be1e5ebec7d5bd14f71427d1e84f3dd0314c0f7b2291e5b200ac8c7c3b9259181900360200190a350600192915050565b6000600460009054906101000a9004600160a060020a0316600160a060020a03166318160ddd6040518163ffffffff1660e060020a02815260040160206040518083038186803b1580156106b057600080fd5b505afa1580156106c4573d6000803e3d6000fd5b505050506040513d60208110156106da57600080fd5b5051905090565b600354600160a060020a031681565b6000600160a060020a03831661070557600080fd5b600460009054906101000a9004600160a060020a0316600160a060020a03166370a08231856040518263ffffffff1660e060020a0281526004018082600160a060020a0316815260200191505060206040518083038186803b15801561076a57600080fd5b505afa15801561077e573d6000803e3d6000fd5b505050506040513d602081101561079457600080fd5b50518211156107a257600080fd5b6107ac8433611aa5565b8211156107b857600080fd5b600480546040805160e060020a6370a08231028152600160a060020a03888116948201949094529051929091169163e0b1cccb91879161084d91879186916370a08231916024808301926020929190829003018186803b15801561081b57600080fd5b505afa15801561082f573d6000803e3d6000fd5b505050506040513d602081101561084557600080fd5b505190611c93565b6040518363ffffffff1660e060020a0281526004018083600160a060020a0316815260200182815260200192505050600060405180830381600087803b15801561089657600080fd5b505af11580156108aa573d6000803e3d6000fd5b5050600480546040805160e060020a6370a08231028152600160a060020a0389811694820194909452905192909116935063e0b1cccb9250869161094391879186916370a08231916024808301926020929190829003018186803b15801561091157600080fd5b505afa158015610925573d6000803e3d6000fd5b505050506040513d602081101561093b57600080fd5b505190611ca8565b6040518363ffffffff1660e060020a0281526004018083600160a060020a0316815260200182815260200192505050600060405180830381600087803b15801561098c57600080fd5b505af11580156109a0573d6000803e3d6000fd5b5050600454600160a060020a031691506349a3d2bb905085336109cd866109c78484611aa5565b90611c93565b6040518463ffffffff1660e060020a0281526004018084600160a060020a0316815260200183600160a060020a031681526020018281526020019350505050600060405180830381600087803b158015610a2657600080fd5b505af1158015610a3a573d6000803e3d6000fd5b5050604080518581529051600160a060020a03808816945088169250600080516020611cc28339815191529181900360200190a35060019392505050565b60035474010000000000000000000000000000000000000000900460ff1690565b60035474010000000000000000000000000000000000000000900460ff1681565b6000600160a060020a038316610acf57600080fd5b6000610adb3385611aa5565b600480546040805160e060020a6370a08231028152339381019390935251929350600160a060020a0316916370a0823191602480820192602092909190829003018186803b158015610b2c57600080fd5b505afa158015610b40573d6000803e3d6000fd5b505050506040513d6020811015610b5657600080fd5b5051610b628285611ca8565b1115610b6d57600080fd5b600454600160a060020a03166349a3d2bb3386610b8a8588611ca8565b6040518463ffffffff1660e060020a0281526004018084600160a060020a0316815260200183600160a060020a031681526020018281526020019350505050600060405180830381600087803b158015610be357600080fd5b505af1158015610bf7573d6000803e3d6000fd5b50505050610c053385611aa5565b610c0f8285611ca8565b14610c1657fe5b600160a060020a038416337f8c5be1e5ebec7d5bd14f71427d1e84f3dd0314c0f7b2291e5b200ac8c7c3b925610c4c8288611aa5565b60408051918252519081900360200190a35060019392505050565b610c6f611b4c565b610c7857600080fd5b6000600460009054906101000a9004600160a060020a0316600160a060020a03166318160ddd6040518163ffffffff1660e060020a02815260040160206040518083038186803b158015610ccb57600080fd5b505afa158015610cdf573d6000803e3d6000fd5b505050506040513d6020811015610cf557600080fd5b5051600454909150600160a060020a0316636bd08049610d158385611ca8565b6040518263ffffffff1660e060020a02815260040180828152602001915050600060405180830381600087803b158015610d4e57600080fd5b505af1158015610d62573d6000803e3d6000fd5b5050505080610dbc83600460009054906101000a9004600160a060020a0316600160a060020a03166318160ddd6040518163ffffffff1660e060020a02815260040160206040518083038186803b15801561081b57600080fd5b14610dc357fe5b6000600460009054906101000a9004600160a060020a0316600160a060020a03166370a08231856040518263ffffffff1660e060020a0281526004018082600160a060020a0316815260200191505060206040518083038186803b158015610e2a57600080fd5b505afa158015610e3e573d6000803e3d6000fd5b505050506040513d6020811015610e5457600080fd5b5051600454909150600160a060020a031663e0b1cccb85610e758487611ca8565b6040518363ffffffff1660e060020a0281526004018083600160a060020a0316815260200182815260200192505050600060405180830381600087803b158015610ebe57600080fd5b505af1158015610ed2573d6000803e3d6000fd5b5050505080610f4084600460009054906101000a9004600160a060020a0316600160a060020a03166370a08231886040518263ffffffff1660e060020a0281526004018082600160a060020a0316815260200191505060206040518083038186803b15801561081b57600080fd5b14610f4757fe5b604080518481529051600160a060020a038616913391600080516020611cc28339815191529181900360200190a350505050565b60008054600160a060020a03163314610f9357600080fd5b600054600160a060020a03838116911614610faa57fe5b506001919050565b610fba611b4c565b610fc357600080fd5b600460009054906101000a9004600160a060020a0316600160a060020a03166370a08231836040518263ffffffff1660e060020a0281526004018082600160a060020a0316815260200191505060206040518083038186803b15801561102857600080fd5b505afa15801561103c573d6000803e3d6000fd5b505050506040513d602081101561105257600080fd5b505181111561106057600080fd5b6000600460009054906101000a9004600160a060020a0316600160a060020a03166318160ddd6040518163ffffffff1660e060020a02815260040160206040518083038186803b1580156110b357600080fd5b505afa1580156110c7573d6000803e3d6000fd5b505050506040513d60208110156110dd57600080fd5b5051600454909150600160a060020a0316636bd080496110fd8385611c93565b6040518263ffffffff1660e060020a02815260040180828152602001915050600060405180830381600087803b15801561113657600080fd5b505af115801561114a573d6000803e3d6000fd5b505050506111a382600460009054906101000a9004600160a060020a0316600160a060020a03166318160ddd6040518163ffffffff1660e060020a02815260040160206040518083038186803b15801561091157600080fd5b81146111ab57fe5b6000600460009054906101000a9004600160a060020a0316600160a060020a03166370a08231856040518263ffffffff1660e060020a0281526004018082600160a060020a0316815260200191505060206040518083038186803b15801561121257600080fd5b505afa158015611226573d6000803e3d6000fd5b505050506040513d602081101561123c57600080fd5b5051600454909150600160a060020a031663e0b1cccb8561125d8487611c93565b6040518363ffffffff1660e060020a0281526004018083600160a060020a0316815260200182815260200192505050600060405180830381600087803b1580156112a657600080fd5b505af11580156112ba573d6000803e3d6000fd5b5050505061132783600460009054906101000a9004600160a060020a0316600160a060020a03166370a08231876040518263ffffffff1660e060020a0281526004018082600160a060020a0316815260200191505060206040518083038186803b15801561091157600080fd5b811461132f57fe5b604080518481529051600091600160a060020a03871691600080516020611cc28339815191529181900360200190a350505050565b6000600460009054906101000a9004600160a060020a0316600160a060020a03166370a08231836040518263ffffffff1660e060020a0281526004018082600160a060020a0316815260200191505060206040518083038186803b1580156113cb57600080fd5b505afa1580156113df573d6000803e3d6000fd5b505050506040513d60208110156113f557600080fd5b505192915050565b60028054604080516020601f60001961010060018716150201909416859004938401819004810282018101909252828152606093909290918301828280156104ce5780601f106104a3576101008083540402835291602001916104ce565b6114658233611aa5565b81111561147157600080fd5b600061147d8333611aa5565b600454909150600160a060020a03166349a3d2bb843361149d8587611c93565b6040518463ffffffff1660e060020a0281526004018084600160a060020a0316815260200183600160a060020a031681526020018281526020019350505050600060405180830381600087803b1580156114f657600080fd5b505af115801561150a573d6000803e3d6000fd5b505050506115188333611aa5565b6115228284611c93565b1461152957fe5b6115338383610fb2565b505050565b6000600160a060020a03831661154d57600080fd5b60006115593385611aa5565b600454909150600160a060020a03166349a3d2bb33866115798588611c93565b6040518463ffffffff1660e060020a0281526004018084600160a060020a0316815260200183600160a060020a031681526020018281526020019350505050600060405180830381600087803b1580156115d257600080fd5b505af11580156115e6573d6000803e3d6000fd5b505050506115f43385611aa5565b610c0f8285611c93565b600480546040805160e060020a6370a08231028152339381019390935251600092600160a060020a03909216916370a08231916024808301926020929190829003018186803b15801561165057600080fd5b505afa158015611664573d6000803e3d6000fd5b505050506040513d602081101561167a57600080fd5b505182111561168857600080fd5b600160a060020a03831661169b57600080fd5b600480546040805160e060020a6370a08231028152339381019390935251600092600160a060020a03909216916370a08231916024808301926020929190829003018186803b1580156116ed57600080fd5b505afa158015611701573d6000803e3d6000fd5b505050506040513d602081101561171757600080fd5b5051600454909150600160a060020a031663e0b1cccb336117388487611c93565b6040518363ffffffff1660e060020a0281526004018083600160a060020a0316815260200182815260200192505050600060405180830381600087803b15801561178157600080fd5b505af1158015611795573d6000803e3d6000fd5b5050600480546040805160e060020a6370a082310281523393810193909352518594506117f093508792600160a060020a03909216916370a08231916024808301926020929190829003018186803b15801561091157600080fd5b146117f757fe5b600460009054906101000a9004600160a060020a0316600160a060020a03166370a08231856040518263ffffffff1660e060020a0281526004018082600160a060020a0316815260200191505060206040518083038186803b15801561185c57600080fd5b505afa158015611870573d6000803e3d6000fd5b505050506040513d602081101561188657600080fd5b5051600454909150600160a060020a031663e0b1cccb856118a78487611ca8565b6040518363ffffffff1660e060020a0281526004018083600160a060020a0316815260200182815260200192505050600060405180830381600087803b1580156118f057600080fd5b505af1158015611904573d6000803e3d6000fd5b505050508061197284600460009054906101000a9004600160a060020a0316600160a060020a03166370a08231886040518263ffffffff1660e060020a0281526004018082600160a060020a0316815260200191505060206040518083038186803b15801561081b57600080fd5b1461197957fe5b604080518481529051600160a060020a038616913391600080516020611cc28339815191529181900360200190a35060019392505050565b6002805460408051602060018416156101000260001901909316849004601f81018490048402820184019092528181529291830182828015611a345780601f10611a0957610100808354040283529160200191611a34565b820191906000526020600020905b815481529060010190602001808311611a1757829003601f168201915b505050505081565b600054600160a060020a031681565b60018054604080516020600284861615610100026000190190941693909304601f81018490048402820184019092528181529291830182828015611a345780601f10611a0957610100808354040283529160200191611a34565b60048054604080517fdd62ed3e000000000000000000000000000000000000000000000000000000008152600160a060020a0386811694820194909452848416602482015290516000939092169163dd62ed3e91604480820192602092909190829003018186803b158015611b1957600080fd5b505afa158015611b2d573d6000803e3d6000fd5b505050506040513d6020811015611b4357600080fd5b50519392505050565b604080513360248083019190915282518083039091018152604490910182526020810180517bffffffffffffffffffffffffffffffffffffffffffffffffffffffff167fcec70038000000000000000000000000000000000000000000000000000000001781526000805493518351919485938493600160a060020a0392909216928692909182918083835b60208310611bf75780518252601f199092019160209182019101611bd8565b6001836020036101000a0380198251168184511680821785525050505050509050019150506000604051808303816000865af19150503d8060008114611c59576040519150601f19603f3d011682016040523d82523d6000602084013e611c5e565b606091505b50915091506000818060200190516020811015611c7a57600080fd5b5051905080611c8857600080fd5b600194505050505090565b600082821115611ca257600080fd5b50900390565b600082820183811015611cba57600080fd5b939250505056feddf252ad1be2c89b69c2b068fc378daa952ba7f163c4a11628f55a4df523b3efa26469706673582212207c05b02218cfaa7d76dfd0b31b89581176e8fc9cbe388dfd183843d3c339909e64736f6c63430007060033",
  "immutableReferences": {},
  "source": "// SPDX-License-Identifier: MIT\r\npragma solidity >=0.4.22 <0.8.0;\r\nimport \"./oracle/AggregatorInterface.sol\";\r\nimport \"./tools/DataStorage.sol\";\r\nimport \"./tools/ExternalAccessible.sol\";\r\nimport \"./tools/SafeMath.sol\";\r\n\r\ncontract wXEQ is ExternalAccessible {\r\n\r\n    using SafeMath for *;\r\n\r\n    struct mintXEQStruct {\r\n        address addr;\r\n        uint amount;\r\n        string xeqAddress;\r\n    }\r\n\r\n    struct TxStorage {\r\n        string hash;\r\n        uint amountMinted;\r\n    }\r\n\r\n    string public _name;\r\n    string public _symbol;\r\n    address public contractCreator;\r\n    uint8 public _decimals;\r\n    DataStorage dataStorage;\r\n\r\n    event Transfer(address indexed from, address indexed to, uint256 value);\r\n    event Approval(address indexed owner, address indexed spender, uint256 value);\r\n\r\n    constructor (address d, address _masterContract) {\r\n        dataStorage = DataStorage(d);\r\n        _decimals = 18;\r\n        _name = \"Wrapped Equilibria\";\r\n        _symbol = \"wXEQ\";\r\n        contractCreator = msg.sender;\r\n        masterContract = _masterContract;\r\n    }\r\n\r\n    function decimals() public view returns (uint8) {\r\n        return _decimals;\r\n    }\r\n\r\n    function name() public view returns (string memory) {\r\n        return _name;\r\n    }\r\n\r\n    function symbol() public view returns (string memory) {\r\n        return _symbol;\r\n    }\r\n\r\n    function totalSupply() public view returns (uint256) {\r\n        return dataStorage.totalSupply();\r\n    }\r\n\r\n    function balanceOf(address _owner) public view returns (uint256) {\r\n        return dataStorage.balanceOf(_owner);\r\n    }\r\n\r\n    function allowance(address _owner, address _spender) public view returns (uint256) {\r\n        return dataStorage.allowance(_owner, _spender);\r\n    }\r\n\r\n    function transfer(address to, uint256 value) public returns (bool) {\r\n        require(value <= dataStorage.balanceOf(msg.sender));\r\n        require(to != address(0));\r\n        uint256 bal = dataStorage.balanceOf(msg.sender);\r\n        dataStorage.updateBalance(msg.sender, bal.sub(value));\r\n        assert(dataStorage.balanceOf(msg.sender).add(value) == bal);\r\n        bal = dataStorage.balanceOf(to);\r\n        dataStorage.updateBalance(to, bal.add(value));\r\n        assert(dataStorage.balanceOf(to).sub(value) == bal);\r\n        emit Transfer(msg.sender, to, value);\r\n        return true;\r\n    }\r\n\r\n    function approve(address spender, uint256 value) public returns (bool) {\r\n        require(spender != address(0));\r\n        require(dataStorage.balanceOf(msg.sender) >= value);\r\n        dataStorage.updateAllowed(msg.sender, spender, value);\r\n        assert(allowance(msg.sender, spender) == value);\r\n        emit Approval(msg.sender, spender, value);\r\n        return true;\r\n    }\r\n\r\n    function decreaseAllowance(address spender,uint256 subtractedValue) public returns (bool) {\r\n        require(spender != address(0));\r\n        uint256 allow = allowance(msg.sender, spender);\r\n        dataStorage.updateAllowed(msg.sender, spender, allow.sub(subtractedValue));\r\n        assert(allow.sub(subtractedValue) == allowance(msg.sender, spender));\r\n        emit Approval(msg.sender, spender, allowance(msg.sender, spender));\r\n        return true;\r\n    }\r\n\r\n    function transferFrom(address _from,address to,uint256 value) public returns (bool){\r\n        require(to != address(0));\r\n        require(value <= dataStorage.balanceOf(_from));\r\n        require(value <= allowance(_from, msg.sender));\r\n\r\n        dataStorage.updateBalance(_from, dataStorage.balanceOf(_from).sub(value));\r\n        dataStorage.updateBalance(to, dataStorage.balanceOf(to).add(value));\r\n        dataStorage.updateAllowed(_from, msg.sender, allowance(_from, msg.sender).sub(value));\r\n        emit Transfer(_from, to, value);\r\n        return true;\r\n    }\r\n\r\n    function increaseAllowance(address spender,uint256 addedValue) public returns (bool) {\r\n        require(spender != address(0));\r\n        uint256 allow = allowance(msg.sender, spender);\r\n        require(allow.add(addedValue) <= dataStorage.balanceOf(msg.sender));\r\n        dataStorage.updateAllowed(msg.sender, spender, allow.add(addedValue));\r\n        assert(allow.add(addedValue) == allowance(msg.sender, spender));\r\n        emit Approval(msg.sender, spender, allowance(msg.sender, spender));\r\n        return true;\r\n    }\r\n\r\n    function _burn(address account, uint256 amount) public hasAccess {\r\n        require(amount <= dataStorage.balanceOf(account));\r\n        uint256 supply = dataStorage.totalSupply();\r\n        dataStorage.updateSupply(supply.sub(amount));\r\n        assert(supply == dataStorage.totalSupply().add(amount));\r\n        uint256 bal = dataStorage.balanceOf(account);\r\n        dataStorage.updateBalance(account, bal.sub(amount));\r\n        assert(bal == dataStorage.balanceOf(account).add(amount));\r\n        emit Transfer(account, address(0), amount);\r\n    }\r\n\r\n    function _burnFrom(address account, uint256 amount) public {\r\n        require(amount <= allowance(account, msg.sender));\r\n        uint256 allow = allowance(account, msg.sender);\r\n        dataStorage.updateAllowed(account, msg.sender, allow.sub(amount));\r\n        assert(allow.sub(amount) == allowance(account, msg.sender));\r\n        _burn(account, amount);\r\n    }\r\n\r\n    function mint(address account, uint256 amount) public hasAccess {\r\n        uint256 supp = dataStorage.totalSupply();\r\n        dataStorage.updateSupply(supp.add(amount));\r\n        assert(dataStorage.totalSupply().sub(amount) == supp);\r\n        uint256 bal = dataStorage.balanceOf(account);\r\n        dataStorage.updateBalance(account, bal.add(amount));\r\n        assert(dataStorage.balanceOf(account).sub(amount) == bal);\r\n        emit Transfer(msg.sender, account, amount);\r\n    }\r\n}",
  "sourcePath": "C:\\Users\\harri\\OneDrive\\Documents\\EquilibriaWagers\\eth-equilibria\\truffle\\contracts\\wXEQ.sol",
  "compiler": {
    "name": "solc",
    "version": "0.7.6+commit.7338295f.Emscripten.clang"
  },
  "schemaVersion": "3.3.3",
  "updatedAt": "2021-01-09T01:46:19.913Z",
  "devdoc": {
    "kind": "dev",
    "methods": {},
    "version": 1
  },
  "userdoc": {
    "kind": "user",
    "methods": {},
    "version": 1
  }
}