{
  "contractName": "wXEQ",
  "abi": [
    {
      "inputs": [
        {
          "internalType": "address",
          "name": "d",
          "type": "address"
        },
        {
          "internalType": "address",
          "name": "_masterContract",
          "type": "address"
        }
      ],
      "stateMutability": "nonpayable",
      "type": "constructor"
    },
    {
      "anonymous": false,
      "inputs": [
        {
          "indexed": true,
          "internalType": "address",
          "name": "owner",
          "type": "address"
        },
        {
          "indexed": true,
          "internalType": "address",
          "name": "spender",
          "type": "address"
        },
        {
          "indexed": false,
          "internalType": "uint256",
          "name": "value",
          "type": "uint256"
        }
      ],
      "name": "Approval",
      "type": "event"
    },
    {
      "anonymous": false,
      "inputs": [
        {
          "indexed": true,
          "internalType": "address",
          "name": "from",
          "type": "address"
        },
        {
          "indexed": true,
          "internalType": "address",
          "name": "to",
          "type": "address"
        },
        {
          "indexed": false,
          "internalType": "uint256",
          "name": "value",
          "type": "uint256"
        }
      ],
      "name": "Transfer",
      "type": "event"
    },
    {
      "inputs": [],
      "name": "_decimals",
      "outputs": [
        {
          "internalType": "uint8",
          "name": "",
          "type": "uint8"
        }
      ],
      "stateMutability": "view",
      "type": "function",
      "constant": true
    },
    {
      "inputs": [],
      "name": "_name",
      "outputs": [
        {
          "internalType": "string",
          "name": "",
          "type": "string"
        }
      ],
      "stateMutability": "view",
      "type": "function",
      "constant": true
    },
    {
      "inputs": [],
      "name": "_symbol",
      "outputs": [
        {
          "internalType": "string",
          "name": "",
          "type": "string"
        }
      ],
      "stateMutability": "view",
      "type": "function",
      "constant": true
    },
    {
      "inputs": [],
      "name": "checkAccess",
      "outputs": [
        {
          "internalType": "bool",
          "name": "",
          "type": "bool"
        }
      ],
      "stateMutability": "nonpayable",
      "type": "function"
    },
    {
      "inputs": [],
      "name": "contractCreator",
      "outputs": [
        {
          "internalType": "address",
          "name": "",
          "type": "address"
        }
      ],
      "stateMutability": "view",
      "type": "function",
      "constant": true
    },
    {
      "inputs": [],
      "name": "masterContract",
      "outputs": [
        {
          "internalType": "address",
          "name": "",
          "type": "address"
        }
      ],
      "stateMutability": "view",
      "type": "function",
      "constant": true
    },
    {
      "inputs": [
        {
          "internalType": "address",
          "name": "addy",
          "type": "address"
        }
      ],
      "name": "newMaster",
      "outputs": [
        {
          "internalType": "bool",
          "name": "",
          "type": "bool"
        }
      ],
      "stateMutability": "view",
      "type": "function",
      "constant": true
    },
    {
      "inputs": [],
      "name": "decimals",
      "outputs": [
        {
          "internalType": "uint8",
          "name": "",
          "type": "uint8"
        }
      ],
      "stateMutability": "view",
      "type": "function",
      "constant": true
    },
    {
      "inputs": [],
      "name": "name",
      "outputs": [
        {
          "internalType": "string",
          "name": "",
          "type": "string"
        }
      ],
      "stateMutability": "view",
      "type": "function",
      "constant": true
    },
    {
      "inputs": [],
      "name": "symbol",
      "outputs": [
        {
          "internalType": "string",
          "name": "",
          "type": "string"
        }
      ],
      "stateMutability": "view",
      "type": "function",
      "constant": true
    },
    {
      "inputs": [],
      "name": "totalSupply",
      "outputs": [
        {
          "internalType": "uint256",
          "name": "",
          "type": "uint256"
        }
      ],
      "stateMutability": "view",
      "type": "function",
      "constant": true
    },
    {
      "inputs": [
        {
          "internalType": "address",
          "name": "_owner",
          "type": "address"
        }
      ],
      "name": "balanceOf",
      "outputs": [
        {
          "internalType": "uint256",
          "name": "",
          "type": "uint256"
        }
      ],
      "stateMutability": "view",
      "type": "function",
      "constant": true
    },
    {
      "inputs": [
        {
          "internalType": "address",
          "name": "_owner",
          "type": "address"
        },
        {
          "internalType": "address",
          "name": "_spender",
          "type": "address"
        }
      ],
      "name": "allowanceOf",
      "outputs": [
        {
          "internalType": "uint256",
          "name": "",
          "type": "uint256"
        }
      ],
      "stateMutability": "view",
      "type": "function",
      "constant": true
    },
    {
      "inputs": [
        {
          "internalType": "address",
          "name": "to",
          "type": "address"
        },
        {
          "internalType": "uint256",
          "name": "value",
          "type": "uint256"
        }
      ],
      "name": "transfer",
      "outputs": [
        {
          "internalType": "bool",
          "name": "",
          "type": "bool"
        }
      ],
      "stateMutability": "nonpayable",
      "type": "function"
    },
    {
      "inputs": [
        {
          "internalType": "address",
          "name": "spender",
          "type": "address"
        },
        {
          "internalType": "uint256",
          "name": "value",
          "type": "uint256"
        }
      ],
      "name": "approve",
      "outputs": [
        {
          "internalType": "bool",
          "name": "",
          "type": "bool"
        }
      ],
      "stateMutability": "nonpayable",
      "type": "function"
    },
    {
      "inputs": [
        {
          "internalType": "address",
          "name": "spender",
          "type": "address"
        },
        {
          "internalType": "uint256",
          "name": "subtractedValue",
          "type": "uint256"
        }
      ],
      "name": "decreaseAllowance",
      "outputs": [
        {
          "internalType": "bool",
          "name": "",
          "type": "bool"
        }
      ],
      "stateMutability": "nonpayable",
      "type": "function"
    },
    {
      "inputs": [
        {
          "internalType": "address",
          "name": "_from",
          "type": "address"
        },
        {
          "internalType": "address",
          "name": "to",
          "type": "address"
        },
        {
          "internalType": "uint256",
          "name": "value",
          "type": "uint256"
        }
      ],
      "name": "transferFrom",
      "outputs": [
        {
          "internalType": "bool",
          "name": "",
          "type": "bool"
        }
      ],
      "stateMutability": "nonpayable",
      "type": "function"
    },
    {
      "inputs": [
        {
          "internalType": "address",
          "name": "spender",
          "type": "address"
        },
        {
          "internalType": "uint256",
          "name": "addedValue",
          "type": "uint256"
        }
      ],
      "name": "increaseAllowance",
      "outputs": [
        {
          "internalType": "bool",
          "name": "",
          "type": "bool"
        }
      ],
      "stateMutability": "nonpayable",
      "type": "function"
    },
    {
      "inputs": [
        {
          "internalType": "address",
          "name": "account",
          "type": "address"
        },
        {
          "internalType": "uint256",
          "name": "amount",
          "type": "uint256"
        }
      ],
      "name": "_burn",
      "outputs": [],
      "stateMutability": "nonpayable",
      "type": "function"
    },
    {
      "inputs": [
        {
          "internalType": "address",
          "name": "account",
          "type": "address"
        },
        {
          "internalType": "uint256",
          "name": "amount",
          "type": "uint256"
        }
      ],
      "name": "_burnFrom",
      "outputs": [],
      "stateMutability": "nonpayable",
      "type": "function"
    },
    {
      "inputs": [
        {
          "internalType": "address",
          "name": "account",
          "type": "address"
        },
        {
          "internalType": "uint256",
          "name": "amount",
          "type": "uint256"
        }
      ],
      "name": "mint",
      "outputs": [],
      "stateMutability": "nonpayable",
      "type": "function"
    }
  ],
  "bytecode": "0x60806040523480156200001157600080fd5b50604051620037c5380380620037c5833981810160405260408110156200003757600080fd5b81019080805190602001909291908051906020019092919050505081600460006101000a81548173ffffffffffffffffffffffffffffffffffffffff021916908373ffffffffffffffffffffffffffffffffffffffff1602179055506012600360146101000a81548160ff021916908360ff1602179055506040518060400160405280601281526020017f5772617070656420457175696c6962726961000000000000000000000000000081525060019080519060200190620000fc929190620001d4565b506040518060400160405280600481526020017f7758455100000000000000000000000000000000000000000000000000000000815250600290805190602001906200014a929190620001d4565b5033600360006101000a81548173ffffffffffffffffffffffffffffffffffffffff021916908373ffffffffffffffffffffffffffffffffffffffff160217905550806000806101000a81548173ffffffffffffffffffffffffffffffffffffffff021916908373ffffffffffffffffffffffffffffffffffffffff16021790555050506200028a565b828054600181600116156101000203166002900490600052602060002090601f0160209004810192826200020c576000855562000258565b82601f106200022757805160ff191683800117855562000258565b8280016001018555821562000258579182015b82811115620002575782518255916020019190600101906200023a565b5b5090506200026791906200026b565b5090565b5b80821115620002865760008160009055506001016200026c565b5090565b61352b806200029a6000396000f3fe608060405234801561001057600080fd5b5060043610610154576000357c010000000000000000000000000000000000000000000000000000000090048063462dcfa0116100d5578063a457c2d711610099578063a457c2d714610653578063a9059cbb146106b7578063b09f12661461071b578063cd446e221461079e578063d28d8852146107d2578063ecb101351461085557610154565b8063462dcfa0146104825780636161eb18146104dc57806370a082311461052a57806395d89b4114610582578063a22b35ce1461060557610154565b806323b872dd1161011c57806323b872dd1461030a578063313ce5671461038e57806332424aa3146103af57806339509351146103d057806340c10f191461043457610154565b806306fdde0314610159578063095ea7b3146101dc57806318160ddd146102405780631a46ec821461025e5780631e2f73b1146102d6575b600080fd5b610161610875565b6040518080602001828103825283818151815260200191508051906020019080838360005b838110156101a1578082015181840152602081019050610186565b50505050905090810190601f1680156101ce5780820380516001836020036101000a031916815260200191505b509250505060405180910390f35b610228600480360360408110156101f257600080fd5b81019080803573ffffffffffffffffffffffffffffffffffffffff16906020019092919080359060200190929190505050610917565b60405180821515815260200191505060405180910390f35b610248610bd2565b6040518082815260200191505060405180910390f35b6102c06004803603604081101561027457600080fd5b81019080803573ffffffffffffffffffffffffffffffffffffffff169060200190929190803573ffffffffffffffffffffffffffffffffffffffff169060200190929190505050610c98565b6040518082815260200191505060405180910390f35b6102de610da0565b604051808273ffffffffffffffffffffffffffffffffffffffff16815260200191505060405180910390f35b6103766004803603606081101561032057600080fd5b81019080803573ffffffffffffffffffffffffffffffffffffffff169060200190929190803573ffffffffffffffffffffffffffffffffffffffff16906020019092919080359060200190929190505050610dc6565b60405180821515815260200191505060405180910390f35b61039661146d565b604051808260ff16815260200191505060405180910390f35b6103b7611484565b604051808260ff16815260200191505060405180910390f35b61041c600480360360408110156103e657600080fd5b81019080803573ffffffffffffffffffffffffffffffffffffffff16906020019092919080359060200190929190505050611497565b60405180821515815260200191505060405180910390f35b6104806004803603604081101561044a57600080fd5b81019080803573ffffffffffffffffffffffffffffffffffffffff169060200190929190803590602001909291905050506117a0565b005b6104c46004803603602081101561049857600080fd5b81019080803573ffffffffffffffffffffffffffffffffffffffff169060200190929190505050611d7c565b60405180821515815260200191505060405180910390f35b610528600480360360408110156104f257600080fd5b81019080803573ffffffffffffffffffffffffffffffffffffffff16906020019092919080359060200190929190505050611e59565b005b61056c6004803603602081101561054057600080fd5b81019080803573ffffffffffffffffffffffffffffffffffffffff169060200190929190505050612522565b6040518082815260200191505060405180910390f35b61058a61260b565b6040518080602001828103825283818151815260200191508051906020019080838360005b838110156105ca5780820151818401526020810190506105af565b50505050905090810190601f1680156105f75780820380516001836020036101000a031916815260200191505b509250505060405180910390f35b6106516004803603604081101561061b57600080fd5b81019080803573ffffffffffffffffffffffffffffffffffffffff169060200190929190803590602001909291905050506126ad565b005b61069f6004803603604081101561066957600080fd5b81019080803573ffffffffffffffffffffffffffffffffffffffff16906020019092919080359060200190929190505050612829565b60405180821515815260200191505060405180910390f35b610703600480360360408110156106cd57600080fd5b81019080803573ffffffffffffffffffffffffffffffffffffffff16906020019092919080359060200190929190505050612a34565b60405180821515815260200191505060405180910390f35b610723613194565b6040518080602001828103825283818151815260200191508051906020019080838360005b83811015610763578082015181840152602081019050610748565b50505050905090810190601f1680156107905780820380516001836020036101000a031916815260200191505b509250505060405180910390f35b6107a6613232565b604051808273ffffffffffffffffffffffffffffffffffffffff16815260200191505060405180910390f35b6107da613256565b6040518080602001828103825283818151815260200191508051906020019080838360005b8381101561081a5780820151818401526020810190506107ff565b50505050905090810190601f1680156108475780820380516001836020036101000a031916815260200191505b509250505060405180910390f35b61085d6132f4565b60405180821515815260200191505060405180910390f35b606060018054600181600116156101000203166002900480601f01602080910402602001604051908101604052809291908181526020018280546001816001161561010002031660029004801561090d5780601f106108e25761010080835404028352916020019161090d565b820191906000526020600020905b8154815290600101906020018083116108f057829003601f168201915b5050505050905090565b60008073ffffffffffffffffffffffffffffffffffffffff168373ffffffffffffffffffffffffffffffffffffffff16141561095257600080fd5b81600460009054906101000a900473ffffffffffffffffffffffffffffffffffffffff1673ffffffffffffffffffffffffffffffffffffffff166370a08231336040518263ffffffff167c0100000000000000000000000000000000000000000000000000000000028152600401808273ffffffffffffffffffffffffffffffffffffffff16815260200191505060206040518083038186803b1580156109f857600080fd5b505afa158015610a0c573d6000803e3d6000fd5b505050506040513d6020811015610a2257600080fd5b81019080805190602001909291905050501015610a3e57600080fd5b600460009054906101000a900473ffffffffffffffffffffffffffffffffffffffff1673ffffffffffffffffffffffffffffffffffffffff166349a3d2bb3385856040518463ffffffff167c0100000000000000000000000000000000000000000000000000000000028152600401808473ffffffffffffffffffffffffffffffffffffffff1681526020018373ffffffffffffffffffffffffffffffffffffffff16815260200182815260200193505050506040805180830381600087803b158015610b0a57600080fd5b505af1158015610b1e573d6000803e3d6000fd5b505050506040513d6040811015610b3457600080fd5b810190808051906020019092919080519060200190929190505050505081610b5c3385610c98565b14610b6357fe5b8273ffffffffffffffffffffffffffffffffffffffff163373ffffffffffffffffffffffffffffffffffffffff167f8c5be1e5ebec7d5bd14f71427d1e84f3dd0314c0f7b2291e5b200ac8c7c3b925846040518082815260200191505060405180910390a36001905092915050565b6000600460009054906101000a900473ffffffffffffffffffffffffffffffffffffffff1673ffffffffffffffffffffffffffffffffffffffff166318160ddd6040518163ffffffff167c010000000000000000000000000000000000000000000000000000000002815260040160206040518083038186803b158015610c5857600080fd5b505afa158015610c6c573d6000803e3d6000fd5b505050506040513d6020811015610c8257600080fd5b8101908080519060200190929190505050905090565b6000600460009054906101000a900473ffffffffffffffffffffffffffffffffffffffff1673ffffffffffffffffffffffffffffffffffffffff1663dd62ed3e84846040518363ffffffff167c0100000000000000000000000000000000000000000000000000000000028152600401808373ffffffffffffffffffffffffffffffffffffffff1681526020018273ffffffffffffffffffffffffffffffffffffffff1681526020019250505060206040518083038186803b158015610d5d57600080fd5b505afa158015610d71573d6000803e3d6000fd5b505050506040513d6020811015610d8757600080fd5b8101908080519060200190929190505050905092915050565b600360009054906101000a900473ffffffffffffffffffffffffffffffffffffffff1681565b60008073ffffffffffffffffffffffffffffffffffffffff168373ffffffffffffffffffffffffffffffffffffffff161415610e0157600080fd5b600460009054906101000a900473ffffffffffffffffffffffffffffffffffffffff1673ffffffffffffffffffffffffffffffffffffffff166370a08231856040518263ffffffff167c0100000000000000000000000000000000000000000000000000000000028152600401808273ffffffffffffffffffffffffffffffffffffffff16815260200191505060206040518083038186803b158015610ea657600080fd5b505afa158015610eba573d6000803e3d6000fd5b505050506040513d6020811015610ed057600080fd5b8101908080519060200190929190505050821115610eed57600080fd5b610ef78433610c98565b821115610f0357600080fd5b600460009054906101000a900473ffffffffffffffffffffffffffffffffffffffff1673ffffffffffffffffffffffffffffffffffffffff1663e0b1cccb8561103485600460009054906101000a900473ffffffffffffffffffffffffffffffffffffffff1673ffffffffffffffffffffffffffffffffffffffff166370a082318a6040518263ffffffff167c0100000000000000000000000000000000000000000000000000000000028152600401808273ffffffffffffffffffffffffffffffffffffffff16815260200191505060206040518083038186803b158015610feb57600080fd5b505afa158015610fff573d6000803e3d6000fd5b505050506040513d602081101561101557600080fd5b81019080805190602001909291905050506134b690919063ffffffff16565b6040518363ffffffff167c0100000000000000000000000000000000000000000000000000000000028152600401808373ffffffffffffffffffffffffffffffffffffffff168152602001828152602001925050506040805180830381600087803b1580156110a257600080fd5b505af11580156110b6573d6000803e3d6000fd5b505050506040513d60408110156110cc57600080fd5b8101908080519060200190929190805190602001909291905050505050600460009054906101000a900473ffffffffffffffffffffffffffffffffffffffff1673ffffffffffffffffffffffffffffffffffffffff1663e0b1cccb8461121a85600460009054906101000a900473ffffffffffffffffffffffffffffffffffffffff1673ffffffffffffffffffffffffffffffffffffffff166370a08231896040518263ffffffff167c0100000000000000000000000000000000000000000000000000000000028152600401808273ffffffffffffffffffffffffffffffffffffffff16815260200191505060206040518083038186803b1580156111d157600080fd5b505afa1580156111e5573d6000803e3d6000fd5b505050506040513d60208110156111fb57600080fd5b81019080805190602001909291905050506134d690919063ffffffff16565b6040518363ffffffff167c0100000000000000000000000000000000000000000000000000000000028152600401808373ffffffffffffffffffffffffffffffffffffffff168152602001828152602001925050506040805180830381600087803b15801561128857600080fd5b505af115801561129c573d6000803e3d6000fd5b505050506040513d60408110156112b257600080fd5b8101908080519060200190929190805190602001909291905050505050600460009054906101000a900473ffffffffffffffffffffffffffffffffffffffff1673ffffffffffffffffffffffffffffffffffffffff166349a3d2bb853361132b8661131d8a33610c98565b6134b690919063ffffffff16565b6040518463ffffffff167c0100000000000000000000000000000000000000000000000000000000028152600401808473ffffffffffffffffffffffffffffffffffffffff1681526020018373ffffffffffffffffffffffffffffffffffffffff16815260200182815260200193505050506040805180830381600087803b1580156113b657600080fd5b505af11580156113ca573d6000803e3d6000fd5b505050506040513d60408110156113e057600080fd5b81019080805190602001909291908051906020019092919050505050508273ffffffffffffffffffffffffffffffffffffffff168473ffffffffffffffffffffffffffffffffffffffff167fddf252ad1be2c89b69c2b068fc378daa952ba7f163c4a11628f55a4df523b3ef846040518082815260200191505060405180910390a3600190509392505050565b6000600360149054906101000a900460ff16905090565b600360149054906101000a900460ff1681565b60008073ffffffffffffffffffffffffffffffffffffffff168373ffffffffffffffffffffffffffffffffffffffff1614156114d257600080fd5b60006114de3385610c98565b9050600460009054906101000a900473ffffffffffffffffffffffffffffffffffffffff1673ffffffffffffffffffffffffffffffffffffffff166370a08231336040518263ffffffff167c0100000000000000000000000000000000000000000000000000000000028152600401808273ffffffffffffffffffffffffffffffffffffffff16815260200191505060206040518083038186803b15801561158557600080fd5b505afa158015611599573d6000803e3d6000fd5b505050506040513d60208110156115af57600080fd5b81019080805190602001909291905050506115d384836134d690919063ffffffff16565b11156115de57600080fd5b600460009054906101000a900473ffffffffffffffffffffffffffffffffffffffff1673ffffffffffffffffffffffffffffffffffffffff166349a3d2bb338661163187866134d690919063ffffffff16565b6040518463ffffffff167c0100000000000000000000000000000000000000000000000000000000028152600401808473ffffffffffffffffffffffffffffffffffffffff1681526020018373ffffffffffffffffffffffffffffffffffffffff16815260200182815260200193505050506040805180830381600087803b1580156116bc57600080fd5b505af11580156116d0573d6000803e3d6000fd5b505050506040513d60408110156116e657600080fd5b810190808051906020019092919080519060200190929190505050505061170d3385610c98565b61172084836134d690919063ffffffff16565b1461172757fe5b8373ffffffffffffffffffffffffffffffffffffffff163373ffffffffffffffffffffffffffffffffffffffff167f8c5be1e5ebec7d5bd14f71427d1e84f3dd0314c0f7b2291e5b200ac8c7c3b9256117803388610c98565b6040518082815260200191505060405180910390a3600191505092915050565b6117a86132f4565b6117b157600080fd5b6000600460009054906101000a900473ffffffffffffffffffffffffffffffffffffffff1673ffffffffffffffffffffffffffffffffffffffff166318160ddd6040518163ffffffff167c010000000000000000000000000000000000000000000000000000000002815260040160206040518083038186803b15801561183757600080fd5b505afa15801561184b573d6000803e3d6000fd5b505050506040513d602081101561186157600080fd5b81019080805190602001909291905050509050600460009054906101000a900473ffffffffffffffffffffffffffffffffffffffff1673ffffffffffffffffffffffffffffffffffffffff16636bd080496118c584846134d690919063ffffffff16565b6040518263ffffffff167c010000000000000000000000000000000000000000000000000000000002815260040180828152602001915050602060405180830381600087803b15801561191757600080fd5b505af115801561192b573d6000803e3d6000fd5b505050506040513d602081101561194157600080fd5b81019080805190602001909291905050505080611a2583600460009054906101000a900473ffffffffffffffffffffffffffffffffffffffff1673ffffffffffffffffffffffffffffffffffffffff166318160ddd6040518163ffffffff167c010000000000000000000000000000000000000000000000000000000002815260040160206040518083038186803b1580156119dc57600080fd5b505afa1580156119f0573d6000803e3d6000fd5b505050506040513d6020811015611a0657600080fd5b81019080805190602001909291905050506134b690919063ffffffff16565b14611a2c57fe5b6000600460009054906101000a900473ffffffffffffffffffffffffffffffffffffffff1673ffffffffffffffffffffffffffffffffffffffff166370a08231856040518263ffffffff167c0100000000000000000000000000000000000000000000000000000000028152600401808273ffffffffffffffffffffffffffffffffffffffff16815260200191505060206040518083038186803b158015611ad357600080fd5b505afa158015611ae7573d6000803e3d6000fd5b505050506040513d6020811015611afd57600080fd5b81019080805190602001909291905050509050600460009054906101000a900473ffffffffffffffffffffffffffffffffffffffff1673ffffffffffffffffffffffffffffffffffffffff1663e0b1cccb85611b6286856134d690919063ffffffff16565b6040518363ffffffff167c0100000000000000000000000000000000000000000000000000000000028152600401808373ffffffffffffffffffffffffffffffffffffffff168152602001828152602001925050506040805180830381600087803b158015611bd057600080fd5b505af1158015611be4573d6000803e3d6000fd5b505050506040513d6040811015611bfa57600080fd5b810190808051906020019092919080519060200190929190505050505080611d0a84600460009054906101000a900473ffffffffffffffffffffffffffffffffffffffff1673ffffffffffffffffffffffffffffffffffffffff166370a08231886040518263ffffffff167c0100000000000000000000000000000000000000000000000000000000028152600401808273ffffffffffffffffffffffffffffffffffffffff16815260200191505060206040518083038186803b158015611cc157600080fd5b505afa158015611cd5573d6000803e3d6000fd5b505050506040513d6020811015611ceb57600080fd5b81019080805190602001909291905050506134b690919063ffffffff16565b14611d1157fe5b8373ffffffffffffffffffffffffffffffffffffffff163373ffffffffffffffffffffffffffffffffffffffff167fddf252ad1be2c89b69c2b068fc378daa952ba7f163c4a11628f55a4df523b3ef856040518082815260200191505060405180910390a350505050565b60008060009054906101000a900473ffffffffffffffffffffffffffffffffffffffff1673ffffffffffffffffffffffffffffffffffffffff163373ffffffffffffffffffffffffffffffffffffffff1614611dd757600080fd5b8173ffffffffffffffffffffffffffffffffffffffff1660008054906101000a9050505060008054906101000a900473ffffffffffffffffffffffffffffffffffffffff1673ffffffffffffffffffffffffffffffffffffffff168273ffffffffffffffffffffffffffffffffffffffff1614611e5057fe5b60019050919050565b611e616132f4565b611e6a57600080fd5b600460009054906101000a900473ffffffffffffffffffffffffffffffffffffffff1673ffffffffffffffffffffffffffffffffffffffff166370a08231836040518263ffffffff167c0100000000000000000000000000000000000000000000000000000000028152600401808273ffffffffffffffffffffffffffffffffffffffff16815260200191505060206040518083038186803b158015611f0f57600080fd5b505afa158015611f23573d6000803e3d6000fd5b505050506040513d6020811015611f3957600080fd5b8101908080519060200190929190505050811115611f5657600080fd5b6000600460009054906101000a900473ffffffffffffffffffffffffffffffffffffffff1673ffffffffffffffffffffffffffffffffffffffff166318160ddd6040518163ffffffff167c010000000000000000000000000000000000000000000000000000000002815260040160206040518083038186803b158015611fdc57600080fd5b505afa158015611ff0573d6000803e3d6000fd5b505050506040513d602081101561200657600080fd5b81019080805190602001909291905050509050600460009054906101000a900473ffffffffffffffffffffffffffffffffffffffff1673ffffffffffffffffffffffffffffffffffffffff16636bd0804961206a84846134b690919063ffffffff16565b6040518263ffffffff167c010000000000000000000000000000000000000000000000000000000002815260040180828152602001915050602060405180830381600087803b1580156120bc57600080fd5b505af11580156120d0573d6000803e3d6000fd5b505050506040513d60208110156120e657600080fd5b8101908080519060200190929190505050506121c982600460009054906101000a900473ffffffffffffffffffffffffffffffffffffffff1673ffffffffffffffffffffffffffffffffffffffff166318160ddd6040518163ffffffff167c010000000000000000000000000000000000000000000000000000000002815260040160206040518083038186803b15801561218057600080fd5b505afa158015612194573d6000803e3d6000fd5b505050506040513d60208110156121aa57600080fd5b81019080805190602001909291905050506134d690919063ffffffff16565b81146121d157fe5b6000600460009054906101000a900473ffffffffffffffffffffffffffffffffffffffff1673ffffffffffffffffffffffffffffffffffffffff166370a08231856040518263ffffffff167c0100000000000000000000000000000000000000000000000000000000028152600401808273ffffffffffffffffffffffffffffffffffffffff16815260200191505060206040518083038186803b15801561227857600080fd5b505afa15801561228c573d6000803e3d6000fd5b505050506040513d60208110156122a257600080fd5b81019080805190602001909291905050509050600460009054906101000a900473ffffffffffffffffffffffffffffffffffffffff1673ffffffffffffffffffffffffffffffffffffffff1663e0b1cccb8561230786856134b690919063ffffffff16565b6040518363ffffffff167c0100000000000000000000000000000000000000000000000000000000028152600401808373ffffffffffffffffffffffffffffffffffffffff168152602001828152602001925050506040805180830381600087803b15801561237557600080fd5b505af1158015612389573d6000803e3d6000fd5b505050506040513d604081101561239f57600080fd5b81019080805190602001909291908051906020019092919050505050506124ae83600460009054906101000a900473ffffffffffffffffffffffffffffffffffffffff1673ffffffffffffffffffffffffffffffffffffffff166370a08231876040518263ffffffff167c0100000000000000000000000000000000000000000000000000000000028152600401808273ffffffffffffffffffffffffffffffffffffffff16815260200191505060206040518083038186803b15801561246557600080fd5b505afa158015612479573d6000803e3d6000fd5b505050506040513d602081101561248f57600080fd5b81019080805190602001909291905050506134d690919063ffffffff16565b81146124b657fe5b600073ffffffffffffffffffffffffffffffffffffffff168473ffffffffffffffffffffffffffffffffffffffff167fddf252ad1be2c89b69c2b068fc378daa952ba7f163c4a11628f55a4df523b3ef856040518082815260200191505060405180910390a350505050565b6000600460009054906101000a900473ffffffffffffffffffffffffffffffffffffffff1673ffffffffffffffffffffffffffffffffffffffff166370a08231836040518263ffffffff167c0100000000000000000000000000000000000000000000000000000000028152600401808273ffffffffffffffffffffffffffffffffffffffff16815260200191505060206040518083038186803b1580156125c957600080fd5b505afa1580156125dd573d6000803e3d6000fd5b505050506040513d60208110156125f357600080fd5b81019080805190602001909291905050509050919050565b606060028054600181600116156101000203166002900480601f0160208091040260200160405190810160405280929190818152602001828054600181600116156101000203166002900480156126a35780601f10612678576101008083540402835291602001916126a3565b820191906000526020600020905b81548152906001019060200180831161268657829003601f168201915b5050505050905090565b6126b78233610c98565b8111156126c357600080fd5b60006126cf8333610c98565b9050600460009054906101000a900473ffffffffffffffffffffffffffffffffffffffff1673ffffffffffffffffffffffffffffffffffffffff166349a3d2bb843361272486866134b690919063ffffffff16565b6040518463ffffffff167c0100000000000000000000000000000000000000000000000000000000028152600401808473ffffffffffffffffffffffffffffffffffffffff1681526020018373ffffffffffffffffffffffffffffffffffffffff16815260200182815260200193505050506040805180830381600087803b1580156127af57600080fd5b505af11580156127c3573d6000803e3d6000fd5b505050506040513d60408110156127d957600080fd5b81019080805190602001909291908051906020019092919050505050506128008333610c98565b61281383836134b690919063ffffffff16565b1461281a57fe5b6128248383611e59565b505050565b60008073ffffffffffffffffffffffffffffffffffffffff168373ffffffffffffffffffffffffffffffffffffffff16141561286457600080fd5b60006128703385610c98565b9050600460009054906101000a900473ffffffffffffffffffffffffffffffffffffffff1673ffffffffffffffffffffffffffffffffffffffff166349a3d2bb33866128c587866134b690919063ffffffff16565b6040518463ffffffff167c0100000000000000000000000000000000000000000000000000000000028152600401808473ffffffffffffffffffffffffffffffffffffffff1681526020018373ffffffffffffffffffffffffffffffffffffffff16815260200182815260200193505050506040805180830381600087803b15801561295057600080fd5b505af1158015612964573d6000803e3d6000fd5b505050506040513d604081101561297a57600080fd5b81019080805190602001909291908051906020019092919050505050506129a13385610c98565b6129b484836134b690919063ffffffff16565b146129bb57fe5b8373ffffffffffffffffffffffffffffffffffffffff163373ffffffffffffffffffffffffffffffffffffffff167f8c5be1e5ebec7d5bd14f71427d1e84f3dd0314c0f7b2291e5b200ac8c7c3b925612a143388610c98565b6040518082815260200191505060405180910390a3600191505092915050565b6000600460009054906101000a900473ffffffffffffffffffffffffffffffffffffffff1673ffffffffffffffffffffffffffffffffffffffff166370a08231336040518263ffffffff167c0100000000000000000000000000000000000000000000000000000000028152600401808273ffffffffffffffffffffffffffffffffffffffff16815260200191505060206040518083038186803b158015612adb57600080fd5b505afa158015612aef573d6000803e3d6000fd5b505050506040513d6020811015612b0557600080fd5b8101908080519060200190929190505050821115612b2257600080fd5b600073ffffffffffffffffffffffffffffffffffffffff168373ffffffffffffffffffffffffffffffffffffffff161415612b5c57600080fd5b6000600460009054906101000a900473ffffffffffffffffffffffffffffffffffffffff1673ffffffffffffffffffffffffffffffffffffffff166370a08231336040518263ffffffff167c0100000000000000000000000000000000000000000000000000000000028152600401808273ffffffffffffffffffffffffffffffffffffffff16815260200191505060206040518083038186803b158015612c0357600080fd5b505afa158015612c17573d6000803e3d6000fd5b505050506040513d6020811015612c2d57600080fd5b81019080805190602001909291905050509050600460009054906101000a900473ffffffffffffffffffffffffffffffffffffffff1673ffffffffffffffffffffffffffffffffffffffff1663e0b1cccb33612c9286856134b690919063ffffffff16565b6040518363ffffffff167c0100000000000000000000000000000000000000000000000000000000028152600401808373ffffffffffffffffffffffffffffffffffffffff168152602001828152602001925050506040805180830381600087803b158015612d0057600080fd5b505af1158015612d14573d6000803e3d6000fd5b505050506040513d6040811015612d2a57600080fd5b810190808051906020019092919080519060200190929190505050505080612e3a84600460009054906101000a900473ffffffffffffffffffffffffffffffffffffffff1673ffffffffffffffffffffffffffffffffffffffff166370a08231336040518263ffffffff167c0100000000000000000000000000000000000000000000000000000000028152600401808273ffffffffffffffffffffffffffffffffffffffff16815260200191505060206040518083038186803b158015612df157600080fd5b505afa158015612e05573d6000803e3d6000fd5b505050506040513d6020811015612e1b57600080fd5b81019080805190602001909291905050506134d690919063ffffffff16565b14612e4157fe5b600460009054906101000a900473ffffffffffffffffffffffffffffffffffffffff1673ffffffffffffffffffffffffffffffffffffffff166370a08231856040518263ffffffff167c0100000000000000000000000000000000000000000000000000000000028152600401808273ffffffffffffffffffffffffffffffffffffffff16815260200191505060206040518083038186803b158015612ee657600080fd5b505afa158015612efa573d6000803e3d6000fd5b505050506040513d6020811015612f1057600080fd5b81019080805190602001909291905050509050600460009054906101000a900473ffffffffffffffffffffffffffffffffffffffff1673ffffffffffffffffffffffffffffffffffffffff1663e0b1cccb85612f7586856134d690919063ffffffff16565b6040518363ffffffff167c0100000000000000000000000000000000000000000000000000000000028152600401808373ffffffffffffffffffffffffffffffffffffffff168152602001828152602001925050506040805180830381600087803b158015612fe357600080fd5b505af1158015612ff7573d6000803e3d6000fd5b505050506040513d604081101561300d57600080fd5b81019080805190602001909291908051906020019092919050505050508061311d84600460009054906101000a900473ffffffffffffffffffffffffffffffffffffffff1673ffffffffffffffffffffffffffffffffffffffff166370a08231886040518263ffffffff167c0100000000000000000000000000000000000000000000000000000000028152600401808273ffffffffffffffffffffffffffffffffffffffff16815260200191505060206040518083038186803b1580156130d457600080fd5b505afa1580156130e8573d6000803e3d6000fd5b505050506040513d60208110156130fe57600080fd5b81019080805190602001909291905050506134b690919063ffffffff16565b1461312457fe5b8373ffffffffffffffffffffffffffffffffffffffff163373ffffffffffffffffffffffffffffffffffffffff167fddf252ad1be2c89b69c2b068fc378daa952ba7f163c4a11628f55a4df523b3ef856040518082815260200191505060405180910390a3600191505092915050565b60028054600181600116156101000203166002900480601f01602080910402602001604051908101604052809291908181526020018280546001816001161561010002031660029004801561322a5780601f106131ff5761010080835404028352916020019161322a565b820191906000526020600020905b81548152906001019060200180831161320d57829003601f168201915b505050505081565b60008054906101000a900473ffffffffffffffffffffffffffffffffffffffff1681565b60018054600181600116156101000203166002900480601f0160208091040260200160405190810160405280929190818152602001828054600181600116156101000203166002900480156132ec5780601f106132c1576101008083540402835291602001916132ec565b820191906000526020600020905b8154815290600101906020018083116132cf57829003601f168201915b505050505081565b60008033604051602401808273ffffffffffffffffffffffffffffffffffffffff1681526020019150506040516020818303038152906040527fcec70038000000000000000000000000000000000000000000000000000000007bffffffffffffffffffffffffffffffffffffffffffffffffffffffff19166020820180517bffffffffffffffffffffffffffffffffffffffffffffffffffffffff8381831617835250505050905060008060008054906101000a900473ffffffffffffffffffffffffffffffffffffffff1673ffffffffffffffffffffffffffffffffffffffff16836040518082805190602001908083835b6020831061340b57805182526020820191506020810190506020830392506133e8565b6001836020036101000a0380198251168184511680821785525050505050509050019150506000604051808303816000865af19150503d806000811461346d576040519150601f19603f3d011682016040523d82523d6000602084013e613472565b606091505b5091509150600081806020019051602081101561348e57600080fd5b81019080805190602001909291905050509050806134ab57600080fd5b600194505050505090565b6000828211156134c557600080fd5b600082840390508091505092915050565b6000808284019050838110156134eb57600080fd5b809150509291505056fea264697066735822122070e1a6b9d4fcf3d9fecbaddd947d023672f31ec93dd90f00a5477f4e8333845664736f6c63430007060033",
  "immutableReferences": {},
  "source": "// SPDX-License-Identifier: MIT\r\npragma solidity >=0.4.22 <0.8.0;\r\nimport \"./oracle/AggregatorInterface.sol\";\r\nimport \"./tools/DataStorage.sol\";\r\nimport \"./tools/ExternalAccessible.sol\";\r\nimport \"./tools/SafeMath.sol\";\r\n\r\ncontract wXEQ is ExternalAccessible {\r\n\r\n    using SafeMath for *;\r\n\r\n    struct mintXEQStruct {\r\n        address addr;\r\n        uint amount;\r\n        string xeqAddress;\r\n    }\r\n\r\n    struct TxStorage {\r\n        string hash;\r\n        uint amountMinted;\r\n    }\r\n\r\n    string public _name;\r\n    string public _symbol;\r\n    address public contractCreator;\r\n    uint8 public _decimals;\r\n    DataStorage dataStorage;\r\n\r\n    event Transfer(address indexed from, address indexed to, uint256 value);\r\n    event Approval(address indexed owner, address indexed spender, uint256 value);\r\n\r\n    constructor (address d, address _masterContract) {\r\n        dataStorage = DataStorage(d);\r\n        _decimals = 18;\r\n        _name = \"Wrapped Equilibria\";\r\n        _symbol = \"wXEQ\";\r\n        contractCreator = msg.sender;\r\n        masterContract = _masterContract;\r\n    }\r\n\r\n    function decimals() public view returns (uint8) {\r\n        return _decimals;\r\n    }\r\n\r\n    function name() public view returns (string memory) {\r\n        return _name;\r\n    }\r\n\r\n    function symbol() public view returns (string memory) {\r\n        return _symbol;\r\n    }\r\n\r\n    function totalSupply() public view returns (uint256) {\r\n        return dataStorage.totalSupply();\r\n    }\r\n\r\n    function balanceOf(address _owner) public view returns (uint256) {\r\n        return dataStorage.balanceOf(_owner);\r\n    }\r\n\r\n    function allowanceOf(address _owner, address _spender) public view returns (uint256) {\r\n        return dataStorage.allowance(_owner, _spender);\r\n    }\r\n\r\n    function transfer(address to, uint256 value) public returns (bool) {\r\n        require(value <= dataStorage.balanceOf(msg.sender));\r\n        require(to != address(0));\r\n        uint256 bal = dataStorage.balanceOf(msg.sender);\r\n        dataStorage.updateBalance(msg.sender, bal.sub(value));\r\n        assert(dataStorage.balanceOf(msg.sender).add(value) == bal);\r\n        bal = dataStorage.balanceOf(to);\r\n        dataStorage.updateBalance(to, bal.add(value));\r\n        assert(dataStorage.balanceOf(to).sub(value) == bal);\r\n        emit Transfer(msg.sender, to, value);\r\n        return true;\r\n    }\r\n\r\n    function approve(address spender, uint256 value) public returns (bool) {\r\n        require(spender != address(0));\r\n        require(dataStorage.balanceOf(msg.sender) >= value);\r\n        dataStorage.updateAllowed(msg.sender, spender, value);\r\n        assert(allowanceOf(msg.sender, spender) == value);\r\n        emit Approval(msg.sender, spender, value);\r\n        return true;\r\n    }\r\n\r\n    function decreaseAllowance(address spender,uint256 subtractedValue) public returns (bool) {\r\n        require(spender != address(0));\r\n        uint256 allow = allowanceOf(msg.sender, spender);\r\n        dataStorage.updateAllowed(msg.sender, spender, allow.sub(subtractedValue));\r\n        assert(allow.sub(subtractedValue) == allowanceOf(msg.sender, spender));\r\n        emit Approval(msg.sender, spender, allowanceOf(msg.sender, spender));\r\n        return true;\r\n    }\r\n\r\n    function transferFrom(address _from,address to,uint256 value) public returns (bool){\r\n        require(to != address(0));\r\n        require(value <= dataStorage.balanceOf(_from));\r\n        require(value <= allowanceOf(_from, msg.sender));\r\n\r\n        dataStorage.updateBalance(_from, dataStorage.balanceOf(_from).sub(value));\r\n        dataStorage.updateBalance(to, dataStorage.balanceOf(to).add(value));\r\n        dataStorage.updateAllowed(_from, msg.sender, allowanceOf(_from, msg.sender).sub(value));\r\n        emit Transfer(_from, to, value);\r\n        return true;\r\n    }\r\n\r\n    function increaseAllowance(address spender,uint256 addedValue) public returns (bool) {\r\n        require(spender != address(0));\r\n        uint256 allow = allowanceOf(msg.sender, spender);\r\n        require(allow.add(addedValue) <= dataStorage.balanceOf(msg.sender));\r\n        dataStorage.updateAllowed(msg.sender, spender, allow.add(addedValue));\r\n        assert(allow.add(addedValue) == allowanceOf(msg.sender, spender));\r\n        emit Approval(msg.sender, spender, allowanceOf(msg.sender, spender));\r\n        return true;\r\n    }\r\n\r\n    function _burn(address account, uint256 amount) public hasAccess {\r\n        require(amount <= dataStorage.balanceOf(account));\r\n        uint256 supply = dataStorage.totalSupply();\r\n        dataStorage.updateSupply(supply.sub(amount));\r\n        assert(supply == dataStorage.totalSupply().add(amount));\r\n        uint256 bal = dataStorage.balanceOf(account);\r\n        dataStorage.updateBalance(account, bal.sub(amount));\r\n        assert(bal == dataStorage.balanceOf(account).add(amount));\r\n        emit Transfer(account, address(0), amount);\r\n    }\r\n\r\n    function _burnFrom(address account, uint256 amount) public {\r\n        require(amount <= allowanceOf(account, msg.sender));\r\n        uint256 allow = allowanceOf(account, msg.sender);\r\n        dataStorage.updateAllowed(account, msg.sender, allow.sub(amount));\r\n        assert(allow.sub(amount) == allowanceOf(account, msg.sender));\r\n        _burn(account, amount);\r\n    }\r\n\r\n    function mint(address account, uint256 amount) public hasAccess {\r\n        uint256 supp = dataStorage.totalSupply();\r\n        dataStorage.updateSupply(supp.add(amount));\r\n        assert(dataStorage.totalSupply().sub(amount) == supp);\r\n        uint256 bal = dataStorage.balanceOf(account);\r\n        dataStorage.updateBalance(account, bal.add(amount));\r\n        assert(dataStorage.balanceOf(account).sub(amount) == bal);\r\n        emit Transfer(msg.sender, account, amount);\r\n    }\r\n}",
  "sourcePath": "C:\\Users\\harri\\OneDrive\\Documents\\EquilibriaWagers\\eth-equilibria\\truffle\\contracts\\wXEQ.sol",
  "compiler": {
    "name": "solc",
    "version": "0.7.6+commit.7338295f.Emscripten.clang"
  },
  "schemaVersion": "3.3.3",
  "updatedAt": "2021-01-07T09:35:41.355Z",
  "networkType": "ethereum",
  "devdoc": {
    "kind": "dev",
    "methods": {},
    "version": 1
  },
  "userdoc": {
    "kind": "user",
    "methods": {},
    "version": 1
  }
}