{
  "contractName": "XEQSwaps",
  "abi": [
    {
      "inputs": [
        {
          "internalType": "address",
          "name": "w",
          "type": "address"
        },
        {
          "internalType": "address",
          "name": "d",
          "type": "address"
        },
        {
          "internalType": "address",
          "name": "s",
          "type": "address"
        },
        {
          "internalType": "address",
          "name": "_master",
          "type": "address"
        }
      ],
      "stateMutability": "nonpayable",
      "type": "constructor"
    },
    {
      "anonymous": false,
      "inputs": [
        {
          "indexed": true,
          "internalType": "address",
          "name": "account",
          "type": "address"
        },
        {
          "indexed": false,
          "internalType": "uint256",
          "name": "amount",
          "type": "uint256"
        },
        {
          "indexed": false,
          "internalType": "uint256",
          "name": "devFee",
          "type": "uint256"
        },
        {
          "indexed": false,
          "internalType": "uint256",
          "name": "amountBurnt",
          "type": "uint256"
        },
        {
          "indexed": false,
          "internalType": "uint256",
          "name": "amountForStakePool",
          "type": "uint256"
        }
      ],
      "name": "NewMint",
      "type": "event"
    },
    {
      "anonymous": false,
      "inputs": [
        {
          "indexed": true,
          "internalType": "address",
          "name": "previousOwner",
          "type": "address"
        },
        {
          "indexed": true,
          "internalType": "address",
          "name": "newOwner",
          "type": "address"
        }
      ],
      "name": "OwnershipTransferred",
      "type": "event"
    },
    {
      "inputs": [],
      "name": "checkAccess",
      "outputs": [
        {
          "internalType": "bool",
          "name": "",
          "type": "bool"
        }
      ],
      "stateMutability": "nonpayable",
      "type": "function"
    },
    {
      "inputs": [],
      "name": "contractCreator",
      "outputs": [
        {
          "internalType": "address",
          "name": "",
          "type": "address"
        }
      ],
      "stateMutability": "view",
      "type": "function"
    },
    {
      "inputs": [],
      "name": "masterContract",
      "outputs": [
        {
          "internalType": "address",
          "name": "",
          "type": "address"
        }
      ],
      "stateMutability": "view",
      "type": "function"
    },
    {
      "inputs": [
        {
          "internalType": "address",
          "name": "addy",
          "type": "address"
        }
      ],
      "name": "newMaster",
      "outputs": [
        {
          "internalType": "bool",
          "name": "",
          "type": "bool"
        }
      ],
      "stateMutability": "view",
      "type": "function"
    },
    {
      "inputs": [],
      "name": "owner",
      "outputs": [
        {
          "internalType": "address",
          "name": "",
          "type": "address"
        }
      ],
      "stateMutability": "view",
      "type": "function"
    },
    {
      "inputs": [],
      "name": "renounceOwnership",
      "outputs": [],
      "stateMutability": "nonpayable",
      "type": "function"
    },
    {
      "inputs": [
        {
          "internalType": "address",
          "name": "newOwner",
          "type": "address"
        }
      ],
      "name": "transferOwnership",
      "outputs": [],
      "stateMutability": "nonpayable",
      "type": "function"
    },
    {
      "inputs": [],
      "name": "getXEQBatchLen",
      "outputs": [
        {
          "internalType": "uint256",
          "name": "",
          "type": "uint256"
        }
      ],
      "stateMutability": "view",
      "type": "function"
    },
    {
      "inputs": [
        {
          "internalType": "bool",
          "name": "setting",
          "type": "bool"
        }
      ],
      "name": "acitvateSwapBack",
      "outputs": [
        {
          "internalType": "bool",
          "name": "",
          "type": "bool"
        }
      ],
      "stateMutability": "nonpayable",
      "type": "function"
    },
    {
      "inputs": [
        {
          "internalType": "address",
          "name": "account",
          "type": "address"
        },
        {
          "internalType": "uint256",
          "name": "index",
          "type": "uint256"
        }
      ],
      "name": "checkBatchAccount",
      "outputs": [
        {
          "internalType": "bool",
          "name": "status",
          "type": "bool"
        },
        {
          "internalType": "string",
          "name": "XEQAddress",
          "type": "string"
        },
        {
          "internalType": "uint256",
          "name": "amount",
          "type": "uint256"
        }
      ],
      "stateMutability": "view",
      "type": "function"
    },
    {
      "inputs": [
        {
          "internalType": "address",
          "name": "account",
          "type": "address"
        },
        {
          "internalType": "uint256",
          "name": "amount",
          "type": "uint256"
        }
      ],
      "name": "mintwXEQ",
      "outputs": [
        {
          "internalType": "bool",
          "name": "",
          "type": "bool"
        }
      ],
      "stateMutability": "nonpayable",
      "type": "function"
    },
    {
      "inputs": [
        {
          "internalType": "uint256",
          "name": "_value",
          "type": "uint256"
        },
        {
          "internalType": "uint256",
          "name": "val1",
          "type": "uint256"
        },
        {
          "internalType": "uint256",
          "name": "val2",
          "type": "uint256"
        }
      ],
      "name": "testDevFeeVals",
      "outputs": [
        {
          "internalType": "uint256",
          "name": "",
          "type": "uint256"
        }
      ],
      "stateMutability": "pure",
      "type": "function"
    },
    {
      "inputs": [
        {
          "internalType": "uint256",
          "name": "val",
          "type": "uint256"
        }
      ],
      "name": "setDevFee",
      "outputs": [
        {
          "internalType": "bool",
          "name": "",
          "type": "bool"
        }
      ],
      "stateMutability": "nonpayable",
      "type": "function"
    },
    {
      "inputs": [
        {
          "internalType": "uint256",
          "name": "val",
          "type": "uint256"
        }
      ],
      "name": "setBurntAmount",
      "outputs": [
        {
          "internalType": "bool",
          "name": "",
          "type": "bool"
        }
      ],
      "stateMutability": "nonpayable",
      "type": "function"
    },
    {
      "inputs": [
        {
          "internalType": "uint256",
          "name": "val",
          "type": "uint256"
        }
      ],
      "name": "setTeamAmount",
      "outputs": [
        {
          "internalType": "bool",
          "name": "",
          "type": "bool"
        }
      ],
      "stateMutability": "nonpayable",
      "type": "function"
    },
    {
      "inputs": [
        {
          "internalType": "uint256",
          "name": "val",
          "type": "uint256"
        }
      ],
      "name": "setStakePoolAmount",
      "outputs": [
        {
          "internalType": "bool",
          "name": "",
          "type": "bool"
        }
      ],
      "stateMutability": "nonpayable",
      "type": "function"
    },
    {
      "inputs": [
        {
          "internalType": "uint256",
          "name": "_value",
          "type": "uint256"
        }
      ],
      "name": "devFee",
      "outputs": [
        {
          "internalType": "uint256",
          "name": "",
          "type": "uint256"
        }
      ],
      "stateMutability": "view",
      "type": "function"
    },
    {
      "inputs": [
        {
          "internalType": "uint256",
          "name": "_value",
          "type": "uint256"
        },
        {
          "internalType": "uint256",
          "name": "devFeeVal1",
          "type": "uint256"
        }
      ],
      "name": "devFee",
      "outputs": [
        {
          "internalType": "uint256",
          "name": "",
          "type": "uint256"
        }
      ],
      "stateMutability": "pure",
      "type": "function"
    },
    {
      "inputs": [
        {
          "internalType": "string",
          "name": "account",
          "type": "string"
        },
        {
          "internalType": "uint256",
          "name": "amount",
          "type": "uint256"
        }
      ],
      "name": "mintXEQRequest",
      "outputs": [
        {
          "internalType": "bool",
          "name": "",
          "type": "bool"
        },
        {
          "internalType": "uint256",
          "name": "",
          "type": "uint256"
        }
      ],
      "stateMutability": "nonpayable",
      "type": "function"
    },
    {
      "inputs": [
        {
          "internalType": "address",
          "name": "account",
          "type": "address"
        },
        {
          "internalType": "uint256",
          "name": "amount",
          "type": "uint256"
        },
        {
          "internalType": "uint256",
          "name": "swapNum",
          "type": "uint256"
        }
      ],
      "name": "confirmXEQSwap",
      "outputs": [
        {
          "internalType": "bool",
          "name": "",
          "type": "bool"
        }
      ],
      "stateMutability": "nonpayable",
      "type": "function"
    }
  ],
  "bytecode": "0x60806040523480156200001157600080fd5b506040516200154f3803806200154f833981810160405260808110156200003757600080fd5b508051602082015160408301516060909301519192909160006200006364010000000062000133810204565b60018054600160a060020a038316600160a060020a031991821681179092556002805490911633179055604051919250906000906000805160206200152f833981519152908290a35060038054600160a060020a03808716600160a060020a031992831617909255600480548684169083161790556005805485841690831617905560008054928416929091169190911781556006819055600755620001123364010000000062000137810204565b5050610fa060085550506103e8600955611388600a556064600b5562000273565b3390565b6200014a64010000000062000133810204565b600154600160a060020a03908116911614620001c757604080517f08c379a000000000000000000000000000000000000000000000000000000000815260206004820181905260248201527f4f776e61626c653a2063616c6c6572206973206e6f7420746865206f776e6572604482015290519081900360640190fd5b600160a060020a03811662000228576040517f08c379a0000000000000000000000000000000000000000000000000000000008152600401808060200182810382526026815260200180620015096026913960400191505060405180910390fd5b600154604051600160a060020a038084169216906000805160206200152f83398151915290600090a360018054600160a060020a031916600160a060020a0392909216919091179055565b61128680620002836000396000f3fe608060405234801561001057600080fd5b506004361061012f5760003560e060020a900480638da5cb5b116100b1578063bac7984a11610075578063bac7984a14610440578063cd446e221461045d578063e61fe8bc14610465578063ecb1013514610497578063f2fde38b1461049f5761012f565b80638da5cb5b146103cb578063956dd408146103d35780639f402d1e146103f2578063b0cedc391461041b578063b52a2de8146104235761012f565b8063478c4ca2116100f8578063478c4ca2146101fb578063549a609314610227578063617b5a90146102db578063715018a6146102fe5780637c193fdd146103085761012f565b8062996e1b146101345780631c75b6b2146101655780631e2f73b1146101825780633bc0461a146101a6578063462dcfa0146101d5575b600080fd5b6101516004803603602081101561014a57600080fd5b50356104c5565b604080519115158252519081900360200190f35b6101516004803603602081101561017b57600080fd5b50356104e6565b61018a610503565b60408051600160a060020a039092168252519081900360200190f35b6101c3600480360360208110156101bc57600080fd5b5035610512565b60408051918252519081900360200190f35b610151600480360360208110156101eb57600080fd5b5035600160a060020a0316610562565b6101516004803603604081101561021157600080fd5b50600160a060020a038135169060200135610591565b6102536004803603604081101561023d57600080fd5b50600160a060020a038135169060200135610812565b60405180841515815260200180602001838152602001828103825284818151815260200191508051906020019080838360005b8381101561029e578181015183820152602001610286565b50505050905090810190601f1680156102cb5780820380516001836020036101000a031916815260200191505b5094505050505060405180910390f35b6101c3600480360360408110156102f157600080fd5b5080359060200135610982565b6103066109b7565b005b6103b06004803603604081101561031e57600080fd5b81019060208101813564010000000081111561033957600080fd5b82018360208201111561034b57600080fd5b8035906020019184600183028401116401000000008311171561036d57600080fd5b91908080601f0160208091040260200160405190810160405280939291908181526020018383808284376000920191909152509295505091359250610a82915050565b60408051921515835260208301919091528051918290030190f35b61018a610bec565b610151600480360360208110156103e957600080fd5b50351515610bfb565b6101c36004803603606081101561040857600080fd5b5080359060208101359060400135610c25565b6101c3610c3d565b6101516004803603602081101561043957600080fd5b5035610c43565b6101516004803603602081101561045657600080fd5b5035610c60565b61018a610c7d565b6101516004803603606081101561047b57600080fd5b50600160a060020a038135169060208101359060400135610c8c565b610151610eb4565b610306600480360360208110156104b557600080fd5b5035600160a060020a0316610ffb565b60006104cf610eb4565b6104d857600080fd5b60098290555b506001919050565b60006104f0610eb4565b6104f957600080fd5b600b8290556104de565b600254600160a060020a031681565b600061053561271061052f600b548561110790919063ffffffff16565b9061112e565b82101561054157600080fd5b61055c61271061052f600b548561110790919063ffffffff16565b92915050565b60008054600160a060020a0316331461057a57600080fd5b600054600160a060020a038381169116146104de57fe5b600061059b611150565b600154600160a060020a039081169116146105ee576040805160e560020a62461bcd0281526020600482018190526024820152600080516020611231833981519152604482015290519081900360640190fd5b60006105fc83600b54610982565b9050600061060c82600854610982565b9050600061061c83600954610982565b9050600061062c84600a54610982565b600354909150600160a060020a03166340c10f198861064b8988611154565b6040518363ffffffff1660e060020a0281526004018083600160a060020a0316815260200182815260200192505050600060405180830381600087803b15801561069457600080fd5b505af11580156106a8573d6000803e3d6000fd5b5050600354600160a060020a031691506340c10f1990506106c7610bec565b856040518363ffffffff1660e060020a0281526004018083600160a060020a0316815260200182815260200192505050600060405180830381600087803b15801561071157600080fd5b505af1158015610725573d6000803e3d6000fd5b5050600354600554604080517f40c10f19000000000000000000000000000000000000000000000000000000008152600160a060020a0392831660048201526024810187905290519190921693506340c10f199250604480830192600092919082900301818387803b15801561079a57600080fd5b505af11580156107ae573d6000803e3d6000fd5b50506040805189815260208101879052808201869052606081018590529051600160a060020a038b1693507f64c8b8f326ab7e4cec1113f68cba9b5ecf79b0969bc88c16bf22e345177a309b92509081900360800190a25060019695505050505050565b600160a060020a0382166000908152600d60205260408120546060908290841061083b57600080fd5b600160a060020a0385166000908152600f6020526040902080548590811061085f57fe5b600091825260208083208183040154600160a060020a0389168452600e90915260409092208054601f9092166101000a90920460ff169190869081106108a157fe5b90600052602060002001600d600088600160a060020a0316600160a060020a0316815260200190815260200160002086815481106108db57fe5b60009182526020918290200154825460408051601f60026000196101006001871615020190941693909304928301859004850281018501909152818152919284919083018282801561096e5780601f106109435761010080835404028352916020019161096e565b820191906000526020600020905b81548152906001019060200180831161095157829003601f168201915b505050505091509250925092509250925092565b600061099461271061052f8585611107565b8310156109a057600080fd5b6109b061271061052f8585611107565b9392505050565b6109bf611150565b600154600160a060020a03908116911614610a12576040805160e560020a62461bcd0281526020600482018190526024820152600080516020611231833981519152604482015290519081900360640190fd5b600254600154604051600160a060020a0392831692909116907f8be0079c531659141344cd1fd0a4f28419497f9722a3daafe3b4186f6b6457e090600090a36002546001805473ffffffffffffffffffffffffffffffffffffffff1916600160a060020a03909216919091179055565b601054600090819060ff16610a9657600080fd5b600354604080517fa22b35ce000000000000000000000000000000000000000000000000000000008152336004820152602481018690529051600160a060020a039092169163a22b35ce9160448082019260009290919082900301818387803b158015610b0257600080fd5b505af1158015610b16573d6000803e3d6000fd5b5050336000818152600f60209081526040808320805460018082018355918552838520848204018054601f9092166101000a60ff02199091169055848452600d835281842080548083018255908552838520018a9055938352600e82528220805493840181558252908190208851610b95955092019250870190611169565b50336000908152600d6020908152604080832054600f9092529091205414610bbc57600080fd5b336000908152600f6020908152604080832054600d9092529091205414610be257600080fd5b5060019391925050565b600154600160a060020a031690565b6000610c05610eb4565b610c0e57600080fd5b506010805460ff1916911515919091179055600190565b6000610c358261052f8686611107565b949350505050565b600c5490565b6000610c4d610eb4565b610c5657600080fd5b600a8290556104de565b6000610c6a610eb4565b610c7357600080fd5b60088290556104de565b600054600160a060020a031681565b6000610c96611150565b600154600160a060020a03908116911614610ce9576040805160e560020a62461bcd0281526020600482018190526024820152600080516020611231833981519152604482015290519081900360640190fd5b600160a060020a0384166000908152600f60205260409020548290610d0f906001611154565b1015610d1a57600080fd5b600160a060020a0384166000908152600d60205260409020805483908110610d3e57fe5b90600052602060002001548314610d5457600080fd5b600160a060020a0384166000908152600f6020526040902080546001919084908110610d7c57fe5b90600052602060002090602091828204019190066101000a81548160ff0219169083151502179055506000805b600160a060020a0386166000908152600f6020526040902054811015610e2257600160a060020a0386166000908152600f60205260409020805482908110610ded57fe5b90600052602060002090602091828204019190069054906101000a900460ff16610e1a5760019150610e22565b600101610da9565b5080610ea95760005b600c54811015610ea75785600160a060020a0316600c8281548110610e4c57fe5b600091825260209091200154600160a060020a03161415610e9f57600c8181548110610e7457fe5b6000918252602090912001805473ffffffffffffffffffffffffffffffffffffffff19169055610ea7565b600101610e2b565b505b506001949350505050565b604080513360248083019190915282518083039091018152604490910182526020810180517bffffffffffffffffffffffffffffffffffffffffffffffffffffffff167fcec70038000000000000000000000000000000000000000000000000000000001781526000805493518351919485938493600160a060020a0392909216928692909182918083835b60208310610f5f5780518252601f199092019160209182019101610f40565b6001836020036101000a0380198251168184511680821785525050505050509050019150506000604051808303816000865af19150503d8060008114610fc1576040519150601f19603f3d011682016040523d82523d6000602084013e610fc6565b606091505b50915091506000818060200190516020811015610fe257600080fd5b5051905080610ff057600080fd5b600194505050505090565b611003611150565b600154600160a060020a03908116911614611056576040805160e560020a62461bcd0281526020600482018190526024820152600080516020611231833981519152604482015290519081900360640190fd5b600160a060020a03811661109e5760405160e560020a62461bcd02815260040180806020018281038252602681526020018061120b6026913960400191505060405180910390fd5b600154604051600160a060020a038084169216907f8be0079c531659141344cd1fd0a4f28419497f9722a3daafe3b4186f6b6457e090600090a36001805473ffffffffffffffffffffffffffffffffffffffff1916600160a060020a0392909216919091179055565b6000826111165750600061055c565b8282028284828161112357fe5b04146109b057600080fd5b600080821161113c57600080fd5b600082848161114757fe5b04949350505050565b3390565b60008282111561116357600080fd5b50900390565b828054600181600116156101000203166002900490600052602060002090601f01602090048101928261119f57600085556111e5565b82601f106111b857805160ff19168380011785556111e5565b828001600101855582156111e5579182015b828111156111e55782518255916020019190600101906111ca565b506111f19291506111f5565b5090565b5b808211156111f157600081556001016111f656fe4f776e61626c653a206e6577206f776e657220697320746865207a65726f20616464726573734f776e61626c653a2063616c6c6572206973206e6f7420746865206f776e6572a26469706673582212209863fb2992862dbc854f8f13a26d532e7b782087d796d3cd1c10577ddab3fb8c64736f6c634300070600334f776e61626c653a206e6577206f776e657220697320746865207a65726f20616464726573738be0079c531659141344cd1fd0a4f28419497f9722a3daafe3b4186f6b6457e0",
  "immutableReferences": {},
  "source": "// SPDX-License-Identifier: MIT\r\npragma solidity >=0.4.22 <0.8.0;\r\n\r\nimport \"./tools/ExternalAccessible.sol\";\r\nimport \"./tools/Ownable.sol\";\r\nimport \"./tools/SafeMath.sol\";\r\nimport \"./wXEQ.sol\";\r\nimport \"./wXEQStaking.sol\";\r\n\r\ncontract XEQSwaps is ExternalAccessible, Ownable {\r\n    using SafeMath for *;\r\n    \r\n    wXEQ wXEQContract;\r\n    DataStorage dataStorage;\r\n    SoftStaking stakingPool;\r\n    \r\n    uint256 wXEQMinted;\r\n    uint256 XEQMinted;\r\n    uint256 teamAmount;\r\n    uint256 burntAmount;\r\n    uint256 stakePoolAmount;\r\n    uint256 devFeePercent;\r\n\r\n    address[] mintXEQBatchList;\r\n    mapping(address => uint256[]) amountToMint;\r\n    mapping(address => string[]) xeqAddress;\r\n    mapping(address => bool[]) swapComplete;\r\n    bool swapBacks;\r\n    \r\n    constructor(address w, address d, address s, address _master) {\r\n        wXEQContract = wXEQ(w);\r\n        dataStorage = DataStorage(d);\r\n        stakingPool = SoftStaking(s);\r\n        masterContract = _master;\r\n        wXEQMinted = 0;\r\n        XEQMinted = 0;\r\n        transferOwnership(msg.sender);\r\n        teamAmount = 4000;\r\n        burntAmount = 1000;\r\n        stakePoolAmount = 5000;\r\n        devFeePercent = 100;\r\n    }\r\n    \r\n    event NewMint(address indexed account, uint256 amount, uint256 devFee, uint256 amountBurnt, uint256 amountForStakePool);\r\n\r\n    function getXEQBatchLen() public view returns (uint256) {\r\n        return mintXEQBatchList.length;\r\n    }\r\n    \r\n    function acitvateSwapBack(bool setting) public hasAccess returns (bool) {\r\n        swapBacks = setting;\r\n        return true;\r\n    }\r\n    \r\n    function checkBatchAccount(address account, uint256 index) public view returns (bool status, string memory XEQAddress, uint256 amount) {\r\n        require(index < amountToMint[account].length);\r\n        return (swapComplete[account][index], xeqAddress[account][index], amountToMint[account][index]);\r\n    }\r\n    \r\n    \r\n    function devFee(uint256 _value, uint256 devFeeVal1) public pure returns (uint256) {\r\n        require(_value >= ((_value.mul(devFeeVal1)).div(10000)));\r\n        return ((_value.mul(devFeeVal1)).div(10000));\r\n    }\r\n    \r\n    function mintwXEQ(address account, uint256 amount) public onlyOwner returns (bool) {\r\n        uint256 fee = devFee(amount, devFeePercent);\r\n        uint256 teamFee = devFee(fee, teamAmount);\r\n        uint256 burnt = devFee(fee, burntAmount);\r\n        uint256 stakeAmount = devFee(fee, stakePoolAmount);\r\n        wXEQContract.mint(account, amount.sub(fee));\r\n        wXEQContract.mint(owner(), teamFee);\r\n        wXEQContract.mint(address(stakingPool), stakeAmount);\r\n        emit NewMint(account, amount, teamFee, burnt, stakeAmount);\r\n        return true;\r\n    }\r\n    \r\n    function testDevFeeVals(uint256 _value, uint256 val1, uint256 val2) public pure returns (uint256) {\r\n        return (_value.mul(val1)).div(val2);\r\n    }\r\n    \r\n    function setDevFee(uint256 val) public hasAccess returns (bool) {\r\n        devFeePercent = val;\r\n        assert(devFeePercent == val);\r\n        return true;\r\n    }\r\n\r\n     function setBurntAmount(uint256 val) public hasAccess returns (bool) {\r\n        burntAmount = val;\r\n        assert(burntAmount == val);\r\n        return true;\r\n    }\r\n\r\n    function setTeamAmount(uint256 val) public hasAccess returns (bool) {\r\n        teamAmount = val;\r\n        assert(teamAmount == val);\r\n        return true;\r\n    }\r\n\r\n    function setStakePoolAmount(uint256 val) public hasAccess returns (bool) {\r\n        stakePoolAmount = val;\r\n        assert(stakePoolAmount == val);\r\n        return true;\r\n    }\r\n    \r\n    function devFee(uint _value) public view returns (uint256) {\r\n        require(_value >= ((_value.mul(devFeePercent)).div(10000)));\r\n        return ((_value.mul(devFeePercent)).div(10000));\r\n    }\r\n    \r\n    function mintXEQRequest(string memory account, uint256 amount) public returns (bool, uint256) {\r\n        require(swapBacks);\r\n        wXEQContract._burnFrom(msg.sender, amount);\r\n        swapComplete[msg.sender].push(false);\r\n        amountToMint[msg.sender].push(amount);\r\n        xeqAddress[msg.sender].push(account);\r\n        require(swapComplete[msg.sender].length == amountToMint[msg.sender].length);\r\n        require(amountToMint[msg.sender].length == swapComplete[msg.sender].length);\r\n        return (true, amount);\r\n    }\r\n    \r\n    function confirmXEQSwap(address account, uint256 amount, uint256 swapNum) public onlyOwner returns (bool) {\r\n        require(swapComplete[account].length.sub(1) >= swapNum);\r\n        require(amount == amountToMint[account][swapNum]);\r\n        swapComplete[account][swapNum] = true;\r\n        bool check = false;\r\n        for (uint i = 0; i < swapComplete[account].length; i++) {\r\n            if (!swapComplete[account][i]) {\r\n                check = true;\r\n                break;\r\n            }\r\n        }\r\n        if (!check) {\r\n            for (uint k = 0; k < mintXEQBatchList.length; k++) {\r\n                if (mintXEQBatchList[k] == account) {\r\n                    delete mintXEQBatchList[k];\r\n                    break;\r\n                }\r\n            }\r\n        }\r\n        return true;\r\n    }\r\n}",
  "sourcePath": "C:\\Users\\harri\\OneDrive\\Documents\\EquilibriaWagers\\eth-equilibria\\truffle\\contracts\\wXEQSwaps.sol",
  "compiler": {
    "name": "solc",
    "version": "0.7.6+commit.7338295f.Emscripten.clang"
  },
  "schemaVersion": "3.3.3",
  "updatedAt": "2021-01-09T03:13:50.137Z",
  "devdoc": {
    "kind": "dev",
    "methods": {},
    "version": 1
  },
  "userdoc": {
    "kind": "user",
    "methods": {},
    "version": 1
  }
}