{
  "contractName": "XEQSwaps",
  "abi": [
    {
      "inputs": [
        {
          "internalType": "address",
          "name": "w",
          "type": "address"
        },
        {
          "internalType": "address",
          "name": "d",
          "type": "address"
        },
        {
          "internalType": "address",
          "name": "s",
          "type": "address"
        },
        {
          "internalType": "address",
          "name": "o",
          "type": "address"
        }
      ],
      "stateMutability": "nonpayable",
      "type": "constructor"
    },
    {
      "anonymous": false,
      "inputs": [
        {
          "indexed": true,
          "internalType": "address",
          "name": "account",
          "type": "address"
        },
        {
          "indexed": false,
          "internalType": "uint256",
          "name": "amount",
          "type": "uint256"
        },
        {
          "indexed": false,
          "internalType": "uint256",
          "name": "devFee",
          "type": "uint256"
        },
        {
          "indexed": false,
          "internalType": "uint256",
          "name": "amountBurnt",
          "type": "uint256"
        },
        {
          "indexed": false,
          "internalType": "uint256",
          "name": "amountForStakePool",
          "type": "uint256"
        }
      ],
      "name": "NewMint",
      "type": "event"
    },
    {
      "anonymous": false,
      "inputs": [
        {
          "indexed": true,
          "internalType": "address",
          "name": "previousOwner",
          "type": "address"
        },
        {
          "indexed": true,
          "internalType": "address",
          "name": "newOwner",
          "type": "address"
        }
      ],
      "name": "OwnershipTransferred",
      "type": "event"
    },
    {
      "inputs": [],
      "name": "checkAccess",
      "outputs": [
        {
          "internalType": "bool",
          "name": "",
          "type": "bool"
        }
      ],
      "stateMutability": "nonpayable",
      "type": "function"
    },
    {
      "inputs": [],
      "name": "contractCreator",
      "outputs": [
        {
          "internalType": "address",
          "name": "",
          "type": "address"
        }
      ],
      "stateMutability": "view",
      "type": "function"
    },
    {
      "inputs": [],
      "name": "masterContract",
      "outputs": [
        {
          "internalType": "address",
          "name": "",
          "type": "address"
        }
      ],
      "stateMutability": "view",
      "type": "function"
    },
    {
      "inputs": [
        {
          "internalType": "address",
          "name": "addy",
          "type": "address"
        }
      ],
      "name": "newMaster",
      "outputs": [
        {
          "internalType": "bool",
          "name": "",
          "type": "bool"
        }
      ],
      "stateMutability": "view",
      "type": "function"
    },
    {
      "inputs": [],
      "name": "owner",
      "outputs": [
        {
          "internalType": "address",
          "name": "",
          "type": "address"
        }
      ],
      "stateMutability": "view",
      "type": "function"
    },
    {
      "inputs": [],
      "name": "renounceOwnership",
      "outputs": [],
      "stateMutability": "nonpayable",
      "type": "function"
    },
    {
      "inputs": [
        {
          "internalType": "address",
          "name": "newOwner",
          "type": "address"
        }
      ],
      "name": "transferOwnership",
      "outputs": [],
      "stateMutability": "nonpayable",
      "type": "function"
    },
    {
      "inputs": [],
      "name": "getXEQBatchLen",
      "outputs": [
        {
          "internalType": "uint256",
          "name": "",
          "type": "uint256"
        }
      ],
      "stateMutability": "view",
      "type": "function"
    },
    {
      "inputs": [
        {
          "internalType": "bool",
          "name": "setting",
          "type": "bool"
        }
      ],
      "name": "acitvateSwapBack",
      "outputs": [
        {
          "internalType": "bool",
          "name": "",
          "type": "bool"
        }
      ],
      "stateMutability": "nonpayable",
      "type": "function"
    },
    {
      "inputs": [
        {
          "internalType": "address",
          "name": "account",
          "type": "address"
        },
        {
          "internalType": "uint256",
          "name": "index",
          "type": "uint256"
        }
      ],
      "name": "checkBatchAccount",
      "outputs": [
        {
          "internalType": "bool",
          "name": "status",
          "type": "bool"
        },
        {
          "internalType": "string",
          "name": "XEQAddress",
          "type": "string"
        },
        {
          "internalType": "uint256",
          "name": "amount",
          "type": "uint256"
        }
      ],
      "stateMutability": "view",
      "type": "function"
    },
    {
      "inputs": [
        {
          "internalType": "address",
          "name": "cont",
          "type": "address"
        }
      ],
      "name": "updateOracleContract",
      "outputs": [
        {
          "internalType": "bool",
          "name": "",
          "type": "bool"
        }
      ],
      "stateMutability": "nonpayable",
      "type": "function"
    },
    {
      "inputs": [
        {
          "internalType": "address",
          "name": "account",
          "type": "address"
        },
        {
          "internalType": "uint256",
          "name": "amount",
          "type": "uint256"
        }
      ],
      "name": "mintwXEQ",
      "outputs": [
        {
          "internalType": "bool",
          "name": "",
          "type": "bool"
        }
      ],
      "stateMutability": "nonpayable",
      "type": "function"
    },
    {
      "inputs": [
        {
          "internalType": "uint256",
          "name": "_value",
          "type": "uint256"
        },
        {
          "internalType": "uint256",
          "name": "val1",
          "type": "uint256"
        },
        {
          "internalType": "uint256",
          "name": "val2",
          "type": "uint256"
        }
      ],
      "name": "testDevFeeVals",
      "outputs": [
        {
          "internalType": "uint256",
          "name": "",
          "type": "uint256"
        }
      ],
      "stateMutability": "pure",
      "type": "function"
    },
    {
      "inputs": [
        {
          "internalType": "uint256",
          "name": "val",
          "type": "uint256"
        }
      ],
      "name": "setDevFee",
      "outputs": [
        {
          "internalType": "bool",
          "name": "",
          "type": "bool"
        }
      ],
      "stateMutability": "nonpayable",
      "type": "function"
    },
    {
      "inputs": [
        {
          "internalType": "uint256",
          "name": "_value",
          "type": "uint256"
        }
      ],
      "name": "devFee",
      "outputs": [
        {
          "internalType": "uint256",
          "name": "",
          "type": "uint256"
        }
      ],
      "stateMutability": "view",
      "type": "function"
    },
    {
      "inputs": [
        {
          "internalType": "uint256",
          "name": "_value",
          "type": "uint256"
        },
        {
          "internalType": "uint256",
          "name": "devFeeVal1",
          "type": "uint256"
        }
      ],
      "name": "devFee",
      "outputs": [
        {
          "internalType": "uint256",
          "name": "",
          "type": "uint256"
        }
      ],
      "stateMutability": "pure",
      "type": "function"
    },
    {
      "inputs": [
        {
          "internalType": "string",
          "name": "account",
          "type": "string"
        },
        {
          "internalType": "uint256",
          "name": "amount",
          "type": "uint256"
        }
      ],
      "name": "mintXEQRequest",
      "outputs": [
        {
          "internalType": "bool",
          "name": "",
          "type": "bool"
        },
        {
          "internalType": "uint256",
          "name": "",
          "type": "uint256"
        }
      ],
      "stateMutability": "nonpayable",
      "type": "function"
    },
    {
      "inputs": [
        {
          "internalType": "address",
          "name": "account",
          "type": "address"
        },
        {
          "internalType": "uint256",
          "name": "amount",
          "type": "uint256"
        },
        {
          "internalType": "uint256",
          "name": "swapNum",
          "type": "uint256"
        }
      ],
      "name": "confirmXEQSwap",
      "outputs": [
        {
          "internalType": "bool",
          "name": "",
          "type": "bool"
        }
      ],
      "stateMutability": "nonpayable",
      "type": "function"
    }
  ],
  "bytecode": "0x60806040523480156200001157600080fd5b50604051620023f5380380620023f5833981810160405260808110156200003757600080fd5b8101908080519060200190929190805190602001909291908051906020019092919080519060200190929190505050600062000081620002fc640100000000026401000000009004565b905080600160006101000a81548173ffffffffffffffffffffffffffffffffffffffff021916908373ffffffffffffffffffffffffffffffffffffffff16021790555033600260006101000a81548173ffffffffffffffffffffffffffffffffffffffff021916908373ffffffffffffffffffffffffffffffffffffffff1602179055508073ffffffffffffffffffffffffffffffffffffffff16600073ffffffffffffffffffffffffffffffffffffffff167f8be0079c531659141344cd1fd0a4f28419497f9722a3daafe3b4186f6b6457e060405160405180910390a35083600360006101000a81548173ffffffffffffffffffffffffffffffffffffffff021916908373ffffffffffffffffffffffffffffffffffffffff16021790555082600460006101000a81548173ffffffffffffffffffffffffffffffffffffffff021916908373ffffffffffffffffffffffffffffffffffffffff16021790555081600560006101000a81548173ffffffffffffffffffffffffffffffffffffffff021916908373ffffffffffffffffffffffffffffffffffffffff160217905550336000806101000a81548173ffffffffffffffffffffffffffffffffffffffff021916908373ffffffffffffffffffffffffffffffffffffffff16021790555080600660006101000a81548173ffffffffffffffffffffffffffffffffffffffff021916908373ffffffffffffffffffffffffffffffffffffffff16021790555060006007819055506000600881905550620002cf8162000304640100000000026401000000009004565b6103e8600981905550611388600a81905550610fa0600b819055506032600c819055505050505062000528565b600033905090565b6200031d620002fc640100000000026401000000009004565b73ffffffffffffffffffffffffffffffffffffffff16600160009054906101000a900473ffffffffffffffffffffffffffffffffffffffff1673ffffffffffffffffffffffffffffffffffffffff1614620003e0576040517f08c379a00000000000000000000000000000000000000000000000000000000081526004018080602001828103825260208152602001807f4f776e61626c653a2063616c6c6572206973206e6f7420746865206f776e657281525060200191505060405180910390fd5b600073ffffffffffffffffffffffffffffffffffffffff168173ffffffffffffffffffffffffffffffffffffffff16141562000468576040517f08c379a0000000000000000000000000000000000000000000000000000000008152600401808060200182810382526026815260200180620023cf6026913960400191505060405180910390fd5b8073ffffffffffffffffffffffffffffffffffffffff16600160009054906101000a900473ffffffffffffffffffffffffffffffffffffffff1673ffffffffffffffffffffffffffffffffffffffff167f8be0079c531659141344cd1fd0a4f28419497f9722a3daafe3b4186f6b6457e060405160405180910390a380600160006101000a81548173ffffffffffffffffffffffffffffffffffffffff021916908373ffffffffffffffffffffffffffffffffffffffff16021790555050565b611e9780620005386000396000f3fe608060405234801561001057600080fd5b5060043610610133576000357c0100000000000000000000000000000000000000000000000000000000900480638da5cb5b116100bf578063cd446e221161008e578063cd446e22146105ad578063d3bab58f146105e1578063e61fe8bc1461063b578063ecb10135146106a9578063f2fde38b146106c957610133565b80638da5cb5b146104bf578063956dd408146104f35780639f402d1e14610539578063b0cedc391461058f57610133565b8063478c4ca211610106578063478c4ca21461024c578063549a6093146102b0578063617b5a9014610387578063715018a6146103d35780637c193fdd146103dd57610133565b80631c75b6b2146101385780631e2f73b11461017c5780633bc0461a146101b0578063462dcfa0146101f2575b600080fd5b6101646004803603602081101561014e57600080fd5b810190808035906020019092919050505061070d565b60405180821515815260200191505060405180910390f35b61018461073b565b604051808273ffffffffffffffffffffffffffffffffffffffff16815260200191505060405180910390f35b6101dc600480360360208110156101c657600080fd5b8101908080359060200190929190505050610761565b6040518082815260200191505060405180910390f35b6102346004803603602081101561020857600080fd5b81019080803573ffffffffffffffffffffffffffffffffffffffff1690602001909291905050506107c8565b60405180821515815260200191505060405180910390f35b6102986004803603604081101561026257600080fd5b81019080803573ffffffffffffffffffffffffffffffffffffffff169060200190929190803590602001909291905050506108a5565b60405180821515815260200191505060405180910390f35b6102fc600480360360408110156102c657600080fd5b81019080803573ffffffffffffffffffffffffffffffffffffffff16906020019092919080359060200190929190505050610cb5565b60405180841515815260200180602001838152602001828103825284818151815260200191508051906020019080838360005b8381101561034a57808201518184015260208101905061032f565b50505050905090810190601f1680156103775780820380516001836020036101000a031916815260200191505b5094505050505060405180910390f35b6103bd6004803603604081101561039d57600080fd5b810190808035906020019092919080359060200190929190505050610ec5565b6040518082815260200191505060405180910390f35b6103db610f29565b005b6104a0600480360360408110156103f357600080fd5b810190808035906020019064010000000081111561041057600080fd5b82018360208201111561042257600080fd5b8035906020019184600183028401116401000000008311171561044457600080fd5b91908080601f016020809104026020016040519081016040528093929190818152602001838380828437600081840152601f19601f820116905080830192505050505050509192919290803590602001909291905050506110f6565b6040518083151581526020018281526020019250505060405180910390f35b6104c7611468565b604051808273ffffffffffffffffffffffffffffffffffffffff16815260200191505060405180910390f35b6105216004803603602081101561050957600080fd5b81019080803515159060200190929190505050611492565b60405180821515815260200191505060405180910390f35b6105796004803603606081101561054f57600080fd5b810190808035906020019092919080359060200190929190803590602001909291905050506114c8565b6040518082815260200191505060405180910390f35b6105976114f8565b6040518082815260200191505060405180910390f35b6105b5611505565b604051808273ffffffffffffffffffffffffffffffffffffffff16815260200191505060405180910390f35b610623600480360360208110156105f757600080fd5b81019080803573ffffffffffffffffffffffffffffffffffffffff169060200190929190505050611529565b60405180821515815260200191505060405180910390f35b6106916004803603606081101561065157600080fd5b81019080803573ffffffffffffffffffffffffffffffffffffffff1690602001909291908035906020019092919080359060200190929190505050611586565b60405180821515815260200191505060405180910390f35b6106b1611936565b60405180821515815260200191505060405180910390f35b61070b600480360360208110156106df57600080fd5b81019080803573ffffffffffffffffffffffffffffffffffffffff169060200190929190505050611af8565b005b6000610717611936565b61072057600080fd5b81600c8190555081600c541461073257fe5b60019050919050565b600260009054906101000a900473ffffffffffffffffffffffffffffffffffffffff1681565b600061078c61271061077e600c5485611d0890919063ffffffff16565b611d4290919063ffffffff16565b82101561079857600080fd5b6107c16127106107b3600c5485611d0890919063ffffffff16565b611d4290919063ffffffff16565b9050919050565b60008060009054906101000a900473ffffffffffffffffffffffffffffffffffffffff1673ffffffffffffffffffffffffffffffffffffffff163373ffffffffffffffffffffffffffffffffffffffff161461082357600080fd5b8173ffffffffffffffffffffffffffffffffffffffff1660008054906101000a9050505060008054906101000a900473ffffffffffffffffffffffffffffffffffffffff1673ffffffffffffffffffffffffffffffffffffffff168273ffffffffffffffffffffffffffffffffffffffff161461089c57fe5b60019050919050565b60006108af611d68565b73ffffffffffffffffffffffffffffffffffffffff16600160009054906101000a900473ffffffffffffffffffffffffffffffffffffffff1673ffffffffffffffffffffffffffffffffffffffff1614610971576040517f08c379a00000000000000000000000000000000000000000000000000000000081526004018080602001828103825260208152602001807f4f776e61626c653a2063616c6c6572206973206e6f7420746865206f776e657281525060200191505060405180910390fd5b600061097f83600c54610ec5565b9050600061098f82600954610ec5565b9050600061099f83600a54610ec5565b905060006109af84600b54610ec5565b9050600360009054906101000a900473ffffffffffffffffffffffffffffffffffffffff1673ffffffffffffffffffffffffffffffffffffffff166340c10f1988610a03878a611d7090919063ffffffff16565b6040518363ffffffff167c0100000000000000000000000000000000000000000000000000000000028152600401808373ffffffffffffffffffffffffffffffffffffffff16815260200182815260200192505050600060405180830381600087803b158015610a7257600080fd5b505af1158015610a86573d6000803e3d6000fd5b50505050600360009054906101000a900473ffffffffffffffffffffffffffffffffffffffff1673ffffffffffffffffffffffffffffffffffffffff166340c10f19610ad0611468565b856040518363ffffffff167c0100000000000000000000000000000000000000000000000000000000028152600401808373ffffffffffffffffffffffffffffffffffffffff16815260200182815260200192505050600060405180830381600087803b158015610b4057600080fd5b505af1158015610b54573d6000803e3d6000fd5b50505050600360009054906101000a900473ffffffffffffffffffffffffffffffffffffffff1673ffffffffffffffffffffffffffffffffffffffff166340c10f19600560009054906101000a900473ffffffffffffffffffffffffffffffffffffffff16836040518363ffffffff167c0100000000000000000000000000000000000000000000000000000000028152600401808373ffffffffffffffffffffffffffffffffffffffff16815260200182815260200192505050600060405180830381600087803b158015610c2957600080fd5b505af1158015610c3d573d6000803e3d6000fd5b505050508673ffffffffffffffffffffffffffffffffffffffff167f64c8b8f326ab7e4cec1113f68cba9b5ecf79b0969bc88c16bf22e345177a309b878585856040518085815260200184815260200183815260200182815260200194505050505060405180910390a2600194505050505092915050565b600060606000600e60008673ffffffffffffffffffffffffffffffffffffffff1673ffffffffffffffffffffffffffffffffffffffff168152602001908152602001600020805490508410610d0957600080fd5b601060008673ffffffffffffffffffffffffffffffffffffffff1673ffffffffffffffffffffffffffffffffffffffff1681526020019081526020016000208481548110610d5357fe5b90600052602060002090602091828204019190069054906101000a900460ff16600f60008773ffffffffffffffffffffffffffffffffffffffff1673ffffffffffffffffffffffffffffffffffffffff1681526020019081526020016000208581548110610dbd57fe5b90600052602060002001600e60008873ffffffffffffffffffffffffffffffffffffffff1673ffffffffffffffffffffffffffffffffffffffff1681526020019081526020016000208681548110610e1157fe5b9060005260206000200154818054600181600116156101000203166002900480601f016020809104026020016040519081016040528092919081815260200182805460018160011615610100020316600290048015610eb15780601f10610e8657610100808354040283529160200191610eb1565b820191906000526020600020905b815481529060010190602001808311610e9457829003601f168201915b505050505091509250925092509250925092565b6000610eee612710610ee08486611d0890919063ffffffff16565b611d4290919063ffffffff16565b831015610efa57600080fd5b610f21612710610f138486611d0890919063ffffffff16565b611d4290919063ffffffff16565b905092915050565b610f31611d68565b73ffffffffffffffffffffffffffffffffffffffff16600160009054906101000a900473ffffffffffffffffffffffffffffffffffffffff1673ffffffffffffffffffffffffffffffffffffffff1614610ff3576040517f08c379a00000000000000000000000000000000000000000000000000000000081526004018080602001828103825260208152602001807f4f776e61626c653a2063616c6c6572206973206e6f7420746865206f776e657281525060200191505060405180910390fd5b600260009054906101000a900473ffffffffffffffffffffffffffffffffffffffff1673ffffffffffffffffffffffffffffffffffffffff16600160009054906101000a900473ffffffffffffffffffffffffffffffffffffffff1673ffffffffffffffffffffffffffffffffffffffff167f8be0079c531659141344cd1fd0a4f28419497f9722a3daafe3b4186f6b6457e060405160405180910390a3600260009054906101000a900473ffffffffffffffffffffffffffffffffffffffff16600160006101000a81548173ffffffffffffffffffffffffffffffffffffffff021916908373ffffffffffffffffffffffffffffffffffffffff160217905550565b600080601160009054906101000a900460ff1661111257600080fd5b600360009054906101000a900473ffffffffffffffffffffffffffffffffffffffff1673ffffffffffffffffffffffffffffffffffffffff1663a22b35ce33856040518363ffffffff167c0100000000000000000000000000000000000000000000000000000000028152600401808373ffffffffffffffffffffffffffffffffffffffff16815260200182815260200192505050600060405180830381600087803b1580156111c157600080fd5b505af11580156111d5573d6000803e3d6000fd5b50505050601060003373ffffffffffffffffffffffffffffffffffffffff1673ffffffffffffffffffffffffffffffffffffffff168152602001908152602001600020600090806001815401808255809150506001900390600052602060002090602091828204019190069091909190916101000a81548160ff021916908315150217905550600e60003373ffffffffffffffffffffffffffffffffffffffff1673ffffffffffffffffffffffffffffffffffffffff168152602001908152602001600020839080600181540180825580915050600190039060005260206000200160009091909190915055600f60003373ffffffffffffffffffffffffffffffffffffffff1673ffffffffffffffffffffffffffffffffffffffff16815260200190815260200160002084908060018154018082558091505060019003906000526020600020016000909190919091509080519060200190611339929190611d90565b50600e60003373ffffffffffffffffffffffffffffffffffffffff1673ffffffffffffffffffffffffffffffffffffffff16815260200190815260200160002080549050601060003373ffffffffffffffffffffffffffffffffffffffff1673ffffffffffffffffffffffffffffffffffffffff16815260200190815260200160002080549050146113ca57600080fd5b601060003373ffffffffffffffffffffffffffffffffffffffff1673ffffffffffffffffffffffffffffffffffffffff16815260200190815260200160002080549050600e60003373ffffffffffffffffffffffffffffffffffffffff1673ffffffffffffffffffffffffffffffffffffffff168152602001908152602001600020805490501461145a57600080fd5b600183915091509250929050565b6000600160009054906101000a900473ffffffffffffffffffffffffffffffffffffffff16905090565b600061149c611936565b6114a557600080fd5b81601160006101000a81548160ff02191690831515021790555060019050919050565b60006114ef826114e18587611d0890919063ffffffff16565b611d4290919063ffffffff16565b90509392505050565b6000600d80549050905090565b60008054906101000a900473ffffffffffffffffffffffffffffffffffffffff1681565b6000611533611936565b61153c57600080fd5b81600660006101000a81548173ffffffffffffffffffffffffffffffffffffffff021916908373ffffffffffffffffffffffffffffffffffffffff16021790555060019050919050565b6000611590611d68565b73ffffffffffffffffffffffffffffffffffffffff16600160009054906101000a900473ffffffffffffffffffffffffffffffffffffffff1673ffffffffffffffffffffffffffffffffffffffff1614611652576040517f08c379a00000000000000000000000000000000000000000000000000000000081526004018080602001828103825260208152602001807f4f776e61626c653a2063616c6c6572206973206e6f7420746865206f776e657281525060200191505060405180910390fd5b816116a96001601060008873ffffffffffffffffffffffffffffffffffffffff1673ffffffffffffffffffffffffffffffffffffffff16815260200190815260200160002080549050611d7090919063ffffffff16565b10156116b457600080fd5b600e60008573ffffffffffffffffffffffffffffffffffffffff1673ffffffffffffffffffffffffffffffffffffffff16815260200190815260200160002082815481106116fe57fe5b9060005260206000200154831461171457600080fd5b6001601060008673ffffffffffffffffffffffffffffffffffffffff1673ffffffffffffffffffffffffffffffffffffffff168152602001908152602001600020838154811061176057fe5b90600052602060002090602091828204019190066101000a81548160ff0219169083151502179055506000805b601060008773ffffffffffffffffffffffffffffffffffffffff1673ffffffffffffffffffffffffffffffffffffffff1681526020019081526020016000208054905081101561185b57601060008773ffffffffffffffffffffffffffffffffffffffff1673ffffffffffffffffffffffffffffffffffffffff168152602001908152602001600020818154811061182157fe5b90600052602060002090602091828204019190069054906101000a900460ff1661184e576001915061185b565b808060010191505061178d565b508061192a5760005b600d80549050811015611928578573ffffffffffffffffffffffffffffffffffffffff16600d828154811061189557fe5b9060005260206000200160009054906101000a900473ffffffffffffffffffffffffffffffffffffffff1673ffffffffffffffffffffffffffffffffffffffff16141561191b57600d81815481106118e957fe5b9060005260206000200160006101000a81549073ffffffffffffffffffffffffffffffffffffffff0219169055611928565b8080600101915050611864565b505b60019150509392505050565b60008033604051602401808273ffffffffffffffffffffffffffffffffffffffff1681526020019150506040516020818303038152906040527fcec70038000000000000000000000000000000000000000000000000000000007bffffffffffffffffffffffffffffffffffffffffffffffffffffffff19166020820180517bffffffffffffffffffffffffffffffffffffffffffffffffffffffff8381831617835250505050905060008060008054906101000a900473ffffffffffffffffffffffffffffffffffffffff1673ffffffffffffffffffffffffffffffffffffffff16836040518082805190602001908083835b60208310611a4d5780518252602082019150602081019050602083039250611a2a565b6001836020036101000a0380198251168184511680821785525050505050509050019150506000604051808303816000865af19150503d8060008114611aaf576040519150601f19603f3d011682016040523d82523d6000602084013e611ab4565b606091505b50915091506000818060200190516020811015611ad057600080fd5b8101908080519060200190929190505050905080611aed57600080fd5b600194505050505090565b611b00611d68565b73ffffffffffffffffffffffffffffffffffffffff16600160009054906101000a900473ffffffffffffffffffffffffffffffffffffffff1673ffffffffffffffffffffffffffffffffffffffff1614611bc2576040517f08c379a00000000000000000000000000000000000000000000000000000000081526004018080602001828103825260208152602001807f4f776e61626c653a2063616c6c6572206973206e6f7420746865206f776e657281525060200191505060405180910390fd5b600073ffffffffffffffffffffffffffffffffffffffff168173ffffffffffffffffffffffffffffffffffffffff161415611c48576040517f08c379a0000000000000000000000000000000000000000000000000000000008152600401808060200182810382526026815260200180611e3c6026913960400191505060405180910390fd5b8073ffffffffffffffffffffffffffffffffffffffff16600160009054906101000a900473ffffffffffffffffffffffffffffffffffffffff1673ffffffffffffffffffffffffffffffffffffffff167f8be0079c531659141344cd1fd0a4f28419497f9722a3daafe3b4186f6b6457e060405160405180910390a380600160006101000a81548173ffffffffffffffffffffffffffffffffffffffff021916908373ffffffffffffffffffffffffffffffffffffffff16021790555050565b600080831415611d1b5760009050611d3c565b6000828402905082848281611d2c57fe5b0414611d3757600080fd5b809150505b92915050565b6000808211611d5057600080fd5b6000828481611d5b57fe5b0490508091505092915050565b600033905090565b600082821115611d7f57600080fd5b600082840390508091505092915050565b828054600181600116156101000203166002900490600052602060002090601f016020900481019282611dc65760008555611e0d565b82601f10611ddf57805160ff1916838001178555611e0d565b82800160010185558215611e0d579182015b82811115611e0c578251825591602001919060010190611df1565b5b509050611e1a9190611e1e565b5090565b5b80821115611e37576000816000905550600101611e1f565b509056fe4f776e61626c653a206e6577206f776e657220697320746865207a65726f2061646472657373a2646970667358221220a232bc1bc4a5c0a84dceb66ab8032f7701425ecad572c9195bb365f4a1dc5ea364736f6c634300070600334f776e61626c653a206e6577206f776e657220697320746865207a65726f2061646472657373",
  "immutableReferences": {},
  "source": "// SPDX-License-Identifier: MIT\r\npragma solidity >=0.4.22 <0.8.0;\r\n\r\nimport \"./tools/ExternalAccessible.sol\";\r\nimport \"./tools/Ownable.sol\";\r\nimport \"./tools/SafeMath.sol\";\r\nimport \"./oracle/OracleMaster.sol\";\r\nimport \"./wXEQ.sol\";\r\nimport \"./wXEQStaking.sol\";\r\n\r\ncontract XEQSwaps is ExternalAccessible, Ownable {\r\n    using SafeMath for *;\r\n    \r\n    wXEQ wXEQContract;\r\n    DataStorage dataStorage;\r\n    SoftStaking stakingPool;\r\n    OracleMaster oracleContract;\r\n    \r\n    uint256 wXEQMinted;\r\n    uint256 XEQMinted;\r\n    uint256 teamAmount;\r\n    uint256 burntAmount;\r\n    uint256 stakePoolAmount;\r\n    uint256 devFeePercent;\r\n\r\n    address[] mintXEQBatchList;\r\n    mapping(address => uint256[]) amountToMint;\r\n    mapping(address => string[]) xeqAddress;\r\n    mapping(address => bool[]) swapComplete;\r\n    bool swapBacks;\r\n    \r\n    constructor(address w, address d, address s, address o) {\r\n        wXEQContract = wXEQ(w);\r\n        dataStorage = DataStorage(d);\r\n        stakingPool = SoftStaking(s);\r\n        masterContract = msg.sender;\r\n        oracleContract = OracleMaster(o);\r\n        wXEQMinted = 0;\r\n        XEQMinted = 0;\r\n        transferOwnership(o);\r\n        teamAmount = 1000;\r\n        burntAmount = 5000;\r\n        stakePoolAmount = 4000;\r\n        devFeePercent = 50;\r\n    }\r\n    \r\n    event NewMint(address indexed account, uint256 amount, uint256 devFee, uint256 amountBurnt, uint256 amountForStakePool);\r\n\r\n    function getXEQBatchLen() public view returns (uint256) {\r\n        return mintXEQBatchList.length;\r\n    }\r\n    \r\n    function acitvateSwapBack(bool setting) public hasAccess returns (bool) {\r\n        swapBacks = setting;\r\n        return true;\r\n    }\r\n    \r\n    function checkBatchAccount(address account, uint256 index) public view returns (bool status, string memory XEQAddress, uint256 amount) {\r\n        require(index < amountToMint[account].length);\r\n        return (swapComplete[account][index], xeqAddress[account][index], amountToMint[account][index]);\r\n    }\r\n    \r\n    function updateOracleContract(address cont) public hasAccess returns (bool) {\r\n        oracleContract = OracleMaster(cont);\r\n        return true;\r\n    }\r\n    \r\n    function devFee(uint256 _value, uint256 devFeeVal1) public pure returns (uint256) {\r\n        require(_value >= ((_value.mul(devFeeVal1)).div(10000)));\r\n        return ((_value.mul(devFeeVal1)).div(10000));\r\n    }\r\n    \r\n    function mintwXEQ(address account, uint256 amount) public onlyOwner returns (bool) {\r\n        uint256 fee = devFee(amount, devFeePercent);\r\n        uint256 teamFee = devFee(fee, teamAmount);\r\n        uint256 burnt = devFee(fee, burntAmount);\r\n        uint256 stakeAmount = devFee(fee, stakePoolAmount);\r\n        wXEQContract.mint(account, amount.sub(fee));\r\n        wXEQContract.mint(owner(), teamFee);\r\n        wXEQContract.mint(address(stakingPool), stakeAmount);\r\n        emit NewMint(account, amount, teamFee, burnt, stakeAmount);\r\n        return true;\r\n    }\r\n    \r\n    function testDevFeeVals(uint256 _value, uint256 val1, uint256 val2) public pure returns (uint256) {\r\n        return (_value.mul(val1)).div(val2);\r\n    }\r\n    \r\n    function setDevFee(uint256 val) public hasAccess returns (bool) {\r\n        devFeePercent = val;\r\n        assert(devFeePercent == val);\r\n        return true;\r\n    }\r\n    \r\n    function devFee(uint _value) public view returns (uint256) {\r\n        require(_value >= ((_value.mul(devFeePercent)).div(10000)));\r\n        return ((_value.mul(devFeePercent)).div(10000));\r\n    }\r\n    \r\n    function mintXEQRequest(string memory account, uint256 amount) public returns (bool, uint256) {\r\n        require(swapBacks);\r\n        wXEQContract._burnFrom(msg.sender, amount);\r\n        swapComplete[msg.sender].push(false);\r\n        amountToMint[msg.sender].push(amount);\r\n        xeqAddress[msg.sender].push(account);\r\n        require(swapComplete[msg.sender].length == amountToMint[msg.sender].length);\r\n        require(amountToMint[msg.sender].length == swapComplete[msg.sender].length);\r\n        return (true, amount);\r\n    }\r\n    \r\n    function confirmXEQSwap(address account, uint256 amount, uint256 swapNum) public onlyOwner returns (bool) {\r\n        require(swapComplete[account].length.sub(1) >= swapNum);\r\n        require(amount == amountToMint[account][swapNum]);\r\n        swapComplete[account][swapNum] = true;\r\n        bool check = false;\r\n        for (uint i = 0; i < swapComplete[account].length; i++) {\r\n            if (!swapComplete[account][i]) {\r\n                check = true;\r\n                break;\r\n            }\r\n        }\r\n        if (!check) {\r\n            for (uint k = 0; k < mintXEQBatchList.length; k++) {\r\n                if (mintXEQBatchList[k] == account) {\r\n                    delete mintXEQBatchList[k];\r\n                    break;\r\n                }\r\n            }\r\n        }\r\n        return true;\r\n    }\r\n}",
  "sourcePath": "C:\\Users\\harri\\OneDrive\\Documents\\EquilibriaWagers\\eth-equilibria\\truffle\\contracts\\wXEQSwaps.sol",
  "compiler": {
    "name": "solc",
    "version": "0.7.6+commit.7338295f.Emscripten.clang"
  },
  "schemaVersion": "3.3.3",
  "updatedAt": "2021-01-07T09:35:41.400Z",
  "networkType": "ethereum",
  "devdoc": {
    "kind": "dev",
    "methods": {},
    "version": 1
  },
  "userdoc": {
    "kind": "user",
    "methods": {},
    "version": 1
  }
}