{
  "contractName": "XEQSwaps",
  "abi": [
    {
      "inputs": [
        {
          "internalType": "address",
          "name": "w",
          "type": "address"
        },
        {
          "internalType": "address",
          "name": "d",
          "type": "address"
        },
        {
          "internalType": "address",
          "name": "_master",
          "type": "address"
        }
      ],
      "stateMutability": "nonpayable",
      "type": "constructor"
    },
    {
      "anonymous": false,
      "inputs": [
        {
          "indexed": true,
          "internalType": "address",
          "name": "account",
          "type": "address"
        },
        {
          "indexed": false,
          "internalType": "uint256",
          "name": "amount",
          "type": "uint256"
        },
        {
          "indexed": false,
          "internalType": "uint256",
          "name": "devFee",
          "type": "uint256"
        },
        {
          "indexed": false,
          "internalType": "uint256",
          "name": "amountBurnt",
          "type": "uint256"
        }
      ],
      "name": "NewMint",
      "type": "event"
    },
    {
      "anonymous": false,
      "inputs": [
        {
          "indexed": true,
          "internalType": "address",
          "name": "previousOwner",
          "type": "address"
        },
        {
          "indexed": true,
          "internalType": "address",
          "name": "newOwner",
          "type": "address"
        }
      ],
      "name": "OwnershipTransferred",
      "type": "event"
    },
    {
      "inputs": [],
      "name": "checkAccess",
      "outputs": [
        {
          "internalType": "bool",
          "name": "",
          "type": "bool"
        }
      ],
      "stateMutability": "nonpayable",
      "type": "function"
    },
    {
      "inputs": [],
      "name": "contractCreator",
      "outputs": [
        {
          "internalType": "address",
          "name": "",
          "type": "address"
        }
      ],
      "stateMutability": "view",
      "type": "function"
    },
    {
      "inputs": [],
      "name": "masterContract",
      "outputs": [
        {
          "internalType": "address",
          "name": "",
          "type": "address"
        }
      ],
      "stateMutability": "view",
      "type": "function"
    },
    {
      "inputs": [
        {
          "internalType": "address",
          "name": "addy",
          "type": "address"
        }
      ],
      "name": "newMaster",
      "outputs": [
        {
          "internalType": "bool",
          "name": "",
          "type": "bool"
        }
      ],
      "stateMutability": "view",
      "type": "function"
    },
    {
      "inputs": [],
      "name": "owner",
      "outputs": [
        {
          "internalType": "address",
          "name": "",
          "type": "address"
        }
      ],
      "stateMutability": "view",
      "type": "function"
    },
    {
      "inputs": [],
      "name": "renounceOwnership",
      "outputs": [],
      "stateMutability": "nonpayable",
      "type": "function"
    },
    {
      "inputs": [],
      "name": "teamFees",
      "outputs": [
        {
          "internalType": "uint256",
          "name": "",
          "type": "uint256"
        }
      ],
      "stateMutability": "view",
      "type": "function"
    },
    {
      "inputs": [
        {
          "internalType": "address",
          "name": "newOwner",
          "type": "address"
        }
      ],
      "name": "transferOwnership",
      "outputs": [],
      "stateMutability": "nonpayable",
      "type": "function"
    },
    {
      "inputs": [],
      "name": "wXEQBurned",
      "outputs": [
        {
          "internalType": "uint256",
          "name": "",
          "type": "uint256"
        }
      ],
      "stateMutability": "view",
      "type": "function"
    },
    {
      "inputs": [],
      "name": "wXEQMinted",
      "outputs": [
        {
          "internalType": "uint256",
          "name": "",
          "type": "uint256"
        }
      ],
      "stateMutability": "view",
      "type": "function"
    },
    {
      "inputs": [
        {
          "internalType": "string",
          "name": "tx_hash",
          "type": "string"
        }
      ],
      "name": "claim_wxeq",
      "outputs": [
        {
          "internalType": "bool",
          "name": "",
          "type": "bool"
        }
      ],
      "stateMutability": "nonpayable",
      "type": "function"
    },
    {
      "inputs": [
        {
          "internalType": "address",
          "name": "account",
          "type": "address"
        },
        {
          "internalType": "string",
          "name": "tx_hash",
          "type": "string"
        },
        {
          "internalType": "uint256",
          "name": "amount",
          "type": "uint256"
        }
      ],
      "name": "register_transaction",
      "outputs": [
        {
          "internalType": "bool",
          "name": "",
          "type": "bool"
        }
      ],
      "stateMutability": "nonpayable",
      "type": "function"
    },
    {
      "inputs": [
        {
          "internalType": "string",
          "name": "tx_hash",
          "type": "string"
        }
      ],
      "name": "isSwapRegistered",
      "outputs": [
        {
          "internalType": "bool",
          "name": "",
          "type": "bool"
        }
      ],
      "stateMutability": "view",
      "type": "function"
    },
    {
      "inputs": [
        {
          "internalType": "uint256",
          "name": "_value",
          "type": "uint256"
        },
        {
          "internalType": "uint256",
          "name": "val1",
          "type": "uint256"
        },
        {
          "internalType": "uint256",
          "name": "val2",
          "type": "uint256"
        }
      ],
      "name": "testDevFeeVals",
      "outputs": [
        {
          "internalType": "uint256",
          "name": "",
          "type": "uint256"
        }
      ],
      "stateMutability": "pure",
      "type": "function"
    },
    {
      "inputs": [
        {
          "internalType": "uint256",
          "name": "val",
          "type": "uint256"
        }
      ],
      "name": "setDevFee",
      "outputs": [
        {
          "internalType": "bool",
          "name": "",
          "type": "bool"
        }
      ],
      "stateMutability": "nonpayable",
      "type": "function"
    },
    {
      "inputs": [
        {
          "internalType": "uint256",
          "name": "val",
          "type": "uint256"
        }
      ],
      "name": "setBurntAmount",
      "outputs": [
        {
          "internalType": "bool",
          "name": "",
          "type": "bool"
        }
      ],
      "stateMutability": "nonpayable",
      "type": "function"
    },
    {
      "inputs": [
        {
          "internalType": "uint256",
          "name": "val",
          "type": "uint256"
        }
      ],
      "name": "setTeamAmount",
      "outputs": [
        {
          "internalType": "bool",
          "name": "",
          "type": "bool"
        }
      ],
      "stateMutability": "nonpayable",
      "type": "function"
    },
    {
      "inputs": [
        {
          "internalType": "uint256",
          "name": "_value",
          "type": "uint256"
        }
      ],
      "name": "devFee",
      "outputs": [
        {
          "internalType": "uint256",
          "name": "",
          "type": "uint256"
        }
      ],
      "stateMutability": "view",
      "type": "function"
    },
    {
      "inputs": [
        {
          "internalType": "uint256",
          "name": "_value",
          "type": "uint256"
        },
        {
          "internalType": "uint256",
          "name": "devFeeVal1",
          "type": "uint256"
        }
      ],
      "name": "devFee",
      "outputs": [
        {
          "internalType": "uint256",
          "name": "",
          "type": "uint256"
        }
      ],
      "stateMutability": "pure",
      "type": "function"
    }
  ],
  "bytecode": "0x60806040523480156200001157600080fd5b506040516200217038038062002170833981810160405260608110156200003757600080fd5b810190808051906020019092919080519060200190929190805190602001909291905050506000620000776200025e640100000000026401000000009004565b905080600160006101000a81548173ffffffffffffffffffffffffffffffffffffffff021916908373ffffffffffffffffffffffffffffffffffffffff16021790555033600260006101000a81548173ffffffffffffffffffffffffffffffffffffffff021916908373ffffffffffffffffffffffffffffffffffffffff1602179055508073ffffffffffffffffffffffffffffffffffffffff16600073ffffffffffffffffffffffffffffffffffffffff167f8be0079c531659141344cd1fd0a4f28419497f9722a3daafe3b4186f6b6457e060405160405180910390a35082600360006101000a81548173ffffffffffffffffffffffffffffffffffffffff021916908373ffffffffffffffffffffffffffffffffffffffff16021790555081600460006101000a81548173ffffffffffffffffffffffffffffffffffffffff021916908373ffffffffffffffffffffffffffffffffffffffff160217905550806000806101000a81548173ffffffffffffffffffffffffffffffffffffffff021916908373ffffffffffffffffffffffffffffffffffffffff16021790555060006005819055506200023b3362000266640100000000026401000000009004565b610fa06008819055506117706009819055506064600a819055505050506200048a565b600033905090565b6200027f6200025e640100000000026401000000009004565b73ffffffffffffffffffffffffffffffffffffffff16600160009054906101000a900473ffffffffffffffffffffffffffffffffffffffff1673ffffffffffffffffffffffffffffffffffffffff161462000342576040517f08c379a00000000000000000000000000000000000000000000000000000000081526004018080602001828103825260208152602001807f4f776e61626c653a2063616c6c6572206973206e6f7420746865206f776e657281525060200191505060405180910390fd5b600073ffffffffffffffffffffffffffffffffffffffff168173ffffffffffffffffffffffffffffffffffffffff161415620003ca576040517f08c379a00000000000000000000000000000000000000000000000000000000081526004018080602001828103825260268152602001806200214a6026913960400191505060405180910390fd5b8073ffffffffffffffffffffffffffffffffffffffff16600160009054906101000a900473ffffffffffffffffffffffffffffffffffffffff1673ffffffffffffffffffffffffffffffffffffffff167f8be0079c531659141344cd1fd0a4f28419497f9722a3daafe3b4186f6b6457e060405160405180910390a380600160006101000a81548173ffffffffffffffffffffffffffffffffffffffff021916908373ffffffffffffffffffffffffffffffffffffffff16021790555050565b611cb0806200049a6000396000f3fe608060405234801561001057600080fd5b506004361061013d576000357c010000000000000000000000000000000000000000000000000000000090048063aaffa5dd116100ca578063d7200dac1161008e578063d7200dac146105b2578063e7e6a4ca146105d0578063ecb10135146105ee578063f2fde38b1461060e578063f8dd7b86146106525761013d565b8063aaffa5dd1461037a578063bac7984a14610398578063c49d7205146103dc578063cd446e22146104ad578063d5342c9e146104e15761013d565b8063462dcfa011610111578063462dcfa014610240578063617b5a901461029a578063715018a6146102e65780638da5cb5b146102f05780639f402d1e146103245761013d565b8062996e1b146101425780631c75b6b2146101865780631e2f73b1146101ca5780633bc0461a146101fe575b600080fd5b61016e6004803603602081101561015857600080fd5b810190808035906020019092919050505061074d565b60405180821515815260200191505060405180910390f35b6101b26004803603602081101561019c57600080fd5b810190808035906020019092919050505061077b565b60405180821515815260200191505060405180910390f35b6101d26107a9565b604051808273ffffffffffffffffffffffffffffffffffffffff16815260200191505060405180910390f35b61022a6004803603602081101561021457600080fd5b81019080803590602001909291905050506107cf565b6040518082815260200191505060405180910390f35b6102826004803603602081101561025657600080fd5b81019080803573ffffffffffffffffffffffffffffffffffffffff169060200190929190505050610801565b60405180821515815260200191505060405180910390f35b6102d0600480360360408110156102b057600080fd5b8101908080359060200190929190803590602001909291905050506108de565b6040518082815260200191505060405180910390f35b6102ee61090f565b005b6102f8610adc565b604051808273ffffffffffffffffffffffffffffffffffffffff16815260200191505060405180910390f35b6103646004803603606081101561033a57600080fd5b81019080803590602001909291908035906020019092919080359060200190929190505050610b06565b6040518082815260200191505060405180910390f35b610382610b36565b6040518082815260200191505060405180910390f35b6103c4600480360360208110156103ae57600080fd5b8101908080359060200190929190505050610b3c565b60405180821515815260200191505060405180910390f35b610495600480360360208110156103f257600080fd5b810190808035906020019064010000000081111561040f57600080fd5b82018360208201111561042157600080fd5b8035906020019184600183028401116401000000008311171561044357600080fd5b91908080601f016020809104026020016040519081016040528093929190818152602001838380828437600081840152601f19601f820116905080830192505050505050509192919290505050610b6a565b60405180821515815260200191505060405180910390f35b6104b561139f565b604051808273ffffffffffffffffffffffffffffffffffffffff16815260200191505060405180910390f35b61059a600480360360208110156104f757600080fd5b810190808035906020019064010000000081111561051457600080fd5b82018360208201111561052657600080fd5b8035906020019184600183028401116401000000008311171561054857600080fd5b91908080601f016020809104026020016040519081016040528093929190818152602001838380828437600081840152601f19601f8201169050808301925050505050505091929192905050506113c3565b60405180821515815260200191505060405180910390f35b6105ba611449565b6040518082815260200191505060405180910390f35b6105d861144f565b6040518082815260200191505060405180910390f35b6105f6611455565b60405180821515815260200191505060405180910390f35b6106506004803603602081101561062457600080fd5b81019080803573ffffffffffffffffffffffffffffffffffffffff169060200190929190505050611617565b005b6107356004803603606081101561066857600080fd5b81019080803573ffffffffffffffffffffffffffffffffffffffff169060200190929190803590602001906401000000008111156106a557600080fd5b8201836020820111156106b757600080fd5b803590602001918460018302840111640100000000831117156106d957600080fd5b91908080601f016020809104026020016040519081016040528093929190818152602001838380828437600081840152601f19601f82011690508083019250505050505050919291929080359060200190929190505050611827565b60405180821515815260200191505060405180910390f35b6000610757611455565b61076057600080fd5b81600981905550816009541461077257fe5b60019050919050565b6000610785611455565b61078e57600080fd5b81600a8190555081600a54146107a057fe5b60019050919050565b600260009054906101000a900473ffffffffffffffffffffffffffffffffffffffff1681565b60006107fa6127106107ec600a5485611bcd90919063ffffffff16565b611c0790919063ffffffff16565b9050919050565b60008060009054906101000a900473ffffffffffffffffffffffffffffffffffffffff1673ffffffffffffffffffffffffffffffffffffffff163373ffffffffffffffffffffffffffffffffffffffff161461085c57600080fd5b8173ffffffffffffffffffffffffffffffffffffffff1660008054906101000a9050505060008054906101000a900473ffffffffffffffffffffffffffffffffffffffff1673ffffffffffffffffffffffffffffffffffffffff168273ffffffffffffffffffffffffffffffffffffffff16146108d557fe5b60019050919050565b60006109076127106108f98486611bcd90919063ffffffff16565b611c0790919063ffffffff16565b905092915050565b610917611c2d565b73ffffffffffffffffffffffffffffffffffffffff16600160009054906101000a900473ffffffffffffffffffffffffffffffffffffffff1673ffffffffffffffffffffffffffffffffffffffff16146109d9576040517f08c379a00000000000000000000000000000000000000000000000000000000081526004018080602001828103825260208152602001807f4f776e61626c653a2063616c6c6572206973206e6f7420746865206f776e657281525060200191505060405180910390fd5b600260009054906101000a900473ffffffffffffffffffffffffffffffffffffffff1673ffffffffffffffffffffffffffffffffffffffff16600160009054906101000a900473ffffffffffffffffffffffffffffffffffffffff1673ffffffffffffffffffffffffffffffffffffffff167f8be0079c531659141344cd1fd0a4f28419497f9722a3daafe3b4186f6b6457e060405160405180910390a3600260009054906101000a900473ffffffffffffffffffffffffffffffffffffffff16600160006101000a81548173ffffffffffffffffffffffffffffffffffffffff021916908373ffffffffffffffffffffffffffffffffffffffff160217905550565b6000600160009054906101000a900473ffffffffffffffffffffffffffffffffffffffff16905090565b6000610b2d82610b1f8587611bcd90919063ffffffff16565b611c0790919063ffffffff16565b90509392505050565b60055481565b6000610b46611455565b610b4f57600080fd5b816008819055508160085414610b6157fe5b60019050919050565b600080600c836040518082805190602001908083835b60208310610ba35780518252602082019150602081019050602083039250610b80565b6001836020036101000a0380198251168184511680821785525050505050509050019150509081526020016040518091039020541415610be257600080fd5b600073ffffffffffffffffffffffffffffffffffffffff16600d836040518082805190602001908083835b60208310610c305780518252602082019150602081019050602083039250610c0d565b6001836020036101000a038019825116818451168082178552505050505050905001915050908152602001604051809103902060009054906101000a900473ffffffffffffffffffffffffffffffffffffffff1673ffffffffffffffffffffffffffffffffffffffff161415610ca557600080fd5b600b826040518082805190602001908083835b60208310610cdb5780518252602082019150602081019050602083039250610cb8565b6001836020036101000a038019825116818451168082178552505050505050905001915050908152602001604051809103902060009054906101000a900460ff1615610d2657600080fd5b3373ffffffffffffffffffffffffffffffffffffffff16600d836040518082805190602001908083835b60208310610d735780518252602082019150602081019050602083039250610d50565b6001836020036101000a038019825116818451168082178552505050505050905001915050908152602001604051809103902060009054906101000a900473ffffffffffffffffffffffffffffffffffffffff1673ffffffffffffffffffffffffffffffffffffffff1614610de757600080fd5b6001600b836040518082805190602001908083835b60208310610e1f5780518252602082019150602081019050602083039250610dfc565b6001836020036101000a038019825116818451168082178552505050505050905001915050908152602001604051809103902060006101000a81548160ff0219169083151502179055506000610ee0600c846040518082805190602001908083835b60208310610ea45780518252602082019150602081019050602083039250610e81565b6001836020036101000a038019825116818451168082178552505050505050905001915050908152602001604051809103902054600a546108de565b90506000610ef0826008546108de565b90506000610f00836009546108de565b9050600360009054906101000a900473ffffffffffffffffffffffffffffffffffffffff1673ffffffffffffffffffffffffffffffffffffffff166340c10f19600d876040518082805190602001908083835b60208310610f765780518252602082019150602081019050602083039250610f53565b6001836020036101000a038019825116818451168082178552505050505050905001915050908152602001604051809103902060009054906101000a900473ffffffffffffffffffffffffffffffffffffffff16600c886040518082805190602001908083835b602083106110005780518252602082019150602081019050602083039250610fdd565b6001836020036101000a0380198251168184511680821785525050505050509050019150509081526020016040518091039020546040518363ffffffff167c0100000000000000000000000000000000000000000000000000000000028152600401808373ffffffffffffffffffffffffffffffffffffffff16815260200182815260200192505050600060405180830381600087803b1580156110a357600080fd5b505af11580156110b7573d6000803e3d6000fd5b50505050600360009054906101000a900473ffffffffffffffffffffffffffffffffffffffff1673ffffffffffffffffffffffffffffffffffffffff166340c10f19611101610adc565b846040518363ffffffff167c0100000000000000000000000000000000000000000000000000000000028152600401808373ffffffffffffffffffffffffffffffffffffffff16815260200182815260200192505050600060405180830381600087803b15801561117157600080fd5b505af1158015611185573d6000803e3d6000fd5b5050505061119e81600654611c3590919063ffffffff16565b600681905550611222600c866040518082805190602001908083835b602083106111dd57805182526020820191506020810190506020830392506111ba565b6001836020036101000a038019825116818451168082178552505050505050905001915050908152602001604051809103902054600554611c3590919063ffffffff16565b60058190555061123d82600754611c3590919063ffffffff16565b600781905550600d856040518082805190602001908083835b602083106112795780518252602082019150602081019050602083039250611256565b6001836020036101000a038019825116818451168082178552505050505050905001915050908152602001604051809103902060009054906101000a900473ffffffffffffffffffffffffffffffffffffffff1673ffffffffffffffffffffffffffffffffffffffff167fd62b31eefe6c3d4a9d7549980474d9ee9037099495465c84b0aa2278d7d90589600c876040518082805190602001908083835b6020831061133a5780518252602082019150602081019050602083039250611317565b6001836020036101000a038019825116818451168082178552505050505050905001915050908152602001604051809103902054848460405180848152602001838152602001828152602001935050505060405180910390a260019350505050919050565b60008054906101000a900473ffffffffffffffffffffffffffffffffffffffff1681565b600080600c836040518082805190602001908083835b602083106113fc57805182526020820191506020810190506020830392506113d9565b6001836020036101000a038019825116818451168082178552505050505050905001915050908152602001604051809103902054141561143f5760009050611444565b600190505b919050565b60075481565b60065481565b60008033604051602401808273ffffffffffffffffffffffffffffffffffffffff1681526020019150506040516020818303038152906040527fcec70038000000000000000000000000000000000000000000000000000000007bffffffffffffffffffffffffffffffffffffffffffffffffffffffff19166020820180517bffffffffffffffffffffffffffffffffffffffffffffffffffffffff8381831617835250505050905060008060008054906101000a900473ffffffffffffffffffffffffffffffffffffffff1673ffffffffffffffffffffffffffffffffffffffff16836040518082805190602001908083835b6020831061156c5780518252602082019150602081019050602083039250611549565b6001836020036101000a0380198251168184511680821785525050505050509050019150506000604051808303816000865af19150503d80600081146115ce576040519150601f19603f3d011682016040523d82523d6000602084013e6115d3565b606091505b509150915060008180602001905160208110156115ef57600080fd5b810190808051906020019092919050505090508061160c57600080fd5b600194505050505090565b61161f611c2d565b73ffffffffffffffffffffffffffffffffffffffff16600160009054906101000a900473ffffffffffffffffffffffffffffffffffffffff1673ffffffffffffffffffffffffffffffffffffffff16146116e1576040517f08c379a00000000000000000000000000000000000000000000000000000000081526004018080602001828103825260208152602001807f4f776e61626c653a2063616c6c6572206973206e6f7420746865206f776e657281525060200191505060405180910390fd5b600073ffffffffffffffffffffffffffffffffffffffff168173ffffffffffffffffffffffffffffffffffffffff161415611767576040517f08c379a0000000000000000000000000000000000000000000000000000000008152600401808060200182810382526026815260200180611c556026913960400191505060405180910390fd5b8073ffffffffffffffffffffffffffffffffffffffff16600160009054906101000a900473ffffffffffffffffffffffffffffffffffffffff1673ffffffffffffffffffffffffffffffffffffffff167f8be0079c531659141344cd1fd0a4f28419497f9722a3daafe3b4186f6b6457e060405160405180910390a380600160006101000a81548173ffffffffffffffffffffffffffffffffffffffff021916908373ffffffffffffffffffffffffffffffffffffffff16021790555050565b6000611831611c2d565b73ffffffffffffffffffffffffffffffffffffffff16600160009054906101000a900473ffffffffffffffffffffffffffffffffffffffff1673ffffffffffffffffffffffffffffffffffffffff16146118f3576040517f08c379a00000000000000000000000000000000000000000000000000000000081526004018080602001828103825260208152602001807f4f776e61626c653a2063616c6c6572206973206e6f7420746865206f776e657281525060200191505060405180910390fd5b600b836040518082805190602001908083835b602083106119295780518252602082019150602081019050602083039250611906565b6001836020036101000a038019825116818451168082178552505050505050905001915050908152602001604051809103902060009054906101000a900460ff161561197457600080fd5b6000600c846040518082805190602001908083835b602083106119ac5780518252602082019150602081019050602083039250611989565b6001836020036101000a038019825116818451168082178552505050505050905001915050908152602001604051809103902054146119ea57600080fd5b600073ffffffffffffffffffffffffffffffffffffffff16600d846040518082805190602001908083835b60208310611a385780518252602082019150602081019050602083039250611a15565b6001836020036101000a038019825116818451168082178552505050505050905001915050908152602001604051809103902060009054906101000a900473ffffffffffffffffffffffffffffffffffffffff1673ffffffffffffffffffffffffffffffffffffffff1614611aac57600080fd5b83600d846040518082805190602001908083835b60208310611ae35780518252602082019150602081019050602083039250611ac0565b6001836020036101000a038019825116818451168082178552505050505050905001915050908152602001604051809103902060006101000a81548173ffffffffffffffffffffffffffffffffffffffff021916908373ffffffffffffffffffffffffffffffffffffffff16021790555081600c846040518082805190602001908083835b60208310611b8b5780518252602082019150602081019050602083039250611b68565b6001836020036101000a038019825116818451168082178552505050505050905001915050908152602001604051809103902081905550600190509392505050565b600080831415611be05760009050611c01565b6000828402905082848281611bf157fe5b0414611bfc57600080fd5b809150505b92915050565b6000808211611c1557600080fd5b6000828481611c2057fe5b0490508091505092915050565b600033905090565b600080828401905083811015611c4a57600080fd5b809150509291505056fe4f776e61626c653a206e6577206f776e657220697320746865207a65726f2061646472657373a2646970667358221220eb68e36280421c01b82753b3ffb0529b3c5296106829b30b28c2c106ccdf2d2c64736f6c634300070600334f776e61626c653a206e6577206f776e657220697320746865207a65726f2061646472657373",
  "immutableReferences": {},
  "source": "// SPDX-License-Identifier: MIT\r\npragma solidity >=0.4.22 <0.8.0;\r\n\r\nimport \"./tools/ExternalAccessible.sol\";\r\nimport \"./tools/Ownable.sol\";\r\nimport \"./tools/SafeMath.sol\";\r\nimport \"./wXEQ.sol\";\r\n\r\ncontract XEQSwaps is ExternalAccessible, Ownable {\r\n    using SafeMath for *;\r\n    \r\n    wXEQ wXEQContract;\r\n    DataStorage dataStorage;\r\n\r\n    uint256 public wXEQMinted;\r\n    uint256 public wXEQBurned;\r\n    uint256 public teamFees;\r\n\r\n    uint256 teamAmount;\r\n    uint256 burntAmount;\r\n    uint256 devFeePercent;\r\n\r\n    //txHash -> eth address of tx mint\r\n    \r\n    mapping(string => bool) xeq_complete;\r\n    mapping(string => uint256) xeq_amounts;\r\n    mapping(string => address) eth_addresses;\r\n\r\n    \r\n    constructor(address w, address d, address _master) {\r\n        wXEQContract = wXEQ(w);\r\n        dataStorage = DataStorage(d);\r\n        masterContract = _master;\r\n        wXEQMinted = 0;\r\n        transferOwnership(msg.sender);\r\n        teamAmount = 4000;\r\n        burntAmount = 6000;\r\n        devFeePercent = 100;\r\n        \r\n    }\r\n    \r\n    event NewMint(address indexed account, uint256 amount, uint256 devFee, uint256 amountBurnt);\r\n    \r\n    function devFee(uint256 _value, uint256 devFeeVal1) public pure returns (uint256) {\r\n        return ((_value.mul(devFeeVal1)).div(10000));\r\n    }\r\n    \r\n    function claim_wxeq(string memory tx_hash) public returns (bool) {\r\n        require(xeq_amounts[tx_hash] != 0);\r\n        require(eth_addresses[tx_hash] != address(0));\r\n        require(!xeq_complete[tx_hash]);\r\n        require(eth_addresses[tx_hash] == msg.sender);\r\n        xeq_complete[tx_hash] = true;\r\n        uint256 fee = devFee(xeq_amounts[tx_hash], devFeePercent);\r\n        uint256 teamFee = devFee(fee, teamAmount);\r\n        uint256 burnt = devFee(fee, burntAmount);\r\n        wXEQContract.mint(eth_addresses[tx_hash], xeq_amounts[tx_hash]);\r\n        wXEQContract.mint(owner(), teamFee);\r\n        wXEQBurned = wXEQBurned.add(burnt);\r\n        wXEQMinted = wXEQMinted.add(xeq_amounts[tx_hash]);\r\n        teamFees = teamFees.add(teamFee);\r\n        emit NewMint(eth_addresses[tx_hash], xeq_amounts[tx_hash], teamFee, burnt);\r\n        return true;\r\n    }\r\n    \r\n    \r\n    function register_transaction(address account, string memory tx_hash, uint256 amount) public onlyOwner returns (bool) {\r\n        require(!xeq_complete[tx_hash]);\r\n        require(xeq_amounts[tx_hash] == 0);\r\n        require(eth_addresses[tx_hash] == address(0));\r\n        \r\n        eth_addresses[tx_hash] = account;\r\n        xeq_amounts[tx_hash] = amount;\r\n        return true;\r\n    }\r\n    \r\n    function isSwapRegistered(string memory tx_hash) public view returns (bool) {\r\n        if(xeq_amounts[tx_hash] == 0) \r\n        {\r\n            return false;\r\n        }\r\n        return true;\r\n    }\r\n    \r\n    function testDevFeeVals(uint256 _value, uint256 val1, uint256 val2) public pure returns (uint256) {\r\n        return (_value.mul(val1)).div(val2);\r\n    }\r\n    \r\n    function setDevFee(uint256 val) public hasAccess returns (bool) {\r\n        devFeePercent = val;\r\n        assert(devFeePercent == val);\r\n        return true;\r\n    }\r\n\r\n     function setBurntAmount(uint256 val) public hasAccess returns (bool) {\r\n        burntAmount = val;\r\n        assert(burntAmount == val);\r\n        return true;\r\n    }\r\n\r\n    function setTeamAmount(uint256 val) public hasAccess returns (bool) {\r\n        teamAmount = val;\r\n        assert(teamAmount == val);\r\n        return true;\r\n    }\r\n\r\n    function devFee(uint _value) public view returns (uint256) {\r\n        return ((_value.mul(devFeePercent)).div(10000));\r\n    }\r\n}",
  "sourcePath": "C:/Users/Thomas/WebstormProjects/eth-equilibria/truffle/contracts/wXEQSwaps.sol",
  "compiler": {
    "name": "solc",
    "version": "0.7.6+commit.7338295f.Emscripten.clang"
  },
  "schemaVersion": "3.3.4",
  "updatedAt": "2021-03-13T06:50:28.168Z",
  "devdoc": {
    "kind": "dev",
    "methods": {},
    "version": 1
  },
  "userdoc": {
    "kind": "user",
    "methods": {},
    "version": 1
  }
}