{
  "contractName": "XEQSwaps",
  "abi": [
    {
      "inputs": [
        {
          "internalType": "address",
          "name": "w",
          "type": "address"
        },
        {
          "internalType": "address",
          "name": "d",
          "type": "address"
        },
        {
          "internalType": "address",
          "name": "s",
          "type": "address"
        },
        {
          "internalType": "address",
          "name": "o",
          "type": "address"
        }
      ],
      "stateMutability": "nonpayable",
      "type": "constructor"
    },
    {
      "anonymous": false,
      "inputs": [
        {
          "indexed": true,
          "internalType": "address",
          "name": "account",
          "type": "address"
        },
        {
          "indexed": false,
          "internalType": "uint256",
          "name": "amount",
          "type": "uint256"
        },
        {
          "indexed": false,
          "internalType": "uint256",
          "name": "devFee",
          "type": "uint256"
        },
        {
          "indexed": false,
          "internalType": "uint256",
          "name": "amountBurnt",
          "type": "uint256"
        },
        {
          "indexed": false,
          "internalType": "uint256",
          "name": "amountForStakePool",
          "type": "uint256"
        }
      ],
      "name": "NewMint",
      "type": "event"
    },
    {
      "anonymous": false,
      "inputs": [
        {
          "indexed": true,
          "internalType": "address",
          "name": "previousOwner",
          "type": "address"
        },
        {
          "indexed": true,
          "internalType": "address",
          "name": "newOwner",
          "type": "address"
        }
      ],
      "name": "OwnershipTransferred",
      "type": "event"
    },
    {
      "inputs": [],
      "name": "checkAccess",
      "outputs": [
        {
          "internalType": "bool",
          "name": "",
          "type": "bool"
        }
      ],
      "stateMutability": "nonpayable",
      "type": "function"
    },
    {
      "inputs": [],
      "name": "contractCreator",
      "outputs": [
        {
          "internalType": "address",
          "name": "",
          "type": "address"
        }
      ],
      "stateMutability": "view",
      "type": "function"
    },
    {
      "inputs": [],
      "name": "masterContract",
      "outputs": [
        {
          "internalType": "address",
          "name": "",
          "type": "address"
        }
      ],
      "stateMutability": "view",
      "type": "function"
    },
    {
      "inputs": [
        {
          "internalType": "address",
          "name": "addy",
          "type": "address"
        }
      ],
      "name": "newMaster",
      "outputs": [
        {
          "internalType": "bool",
          "name": "",
          "type": "bool"
        }
      ],
      "stateMutability": "view",
      "type": "function"
    },
    {
      "inputs": [],
      "name": "owner",
      "outputs": [
        {
          "internalType": "address",
          "name": "",
          "type": "address"
        }
      ],
      "stateMutability": "view",
      "type": "function"
    },
    {
      "inputs": [],
      "name": "renounceOwnership",
      "outputs": [],
      "stateMutability": "nonpayable",
      "type": "function"
    },
    {
      "inputs": [
        {
          "internalType": "address",
          "name": "newOwner",
          "type": "address"
        }
      ],
      "name": "transferOwnership",
      "outputs": [],
      "stateMutability": "nonpayable",
      "type": "function"
    },
    {
      "inputs": [],
      "name": "getXEQBatchLen",
      "outputs": [
        {
          "internalType": "uint256",
          "name": "",
          "type": "uint256"
        }
      ],
      "stateMutability": "view",
      "type": "function"
    },
    {
      "inputs": [
        {
          "internalType": "bool",
          "name": "setting",
          "type": "bool"
        }
      ],
      "name": "acitvateSwapBack",
      "outputs": [
        {
          "internalType": "bool",
          "name": "",
          "type": "bool"
        }
      ],
      "stateMutability": "nonpayable",
      "type": "function"
    },
    {
      "inputs": [
        {
          "internalType": "address",
          "name": "account",
          "type": "address"
        },
        {
          "internalType": "uint256",
          "name": "index",
          "type": "uint256"
        }
      ],
      "name": "checkBatchAccount",
      "outputs": [
        {
          "internalType": "bool",
          "name": "status",
          "type": "bool"
        },
        {
          "internalType": "string",
          "name": "XEQAddress",
          "type": "string"
        },
        {
          "internalType": "uint256",
          "name": "amount",
          "type": "uint256"
        }
      ],
      "stateMutability": "view",
      "type": "function"
    },
    {
      "inputs": [
        {
          "internalType": "address",
          "name": "cont",
          "type": "address"
        }
      ],
      "name": "updateOracleContract",
      "outputs": [
        {
          "internalType": "bool",
          "name": "",
          "type": "bool"
        }
      ],
      "stateMutability": "nonpayable",
      "type": "function"
    },
    {
      "inputs": [
        {
          "internalType": "address",
          "name": "account",
          "type": "address"
        },
        {
          "internalType": "uint256",
          "name": "amount",
          "type": "uint256"
        }
      ],
      "name": "mintwXEQ",
      "outputs": [
        {
          "internalType": "bool",
          "name": "",
          "type": "bool"
        }
      ],
      "stateMutability": "nonpayable",
      "type": "function"
    },
    {
      "inputs": [
        {
          "internalType": "uint256",
          "name": "_value",
          "type": "uint256"
        },
        {
          "internalType": "uint256",
          "name": "val1",
          "type": "uint256"
        },
        {
          "internalType": "uint256",
          "name": "val2",
          "type": "uint256"
        }
      ],
      "name": "testDevFeeVals",
      "outputs": [
        {
          "internalType": "uint256",
          "name": "",
          "type": "uint256"
        }
      ],
      "stateMutability": "pure",
      "type": "function"
    },
    {
      "inputs": [
        {
          "internalType": "uint256",
          "name": "val",
          "type": "uint256"
        }
      ],
      "name": "setDevFee",
      "outputs": [
        {
          "internalType": "bool",
          "name": "",
          "type": "bool"
        }
      ],
      "stateMutability": "nonpayable",
      "type": "function"
    },
    {
      "inputs": [
        {
          "internalType": "uint256",
          "name": "_value",
          "type": "uint256"
        }
      ],
      "name": "devFee",
      "outputs": [
        {
          "internalType": "uint256",
          "name": "",
          "type": "uint256"
        }
      ],
      "stateMutability": "view",
      "type": "function"
    },
    {
      "inputs": [
        {
          "internalType": "uint256",
          "name": "_value",
          "type": "uint256"
        },
        {
          "internalType": "uint256",
          "name": "devFeeVal1",
          "type": "uint256"
        }
      ],
      "name": "devFee",
      "outputs": [
        {
          "internalType": "uint256",
          "name": "",
          "type": "uint256"
        }
      ],
      "stateMutability": "pure",
      "type": "function"
    },
    {
      "inputs": [
        {
          "internalType": "string",
          "name": "account",
          "type": "string"
        },
        {
          "internalType": "uint256",
          "name": "amount",
          "type": "uint256"
        }
      ],
      "name": "mintXEQRequest",
      "outputs": [
        {
          "internalType": "bool",
          "name": "",
          "type": "bool"
        },
        {
          "internalType": "uint256",
          "name": "",
          "type": "uint256"
        }
      ],
      "stateMutability": "nonpayable",
      "type": "function"
    },
    {
      "inputs": [
        {
          "internalType": "address",
          "name": "account",
          "type": "address"
        },
        {
          "internalType": "uint256",
          "name": "amount",
          "type": "uint256"
        },
        {
          "internalType": "uint256",
          "name": "swapNum",
          "type": "uint256"
        }
      ],
      "name": "confirmXEQSwap",
      "outputs": [
        {
          "internalType": "bool",
          "name": "",
          "type": "bool"
        }
      ],
      "stateMutability": "nonpayable",
      "type": "function"
    }
  ],
  "bytecode": "0x60806040523480156200001157600080fd5b50604051620023a5380380620023a5833981810160405260808110156200003757600080fd5b8101908080519060200190929190805190602001909291908051906020019092919080519060200190929190505050600062000081620002fc640100000000026401000000009004565b905080600160006101000a81548173ffffffffffffffffffffffffffffffffffffffff021916908373ffffffffffffffffffffffffffffffffffffffff16021790555033600260006101000a81548173ffffffffffffffffffffffffffffffffffffffff021916908373ffffffffffffffffffffffffffffffffffffffff1602179055508073ffffffffffffffffffffffffffffffffffffffff16600073ffffffffffffffffffffffffffffffffffffffff167f8be0079c531659141344cd1fd0a4f28419497f9722a3daafe3b4186f6b6457e060405160405180910390a35083600360006101000a81548173ffffffffffffffffffffffffffffffffffffffff021916908373ffffffffffffffffffffffffffffffffffffffff16021790555082600460006101000a81548173ffffffffffffffffffffffffffffffffffffffff021916908373ffffffffffffffffffffffffffffffffffffffff16021790555081600560006101000a81548173ffffffffffffffffffffffffffffffffffffffff021916908373ffffffffffffffffffffffffffffffffffffffff160217905550336000806101000a81548173ffffffffffffffffffffffffffffffffffffffff021916908373ffffffffffffffffffffffffffffffffffffffff16021790555080600660006101000a81548173ffffffffffffffffffffffffffffffffffffffff021916908373ffffffffffffffffffffffffffffffffffffffff16021790555060006007819055506000600881905550620002cf8162000304640100000000026401000000009004565b6103e8600981905550611388600a81905550610fa0600b819055506032600c819055505050505062000528565b600033905090565b6200031d620002fc640100000000026401000000009004565b73ffffffffffffffffffffffffffffffffffffffff16600160009054906101000a900473ffffffffffffffffffffffffffffffffffffffff1673ffffffffffffffffffffffffffffffffffffffff1614620003e0576040517f08c379a00000000000000000000000000000000000000000000000000000000081526004018080602001828103825260208152602001807f4f776e61626c653a2063616c6c6572206973206e6f7420746865206f776e657281525060200191505060405180910390fd5b600073ffffffffffffffffffffffffffffffffffffffff168173ffffffffffffffffffffffffffffffffffffffff16141562000468576040517f08c379a00000000000000000000000000000000000000000000000000000000081526004018080602001828103825260268152602001806200237f6026913960400191505060405180910390fd5b8073ffffffffffffffffffffffffffffffffffffffff16600160009054906101000a900473ffffffffffffffffffffffffffffffffffffffff1673ffffffffffffffffffffffffffffffffffffffff167f8be0079c531659141344cd1fd0a4f28419497f9722a3daafe3b4186f6b6457e060405160405180910390a380600160006101000a81548173ffffffffffffffffffffffffffffffffffffffff021916908373ffffffffffffffffffffffffffffffffffffffff16021790555050565b611e4780620005386000396000f3fe608060405234801561001057600080fd5b5060043610610133576000357c0100000000000000000000000000000000000000000000000000000000900480638da5cb5b116100bf578063cd446e221161008e578063cd446e22146105ad578063d3bab58f146105e1578063e61fe8bc1461063b578063ecb10135146106a9578063f2fde38b146106c957610133565b80638da5cb5b146104bf578063956dd408146104f35780639f402d1e14610539578063b0cedc391461058f57610133565b8063478c4ca211610106578063478c4ca21461024c578063549a6093146102b0578063617b5a9014610387578063715018a6146103d35780637c193fdd146103dd57610133565b80631c75b6b2146101385780631e2f73b11461017c5780633bc0461a146101b0578063462dcfa0146101f2575b600080fd5b6101646004803603602081101561014e57600080fd5b810190808035906020019092919050505061070d565b60405180821515815260200191505060405180910390f35b61018461073b565b604051808273ffffffffffffffffffffffffffffffffffffffff16815260200191505060405180910390f35b6101dc600480360360208110156101c657600080fd5b8101908080359060200190929190505050610761565b6040518082815260200191505060405180910390f35b6102346004803603602081101561020857600080fd5b81019080803573ffffffffffffffffffffffffffffffffffffffff1690602001909291905050506107c8565b60405180821515815260200191505060405180910390f35b6102986004803603604081101561026257600080fd5b81019080803573ffffffffffffffffffffffffffffffffffffffff169060200190929190803590602001909291905050506108a1565b60405180821515815260200191505060405180910390f35b6102fc600480360360408110156102c657600080fd5b81019080803573ffffffffffffffffffffffffffffffffffffffff16906020019092919080359060200190929190505050610cb1565b60405180841515815260200180602001838152602001828103825284818151815260200191508051906020019080838360005b8381101561034a57808201518184015260208101905061032f565b50505050905090810190601f1680156103775780820380516001836020036101000a031916815260200191505b5094505050505060405180910390f35b6103bd6004803603604081101561039d57600080fd5b810190808035906020019092919080359060200190929190505050610ec1565b6040518082815260200191505060405180910390f35b6103db610f25565b005b6104a0600480360360408110156103f357600080fd5b810190808035906020019064010000000081111561041057600080fd5b82018360208201111561042257600080fd5b8035906020019184600183028401116401000000008311171561044457600080fd5b91908080601f016020809104026020016040519081016040528093929190818152602001838380828437600081840152601f19601f820116905080830192505050505050509192919290803590602001909291905050506110f2565b6040518083151581526020018281526020019250505060405180910390f35b6104c7611464565b604051808273ffffffffffffffffffffffffffffffffffffffff16815260200191505060405180910390f35b6105216004803603602081101561050957600080fd5b8101908080351515906020019092919050505061148e565b60405180821515815260200191505060405180910390f35b6105796004803603606081101561054f57600080fd5b810190808035906020019092919080359060200190929190803590602001909291905050506114c4565b6040518082815260200191505060405180910390f35b6105976114f4565b6040518082815260200191505060405180910390f35b6105b5611501565b604051808273ffffffffffffffffffffffffffffffffffffffff16815260200191505060405180910390f35b610623600480360360208110156105f757600080fd5b81019080803573ffffffffffffffffffffffffffffffffffffffff169060200190929190505050611525565b60405180821515815260200191505060405180910390f35b6106916004803603606081101561065157600080fd5b81019080803573ffffffffffffffffffffffffffffffffffffffff1690602001909291908035906020019092919080359060200190929190505050611582565b60405180821515815260200191505060405180910390f35b6106b1611932565b60405180821515815260200191505060405180910390f35b61070b600480360360208110156106df57600080fd5b81019080803573ffffffffffffffffffffffffffffffffffffffff169060200190929190505050611aa8565b005b6000610717611932565b61072057600080fd5b81600c8190555081600c541461073257fe5b60019050919050565b600260009054906101000a900473ffffffffffffffffffffffffffffffffffffffff1681565b600061078c61271061077e600c5485611cb890919063ffffffff16565b611cf290919063ffffffff16565b82101561079857600080fd5b6107c16127106107b3600c5485611cb890919063ffffffff16565b611cf290919063ffffffff16565b9050919050565b60008060009054906101000a900473ffffffffffffffffffffffffffffffffffffffff1673ffffffffffffffffffffffffffffffffffffffff163373ffffffffffffffffffffffffffffffffffffffff161461082357600080fd5b8173ffffffffffffffffffffffffffffffffffffffff1660008054906101000a9050505060008054906101000a900473ffffffffffffffffffffffffffffffffffffffff1673ffffffffffffffffffffffffffffffffffffffff168273ffffffffffffffffffffffffffffffffffffffff161461089c57fe5b919050565b60006108ab611d18565b73ffffffffffffffffffffffffffffffffffffffff16600160009054906101000a900473ffffffffffffffffffffffffffffffffffffffff1673ffffffffffffffffffffffffffffffffffffffff161461096d576040517f08c379a00000000000000000000000000000000000000000000000000000000081526004018080602001828103825260208152602001807f4f776e61626c653a2063616c6c6572206973206e6f7420746865206f776e657281525060200191505060405180910390fd5b600061097b83600c54610ec1565b9050600061098b82600954610ec1565b9050600061099b83600a54610ec1565b905060006109ab84600b54610ec1565b9050600360009054906101000a900473ffffffffffffffffffffffffffffffffffffffff1673ffffffffffffffffffffffffffffffffffffffff166340c10f19886109ff878a611d2090919063ffffffff16565b6040518363ffffffff167c0100000000000000000000000000000000000000000000000000000000028152600401808373ffffffffffffffffffffffffffffffffffffffff16815260200182815260200192505050600060405180830381600087803b158015610a6e57600080fd5b505af1158015610a82573d6000803e3d6000fd5b50505050600360009054906101000a900473ffffffffffffffffffffffffffffffffffffffff1673ffffffffffffffffffffffffffffffffffffffff166340c10f19610acc611464565b856040518363ffffffff167c0100000000000000000000000000000000000000000000000000000000028152600401808373ffffffffffffffffffffffffffffffffffffffff16815260200182815260200192505050600060405180830381600087803b158015610b3c57600080fd5b505af1158015610b50573d6000803e3d6000fd5b50505050600360009054906101000a900473ffffffffffffffffffffffffffffffffffffffff1673ffffffffffffffffffffffffffffffffffffffff166340c10f19600560009054906101000a900473ffffffffffffffffffffffffffffffffffffffff16836040518363ffffffff167c0100000000000000000000000000000000000000000000000000000000028152600401808373ffffffffffffffffffffffffffffffffffffffff16815260200182815260200192505050600060405180830381600087803b158015610c2557600080fd5b505af1158015610c39573d6000803e3d6000fd5b505050508673ffffffffffffffffffffffffffffffffffffffff167f64c8b8f326ab7e4cec1113f68cba9b5ecf79b0969bc88c16bf22e345177a309b878585856040518085815260200184815260200183815260200182815260200194505050505060405180910390a2600194505050505092915050565b600060606000600e60008673ffffffffffffffffffffffffffffffffffffffff1673ffffffffffffffffffffffffffffffffffffffff168152602001908152602001600020805490508410610d0557600080fd5b601060008673ffffffffffffffffffffffffffffffffffffffff1673ffffffffffffffffffffffffffffffffffffffff1681526020019081526020016000208481548110610d4f57fe5b90600052602060002090602091828204019190069054906101000a900460ff16600f60008773ffffffffffffffffffffffffffffffffffffffff1673ffffffffffffffffffffffffffffffffffffffff1681526020019081526020016000208581548110610db957fe5b90600052602060002001600e60008873ffffffffffffffffffffffffffffffffffffffff1673ffffffffffffffffffffffffffffffffffffffff1681526020019081526020016000208681548110610e0d57fe5b9060005260206000200154818054600181600116156101000203166002900480601f016020809104026020016040519081016040528092919081815260200182805460018160011615610100020316600290048015610ead5780601f10610e8257610100808354040283529160200191610ead565b820191906000526020600020905b815481529060010190602001808311610e9057829003601f168201915b505050505091509250925092509250925092565b6000610eea612710610edc8486611cb890919063ffffffff16565b611cf290919063ffffffff16565b831015610ef657600080fd5b610f1d612710610f0f8486611cb890919063ffffffff16565b611cf290919063ffffffff16565b905092915050565b610f2d611d18565b73ffffffffffffffffffffffffffffffffffffffff16600160009054906101000a900473ffffffffffffffffffffffffffffffffffffffff1673ffffffffffffffffffffffffffffffffffffffff1614610fef576040517f08c379a00000000000000000000000000000000000000000000000000000000081526004018080602001828103825260208152602001807f4f776e61626c653a2063616c6c6572206973206e6f7420746865206f776e657281525060200191505060405180910390fd5b600260009054906101000a900473ffffffffffffffffffffffffffffffffffffffff1673ffffffffffffffffffffffffffffffffffffffff16600160009054906101000a900473ffffffffffffffffffffffffffffffffffffffff1673ffffffffffffffffffffffffffffffffffffffff167f8be0079c531659141344cd1fd0a4f28419497f9722a3daafe3b4186f6b6457e060405160405180910390a3600260009054906101000a900473ffffffffffffffffffffffffffffffffffffffff16600160006101000a81548173ffffffffffffffffffffffffffffffffffffffff021916908373ffffffffffffffffffffffffffffffffffffffff160217905550565b600080601160009054906101000a900460ff1661110e57600080fd5b600360009054906101000a900473ffffffffffffffffffffffffffffffffffffffff1673ffffffffffffffffffffffffffffffffffffffff1663a22b35ce33856040518363ffffffff167c0100000000000000000000000000000000000000000000000000000000028152600401808373ffffffffffffffffffffffffffffffffffffffff16815260200182815260200192505050600060405180830381600087803b1580156111bd57600080fd5b505af11580156111d1573d6000803e3d6000fd5b50505050601060003373ffffffffffffffffffffffffffffffffffffffff1673ffffffffffffffffffffffffffffffffffffffff168152602001908152602001600020600090806001815401808255809150506001900390600052602060002090602091828204019190069091909190916101000a81548160ff021916908315150217905550600e60003373ffffffffffffffffffffffffffffffffffffffff1673ffffffffffffffffffffffffffffffffffffffff168152602001908152602001600020839080600181540180825580915050600190039060005260206000200160009091909190915055600f60003373ffffffffffffffffffffffffffffffffffffffff1673ffffffffffffffffffffffffffffffffffffffff16815260200190815260200160002084908060018154018082558091505060019003906000526020600020016000909190919091509080519060200190611335929190611d40565b50600e60003373ffffffffffffffffffffffffffffffffffffffff1673ffffffffffffffffffffffffffffffffffffffff16815260200190815260200160002080549050601060003373ffffffffffffffffffffffffffffffffffffffff1673ffffffffffffffffffffffffffffffffffffffff16815260200190815260200160002080549050146113c657600080fd5b601060003373ffffffffffffffffffffffffffffffffffffffff1673ffffffffffffffffffffffffffffffffffffffff16815260200190815260200160002080549050600e60003373ffffffffffffffffffffffffffffffffffffffff1673ffffffffffffffffffffffffffffffffffffffff168152602001908152602001600020805490501461145657600080fd5b600183915091509250929050565b6000600160009054906101000a900473ffffffffffffffffffffffffffffffffffffffff16905090565b6000611498611932565b6114a157600080fd5b81601160006101000a81548160ff02191690831515021790555060019050919050565b60006114eb826114dd8587611cb890919063ffffffff16565b611cf290919063ffffffff16565b90509392505050565b6000600d80549050905090565b60008054906101000a900473ffffffffffffffffffffffffffffffffffffffff1681565b600061152f611932565b61153857600080fd5b81600660006101000a81548173ffffffffffffffffffffffffffffffffffffffff021916908373ffffffffffffffffffffffffffffffffffffffff16021790555060019050919050565b600061158c611d18565b73ffffffffffffffffffffffffffffffffffffffff16600160009054906101000a900473ffffffffffffffffffffffffffffffffffffffff1673ffffffffffffffffffffffffffffffffffffffff161461164e576040517f08c379a00000000000000000000000000000000000000000000000000000000081526004018080602001828103825260208152602001807f4f776e61626c653a2063616c6c6572206973206e6f7420746865206f776e657281525060200191505060405180910390fd5b816116a56001601060008873ffffffffffffffffffffffffffffffffffffffff1673ffffffffffffffffffffffffffffffffffffffff16815260200190815260200160002080549050611d2090919063ffffffff16565b10156116b057600080fd5b600e60008573ffffffffffffffffffffffffffffffffffffffff1673ffffffffffffffffffffffffffffffffffffffff16815260200190815260200160002082815481106116fa57fe5b9060005260206000200154831461171057600080fd5b6001601060008673ffffffffffffffffffffffffffffffffffffffff1673ffffffffffffffffffffffffffffffffffffffff168152602001908152602001600020838154811061175c57fe5b90600052602060002090602091828204019190066101000a81548160ff0219169083151502179055506000805b601060008773ffffffffffffffffffffffffffffffffffffffff1673ffffffffffffffffffffffffffffffffffffffff1681526020019081526020016000208054905081101561185757601060008773ffffffffffffffffffffffffffffffffffffffff1673ffffffffffffffffffffffffffffffffffffffff168152602001908152602001600020818154811061181d57fe5b90600052602060002090602091828204019190069054906101000a900460ff1661184a5760019150611857565b8080600101915050611789565b50806119265760005b600d80549050811015611924578573ffffffffffffffffffffffffffffffffffffffff16600d828154811061189157fe5b9060005260206000200160009054906101000a900473ffffffffffffffffffffffffffffffffffffffff1673ffffffffffffffffffffffffffffffffffffffff16141561191757600d81815481106118e557fe5b9060005260206000200160006101000a81549073ffffffffffffffffffffffffffffffffffffffff0219169055611924565b8080600101915050611860565b505b60019150509392505050565b6000806040516024016040516020818303038152906040527fecb10135000000000000000000000000000000000000000000000000000000007bffffffffffffffffffffffffffffffffffffffffffffffffffffffff19166020820180517bffffffffffffffffffffffffffffffffffffffffffffffffffffffff8381831617835250505050905060008060008054906101000a900473ffffffffffffffffffffffffffffffffffffffff1673ffffffffffffffffffffffffffffffffffffffff16836040518082805190602001908083835b60208310611a285780518252602082019150602081019050602083039250611a05565b6001836020036101000a0380198251168184511680821785525050505050509050019150506000604051808303816000865af19150503d8060008114611a8a576040519150601f19603f3d011682016040523d82523d6000602084013e611a8f565b606091505b509150915081611a9e57600080fd5b6001935050505090565b611ab0611d18565b73ffffffffffffffffffffffffffffffffffffffff16600160009054906101000a900473ffffffffffffffffffffffffffffffffffffffff1673ffffffffffffffffffffffffffffffffffffffff1614611b72576040517f08c379a00000000000000000000000000000000000000000000000000000000081526004018080602001828103825260208152602001807f4f776e61626c653a2063616c6c6572206973206e6f7420746865206f776e657281525060200191505060405180910390fd5b600073ffffffffffffffffffffffffffffffffffffffff168173ffffffffffffffffffffffffffffffffffffffff161415611bf8576040517f08c379a0000000000000000000000000000000000000000000000000000000008152600401808060200182810382526026815260200180611dec6026913960400191505060405180910390fd5b8073ffffffffffffffffffffffffffffffffffffffff16600160009054906101000a900473ffffffffffffffffffffffffffffffffffffffff1673ffffffffffffffffffffffffffffffffffffffff167f8be0079c531659141344cd1fd0a4f28419497f9722a3daafe3b4186f6b6457e060405160405180910390a380600160006101000a81548173ffffffffffffffffffffffffffffffffffffffff021916908373ffffffffffffffffffffffffffffffffffffffff16021790555050565b600080831415611ccb5760009050611cec565b6000828402905082848281611cdc57fe5b0414611ce757600080fd5b809150505b92915050565b6000808211611d0057600080fd5b6000828481611d0b57fe5b0490508091505092915050565b600033905090565b600082821115611d2f57600080fd5b600082840390508091505092915050565b828054600181600116156101000203166002900490600052602060002090601f016020900481019282611d765760008555611dbd565b82601f10611d8f57805160ff1916838001178555611dbd565b82800160010185558215611dbd579182015b82811115611dbc578251825591602001919060010190611da1565b5b509050611dca9190611dce565b5090565b5b80821115611de7576000816000905550600101611dcf565b509056fe4f776e61626c653a206e6577206f776e657220697320746865207a65726f2061646472657373a2646970667358221220562f7500017ba9009c32c8b571bf44a7c0434ad738e586b293a46a0b9540f3c964736f6c634300070600334f776e61626c653a206e6577206f776e657220697320746865207a65726f2061646472657373",
  "immutableReferences": {},
  "source": "// SPDX-License-Identifier: MIT\npragma solidity >=0.4.22 <0.8.0;\n\nimport \"./tools/ExternalAccessible.sol\";\nimport \"./tools/Ownable.sol\";\nimport \"./tools/SafeMath.sol\";\nimport \"./oracle/OracleMaster.sol\";\nimport \"./wXEQ.sol\";\nimport \"./wXEQStaking.sol\";\n\ncontract XEQSwaps is ExternalAccessible, Ownable {\n    using SafeMath for *;\n    \n    wXEQ wXEQContract;\n    DataStorage dataStorage;\n    SoftStaking stakingPool;\n    OracleMaster oracleContract;\n    \n    uint256 wXEQMinted;\n    uint256 XEQMinted;\n    uint256 teamAmount;\n    uint256 burntAmount;\n    uint256 stakePoolAmount;\n    uint256 devFeePercent;\n\n    address[] mintXEQBatchList;\n    mapping(address => uint256[]) amountToMint;\n    mapping(address => string[]) xeqAddress;\n    mapping(address => bool[]) swapComplete;\n    bool swapBacks;\n    \n    constructor(address w, address d, address s, address o) {\n        wXEQContract = wXEQ(w);\n        dataStorage = DataStorage(d);\n        stakingPool = SoftStaking(s);\n        masterContract = msg.sender;\n        oracleContract = OracleMaster(o);\n        wXEQMinted = 0;\n        XEQMinted = 0;\n        transferOwnership(o);\n        teamAmount = 1000;\n        burntAmount = 5000;\n        stakePoolAmount = 4000;\n        devFeePercent = 50;\n    }\n    \n    event NewMint(address indexed account, uint256 amount, uint256 devFee, uint256 amountBurnt, uint256 amountForStakePool);\n\n    function getXEQBatchLen() public view returns (uint256) {\n        return mintXEQBatchList.length;\n    }\n    \n    function acitvateSwapBack(bool setting) public hasAccess returns (bool) {\n        swapBacks = setting;\n        return true;\n    }\n    \n    function checkBatchAccount(address account, uint256 index) public view returns (bool status, string memory XEQAddress, uint256 amount) {\n        require(index < amountToMint[account].length);\n        return (swapComplete[account][index], xeqAddress[account][index], amountToMint[account][index]);\n    }\n    \n    function updateOracleContract(address cont) public hasAccess returns (bool) {\n        oracleContract = OracleMaster(cont);\n        return true;\n    }\n    \n    function devFee(uint256 _value, uint256 devFeeVal1) public pure returns (uint256) {\n        require(_value >= ((_value.mul(devFeeVal1)).div(10000)));\n        return ((_value.mul(devFeeVal1)).div(10000));\n    }\n    \n    function mintwXEQ(address account, uint256 amount) public onlyOwner returns (bool) {\n        uint256 fee = devFee(amount, devFeePercent);\n        uint256 teamFee = devFee(fee, teamAmount);\n        uint256 burnt = devFee(fee, burntAmount);\n        uint256 stakeAmount = devFee(fee, stakePoolAmount);\n        wXEQContract.mint(account, amount.sub(fee));\n        wXEQContract.mint(owner(), teamFee);\n        wXEQContract.mint(address(stakingPool), stakeAmount);\n        emit NewMint(account, amount, teamFee, burnt, stakeAmount);\n        return true;\n    }\n    \n    function testDevFeeVals(uint256 _value, uint256 val1, uint256 val2) public pure returns (uint256) {\n        return (_value.mul(val1)).div(val2);\n    }\n    \n    function setDevFee(uint256 val) public hasAccess returns (bool) {\n        devFeePercent = val;\n        assert(devFeePercent == val);\n        return true;\n    }\n    \n    function devFee(uint _value) public view returns (uint256) {\n        require(_value >= ((_value.mul(devFeePercent)).div(10000)));\n        return ((_value.mul(devFeePercent)).div(10000));\n    }\n    \n    function mintXEQRequest(string memory account, uint256 amount) public returns (bool, uint256) {\n        require(swapBacks);\n        wXEQContract._burnFrom(msg.sender, amount);\n        swapComplete[msg.sender].push(false);\n        amountToMint[msg.sender].push(amount);\n        xeqAddress[msg.sender].push(account);\n        require(swapComplete[msg.sender].length == amountToMint[msg.sender].length);\n        require(amountToMint[msg.sender].length == swapComplete[msg.sender].length);\n        return (true, amount);\n    }\n    \n    function confirmXEQSwap(address account, uint256 amount, uint256 swapNum) public onlyOwner returns (bool) {\n        require(swapComplete[account].length.sub(1) >= swapNum);\n        require(amount == amountToMint[account][swapNum]);\n        swapComplete[account][swapNum] = true;\n        bool check = false;\n        for (uint i = 0; i < swapComplete[account].length; i++) {\n            if (!swapComplete[account][i]) {\n                check = true;\n                break;\n            }\n        }\n        if (!check) {\n            for (uint k = 0; k < mintXEQBatchList.length; k++) {\n                if (mintXEQBatchList[k] == account) {\n                    delete mintXEQBatchList[k];\n                    break;\n                }\n            }\n        }\n        return true;\n    }\n}",
  "sourcePath": "D:\\testwxeqfront\\drizzle-react-tutorial\\contracts\\wXEQSwaps.sol",
  "compiler": {
    "name": "solc",
    "version": "0.7.6+commit.7338295f.Emscripten.clang"
  },
  "schemaVersion": "3.3.3",
  "updatedAt": "2021-01-07T02:06:52.392Z",
  "devdoc": {
    "kind": "dev",
    "methods": {},
    "version": 1
  },
  "userdoc": {
    "kind": "user",
    "methods": {},
    "version": 1
  }
}